:020000040800F2
:10000000000002209901000845790008658D00086C
:10001000457900084579000845790008000000008E
:10002000000000000000000000000000457900080A
:10003000457900080000000045790008457900086E
:100040004579000845790008457900084579000898
:100050004579000845790008457900084579000888
:100060004579000845790008457900084579000878
:100070004579000845790008457900084579000868
:10008000457900084579000845790008000000001E
:10009000000000000000000000000000457900089A
:1000A0004579000845790008457900084579000838
:1000B0004579000845790008457900084579000828
:1000C0004579000845790008457900084579000818
:1000D00045790008457900084579000800000000CE
:1000E00045790008457900084579000800000000BE
:1000F000000000000000000000000000457900083A
:10010000000000004579000845790008457900089D
:1001100000000000000000000000000000000000DF
:1001200045790008457900084579000845790008B7
:1001300045790008000000000000000000000000F9
:1001400000000000000000000000000045790008E9
:100150004579000845790008457900084579000887
:100160004579000845790008000000000000000003
:10017000000000000000000000000000000000007F
:1001800000000000457900080000000000000000A9
:080190004579000845790008DB
:1001980007F0D7FB0E480F490022814201D004C066
:1001A800FBE70D480D490E4A814202D008CA08C033
:1001B800FAE70C484FF47001026842EA0102026053
:1001C800BFF34F8FBFF36F8F02F0CBFE00DE00004E
:1001D8000000002004100020000000200000002083
:1001E80064A0000888ED00E0D0B502AF01880629B8
:1001F80017D181690968BFF35F8F01B390F91E2099
:10020800B2F1FF3F0BDCD2B202F07F02032A06D81C
:1002180002EB420201EB82010A79072A03D1052089
:10022800D0BD0720D0BD044608460121002206F0B3
:100238003DFDC0B2082804BF08202080D0BD49F287
:10024800704049F29442C0F60000C0F60002222134
:1002580008F0D2FAF0B503AF4DF8048D86B00A88DD
:10026800531E032B54D3052A52D0072A78D1D1F82C
:10027800AC50D1F806604A89802DD1F80230ADF82B
:100288000C20CDE9013600F2ED80CA681268BFF390
:100298005F8F002A00F0DB808B7C032B08D8C3EB30
:1002A800C30302EB830494F87020072A40F0A2806D
:1002B8000E4640F20151ADF810109DF811100029BA
:1002C80048D0F168092232800968BFF35F8F00299E
:1002D80000F0BD80B17C11F07C0F06D104464FF0D0
:1002E800A040012206F0D7FE2046B1690968BFF395
:1002F8005F8F002900F0AB80B17F11F07C0F29D10E
:1003080004464FF0A040012206F0C5FE204621E039
:10031800CA681268BFF35F8F002A00F098808B7C50
:10032800032B2ED8C3EBC30302EB830292F8703081
:10033800072B26D00C4602F16C0104AA06460023BE
:1003480000251046012206F0BBFD9DF8101030462E
:10035800D1B925800421417206B05DF8048BF0BD47
:10036800CA681268BFF35F8F002A70D08B7C032B9A
:1003780007D8C3EBC30302EB830292F87030072B54
:100388000BD105218DF811109DF81110052242722C
:10039800017006B05DF8048BF0BD0D4602F16C01EA
:1003A80004AA044600231046012206F089FD9DF8A0
:1003B800101020460029E7D1E96809232B80096835
:1003C800BFF35F8F002942D0A97C2A4611F07C0F29
:1003D80006D14FF0A040012206F05DFE2A462046D5
:1003E80091690968BFF35F8F89B3917F11F07C0F22
:1003F800B0D186E70E46294401F1240204F16C01CC
:1004080004ACC5F180038046204606F059FD9DF8EE
:100418001010404600297FF450AF059A5119A9429F
:1004280029D3812927D2D6E92B131144C6F8AC1059
:1004380099428FD3DDE901120625BDF80C303580CD
:1004480001604260038106B05DF8048BF0BD49F29B
:10045800704049F29442C0F60000C0F60002222122
:1004680008F0CAF949F210432846C0F60003802173
:10047800802208F011F949F200432846C0F600032B
:10048800802208F009F9F0B503AF2DE9000F83B019
:100498000446C8680068BFF35F8F002800F08580B5
:1004A8008A7C032A21D8C2EBC20200EB820090F8B2
:1004B8007020072A19D000F16C0201F124050E46BC
:1004C800684611462A46802306F0FAFC9DF800008B
:1004D80001280AD0019A812A72D26846294607F073
:1004E800E9F99DF80900042805D10420607203B0D9
:1004F800BDE8000FF0BDF168BDF808A09DF80750F1
:100508009DF80690BDF804B0DDF800800968BFF3D7
:100518005F8F002949D0B17C304611F07C0F05D19E
:100528004FF0A040002206F0B6FD3046BDB10421D0
:10053800A0F80AA0457280F80890A0F806B0C0F8A4
:1005480002800180A4F808A0E57184F80690A4F858
:1005580004B0C4F8008003B0BDE8000FF0BDBBF1E3
:10056800000F11D0BBF1800FBFD80021A0F80AA05E
:10057800C0E92B1B4172072180F80890A0F806B04B
:10058800C0F802800180B0E70621A4F808A0018025
:100598000021C0F8B010E17184F80690A180C4F879
:1005A800008003B0BDE8000FF0BD49F2704049F289
:1005B8009442C0F60000C0F60002222108F01CF99F
:1005C80049F220431146C0F600030020802208F0BB
:1005D80063F8F0B503AF4DF804BD0246D0E92934FD
:1005E800D0F8AC00D2F8B010002B958B08BF80244F
:1005F800091AA94238BF0D46291844D2A14242D847
:1006080091690968BFF35F8F002943D092F91E6092
:10061800002B08BF02F12403B6F1FF3F0CDCF6B251
:1006280006F07F06032E07D806EB460601EB860C7C
:100638009CF80410072903D105205DF804BBF0BD20
:100648001918164660462A4606F030FBC0B208283C
:1006580016D1D6F8AC00411927D2A14225D8D6F830
:10066800B0003246C6F8AC10814208D30020918B06
:10067800C2F8A40003208D4208BF02201080082081
:100688005DF804BBF0BD49F240432246C0F60003C2
:1006980008F002F849F2704049F29442C0F60000AE
:1006A800C0F60002222108F0A7F849F2304322469A
:1006B800C0F6000307F0F0FFB0B502AF01884B1E8B
:1006C8000021072B42D80022DFE803F004230E3E66
:1006D8003E3E3E3CFFF77DFFC1B2B1F108020CBFC0
:1006E800114601221046B0BDC1680968BFF35F8F8B
:1006F80000293ED0817C11F07C0F05D104464FF0D3
:10070800A04006F0C8FC20460521018000210020F9
:10071800B0BD81690968BFF35F8F51B390F91E209E
:10072800B2F1FF3F0BDCD2B202F07F02032A06D8F7
:1007380002EB420201EB82010A79072A08D1012063
:100748000521B0BD012102801046B0BD0020B0BD1A
:100758000446084601210022012506F0A7FAC1B285
:10076800082904D10320208000210020B0BD28469C
:10077800B0BD49F2704049F29442C0F60000C0F69C
:100788000002222108F038F8F0B503AF2DE9000B7C
:100798008CB00C460188042953D1B0F806908046E5
:1007A8002430059001A80B9009A800211546802245
:1007B800079106928DF8201003910191099107F095
:1007C8000CF8C0B2082838D16DB104EBC50609ADE4
:1007D800D4E900010A6929469047C1B208292CD1F9
:1007E8000834B442F4D109A807F050F807998029D1
:1007F8002CD9D8F80C100922A8F800200968BFF3F2
:100808005F8FA1B398F81210404611F07C0F05D104
:100818004FF0A040012206F03EFC4046816909687D
:10082800BFF35F8F19B3817F11F07C0F04D14FF0B4
:10083800A040012206F02FFC02200CB0BDE8000BFE
:10084800F0BD07200CB0BDE8000BF0BD0123404609
:100858000022A8F80030494538BF8946C0E92B294D
:10086800FFF7B7FEC0B20CB0BDE8000BF0BD49F20F
:10087800704049F29442C0F60000C0F600022221FE
:1008880007F0BAFFB0B502AF88B00288042A39D1A0
:100898008024D1E9001205940446C5882430002339
:1008A8000490684606938DF81C300293009306F076
:1008B80068FEC0B2082823D10699802925D9E168A5
:1008C800092222800968BFF35F8F61B3A17C2046AB
:1008D80011F07C0F05D14FF0A040012206F0DBFBA0
:1008E800204681690968BFF35F8FE1B1817F11F00C
:1008F8007C0F04D14FF0A040012206F0CCFB02206F
:1009080008B0B0BD072008B0B0BD012320460022C2
:100918002380A94238BF0D46C0E92B25FFF759FEB1
:10092800C0B208B0B0BD49F2704049F29442C0F676
:100938000000C0F60002222107F05EFFB0B502AF4A
:1009480088B08C460188042940D111688023C58865
:100958000022059300F12403D1F8C01104930692F4
:100968004B00212B8DF81C20029200923FD20446A6
:1009780068460321624606F00EFDC0B2082823D15E
:100988000699802925D9E168092222800968BFF3E0
:100998005F8FB1B3A17C204611F07C0F05D14FF0D9
:1009A800A040012206F077FB204681690968BFF361
:1009B8005F8F31B3817F11F07C0F04D14FF0A040DD
:1009C800012206F068FB022008B0B0BD072008B07D
:1009D800B0BD0123204600222380A94238BF0D461E
:1009E800C0E92B25FFF7F5FDC0B208B0B0BD49F24C
:1009F800604C0020C0F6000C19462022634607F020
:100A08004BFE49F2704049F29442C0F60000C0F62D
:100A18000002222107F0F0FEF0B503AF2DE9000730
:100A280088B00288042A57D1D1E9002580238C6830
:100A38000021B0F80690804624300490069168465C
:100A480005938DF81C1002910091116806F04BFB7C
:100A5800C0B208283CD18CB105EBC4066C464FF0F7
:100A6800000AD5E90001CA6821469047C1B20829A1
:100A78002ED10835CDF808A0B542F2D1684606F067
:100A88001AFC069980292CD9D8F80C100922A8F844
:100A980000200968BFF35F8FA1B398F81210404691
:100AA80011F07C0F05D14FF0A040012206F0F3FAB7
:100AB800404681690968BFF35F8F19B3817F11F0E0
:100AC8007C0F04D14FF0A040012206F0E4FA022086
:100AD80008B0BDE80007F0BD072008B0BDE8000772
:100AE800F0BD012340460022A8F80030494538BF30
:100AF8008946C0E92B29FFF76CFDC0B208B0BDE8F4
:100B08000007F0BD49F2704049F29442C0F6000077
:100B1800C0F60002222107F06FFEF0B503AF4DF8D2
:100B280004BD0288042A06D14C68802C07D902200B
:100B38005DF804BBF0BD07205DF804BBF0BD096893
:100B480000F12402C68805461046224608F098F8A7
:100B58000020B44238BF2646C5E92B06012028806C
:100B680028465DF804BBBDE8F040FFF732BDB0B5DC
:100B780002AF88B00288042A38D109680446C588BB
:100B880024300022802304906846069205938DF84D
:100B98001C200292009206F04DFCC0B2082823D116
:100BA8000699802925D9E168092222800968BFF3BE
:100BB8005F8F61B3A17C204611F07C0F05D14FF007
:100BC800A040012206F067FA204681690968BFF350
:100BD8005F8FE1B1817F11F07C0F04D14FF0A0400D
:100BE800012206F058FA022008B0B0BD072008B06C
:100BF800B0BD0123204600222380A94238BF0D46FC
:100C0800C0E92B25FFF7E5FCC0B208B0B0BD49F23A
:100C1800704049F29442C0F60000C0F6000222215A
:100C280007F0EAFDD0B502AFC16809220280096861
:100C3800BFF35F8FD9B1817C11F07C0F06D10446D8
:100C48004FF0A040012206F026FA20468169096883
:100C5800BFF35F8F59B1817F11F07C0F18BFD0BDF2
:100C68004FF0A0400122BDE8D04006F014BA49F286
:100C7800704049F29442C0F60000C0F600022221FA
:100C880007F0BAFD80B56F460830BDE8804004F033
:100C98003FBE80B56F460830BDE8804004F0A0BE76
:100CA800D0B502AF88B090F84620C9B2914218D1A9
:100CB80000F10801CDE90010D0E90021D0E956344F
:100CC800022A18BF00219C4202910CD1F1B1016C9B
:100CD8000968BFF35F8FA9B390F94600B0F1FF3FF1
:100CE80018DD08B0D0BD02AB079301AB06936B4685
:100CF800028F0593092988BF013A00F1D80103A89A
:100D080005AB92B204F06EF908B0D0BD00210160C5
:100D180008B0D0BDC0B200F07F000328E1D800EBD6
:100D2800400001EB800001790729DAD00121002277
:100D3800012405F0BBFFC0B2082804BF0198046075
:100D480008B0D0BD49F2704049F29442C0F60000A4
:100D5800C0F60002222107F04FFD80B56F4608302B
:100D6800BDE8804004F0E1BE80B56F46002080BD3C
:100D780080B56F4680BD80B56F46002080BD80B5C8
:100D88006F46002080BD80B56F46082080BD80B5C5
:100D98006F4680BD80B56F46024640695FFA81FCA8
:100DA80020B1117C614504BF916980BD107FD2E9F3
:100DB8000831C0B26045184618BF0020002B08BF94
:100DC800184680BD80B56F460822002182814FF405
:100DD8001652C0E95611C0E93411A0F84E108173BB
:100DE8008260016080BD80B56F4600F00100BDE8FB
:100DF800804006F08ABD80B56F46ADF5206D06F0DF
:100E080079FD41F20001C2F200010A78002A40F09F
:100E1800C78101220A7006F078FD06F08CFD0446B1
:100E280006F07CFD41F20100E207C2F20000017801
:100E380008D161B106F074FD49F2C440C0F6000063
:100E480007F093FC0029F7D10121017003E001218B
:100E5800017006F065FD1CAC342104F1080007F0B0
:100E6800B8FE46F600404FF00108C0F2DC2012AD93
:100E7800CDE9248047F64000C0F27D102146CDE937
:100E88001C8028468DF8A98004F01EFF4EF2100041
:100E9800CEF20000016821F0040101601698C00834
:100EA8002B9005F1280004F015FF40F2100B0DF10E
:100EB800B009C4F2020B00265BF8040C68F30100C9
:100EC8004BF8040C5BF8040C68F383004BF8040C33
:100ED8005BF8040C68F305104BF8040C5BF8040C81
:100EE80068F387104BF8040C5BF8040C68F30920CE
:100EF8004BF8040C4FF40010CBF808005BF80C1CFE
:100F080021F020014BF80C1C5BF8101C68F38B21B6
:100F18004BF8101C4FF48001CBF808105BF80C2C30
:100F280022F040024BF80C2C5BF8102C68F30D32C1
:100F38004BF8102C4FF40002CBF808205BF80C3C5F
:100F480023F080034BF80C3C5BF8103C68F38F33BC
:100F58004BF8103CCBF808004523CBF808100A21C1
:100F6800CBF8082002225BF80C0C20F400604BF848
:100F78000C0CDBF8140061F30F30CBF814005BF8AD
:100F8800100C62F397504BF8100C5BF80C0C20F423
:100F980080504BF80C0CDBF8140061F31340CBF8CD
:100FA80014005BF8100C169962F319604BF8100CDA
:100FB8004FF0A04049F2D442CDE9931040F200012D
:100FC8004FF48060C2F20001899107218A90C0F62F
:100FD8000002ADF8B40096A88DF80C128DF8F01147
:100FE8008DF8D4118DF8B8118DF89C118DF88011F9
:100FF8008DF864118DF848118DF82C118DF8201199
:101008008DF814118DF808118DF8FC108DF8F0107A
:101018008DF8E4108DF8D8108DF8CC108DF8C0102C
:101028004946ADF84462CDE98F66CDE98D6695965F
:10103800ADF84862CDE98B662E962C96CDF80080E7
:1010480004F0B9F90DF58D6549464022002328467C
:10105800019604F03AF8C2AC294604F10800482287
:1010680007F0F6FB04F150004FF48871C29607F0C0
:10107800B0FD0DF5FA654FF4D27105F11C0007F0CB
:10108800A8FD32200424C0F200104946CDF8A0097A
:1010980040F2EF20C0F601002A46CDF89C09102046
:1010A800C0F21020CDF89089CDF8980941F2C060BF
:1010B800C2F2DA70CDF8D447CDF8940940F209406D
:1010C800CDF8E8070C20CDF8E40749F21950C0F62E
:1010D8000000CDF8E0070F20CDF8DC0749F22550D5
:1010E800C0F60000CDF8D80749F23850C0F6000025
:1010F800CDF8D0070DF58D6003F018FE0DF2FC65F4
:1011080049F23C51C0F60001C322284607F0A0FB73
:101118009DF8080705218DF84B170B210B288DF832
:10112800FD4607F80C1C5BD09DF815070B2801D16C
:101138000D3555E09DF822070B2801D11A354FE0EF
:101148009DF82F070B2801D1273549E09DF83C076A
:101158000B2801D1343543E09DF849070B2801D10C
:1011680041353DE09DF856070B2801D14E3537E053
:101178009DF863070B2801D15B3531E09DF87007B6
:101188000B2801D168352BE09DF87D070B2801D18C
:10119800753525E09DF88A070B2809D182351FE0AF
:1011A800FFF721FE49F27860C0F6000007F0DDFA8B
:1011B8009DF897070B2801D18F3511E09DF8A407FA
:1011C8000B2801D19C350BE09DF8B1070B2801D104
:1011D800A93505E09DF8BE070B2841F0AC86B63569
:1011E80006200DF2FC6168709DF808078DF8C86745
:1011F8000128CDF8C467CDF8C0678DF8CF678DF8A2
:10120800CE678DF8CD678DF8CC678DF8CB678DF8F4
:10121800CA6707F80C8C53D09DF81527012A01D10D
:101228000D314DE09DF82227012A01D11A3147E0FE
:101238009DF82F27012A01D1273141E09DF83C274D
:10124800012A01D134313BE09DF84927012A01D117
:10125800413135E09DF85627012A01D14E312FE062
:101268009DF86327012A01D15B3129E09DF8702799
:10127800012A01D1683123E09DF87D27012A01D197
:1012880075311DE09DF88A27012A01D1823117E0C6
:101298009DF89727012A01D18F3111E09DF8A427E5
:1012A800012A01D19C310BE09DF8B127012A01D117
:1012B800A93105E09DF8BE27012A41F02686B631FE
:1012C80049780722002918BF8DF8CF1707F80C2C8A
:1012D8000DF2FC62072853D09DF81537072B01D172
:1012E8000D324DE09DF82237072B01D11A3247E025
:1012F8009DF82F37072B01D1273241E09DF83C3765
:10130800072B01D134323BE09DF84937072B01D137
:10131800413235E09DF85637072B01D14E322FE088
:101328009DF86337072B01D15B3229E09DF87037B0
:10133800072B01D1683223E09DF87D37072B01D1B7
:1013480075321DE09DF88A37072B01D1823217E0EC
:101358009DF89737072B01D18F3211E09DF8A437FC
:10136800072B01D19C320BE09DF8B137072B01D137
:10137800A93205E09DF8BE37072B41F0C685B63285
:101388005278002A18BF914207D00DF2CE760DF29E
:10139800CF73002908BF1E4632700B210B2807F8AF
:1013A8000C1C0DF2FC61084661D09DF815070B284E
:1013B80002D101F10D005AE09DF822070B2802D155
:1013C80001F11A0053E09DF82F070B2802D101F113
:1013D80027004CE09DF83C070B2802D101F13400AE
:1013E80045E09DF849070B2802D101F141003EE094
:1013F8009DF856070B2802D101F14E0037E09DF801
:1014080063070B2802D101F15B0030E09DF87007FB
:101418000B2802D101F1680029E09DF87D070B280F
:1014280002D101F1750022E09DF88A070B2802D14C
:1014380001F182001BE09DF897070B2802D101F10A
:101448008F0014E09DF8A4070B2802D101F19C003D
:101458000DE09DF8B1070B2802D101F1A90006E0C3
:101468009DF8BE070B2841F0508501F1B600407881
:101478000DF5F86203320E9240B19DF8CF278242F3
:101488001CBF9DF8CE37834241F03085A7F15C0040
:1014980001F11A0802300D9001F1B600049001F133
:1014A800A900059001F19C00069001F18F000790BA
:1014B80001F18200089001F17500099001F16800BE
:1014C8000A9001F15B000B9001F14E000C9001F1C4
:1014D800410001F10D0A0F9001F134004FF00009AD
:1014E8008025109001F12700119006E0002801F0F6
:1014F80091832BA80A2104F0AAFB49F23C60A7F1CA
:101508005C01C0F60000022247F8500CC2A847F858
:10151800540C49F20060C0F6000047F8580C96A831
:1015280047F85C0C0DF58D6003F0CEFA4FF400100F
:10153800CBF80800DBF800109DF80807C90758D158
:101548000121012807F80C1C02D10DF2FC6146E0CC
:101558009DF815170129514641D09DF822170129F8
:1015680041463CD09DF82F170129119937D09DF895
:101578003C170129109932D09DF8491701290F9974
:101588002DD09DF8561701290C9928D09DF863177E
:1015980001290B9923D09DF8701701290A991ED0AB
:1015A8009DF87D170129099919D09DF88A170129F5
:1015B800089914D09DF89717012907990FD09DF81D
:1015C800A417012906990AD09DF8B1170129059990
:1015D80005D09DF8BE170129049941F096844978F1
:1015E80039B19DF8CF278A421CBF9DF8CE378B4270
:1015F8006FD1DBF80010C90700F0AE800121012887
:1016080007F80C1C02D10DF2FC6146E09DF8151795
:101618000129514641D09DF82217012941463CD065
:101628009DF82F170129119937D09DF83C170129EA
:10163800109932D09DF8491701290F992DD09DF89E
:10164800561701290C9928D09DF8631701290B9981
:1016580023D09DF8701701290A991ED09DF87D178F
:101668000129099919D09DF88A170129089914D0D8
:101678009DF89717012907990FD09DF8A4170129FC
:1016880006990AD09DF8B1170129059905D09DF84A
:10169800BE170129049941F0388449789DF8CF276D
:1016A8008A4204D10DF2CF7181F8009054E09DF880
:1016B800CE278A4204D10DF2CE7181F800904BE01A
:1016C8009DF8CD278A422DD10DF2CD7181F8009079
:1016D80042E09DF8CD678E421CBF9DF8CC478C42F6
:1016E8003FF487AF9DF8CBC78C451CBF9DF8CAE770
:1016F8008E453FF47EAF002A01F0E082002B01F016
:101708000C83002E01F03883002C01F06483BCF1B7
:10171800000F01F08F83BEF1000F04BF0DF2CA72F3
:10172800117066E79DF8CC278A4204D10DF2CC717E
:1017380081F8009010E09DF8CB278A4204D10DF281
:10174800CB7181F8009007E09DF8CA278A4204BF50
:101758000DF2CA7181F80090DBF8002002210228FE
:1017680007F80C1C02D10DF2FC6146E09DF8151734
:101778000229514641D09DF82217022941463CD002
:101788009DF82F170229119937D09DF83C17022987
:10179800109932D09DF8491702290F992DD09DF83C
:1017A800561702290C9928D09DF8631702290B991E
:1017B80023D09DF8701702290A991ED09DF87D172D
:1017C8000229099919D09DF88A170229089914D075
:1017D8009DF89717022907990FD09DF8A417022999
:1017E80006990AD09DF8B1170229059905D09DF8E8
:1017F800BE170229049941F088834978920730D4AA
:10180800002963D09DF8CF278A421CBF9DF8CE37A8
:101818008B425BD09DF8CD678E421CBF9DF8CC47AC
:101828008C4253D09DF8CBC78C451CBF9DF8CAE7A6
:101838008E454BD0002A01F04682002B01F07282BF
:10184800002E01F09E82002C01F0CA82BCF1000F2C
:1018580001F0F582BEF1000F38D10DF2CA7201F025
:10186800F0BA9DF8CF278A4204D10DF2CF7181F8E2
:1018780000902BE09DF8CE278A4204D10DF2CE715C
:1018880081F8009022E09DF8CD278A4204D10DF21C
:10189800CD7181F8009019E09DF8CC278A4204D1D7
:1018A8000DF2CC7181F8009010E09DF8CB278A42A8
:1018B80004D10DF2CB7181F8009007E09DF8CA279A
:1018C8008A4204BF0DF2CA7181F80090DBF800204B
:1018D8000321032807F80C1C02D10DF2FC6146E035
:1018E8009DF815170329514641D09DF82217032961
:1018F80041463CD09DF82F170329119937D09DF800
:101908003C170329109932D09DF8491703290F99DC
:101918002DD09DF8561703290C9928D09DF86317E8
:1019280003290B9923D09DF8701703290A991ED013
:101938009DF87D170329099919D09DF88A1703295D
:10194800089914D09DF89717032907990FD09DF887
:10195800A417032906990AD09DF8B11703290599F8
:1019680005D09DF8BE170329049941F0CE82497825
:10197800520730D4002963D09DF8CF278A421CBF74
:101988009DF8CE378B425BD09DF8CD678E421CBF49
:101998009DF8CC478C4253D09DF8CBC78C451CBFD3
:1019A8009DF8CAE78E454BD0002A01F08F81002BA5
:1019B80001F0BB81002E01F0E781002C01F01382B9
:1019C800BCF1000F01F04082BEF1000F38D10DF2DA
:1019D800CA7201F03BBA9DF8CF278A4204D10DF2B2
:1019E800CF7181F800902BE09DF8CE278A4204D170
:1019F8000DF2CE7181F8009022E09DF8CD278A4241
:101A080004D10DF2CD7181F8009019E09DF8CC2732
:101A18008A4204D10DF2CC7181F8009010E09DF853
:101A2800CB278A4204D10DF2CB7181F8009007E0F0
:101A38009DF8CA278A4204BF0DF2CA7181F8009046
:101A4800DBF800200421042807F80C1C02D10DF251
:101A5800FC6146E09DF815170429514641D09DF8D0
:101A68002217042941463CD09DF82F1704291199C3
:101A780037D09DF83C170429109932D09DF84917A2
:101A880004290F992DD09DF8561704290C9928D0B0
:101A98009DF8631704290B9923D09DF87017042922
:101AA8000A991ED09DF87D170429099919D09DF827
:101AB8008A170429089914D09DF8971704290799BB
:101AC8000FD09DF8A417042906990AD09DF8B117DC
:101AD8000429059905D09DF8BE170429049941F0F9
:101AE80014824978120730D4002963D09DF8CF2793
:101AF8008A421CBF9DF8CE378B425BD09DF8CD67DC
:101B08008E421CBF9DF8CC478C4253D09DF8CBC762
:101B18008C451CBF9DF8CAE78E454BD0002A01F0C2
:101B2800D880002B01F00481002E01F03081002CB8
:101B380001F05C81BCF1000F01F08B81BEF1000F58
:101B480038D10DF2CA7201F086B99DF8CF278A42C2
:101B580004D10DF2CF7181F800902BE09DF8CE27CB
:101B68008A4204D10DF2CE7181F8009022E09DF8EE
:101B7800CD278A4204D10DF2CD7181F8009019E089
:101B88009DF8CC278A4204D10DF2CC7181F80090DF
:101B980010E09DF8CB278A4204D10DF2CB7181F871
:101BA800009007E09DF8CA278A4204BF0DF2CA7167
:101BB80081F80090DBF800100522052807F80C2CA6
:101BC80002D10DF2FC6046E09DF815070528504645
:101BD80041D09DF82207052840463CD09DF82F07A4
:101BE8000528119837D09DF83C070528109832D061
:101BF8009DF8490705280F982DD09DF85607052808
:101C08000C9828D09DF8630705280B9823D09DF8D9
:101C1800700705280A981ED09DF87D0705280998A1
:101C280019D09DF88A070528089814D09DF89707B9
:101C3800052807980FD09DF8A407052806980AD00C
:101C48009DF8B1070528059805D09DF8BE07052819
:101C5800049841F05A814078C9062FD4002862D0F0
:101C68009DF8CF1781421CBF9DF8CE2782425AD0DB
:101C78009DF8CD3783421CBF9DF8CC67864252D071
:101C88009DF8CB4784421CBF9DF8CAC784454AD0FB
:101C9800002901F02180002A01F04D80002B01F07D
:101CA8007980002E01F0A580002C01F0D780BCF1CE
:101CB800000F38D10DF2CA7101F0D2B89DF8CF17D4
:101CC800814204D10DF2CF7080F800902BE09DF88E
:101CD800CE17814204D10DF2CE7080F8009022E038
:101CE8009DF8CD17814204D10DF2CD7080F8009097
:101CF80019E09DF8CC17814204D10DF2CC7080F820
:101D0800009010E09DF8CB17814204D10DF2CB7002
:101D180080F8009007E09DF8CA17814204BF0DF2D1
:101D2800CA7080F8009020200621CBF808004FF4F4
:101D38008000CBF80800DBF800209DF8080707F8BA
:101D48000C1C062802D10DF2FC6146E09DF815171F
:101D58000629514641D09DF82217062941463CD014
:101D68009DF82F170629119937D09DF83C17062999
:101D7800109932D09DF8491706290F992DD09DF852
:101D8800561706290C9928D09DF8631706290B9930
:101D980023D09DF8701706290A991ED09DF87D1743
:101DA8000629099919D09DF88A170629089914D087
:101DB8009DF89717062907990FD09DF8A4170629AB
:101DC80006990AD09DF8B1170629059905D09DF8FE
:101DD800BE170629049941F098804978D20730D176
:101DE800002963D09DF8CF278A421CBF9DF8CE37C3
:101DF8008B425BD09DF8CD678E421CBF9DF8CC47C7
:101E08008C4253D09DF8CBC78C451CBF9DF8CAE7C0
:101E18008E454BD0002A00F06287002B00F08E8799
:101E2800002E00F0BA87002C00F0E687BCF1000F06
:101E380001F01980BEF1000F38D10DF2CA7201F01D
:101E480014B89DF8CF278A4204D10DF2CF7181F8DA
:101E580000902BE09DF8CE278A4204D10DF2CE7176
:101E680081F8009022E09DF8CD278A4204D10DF236
:101E7800CD7181F8009019E09DF8CC278A4204D1F1
:101E88000DF2CC7181F8009010E09DF8CB278A42C2
:101E980004D10DF2CB7181F8009007E09DF8CA27B4
:101EA8008A4204BF0DF2CA7181F80090DBF8002065
:101EB8000721072807F80C1C02D10DF2FC6146E047
:101EC8009DF815170729514641D09DF82217072973
:101ED80041463CD09DF82F170729119937D09DF816
:101EE8003C170729109932D09DF8491707290F99EF
:101EF8002DD09DF8561707290C9928D09DF86317FF
:101F080007290B9923D09DF8701707290A991ED025
:101F18009DF87D170729099919D09DF88A1707296F
:101F2800089914D09DF89717072907990FD09DF89D
:101F3800A417072906990AD09DF8B117072905990A
:101F480005D09DF8BE170729049940F0DE87497827
:101F5800920730D4002963D09DF8CF278A421CBF4E
:101F68009DF8CE378B425BD09DF8CD678E421CBF63
:101F78009DF8CC478C4253D09DF8CBC78C451CBFED
:101F88009DF8CAE78E454BD0002A00F0AB86002B9F
:101F980000F0D786002E00F00387002C00F02F8772
:101FA800BCF1000F00F06487BEF1000F38D10DF2CC
:101FB800CA7200F05FBF9DF8CF278A4204D10DF2A4
:101FC800CF7181F800902BE09DF8CE278A4204D18A
:101FD8000DF2CE7181F8009022E09DF8CD278A425B
:101FE80004D10DF2CD7181F8009019E09DF8CC274D
:101FF8008A4204D10DF2CC7181F8009010E09DF86E
:10200800CB278A4204D10DF2CB7181F8009007E00A
:102018009DF8CA278A4204BF0DF2CA7181F8009060
:10202800DBF800200821082807F80C1C02D10DF263
:10203800FC6146E09DF815170829514641D09DF8E6
:102048002217082941463CD09DF82F1708291199D5
:1020580037D09DF83C170829109932D09DF84917B8
:1020680008290F992DD09DF8561708290C9928D0C2
:102078009DF8631708290B9923D09DF87017082934
:102088000A991ED09DF87D170829099919D09DF83D
:102098008A170829089914D09DF8971708290799CD
:1020A8000FD09DF8A417082906990AD09DF8B117F2
:1020B8000829059905D09DF8BE170829049940F00C
:1020C80024874978520730D4002963D09DF8CF2758
:1020D8008A421CBF9DF8CE378B425BD09DF8CD67F6
:1020E8008E421CBF9DF8CC478C4253D09DF8CBC77D
:1020F8008C451CBF9DF8CAE78E454BD0002A00F0DE
:10210800F485002B00F02086002E00F04C86002C71
:1021180000F07886BCF1000F00F0AF86BEF1000F2A
:1021280038D10DF2CA7200F0AABE9DF8CF278A42B4
:1021380004D10DF2CF7181F800902BE09DF8CE27E5
:102148008A4204D10DF2CE7181F8009022E09DF808
:10215800CD278A4204D10DF2CD7181F8009019E0A3
:102168009DF8CC278A4204D10DF2CC7181F80090F9
:1021780010E09DF8CB278A4204D10DF2CB7181F88B
:10218800009007E09DF8CA278A4204BF0DF2CA7181
:1021980081F80090DBF800200921092807F80C1CB9
:1021A80002D10DF2FC6146E09DF815170929514648
:1021B80041D09DF82217092941463CD09DF82F1798
:1021C8000929119937D09DF83C170929109932D05F
:1021D8009DF8491709290F992DD09DF856170929F7
:1021E8000C9928D09DF8631709290B9923D09DF8DD
:1021F800701709290A991ED09DF87D170929099990
:1022080019D09DF88A170929089914D09DF89717AD
:10221800092907990FD09DF8A417092906990AD00A
:102228009DF8B1170929059905D09DF8BE17092908
:10223800049940F06A864978120730D4002963D09F
:102248009DF8CF278A421CBF9DF8CE378B425BD0C2
:102258009DF8CD678E421CBF9DF8CC478C4253D069
:102268009DF8CBC78C451CBF9DF8CAE78E454BD05F
:10227800002A00F03D85002B00F06985002E00F053
:102288009585002C00F0C185BCF1000F00F0FA859F
:10229800BEF1000F38D10DF2CA7200F0F5BD9DF8FD
:1022A800CF278A4204D10DF2CF7181F800902BE03C
:1022B8009DF8CE278A4204D10DF2CE7181F80090A4
:1022C80022E09DF8CD278A4204D10DF2CD7181F824
:1022D800009019E09DF8CC278A4204D10DF2CC7108
:1022E80081F8009010E09DF8CB278A4204D10DF2C6
:1022F800CB7181F8009007E09DF8CA278A4204BF95
:102308000DF2CA7181F80090DBF800100A220A2841
:1023180007F80C2C02D10DF2FC6046E09DF8150779
:102328000A28504641D09DF822070A2840463CD04A
:102338009DF82F070A28119837D09DF83C070A28DE
:10234800109832D09DF849070A280F982DD09DF88B
:1023580056070A280C9828D09DF863070A280B9876
:1023680023D09DF870070A280A981ED09DF87D078B
:102378000A28099819D09DF88A070A28089814D0BD
:102388009DF897070A2807980FD09DF8A4070A28F0
:1023980006980AD09DF8B1070A28059805D09DF837
:1023A800BE070A28049840F0B0854078C9062FD4A3
:1023B800002862D09DF8CF1781421CBF9DF8CE2718
:1023C80082425AD09DF8CD3783421CBF9DF8CC6716
:1023D800864252D09DF8CB4784421CBF9DF8CAC79D
:1023E80084454AD0002900F08684002A00F0B2848F
:1023F800002B00F0DE84002E00F00A85002C00F08F
:102408004685BCF1000F38D10DF2CA7100F041BD0C
:102418009DF8CF17814204D10DF2CF7080F800905B
:102428002BE09DF8CE17814204D10DF2CE7080F8D2
:10243800009022E09DF8CD17814204D10DF2CD70B5
:1024480080F8009019E09DF8CC17814204D10DF274
:10245800CC7080F8009010E09DF8CB17814204D131
:102468000DF2CB7080F8009007E09DF8CA17814202
:1024780004BF0DF2CA7080F8009040200B21CBF801
:1024880008004FF40000CBF80800DBF800209DF8A6
:10249800080707F80C1C0B2802D10DF2FC6146E076
:1024A8009DF815170B29514641D09DF822170B2985
:1024B80041463CD09DF82F170B29119937D09DF82C
:1024C8003C170B29109932D09DF849170B290F9901
:1024D8002DD09DF856170B290C9928D09DF8631715
:1024E8000B290B9923D09DF870170B290A991ED038
:1024F8009DF87D170B29099919D09DF88A170B2982
:10250800089914D09DF897170B2907990FD09DF8B3
:10251800A4170B2906990AD09DF8B1170B2905991C
:1025280005D09DF8BE170B29049940F0EE84497830
:10253800D20730D1002963D09DF8CF278A421CBF2B
:102548009DF8CE378B425BD09DF8CD678E421CBF7D
:102558009DF8CC478C4253D09DF8CBC78C451CBF07
:102568009DF8CAE78E454BD0002A00F0C783002BA0
:1025780000F0F383002E00F01F84002C00F04B8441
:10258800BCF1000F00F08884BEF1000F38D10DF2C5
:10259800CA7200F083BC9DF8CF278A4204D10DF29D
:1025A800CF7181F800902BE09DF8CE278A4204D1A4
:1025B8000DF2CE7181F8009022E09DF8CD278A4275
:1025C80004D10DF2CD7181F8009019E09DF8CC2767
:1025D8008A4204D10DF2CC7181F8009010E09DF888
:1025E800CB278A4204D10DF2CB7181F8009007E025
:1025F8009DF8CA278A4204BF0DF2CA7181F800907B
:10260800DBF800200C210C2807F80C1C02D10DF275
:10261800FC6146E09DF815170C29514641D09DF8FC
:1026280022170C2941463CD09DF82F170C291199E7
:1026380037D09DF83C170C29109932D09DF84917CE
:102648000C290F992DD09DF856170C290C9928D0D4
:102658009DF863170C290B9923D09DF870170C2946
:102668000A991ED09DF87D170C29099919D09DF853
:102678008A170C29089914D09DF897170C290799DF
:102688000FD09DF8A4170C2906990AD09DF8B11708
:102698000C29059905D09DF8BE170C29049940F01E
:1026A8003484497892072FD4002962D09DF8CF2727
:1026B8008A421CBF9DF8CE378B425AD09DF8CD6711
:1026C8008E421CBF9DF8CC478C4252D09DF8CBC798
:1026D8008C451CBF9DF8CAE78E454AD0002A00F0F9
:1026E8001083002B00F03C83002E00F06883002C40
:1026F80000F09483BCF1000F00F0D383BEF1000F0B
:1027080037D10DF2CA72CEE39DF8CF278A4204D1A1
:102718000DF2CF7181F800902BE09DF8CE278A4208
:1027280004D10DF2CE7181F8009022E09DF8CD27FA
:102738008A4204D10DF2CD7181F8009019E09DF81C
:10274800CC278A4204D10DF2CC7181F8009010E0B8
:102758009DF8CB278A4204D10DF2CB7181F8009005
:1027680007E09DF8CA278A4204BF0DF2CA7181F8B2
:102778000090DBF800200D210D2807F80C1C02D171
:102788000DF2FC6146E09DF815170D29514641D020
:102798009DF822170D2941463CD09DF82F170D2989
:1027A800119937D09DF83C170D29109932D09DF812
:1027B80049170D290F992DD09DF856170D290C99F9
:1027C80028D09DF863170D290B9923D09DF8701711
:1027D8000D290A991ED09DF87D170D29099919D040
:1027E8009DF88A170D29089914D09DF897170D2977
:1027F80007990FD09DF8A4170D2906990AD09DF8BE
:10280800B1170D29059905D09DF8BE170D29049912
:1028180040F07B83497852072FD4002962D09DF875
:10282800CF278A421CBF9DF8CE378B425AD09DF8DD
:10283800CD678E421CBF9DF8CC478C4252D09DF884
:10284800CBC78C451CBF9DF8CAE78E454AD0002AE5
:1028580000F05A82002B00F08682002E00F0B2822F
:10286800002C00F0DE82BCF1000F00F01F83BEF1E7
:10287800000F37D10DF2CA721AE39DF8CF278A42AA
:1028880004D10DF2CF7181F800902BE09DF8CE278E
:102898008A4204D10DF2CE7181F8009022E09DF8B1
:1028A800CD278A4204D10DF2CD7181F8009019E04C
:1028B8009DF8CC278A4204D10DF2CC7181F80090A2
:1028C80010E09DF8CB278A4204D10DF2CB7181F834
:1028D800009007E09DF8CA278A4204BF0DF2CA712A
:1028E80081F80090DBF800200E210E2807F80C1C58
:1028F80002D10DF2FC6146E09DF815170E295146EC
:1029080041D09DF822170E2941463CD09DF82F173B
:102918000E29119937D09DF83C170E29109932D0FD
:102928009DF849170E290F992DD09DF856170E2995
:102938000C9928D09DF863170E290B9923D09DF880
:1029480070170E290A991ED09DF87D170E2909992E
:1029580019D09DF88A170E29089914D09DF8971751
:102968000E2907990FD09DF8A4170E2906990AD0A9
:102978009DF8B1170E29059905D09DF8BE170E29A7
:10298800049940F0C282497812072FD4002962D0F6
:102998009DF8CF278A421CBF9DF8CE378B425AD06C
:1029A8009DF8CD678E421CBF9DF8CC478C4252D013
:1029B8009DF8CBC78C451CBF9DF8CAE78E454AD009
:1029C800002A00F0A481002B00F0D081002E00F036
:1029D800FC81002C00F02882BCF1000F00F06A8214
:1029E800BEF1000F37D10DF2CA7265E29DF8CF270C
:1029F8008A4204D10DF2CF7181F800902BE09DF846
:102A0800CE278A4204D10DF2CE7181F8009022E0DF
:102A18009DF8CD278A4204D10DF2CD7181F800903E
:102A280019E09DF8CC278A4204D10DF2CC7181F8C7
:102A3800009010E09DF8CB278A4204D10DF2CB71AB
:102A480081F8009007E09DF8CA278A4204BF0DF27A
:102A5800CA7181F80090DBF800100F220F2807F8E0
:102A68000C2C02D10DF2FC6046E09DF815070F28EA
:102A7800504641D09DF822070F2840463CD09DF88B
:102A88002F070F28119837D09DF83C070F2810986A
:102A980032D09DF849070F280F982DD09DF856077A
:102AA8000F280C9828D09DF863070F280B9823D07F
:102AB8009DF870070F280A981ED09DF87D070F28EB
:102AC800099819D09DF88A070F28089814D09DF8FE
:102AD80097070F2807980FD09DF8A4070F28069886
:102AE8000AD09DF8B1070F28059805D09DF8BE07B4
:102AF8000F28049840F009824078C9062ED400288F
:102B080061D09DF8CF1781421CBF9DF8CE27824225
:102B180059D09DF8CD3783421CBF9DF8CC678642BB
:102B280051D09DF8CB4784421CBF9DF8CAC7844545
:102B380049D0002900F0EE80002A00F01A81002B0D
:102B480000F04681002E00F07281002C00F0B68162
:102B5800BCF1000F37D10DF2CA71B1E19DF8CF1762
:102B6800814204D10DF2CF7080F800902BE09DF8DF
:102B7800CE17814204D10DF2CE7080F8009022E089
:102B88009DF8CD17814204D10DF2CD7080F80090E8
:102B980019E09DF8CC17814204D10DF2CC7080F871
:102BA800009010E09DF8CB17814204D10DF2CB7054
:102BB80080F8009007E09DF8CA17814204BF0DF223
:102BC800CA7080F800909DF8CC079DF8CD179DF845
:102BD800CE279DF8CF379DF8CB679DF8CA47CBF82D
:102BE80008508DF8C6079DF859028DF8C847013876
:102BF8008DF8C76701288DF8C5178DF8C4278DF89B
:102C0800C3378DF8C297ADF8C09703D89DF8041361
:102C180002294AD19DF8F80207283EF46AAC0D98BB
:102C28003E2106F033F840200E9A47F8180CA7F119
:102C38005C0047F81C0C022047F8140CA7F11C0094
:102C480047F8100CA7F10C00A7F1100127F85C9CBD
:102C580002F065FB57F80C0C07287EF44AAC57F8CD
:102C6800142C412A80F02E81BC980068BFF35F8F36
:102C7800002800F030819DF9F612B1F1FF3F3EF7D0
:102C880038ACC9B201F07F0103293EF632AC01EB42
:102C9800410100EB8100017907293EF42AACA7F134
:102CA8005C0104F003F8FEF724BC9DF85802C9073C
:102CB8007EF41CAC00283EF41CACABE70DF2CF72DE
:102CC8001170FEF796BC0DF2CF72BAE00DF2CF721A
:102CD800BCE00DF2CF72BEE00DF2CF71C0E00DF294
:102CE800CF72C2E00DF2CF72C4E00DF2CF72C6E02F
:102CF8000DF2CF72C8E00DF2CF71CAE00DF2CF72BB
:102D0800CCE00DF2CF72CEE00DF2CF72D0E00DF232
:102D1800CF72D1E00DF2CF71D2E00DF2CE72117008
:102D2800FEF767BC0DF2CE728BE00DF2CE728DE02D
:102D38000DF2CE728FE00DF2CE7191E00DF2CE72EF
:102D480093E00DF2CE7295E00DF2CE7297E00DF29F
:102D5800CE7299E00DF2CE719BE00DF2CE729DE03D
:102D68000DF2CE729FE00DF2CE72A1E00DF2CE729E
:102D7800A2E00DF2CE71A3E00DF2CD721170FEF754
:102D880038BC0DF2CD725CE00DF2CD725EE00DF252
:102D9800CD7260E00DF2CD7162E00DF2CD7264E0AB
:102DA8000DF2CD7266E00DF2CD7268E00DF2CD72D3
:102DB8006AE00DF2CD716CE00DF2CD726EE00DF2AD
:102DC800CD7270E00DF2CD7272E00DF2CD7273E04B
:102DD8000DF2CD7174E00DF2CC721170FEF709BCE2
:102DE8000DF2CC722DE00DF2CC722FE00DF2CC7208
:102DF80031E00DF2CC7133E00DF2CC7235E00DF21A
:102E0800CC7237E00DF2CC7239E00DF2CC723BE0B7
:102E18000DF2CC713DE00DF2CC723FE00DF2CC72B8
:102E280041E00DF2CC7243E00DF2CC7244E00DF2B9
:102E3800CC7145E00DF2CB721170FEF7DABB0DF2E2
:102E4800CB721170FEF742BD0DF2CB721170FEF716
:102E5800F7BD0DF2CB721170FEF7ACBE0DF2CB715F
:102E68000870FEF760BF0DF2CB721170FFF71EB845
:102E78000DF2CB721170FFF7D3B80DF2CB7211704F
:102E8800FFF788B90DF2CB721170FFF73DBA0DF25A
:102E9800CB710870FFF7F1BA0DF2CB721170FFF722
:102EA800AFBB0DF2CB721170FFF763BC0DF2CB72A2
:102EB800117017E50DF2CB721170CCE50DF2CB71E4
:102EC800087080E649F628231146C0F60003002062
:102ED800402205F0E1FB49F2704049F29442C0F605
:102EE8000000C0F60002222105F086FC002B0DF23E
:102EF800CD750DF2CF730DF2CE7608BF3546002A98
:102F080018BF2B461870FEF7C1BA47F61B3049F2B6
:102F1800B442C0F60000A7F15C0147F8580CA7F1CD
:102F28000C0047F85C0C49F23900C0F60000C0F606
:102F3800000205F067FC47F61B3049F2A442C0F6D0
:102F48000000A7F15C0147F8580CA7F10C0047F8FE
:102F58005C0C49F23900C0F60000C0F6000205F02A
:102F680051FC80B56F46FDF746FFF0B503AF4DF84D
:102F780004BD0C46054604F0DEFC064604F0CEFC13
:102F8800D5F89401D0F8001864F30A11C0F80018B5
:102F9800F00705D15DF804BBBDE8F04004F0C0BC03
:102FA8005DF804BBF0BDD4D4F0B503AF2DE9000F34
:102FB80083B00E46814604F0BEFC054604F0AEFC24
:102FC800D6F89411D1F83CB04C69E0040FD4A004B1
:102FD8006ED4B4F1FF3F40F3FE82200500F1158363
:102FE800E00600F1208300224FF0000ADDE34FF4F1
:102FF80080504861D6F89401D0F81C180021C0F818
:103008001C183079072875D1307C072840F090804B
:10301800307F072840F0AA8096F82800072840F05B
:10302800C58096F83400072840F0E08096F8400004
:10303800072840F0FB8096F84C00072840F01681DE
:1030480096F85800072840F0318196F86400072860
:1030580040F04C8196F87000072840F0678196F898
:103068008C00072840F0858196F8A800072840F0D2
:10307800A48196F8C400072840F0C38196F8E000C0
:10308800072840F0E28196F8FC00072840F001820A
:1030980096F81801072840F0208296F8340107288E
:1030A80040F03F8296F85001072840F05D827AE2AE
:1030B8004FF400504861D6F89401D0F80818C1F3CD
:1030C8004101DFE811F08D0204007D050400D6F807
:1030D80090214AF6C041C0F2D8018A42C0F07B85EF
:1030E8004EF2C011C0F2E4018A4280F085824FF4AA
:1030F800705104E3307A316810F07F0001EB401022
:10310800D0F8001921F40041C0F80019D0F80019CE
:1031180000F5106006D0B1F1FF3FDEBF016841F055
:1031280080410160FF218160307C07283FF470AF47
:10313800307DF16810F07F0001EB4010D0F80019E5
:1031480021F40041C0F80019D0F8001900F510600A
:1031580006D0B1F1FF3FDEBF016841F08041016058
:10316800FF218160307F07283FF456AF96F8200092
:10317800B16910F07F0001EB4010D0F8001921F47C
:103188000041C0F80019D0F8001900F5106006D009
:10319800B1F1FF3FDEBF016841F080410160FF21CE
:1031A800816096F8280007283FF43BAF96F82C007A
:1031B800716A10F07F0001EB4010D0F8001921F47B
:1031C8000041C0F80019D0F8001900F5106006D0C9
:1031D800B1F1FF3FDEBF016841F080410160FF218E
:1031E800816096F8340007283FF420AF96F838003D
:1031F800316B10F07F0001EB4010D0F8001921F47A
:103208000041C0F80019D0F8001900F5106006D088
:10321800B1F1FF3FDEBF016841F080410160FF214D
:10322800816096F8400007283FF405AF96F84400FF
:10323800F16B10F07F0001EB4010D0F8001921F479
:103248000041C0F80019D0F8001900F5106006D048
:10325800B1F1FF3FDEBF016841F080410160FF210D
:10326800816096F84C0007283FF4EAAE96F85000C3
:10327800B16C10F07F0001EB4010D0F8001921F478
:103288000041C0F80019D0F8001900F5106006D008
:10329800B1F1FF3FDEBF016841F080410160FF21CD
:1032A800816096F8580007283FF4CFAE96F85C0086
:1032B800716D10F07F0001EB4010D0F8001921F477
:1032C8000041C0F80019D0F8001900F5106006D0C8
:1032D800B1F1FF3FDEBF016841F080410160FF218D
:1032E800816096F8640007283FF4B4AE96F8680049
:1032F800316E10F07F0001EB4010D0F8001921F476
:103308000041C0F80019D0F8001900F5106006D087
:10331800B1F1FF3FDEBF016841F080410160FF214C
:10332800816096F8700007283FF499AE96F874000B
:10333800F16E00F07F0001EB4010D0F8001B21F483
:103348000041C0F8001BD0F8001B00F53060B1F157
:10335800FF3F07DC96F8741049061EBF016841F06C
:1033680080410160FF21816096F88C0007283FF4B6
:103378007BAE96F89000D6F8881000F07F0001EB3D
:103388004010D0F8001B21F40041C0F8001BD0F811
:10339800001B00F53060B1F1FF3F07DC96F8901094
:1033A80049061EBF016841F080410160FF2181602C
:1033B80096F8A80007283FF45CAE96F8AC00D6F85B
:1033C800A41000F07F0001EB4010D0F8001B21F49E
:1033D8000041C0F8001BD0F8001B00F53060B1F1C7
:1033E800FF3F07DC96F8AC1049061EBF016841F0A4
:1033F80080410160FF21816096F8C40007283FF4EE
:103408003DAE96F8C800D6F8C01000F07F0001EB7A
:103418004010D0F8001B21F40041C0F8001BD0F880
:10342800001B00F53060B1F1FF3F07DC96F8C810CB
:1034380049061EBF016841F080410160FF2181609B
:1034480096F8E00007283FF41EAE96F8E400D6F898
:10345800DC1000F07F0001EB4010D0F8001B21F4D5
:103468000041C0F8001BD0F8001B00F53060B1F136
:10347800FF3F07DC96F8E41049061EBF016841F0DB
:1034880080410160FF21816096F8FC0007283FF425
:10349800FFAD96F80001D6F8F81000F07F0001EBB8
:1034A8004010D0F8001B21F40041C0F8001BD0F8F0
:1034B800001B00F53060B1F1FF3F07DC96F8001102
:1034C80049061EBF016841F080410160FF2181600B
:1034D80096F8180107283FF4E0AD96F81C01D6F8D5
:1034E800141100F07F0001EB4010D0F8001B21F40C
:1034F8000041C0F8001BD0F8001B00F53060B1F1A6
:10350800FF3F07DC96F81C1149061EBF016841F011
:1035180080410160FF21816096F8340107283FF45B
:10352800C1AD96F83801D6F8301100F07F0001EBF4
:103538004010D0F8001B21F40041C0F8001BD0F85F
:10354800001B00F53060B1F1FF3F07DC96F8381139
:1035580049061EBF016841F080410160FF2181607A
:1035680096F8500107281ED096F85401D6F84C1149
:1035780000F07F0001EB4010D0F8001B21F400415F
:10358800C0F8001BD0F8001B00F53060B1F1FF3F18
:1035980007DC96F8541149061EBF016841F08041C6
:1035A8000160FF218160D6F89401016941F01001A2
:1035B8000161D6F894110869C0067FF508AD08695D
:1035C800C00644BF08695FEAC0607FF500AD0869BE
:1035D800C006F0D4FBE44FF000404861042094E0BA
:1035E800D6F890114CF27F32C0F2C912914240F2E3
:1035F800FD824FF4105182E042F20041C0F2F40122
:103608008A4207D24FF4605179E04FF40060486174
:1036180003207AE047F28031C0F206118A4217D2BD
:103628004FF450516BE0D1F81CC00CF00F08CCF3EC
:10363800434EAEF10300022813D3BEF1060F33D078
:10364800BEF1020F1DD10120002300FA08F26BE041
:1036580044F6A011C0F21A118A421CD24FF440510C
:103668004DE0BBF5885F18BFBBF5905F09D101EB52
:103678004810D0F8001B41F00441C0F8001BD6F8F0
:103688009411086A00224EF004004FF0000A00234B
:10369800062849D089E042F60051C0F231118A4229
:1036A80024D24FF430512AE001EB48102A46002575
:1036B800D0F81009C1F6F875284230D008691546C7
:1036C80020F4FC6040EA881020300861D6F8941194
:1036D8000869800624D50869800644BF08695FEA3E
:1036E80080601DD508698006F2D419E04AF240418D
:1036F800C0F24C118A4280F048824FF42051C268CF
:1037080022F470521143C1600120A9F80000E807B3
:1037180008BF04F005F903B0BDE8000FF0BD154679
:103728000120002200FA08F3B8F1080F029500F210
:103738006E82C8EBC800924606EB800090F8705085
:10374800072D30D000F16C05E868002840F0598258
:10375800A87E4FF0FF32EA6010BB0193AEF106037A
:10376800B3FA83F3086A05F11000CCF30A125B0977
:1037780003F036FABBF50C5FC0F2FE81019B05D061
:10378800BBF5405F18BFBBF5445F09D1D6F894017B
:1037980000EB4810D0F8001B41F00441C0F8001BB2
:1037A800E8680130E8601A46029D600303D44FF0D0
:1037B80000081446FAE03079072803D14FF00008D2
:1037C800144617E0307A1446D6F8941100F07F00BA
:1037D80001EB4010D0F80819C90702D14FF00008D2
:1037E80008E000F5106001218160307A00F00F00D8
:1037F80001FA00F8307C072815D0307DD6F89411EE
:1038080000F07F0001EB4010D0F80819C9070AD072
:1038180000F5106001218160307D00F00F0001FA91
:1038280000F048EA0008307F072817D096F82000F3
:10383800D6F8941100F07F0001EB4010D0F8081979
:10384800C9070BD000F510600121816096F82000AF
:1038580000F00F0001FA00F048EA000896F8280086
:10386800072817D096F82C00D6F8941100F07F009E
:1038780001EB4010D0F80819C9070BD000F510600B
:103888000121816096F82C0000F00F0001FA00F089
:1038980048EA000896F83400072817D096F8380048
:1038A800D6F8941100F07F0001EB4010D0F8081909
:1038B800C9070BD000F510600121816096F8380027
:1038C80000F00F0001FA00F048EA000896F84000FE
:1038D800072817D096F84400D6F8941100F07F0016
:1038E80001EB4010D0F80819C9070BD000F510609B
:1038F8000121816096F8440000F00F0001FA00F001
:1039080048EA000896F84C00072817D096F85000A7
:10391800D6F8941100F07F0001EB4010D0F8081998
:10392800C9070BD000F510600121816096F850009E
:1039380000F00F0001FA00F048EA000896F8580075
:10394800072817D096F85C00D6F8941100F07F008D
:1039580001EB4010D0F80819C9070BD000F510602A
:103968000121816096F85C0000F00F0001FA00F078
:1039780048EA000896F86400072817D096F8680007
:10398800D6F8941100F07F0001EB4010D0F8081928
:10399800C9070BD000F510600121816096F8680016
:1039A80000F00F0001FA00F048EA000896F87000ED
:1039B80007281AD006F16C0003F058FAC0B20228A2
:1039C8000BD0012811D196F87400012100F00F00E6
:1039D80001FA00F04AEA000A07E096F874000121AB
:1039E80000F00F0001FA00F0044396F88C00072855
:1039F80012D006F1880003F039FAC0B260B101288C
:103A080096F890004FF0010100F00F0001FA00F065
:103A18000CBF4AEA000A044396F8A800072812D007
:103A280006F1A40003F022FAC0B260B1012896F8AA
:103A3800AC004FF0010100F00F0001FA00F00CBFDC
:103A48004AEA000A044396F8C400072812D006F18F
:103A5800C00003F00BFAC0B260B1012896F8C800A4
:103A68004FF0010100F00F0001FA00F00CBF4AEA24
:103A7800000A044396F8E000072812D006F1DC009B
:103A880003F0F4F9C0B260B1012896F8E4004FF0F1
:103A9800010100F00F0001FA00F00CBF4AEA000A29
:103AA800044396F8FC00072812D006F1F80003F04A
:103AB800DDF9C0B260B1012896F800014FF00101AC
:103AC80000F00F0001FA00F00CBF4AEA000A0443B4
:103AD80096F81801072812D006F58A7003F0C6F97F
:103AE800C0B260B1012896F81C014FF0010100F046
:103AF8000F0001FA00F00CBF4AEA000A044396F8E6
:103B08003401072812D006F5987003F0AFF9C0B257
:103B180060B1012896F838014FF0010100F00F005C
:103B280001FA00F00CBF4AEA000A044396F8500173
:103B3800072812D006F5A67003F098F9C0B260B154
:103B4800012896F854014FF0010100F00F0001FA26
:103B580000F00CBF4AEA000A044344EA080050EAAD
:103B68000A0007D0A9F806400220A9F80480A9F89D
:103B780002A0CAE50020C8E5019BBBF5005F18BF9D
:103B8800BBF5045F3FF402AE0AE643F20061C0F2FF
:103B98006E118A42FFF42DAD49F6E051C0F2A3112F
:103BA8008A4202D24FF40051A9E544F600034FF4CB
:103BB800C051C0F2E8139A4238BF4FF4E0519EE575
:103BC80049F22C7049F23C72C0F60000C0F60002BF
:103BD8000F2104F011FE49F2F46049F21C72C0F69C
:103BE8000000C0F60002182104F006FE49F2F46055
:103BF80049F20C72C0F60000C0F60002182104F069
:103C0800FBFD49F2E460C0F6000004F019FD49F23A
:103C1800D4624046C0F60002092104F0D9FDB0B5CF
:103C280002AF82B0044603F086FE054603F076FE36
:103C3800B4F87001D4F894111E3082B24A62B4F814
:103C48007811D4F89421C0EA014308449362B4F887
:103C58007A21D4F89431C0EA02411044C3F804111F
:103C6800B4F87C11D4F89431C0EA01420844C3F88E
:103C78000821B4F87E21D4F89431C0EA02411044F6
:103C8800C3F80C1180B2B0F5A07F00F21D82D4F801
:103C980094014322016962F30A110161D4F8940185
:103CA800016911F0300F0BD0016911F0300F1CBF02
:103CB800016911F0300F03D0016911F0300FEFD115
:103CC8002179072951D1207C072861D1207F072835
:103CD80074D194F82800072840F0898094F83400BB
:103CE800072840F09D8094F84000072840F0B180F4
:103CF80094F84C00072840F0C58094F8580007282D
:103D080040F0D98094F86400072840F0ED8094F8DA
:103D18007000072840F0018194F88C00072840F0D3
:103D2800138194F8A800072840F0258194F8C4006E
:103D3800072840F0378194F8E000072840F04981CF
:103D480094F8FC00072840F05B8194F818010728D4
:103D580040F06D8194F83401072840F07F8194F891
:103D68005001072840F09081A0E1D0F81C180123E9
:103D7800227A02F01F0203FA02F21143C0F81C185B
:103D8800A7F10901204603F01BF8207C07289DD0E5
:103D9800D4F894010123D0F81C18227D02F01F02E8
:103DA80003FA02F21143C0F81C1804F10C00A7F141
:103DB800090103F005F8207F07288AD0D4F8940178
:103DC8000123D0F81C1894F8202002F01F0203FAEF
:103DD80002F21143C0F81C1804F11800A7F10901F8
:103DE80002F0EEFF94F8280007283FF477AFD4F8E4
:103DF80094010123D0F81C1894F82C2002F01F021B
:103E080003FA02F21143C0F81C1804F12400A7F1C8
:103E1800090102F0D5FF94F8340007283FF463AF96
:103E2800D4F894010123D0F81C1894F8382002F033
:103E38001F0203FA02F21143C0F81C1804F1300003
:103E4800A7F1090102F0BCFF94F8400007283FF4ED
:103E58004FAFD4F894010123D0F81C1894F84420EB
:103E680002F01F0203FA02F21143C0F81C1804F111
:103E78003C00A7F1090102F0A3FF94F84C000728C1
:103E88003FF43BAFD4F894010123D0F81C1894F800
:103E9800502002F01F0203FA02F21143C0F81C1866
:103EA80004F14800A7F1090102F08AFF94F85800CC
:103EB80007283FF427AFD4F894010123D0F81C1841
:103EC80094F85C2002F01F0203FA02F21143C0F8D2
:103ED8001C1804F15400A7F1090102F071FF94F8CD
:103EE800640007283FF413AFD4F894010123D0F8F5
:103EF8001C1894F8682002F01F0203FA02F211431A
:103F0800C0F81C1804F16000A7F1090102F058FF7D
:103F180094F8700007283FF4FFAE94F8741004F189
:103F28006C00490607D1D4F89411D1F81C2842F442
:103F38008032C1F81C28A7F1090103F04CF894F865
:103F48008C0007283FF4EDAE94F8901004F1880037
:103F5800490607D1D4F89411D1F81C2842F48032CC
:103F6800C1F81C28A7F1090103F035F894F8A80056
:103F780007283FF4DBAE94F8AC1004F1A40049061E
:103F880007D1D4F89411D1F81C2842F48032C1F832
:103F98001C28A7F1090103F01EF894F8C4000728AB
:103FA8003FF4C9AE94F8C81004F1C000490607D11F
:103FB800D4F89411D1F81C2842F48032C1F81C2896
:103FC800A7F1090103F007F894F8E00007283FF487
:103FD800B7AE94F8E41004F1DC00490607D1D4F830
:103FE8009411D1F81C2842F48032C1F81C28A7F19A
:103FF800090102F0F0FF94F8FC0007283FF4A5AE91
:1040080094F8001104F1F800490607D1D4F8941186
:10401800D1F81C2842F48032C1F81C28A7F1090104
:1040280002F0D9FF94F8180107283FF493AE94F8EA
:104038001C1104F58A70490607D1D4F89411D1F8F7
:104048001C2842F48032C1F81C28A7F1090102F0AB
:10405800C2FF94F8340107283FF481AE94F8381170
:1040680004F59870490607D1D4F89411D1F81C28A2
:1040780042F48032C1F81C28A7F1090102F0ABFF15
:1040880094F85001072811D094F8541104F5A6703B
:10409800490607D1D4F89411D1F81C2842F480328B
:1040A800C1F81C28A7F1090102F095FFD4F8940182
:1040B800D0F8001821F4FE61C0F80018E80708BF1E
:1040C80003F02EFC02B0B0BD49F2886049F2C46228
:1040D800C0F60000C0F600023C2104F08DFBB0B52C
:1040E80002AF054601F005FE03F025FC044603F087
:1040F80015FCD5F89401C16B0269002A09D402693C
:10410800002A5CBF0269002A03D40269B2F1FF3FAA
:10411800F2DCC2684FF6FF63CBF6FF731A4002F178
:104128008042C2600269002A09D40269002A5CBF81
:104138000269002A03D40269B2F1FF3FF2DC026986
:1041480042F0010202610269D20709D00269D2076E
:104158001CBF02695FEAC27202D00269D207F2D1BB
:10416800826BB1F5045F42F48032826309DBB1F5FA
:10417800405F15DAB1F5045F16D0B1F50C5F13D0C6
:104188001AE0B1F5885F18BFB1F5905F41D1816B36
:1041980041F400118163816B21F4E01181630BE02C
:1041A80018BFB1F5445F07D1816B21F40011816319
:1041B800016841F0C0010160002141F60302C0F826
:1041C800001ED0F8041841F00201C0F80418D0F815
:1041D800001891430331C0F800180121C0F81018E5
:1041E80043F61001C8F2040181614FF0FF314161CB
:1041F800816841F001018160D0F8041821F00201C2
:10420800C0F80418E00718BFB0BDBDE8B04003F01F
:1042180087BBB1F5005FC7D0CEE7F0B503AF2DE996
:10422800000FD7E904A98C46D7E902E803F07F011B
:104238005FEA0C6308D082B1012203291BD905214A
:104248001046BDE8000FF0BD72B10122032922D942
:1042580005211046BDE8000FF0BD90F88C219107AC
:1042680014D4022301212DE090F88D2191071ED44A
:104278000223012186E090F88C3102FA01F42342EE
:1042880078D005211046BDE8000FF0BD510713D4C2
:104298000423022116E090F88D3102FA01F423423A
:1042A80000F0B88005211046BDE8000FF0BD5107A9
:1042B80063D40423022165E011074FF0030100F1E4
:1042C800A48008231A4380F88C2100F5BC7232F8C8
:1042D80011302BB1012205211046BDE8000FF0BDB9
:1042E800032313FA8AF5B0F8786110234FEA950E84
:1042F800BEF1100FB0F87AE1B0F886C1B0F884B119
:104308007644B0F8704188BFAB08B0F87C51B0F87B
:104318007EE11C443544B0F880817544B0F8826170
:104328004544B0F888E135445D4405EB0C06764415
:1043380014FA86F61E36B6F5A07F2FD822F811306B
:1043480001EB4103002200F8232000EB83005023F7
:1043580061F07F01C370FB684371BB68A0F801205E
:1043680080F809900172A0F806A003711046BDE814
:10437800000FF0BD43EA0402A5E711074FF003015F
:1043880043D408231A4380F88D21032212FA8AF4B1
:10439800D0E95B6303EB9402B24205D90122042100
:1043A8001046BDE8000FF0BDA608D0F87441D0F85B
:1043B8006851A64288BF3446C0E95C24C1EBC102FB
:1043C80005EB830300EB8200502280F86F20002267
:1043D800C0E920621E0E80F87C301B0AA0F86D2010
:1043E800826780F86C2080F8759080F87410A0F8C7
:1043F80072A080F8718080F870E080F87F60A0F883
:104408007D301046BDE8000FF0BD01221046BDE822
:10441800000FF0BD43EA0402B5E7F0B503AF2DE99C
:10442800000F85B01E469246884683464FEAC20969
:1044380082B14D464446D4E9000132464B6A59469A
:104448009847BBF8000040F0020006282CD1083439
:10445800083DF0D1707A58B3BBF8000040F0020074
:10446800062821D1DBF80C000921ABF80010006800
:10447800BFF35F8F002800F0D9809BF8121011F06D
:104488007C0F04D14FF0A040012202F004FEDBF8BB
:1044980018000068BFF35F8F002800F0C7809BF802
:1044A8001E1011F07C0F1DD005B0BDE8000FF0BD47
:1044B800317AB07902294DD001291CD00029CBD1FD
:1044C800002868D0062856D00828C5D19BF88E0247
:1044D80001210491A7F1260102380391B0FA80F076
:1044E800400998E04FF0A040012202F0D4FD05B049
:1044F800BDE8000FF0BDB0B30A28ADD17588FF2D17
:104508000DD9BBF8000040F002000628CCD158466F
:1045180005B0BDE8000FBDE8F040FCF783BBB9F17A
:10452800000F72D0F8E802014A6B29469047A9F1BA
:104538000809C007F3D0012007F8261C0490A7F14A
:10454800260003A903905846FCF7E7FA05B0BDE832
:10455800000FF0BD00287FF47FAF708810F00C0FBB
:1045680028D0012037E0BBF8000004289CD10020A7
:10457800ABF8240037E07188524630885B46CDE9B5
:1045880000010BF1B400414600F060F9C0B2082800
:104598003FF462AF88E79BF88C0202229BF88D12E9
:1045A8000492A7F1260240000392C0B2084327F8FC
:1045B800260C32E040F6001142B200F00700C5F2C6
:1045C8000001B2F1FF3FC8BF01F5007141EA401098
:1045D8000068C0F34050BBF8001004297FF464AFB2
:1045E800ABF824000020BBF806100122ABF800202D
:1045F800022928BF0221CBE92B015846FBF7E9FF26
:10460800C0B208283FF428AF4EE701200490A7F174
:1046180026000390002007F8260C03A95846FCF74B
:104628007CFAC0B208283FF417AF3DE749F2704062
:1046380049F29442C0F60000C0F60002222104F0BC
:10464800DBF8D4D4F0B503AF2DE9000F81B01E46D6
:10465800894683464FEAC20A82B155464C46D4E998
:10466800000132460B6A59469847BBF8000040F0F3
:10467800020006282CD10834083DF0D1707A58B3CE
:10468800BBF8000040F00200062821D1DBF80C003E
:104698000921ABF800100068BFF35F8F002800F015
:1046A800CA809BF8121011F07C0F04D14FF0A04083
:1046B800012202F0F0FCDBF818000068BFF35F8FFE
:1046C800002800F0B8809BF81E1011F07C0F20D055
:1046D80001B0BDE8000FF0BD317AB079B6F80080BE
:1046E800E9B301291FD00229CAD101284BD00328D8
:1046F80008BFB8F1000FC3D1708810F00C0F40F05C
:10470800928000F083014FF0A040012202F0C3FC28
:1047180089E04FF0A040012201B0BDE8000FBDE8DC
:10472800F04002F0B8BC0B28AAD1768846EA080007
:10473800FF2838D8BAF1000F61D0F9E802014246E3
:104748008B6B31469847AAF1080A0028F2D05846E0
:1047580001B0BDE8000FBDE8F040FBF745BD0138EA
:1047680008283FF68DAFDFE800F0060539052D056E
:104778000505410084E7B8F1010F7FF481AF0020FF
:104788008BF88C024FE0B8F1000F7FF479AF708896
:1047980010F00C0F47D100F083014FF0A040002229
:1047A80002F079FC3FE0BBF8000040F00200062868
:1047B8007FF48EAF584601B0BDE8000FBDE8F04069
:1047C800FCF730BAA8F1010080B27F28BFF458AFD7
:1047D800DBF888024146FEF7C8FB21E0B8F1010F7B
:1047E8007FF44EAF01208BF88C021CE0B8F1000F6B
:1047F80013D0B8F1010F7FF443AF022011E0B8F1F4
:10480800000F10D0BBF8000040F0020006287FF42B
:104818005FAF5846FCF706FA32E79BF88E0210B1F4
:1048280001208BF88E025846FBF7DEFCC0B2082840
:104838003FF426AF4CE749F2704049F29442C0F683
:104848000000C0F60002222103F0D6FFF0B503AF46
:104858002DE900078AB0BD680E464FF0FF3401907D
:10486800A9B204EB11210E2952D8DFE801F0084360
:104878000D51515151515151515151514C0001A9B2
:104888001846FCF774F9FEE029067AD0D7F80C90A0
:104898005FFA85FCBCF1040F80F08A80D0F8C01163
:1048A8000022A1EBC1014FEA810E1EEB02062FD0B8
:1048B80081181FFA89F50C8BAC4200F0CA8016F1FA
:1048C8001C0425D08C8EAC4200F0C08016F1380450
:1048D8001ED0B1F85040AC4200F0BA8016F1540432
:1048E80016D0B1F86C107032A942DED11044A0F194
:1048F8001C01AEE001A802A902901846CDE90362A6
:10490800FCF78AF8BFE0B0F8CA01B0F5007F29D1FA
:10491800188840F00200062840F0C580D8680921B0
:1049280019800068BFF35F8F002800F0C180997C70
:1049380011F07C0F06D14FF0A04001221C4602F076
:10494800AAFB234698690068BFF35F8F002800F030
:10495800AF80997F11F07C0F09D008200AB0BDE81C
:104968000007F0BD18463146FBF70EFF8BE04FF00D
:10497800A040012202F08FFB08200AB0BDE8000722
:10498800F0BDD0F8C0110022CDE90822CDE90622F9
:104998001029CDE90422CDE902220A4628BF1022B7
:1049A80000294DD002F0030C042912D200222FE076
:1049B8009846002A6FD006EBC204D6E900014A46A1
:1049C8004B6929469847002857D10836A642F4D1A2
:1049D80061E0910800F15008C900A1EB92010022A2
:1049E8004FEA011E02A9A1F108040021451838F870
:1049F80001907031AE8E0432B5F86CA08E452D8BC7
:104A080024F8085F6680A4F80490A4F806A0EDD105
:104A1800BCF1000F14D0C2EBC201BCF1010F00EBD6
:104A2800810002A9068B21F8126009D001EB42012E
:104A3800868EBCF1020F4E801CBFB0F850008880F3
:104A480002A901AA1846FBF779FF1CE01C3100E017
:104A580038319846BCF1010F09D0BCF1020F02D0E1
:104A68000422084606E001F108000C2202E001F1E8
:104A780010001422006870B18958CDE9020102A91A
:104A88004046FBF7FFFEC0B2082808BF08200AB05E
:104A9800BDE80007F0BDB8F80000434640F002004A
:104AA80006283FF43BAF07200AB0BDE80007F0BD79
:104AB80049F2704049F29442C0F60000C0F6000284
:104AC800222103F099FED4D4F0B503AF2DE9000FED
:104AD80095B0D0F88842064607A88846154621466C
:104AE800FEF762FA96F88E22BDF81C10032A0FD141
:104AF80000294FF0000018BF03290FD096F88F2225
:104B0800042A00F00881042086F88E2286F88F0295
:104B18000020DFE801F003113207030015B0BDE8FB
:104B2800000FF0BD032086F88F2286F88E02002041
:104B380015B0BDE8000FF0BD2046FFF770F8002063
:104B48004FF48061002D86F8900286F88C02A6F852
:104B58008E123080E2D008EBC504A8F1080555F89C
:104B6800080F69688969884705F10800A042F6D1ED
:104B7800002015B0BDE8000FF0BDBDF82010BDF84D
:104B88001E00BDF82220CDE90401084340EA0209CD
:104B980006925FEAC97048D00698C00726D10498E3
:104BA800C00708D009A83146FBF754FB9DF82D0033
:104BB800052840F0A28004208DF839009DF83900BE
:104BC80004281BD09DF83700F8B180282BD1DDE9E7
:104BD8000C120FABBDF83800CDE90F124146ADF805
:104BE800440030462A46FFF718FC1CE00CA8314662
:104BF800FBF749FC9DF839000428E3D10598C00764
:104C08001CBF3046FBF758FD0DE0DDE90C1212AB76
:104C1800BDF83800CDE912124146ADF850003046D3
:104C28002A46FFF70FFD29F00109E800B9F1000F46
:104C3800CDE9028501904BD00398002858D0DDE9D2
:104C48000110A0F1080A01264FF0020B00EB010841
:104C580002200546069854461BEA000F0AD054F86D
:104C6800080F61688A6A3146904704F10800404598
:104C7800F5D10EE004981BEA000F0AD0544654F808
:104C8800080F6168CA6A3146904704F10800404538
:104C9800F5D105981BEA000F0CD066F07F04564644
:104CA80056F8080F71680A6B2146904706F108000C
:104CB8004045F5D129EA0B095FEA094008D0102DD3
:104CC80028464FEA4B0B2E4638BF01300F2DC0D96E
:104CD800039868B1DDE90110A0F10805441855F8FA
:104CE800080F6968C969884705F10800A042F6D12C
:104CF800012015B0BDE8000FF0BDDDE90912BDF8CF
:104D08002C00ADF83800CDE90C129DF839000428C4
:104D18003FF474AF56E749F24C7049F26872C0F636
:104D28000000C0F600021C2103F00CFDF0B503AF33
:104D38002DE9000F85B00446886800287CD14FF023
:104D4800FF3092F8CFA18860002001F10C05CDE971
:104D580002A0032090460E4600902846002101221A
:104D68000023FFF75AFA8946B168C00701F101012B
:104D7800B16079D100295FD14FF0FF308021B06058
:104D88000020CDE902A003200090284601228023BC
:104D9800FFF743FAC0077BD1B3684FF4407032681D
:104DA80006F5D27BA4F81F00581C002AA177A4F8A6
:104DB8001CA0C4F818B0B06044D14FF0FF310028EF
:104DC800316045D12846B160FFF789F9B0680130F4
:104DD800B06043D34FF0FF308021B06004F124006D
:104DE800BFF35F8FC6F8A451BFF35F8F03F0F1FEE6
:104DF8004FF440704146A4F8130004F1B4004FF496
:104E0800EA72C4F8885284F81290A4F810A0C4F882
:104E18000CB003F01DFD0020042184F88E02C4E9C3
:104E28002B00C4F8A4002080A4F88F12A4F88C02E8
:104E380005B0BDE8000FF0BD49F61810C0F6000037
:104E480003F0FEFB49F62810C0F6000003F0F8FB5B
:104E580049F63810C0F6000003F0F2FB49F6481096
:104E6800C0F6000003F0ECFB49F6380049F278730D
:104E7800C0F60000A7F11E02009049F28870C0F643
:104E88000000C0F60003202107F81E9C03F077FC01
:104E9800B06849F27873A7F11D0207F81D1C0130AC
:104EA800B06049F62800C0F60003C0F600002021D3
:104EB800009049F28870C0F6000003F060FC80B5ED
:104EC8006F46007849F2A8720B4649F6B801C0F659
:104ED8000001C0F6000251F8201052F820201846B0
:104EE800BDE8804003F0F9B8F0B503AF4DF8048D84
:104EF8008268012A3ED1C3684269934260D205693B
:104F0800D0F818C0EC5C0134EC540CF10204944263
:104F18002CD80CF580739646934238BF9E46A34220
:104F280046D3AEEB0403052B20D38B790E7A91F888
:104F380007E091F80980022E89882B5505EB0403B8
:104F480099704FEA1121D9704FF0010183F804E0FC
:104F580088BFF11E3601CCB246EA8806012C08BF8C
:104F6800711C59700CF10703934207D902205DF8B0
:104F7800048BF0BD07205DF8048BF0BD944528D262
:104F8800072105F80C100CF1010191423FBF0522E1
:104F98006A54836108203CBF5DF8048BF0BD49F674
:104FA800E8030846C0F6000311461A4603F010FC51
:104FB80049F6F8032046C0F60003714603F06CFB7F
:104FC80049F608141846C0F600041146224603F0B4
:104FD800FFFB49F6D8036046C0F6000311461A469F
:104FE80003F0F6FBF0B503AF2DE9000BD1E920C6BD
:104FF800A6EB0C06964238BF324602EB0C0EE6458D
:105008004FD3BEF1800F4CD81C682568AE6B36684C
:10501800BFF35F8F002E4DD095F93E50B5F1FF3F9D
:105028000CDCEDB205F07F05032D07D805EB45052F
:1050380006EB850E9EF80450072D06D105210122A6
:1050480041700270BDE8000BF0BD88466144064619
:1050580070469946154601F029FE01463046C9B208
:105068000829ECD121680A8E2946954207D1D9F83A
:1050780008204E4645461268531C022202E00122CF
:1050880045464E46766841603668C6E900230023E7
:10509800D5F8802003705018C5F88000BDE8000BD3
:1050A800F0BD49F678136046C0F6000371468022C9
:1050B80003F0F2FA49F2704049F29442C0F6000057
:1050C800C0F60002222103F097FBF0B503AF2DE9EB
:1050D800000F8BB00D460446F9689846286892463A
:1050E8005BB1002840F0D880B868079068790690CE
:1050F80000F10100687139B90CE0002900F0BD80A9
:10510800002840F0C980687939690591411CC0B20E
:105118006971049095F804B0A8680BF10101297130
:10512800002840F0B3804FF0FF300821A860FF202E
:1051380005F10C06CDE902100620802100903046CA
:105148000022FFF76AF8AA68C00702F10102AA6004
:1051580040F0A8802868002840F0928095F80490D4
:10516800002A09F10100287140F090804FF0FF30CB
:105178000991A8600020CDE902A0052000903046E2
:1051880000210022FFF749F8AA68C00702F10102CE
:10519800AA6040F09B80002A78D152464FF0FF3039
:1051A800CDF820809046A8600020CDE90280052037
:1051B8008A460090304680210022FFF72EF8C0076B
:1051C80001BF84F844B084F8459040F2FF60A4F829
:1051D800270001BF099884F826000820A08401BF91
:1051E80005F5D2724FF4A063A4F83F3084F83E105E
:1051F80001BFA4F83C80A263A4F8333084F832A03D
:1052080001BFA4F83080E262A968069B01BFA360D1
:10521800089BE360079B01BF2361049B6361FB68F4
:1052280001BFA361059BC4E90732013101BFA96031
:105238000021A4F84610A17101BFA0804FF41650B8
:1052480020600BB004BFBDE8000FF0BDA86849F6A8
:105258008813A7F11D0207F81D1C0130A86049F644
:10526800A810C0F60003C0F600000F21009049F610
:105278009810C0F6000003F082FA00283FF44AAF05
:1052880049F66810C0F6000003F0DAF949F618107C
:10529800C0F6000003F0D4F949F65810C0F6000033
:1052A80003F0CEF949F6B81049F68813C0F60000A5
:1052B800A7F11F02009049F6981007F81F1CC0F6C6
:1052C8000000C0F600030F2103F059FA49F6A810B0
:1052D80049F68813C0F60000A7F11E02009049F6AF
:1052E800981007F81E1CC0F60000C0F600030F2136
:1052F80003F045FA80B56F46007849F2A8720B466C
:1053080049F64C21C0F60001C0F6000251F8201001
:1053180052F820201846BDE8804002F0DEBEB0B545
:1053280002AF096800248B685D1C42D0D1F804E004
:1053380073453ED2D1F800C014788D600CF8034054
:105348006C1C4FF0000434D0754532D254780CF8F8
:1053580005409D1C6C1C4FF000048D6029D07545DC
:1053680027D294780CF80540DD1C6C1C4FF0000423
:105378008D601ED075451CD2D4780CF805401D1DD3
:105388006C1C4FF000048D6013D0754511D2147950
:105398000CF805405D1D6C1C4FF000048D6008D0B2
:1053A80075453FBF52790CF805209A1D8A6038BFB1
:1053B80007240460B0BDF0B503AF2DE9000F87B036
:1053C80005460868002840F0868091F804B00C462D
:1053D80088680BF101012171002876D1D7F808807F
:1053E8004FF0FF30A060402004F10C069246CDE952
:1053F8000208062000903046002100229946FEF758
:105408000CFFA268C00702F10102A26069D1002A5C
:105418005BD14FF0FF3005914146A0604020D04657
:10542800CDE902014FF0060A304680210022CDF86E
:1054380000A0FEF7F2FEC00701BF85F8ADB0C5E9D0
:10544800298985F8A0A0BA6801BF85F89F2085F84A
:105458009E104023A5F89C3001BF04F5D270C5F812
:10546800980085F894A085F8932001BF059985F8E0
:105478009210A5F89030C5F88C0001BF022085F87D
:10548800AC00A068002101BF85F8891029600130AF
:10549800A06002BF07B0BDE8000FF0BDA06849F6E4
:1054A8008813A7F11D0207F81D1C0130A06049F6FA
:1054B800B810C0F60003C0F600000F21009049F6AE
:1054C8009810C0F6000003F05AF949F61810C0F613
:1054D800000003F0B5F849F66810C0F6000003F0C4
:1054E800AFF849F6B81049F68813C0F60000A7F1DE
:1054F8001E02009049F6981007F81E1CC0F600001E
:10550800C0F600030F2103F03AF9D0B502AF90F8C6
:10551800AD3054889C4209D1537A92F806C0012BC9
:1055280005D0002B08BFBCF1060F32D0D0BDBCF1AE
:10553800010F18BFBCF1020F48D1088840F00200E3
:105548000628F3D1C86809220A800068BFF35F8F74
:10555800002800F085808A7C12F07C0F07D10C4669
:1055680011464FF0A040012201F095FD21468869BF
:105578000068BFF35F8F002872D0897F11F07C0F1D
:1055880018BFD0BD4FF0A0400122BDE8D04001F0C7
:1055980082BD5278212A2AD0222A04BF0A88042AE6
:1055A800C4D10122D0E92903CC884FF0000C0A802D
:1055B80001F1A402A34238BF1C4682E80910C1F8D1
:1055C800B0400846BDE8D040FBF703B8BCF1030F74
:1055D800ACD190F8AC000A8802282ED142F0020023
:1055E8000628A3D10846BDE8D040FBF71BBB0A88B4
:1055F800042A9BD142F20122C378A1F8292042F261
:105608000912C0F21012D0F8A8004A620022C1F8AC
:10561800AC200124CA8881F82B00000A0C80092AD2
:1056280081F8283028BF0922C1F8B02081F82C0061
:105638000846BDE8D040FAF7CCBF042A7FF476AF1D
:10564800CA88012381F8240000200B80002A18BF93
:105658000122C1E92B020846BDE8D040FAF7B9BFDC
:1056680049F2704049F29442C0F60000C0F60002C8
:10567800222103F0C1F8F0B503AF2DE90007A0B06F
:10568800137A012B16D190F8AD3056889E4211D16D
:105698009379092B12D00A2B00F0AC800B2B04D184
:1056A80090F8AC30022B40F09D80088840F0020052
:1056B80006281DD020B0BDE80007F0BD158840F2CF
:1056C800041C94880426B5F5806F6FF00703C0F2B8
:1056D800023C03EA551238BF2CFA02F6802C31D965
:1056E8000A88002380F8893042F002000628E1D1B8
:1056F800C86809220A800068BFF35F8F002800F09D
:10570800A4808A7C12F07C0F07D10C4611464FF01A
:10571800A040012201F0BFFC214688690068BFF360
:105728005F8F002800F09180897F11F07C0FC1D134
:105738004FF0A040012220B0BDE80007BDE8F040CE
:1057480001F0A9BC814688466846802103F041FAE9
:10575800D8F8B020812A80F08380A242C0F08980E6
:10576800EA4608F1240150462246EDB203F070F8EB
:1057780009F104005146802203F06AF8B8F80000E5
:1057880089F88960062889F88850C9F8844091D139
:10579800D8F8180041460068BFF35F8F002854D03E
:1057A80091F91E10B1F1FF3F3FF784AFC9B201F084
:1057B8007F0103293FF67EAF01EB410100EB810039
:1057C800017907293FF476AF0121002201F06EFA32
:1057D800C0B2082804BF0820A8F8000020B0BDE81F
:1057E8000007F0BD83782BB91278002A18BF012270
:1057F80080F8AC20088806287FF45CAF88690068C8
:10580800BFF35F8F08B391F91E20B2F1FF3F3FF756
:1058180051AFD2B202F07F02032A3FF64BAF02EB40
:10582800420200EB82000279072A3FF443AF0C469C
:105838000121002201F03AFAC0B2082804BF08206A
:10584800208020B0BDE80007F0BD49F2704049F261
:105858009442C0F60000C0F60002222102F0CCFFFC
:1058680049F250431146C0F600030020802202F09E
:1058780013FF49F638230020C0F60003214602F042
:105888000BFFB0B502AF84B005460C46037803227F
:1058980095F8AD1040780090204601F01EFFC0B288
:1058A80008282CD1D5F8A81042F2012027F80C0CB2
:1058B8004FF48872E878072327F80F2CA7F10F0216
:1058C80007F80D0C080A07F80A1C212107F8090C2B
:1058D800204601F060FDC0B2082810D195F8940068
:1058E800072807D005F18C012046FFF7FDFAC1B261
:1058F800082904D195F8A000072802D1082004B08F
:10590800B0BD05F198012046FFF7EEFA04B0B0BD2E
:10591800D0B502AF537A012B07D1137A012B02BFFE
:1059280090F8443054889C4200D0D0BD9379212B04
:1059380004BF9288072A28D0088840F00200062869
:10594800F3D1C86809220A800068BFF35F8FE0B30B
:105958008A7C12F07C0F07D10C4611464FF0A0400C
:10596800012201F098FB214688690068BFF35F8F28
:1059780058B3897F11F07C0F18BFD0BD4FF0A040FD
:105988000122BDE8D04001F086BB0A88042ACCD1A8
:10599800CA88002390F804C0012490F805E0072A7B
:1059A800C1F8AC3083790068486208460C8081F8F9
:1059B800283081F829E081F82AC028BF0722C1F8D9
:1059C800B020BDE8D040FAF704BE49F2704049F271
:1059D8009442C0F60000C0F60002222102F00CFF3B
:1059E800D0B502AF537A012B07D1137A012B02BF2E
:1059F80090F8443054889C4200D0D0BD9379002B55
:105A080059D0202B0ED0222B2CD112780B8802F0E3
:105A1800010480F84640C2F34002062B80F8472074
:105A2800EBD14BE0D1F8B020812A75D2062A19D9DA
:105A380091F8282091F8294091F82AE0032A4B6A26
:105A4800B1F800C003604FF0000380F804E028BFFD
:105A58001A46052C827138BF2346BCF1060F4371E4
:105A6800CBD12BE0088840F002000628C5D1C868D1
:105A780009220A800068BFF35F8F002841D08A7C22
:105A880012F07C0F07D10C4611464FF0A0400122BE
:105A980001F001FB214688690068BFF35F8F80B37E
:105AA800897F11F07C0FA8D14FF0A0400122BDE8FA
:105AB800D04001F0F0BA088806289ED188690068AD
:105AC800BFF35F8FE8B191F91E20B2F1FF3F94DC7C
