:020000040800F2
:1000000000000220990100084B7E0008159C0008A2
:100010004B7E00084B7E00084B7E0008000000006D
:100020000000000000000000000000004B7E0008FF
:100030004B7E0008000000004B7E00084B7E00084D
:100040004B7E00084B7E00084B7E00084B7E00086C
:100050004B7E00084B7E00084B7E00084B7E00085C
:100060004B7E00084B7E00084B7E00084B7E00084C
:100070004B7E00084B7E00084B7E00084B7E00083C
:100080004B7E00084B7E00084B7E000800000000FD
:100090000000000000000000000000004B7E00088F
:1000A0004B7E00084B7E00084B7E00084B7E00080C
:1000B0004B7E00084B7E00084B7E00084B7E0008FC
:1000C0004B7E00084B7E00084B7E00084B7E0008EC
:1000D0004B7E00084B7E00084B7E000800000000AD
:1000E0004B7E00084B7E00084B7E0008000000009D
:1000F0000000000000000000000000004B7E00082F
:10010000000000004B7E00084B7E00084B7E00087C
:1001100000000000000000000000000000000000DF
:100120004B7E00084B7E00084B7E00084B7E00088B
:100130004B7E0008000000000000000000000000EE
:100140000000000000000000000000004B7E0008DE
:100150004B7E00084B7E00084B7E00084B7E00085B
:100160004B7E00084B7E00080000000000000000ED
:10017000000000000000000000000000000000007F
:10018000000000004B7E000800000000000000009E
:080190004B7E00084B7E0008C5
:1001980007F05AFE0E480F490022814201D004C0E0
:1001A800FBE70D480D490E4A814202D008CA08C033
:1001B800FAE70C484FF47001026842EA0102026053
:1001C800BFF34F8FBFF36F8F03F080F900DE00009D
:1001D8000000002004100020000000200000002083
:1001E800F0B0000888ED00E0F0B503AF4DF8048DDD
:1001F8008268012A3ED1C3684269934260D2056988
:10020800D0F818C0EC5C0134EC540CF102049442B0
:100218002CD80CF580739646934238BF9E46A3426D
:1002280046D3AEEB0403052B20D38B790E7A91F8D5
:1002380007E091F80980022E89882B5505EB040305
:1002480099704FEA1121D9704FF0010183F804E049
:1002580088BFF11E3601CCB246EA8806012C08BFD9
:10026800711C59700CF10703934207D902205DF8FD
:10027800048BF0BD07205DF8048BF0BD944528D2AF
:10028800072105F80C100CF1010191423FBF05222E
:100298006A54836108203CBF5DF8048BF0BD4AF2C4
:1002A800C0230846C0F6000311461A4608F0D6FED9
:1002B8004AF2D0232046C0F60003714608F032FE09
:1002C8004AF2E0241846C0F600041146224608F017
:1002D800C5FE4AF2B0236046C0F6000311461A462E
:1002E80008F0BCFED0B502AF0188062917D1816994
:1002F8000968BFF35F8F01B390F91E20B2F1FF3F89
:100308000BDCD2B202F07F02032A06D802EB4202CB
:1003180001EB82010A79072A03D10520D0BD072005
:10032800D0BD044608460121002206F042FFC0B2B3
:10033800082804BF08202080D0BD4AF228704AF25D
:100348004C72C0F60000C0F60002222108F09AFEA6
:10035800F0B503AF4DF8048D86B00A88531E032B01
:1003680054D3052A52D0072A78D1D1F8AC50D1F805
:1003780006604A89802DD1F80230ADF80C20CDE90D
:10038800013600F2ED80CA681268BFF35F8F002A59
:1003980000F0DB808B7C032B08D8C3EBC30302EB94
:1003A800830494F87020072A40F0A2800E4640F299
:1003B8000151ADF810109DF81110002948D0F168CE
:1003C800092232800968BFF35F8F002900F0BD80E1
:1003D800B17C11F07C0F06D104464FF0A0400122F9
:1003E80007F0DCF82046B1690968BFF35F8F002980
:1003F80000F0AB80B17F11F07C0F29D104464FF09B
:10040800A040012207F0CAF8204621E0CA68126815
:10041800BFF35F8F002A00F098808B7C032B2ED8C7
:10042800C3EBC30302EB830292F87030072B26D08C
:100438000C4602F16C0104AA06460023002510466A
:10044800012206F0C0FF9DF810103046D1B9258072
:100458000421417206B05DF8048BF0BDCA681268C9
:10046800BFF35F8F002A70D08B7C032B07D8C3EBB8
:10047800C30302EB830292F87030072B0BD10521DE
:100488008DF811109DF8111005224272017006B006
:100498005DF8048BF0BD0D4602F16C0104AA044618
:1004A80000231046012206F08EFF9DF8101020460A
:1004B8000029E7D1E96809232B800968BFF35F8F1A
:1004C800002942D0A97C2A4611F07C0F06D14FF0B2
:1004D800A040012207F062F82A462046916909687F
:1004E800BFF35F8F89B3917F11F07C0FB0D186E79E
:1004F8000E46294401F1240204F16C0104ACC5F153
:1005080080038046204606F05EFF9DF810104046A6
:1005180000297FF450AF059A5119A94229D381299E
:1005280027D2D6E92B131144C6F8AC1099428FD3C1
:10053800DDE901120625BDF80C3035800160426006
:10054800038106B05DF8048BF0BD4AF228704AF2C8
:100558004C72C0F60000C0F60002222108F092FD9D
:100568004AF200332846C0F600038021802208F0B2
:10057800D9FC4AF2F0232846C0F60003802208F08E
:10058800D1FCF0B503AF2DE9000F83B00446C8686D
:100598000068BFF35F8F002800F085808A7C032AFB
:1005A80021D8C2EBC20200EB820090F87020072A23
:1005B80019D000F16C0201F124050E466846114677
:1005C8002A46802306F0FFFE9DF8000001280AD085
:1005D800019A812A72D26846294607F0EEFB9DF8F7
:1005E8000900042805D10420607203B0BDE8000F9B
:1005F800F0BDF168BDF808A09DF807509DF8069079
:10060800BDF804B0DDF800800968BFF35F8F0029EA
:1006180049D0B17C304611F07C0F05D14FF0A04095
:10062800002206F0BBFF3046BDB10421A0F80AA0A5
:10063800457280F80890A0F806B0C0F802800180E2
:10064800A4F808A0E57184F80690A4F804B0C4F8EA
:10065800008003B0BDE8000FF0BDBBF1000F11D062
:10066800BBF1800FBFD80021A0F80AA0C0E92B1B5E
:100678004172072180F80890A0F806B0C0F80280FF
:100688000180B0E70621A4F808A001800021C0F885
:10069800B010E17184F80690A180C4F8008003B01E
:1006A800BDE8000FF0BD4AF228704AF24C72C0F65D
:1006B8000000C0F60002222108F0E4FC4AF21033E0
:1006C8001146C0F600030020802208F02BFCF0B58C
:1006D80003AF4DF804BD0246D0E92934D0F8AC0088
:1006E800D2F8B010002B958B08BF8024091AA942B4
:1006F80038BF0D46291844D2A14242D89169002B2F
:1007080008BF02F124030968BFF35F8F00293FD0B7
:1007180092F91E60B6F1FF3F0CDCF6B206F07F06D8
:10072800032E07D806EB460601EB860C9CF804104E
:10073800072903D105205DF804BBF0BD191816463A
:1007480060462A4606F035FDC0B2082816D1D6F80C
:10075800AC00411927D2A14225D8D6F8B0003246BC
:10076800C6F8AC10814208D30020918BC2F8A400CF
:1007780003208D4208BF0220108008205DF804BBCA
:10078800F0BD4AF230332246C0F6000308F0CAFB37
:100798004AF228704AF24C72C0F60000C0F6000215
:1007A800222108F06FFC4AF220332246C0F60003EB
:1007B80008F0B8FBB0B502AF01884B1E0021072B2B
:1007C80042D80022DFE803F004230E3E3E3E3E3CC2
:1007D800FFF77DFFC1B2B1F108020CBF114601223B
:1007E8001046B0BDC1680968BFF35F8F00293ED0CD
:1007F800817C11F07C0F05D104464FF0A04006F033
:10080800CDFE20460521018000210020B0BD816970
:100818000968BFF35F8F51B390F91E20B2F1FF3F13
:100828000BDCD2B202F07F02032A06D802EB4202A6
:1008380001EB82010A79072A08D101200521B0BD00
:10084800012102801046B0BD0020B0BD0446084614
:1008580001210022012506F0ACFCC1B2082904D10F
:100868000320208000210020B0BD2846B0BD4AF2F8
:1008780028704AF24C72C0F60000C0F6000222212D
:1008880008F000FCF0B503AF2DE9000B8CB00C4666
:100898000188042953D1B0F8069080462430059089
:1008A80001A80B9009A800211546802207910692FD
:1008B8008DF8201003910191099107F011FAC0B247
:1008C800082838D16DB104EBC50609ADD4E900019B
:1008D8000A6929469047C1B208292CD10834B44284
:1008E800F4D109A807F055FA079980292CD9D8F826
:1008F8000C100922A8F800200968BFF35F8FA1B384
:1009080098F81210404611F07C0F05D14FF0A04026
:10091800012206F043FE404681690968BFF35F8FF4
:1009280019B3817F11F07C0F04D14FF0A040012250
:1009380006F034FE02200CB0BDE8000BF0BD072025
:100948000CB0BDE8000BF0BD012340460022A8F81A
:100958000030494538BF8946C0E92B29FFF7B7FE63
:10096800C0B20CB0BDE8000BF0BD4AF228704AF2E4
:100978004C72C0F60000C0F60002222108F082FB8B
:10098800B0B502AF88B00288042A39D18024D1E9F1
:10099800001205940446C588243000230490684654
:1009A80006938DF81C300293009307F06DF8C0B2DF
:1009B800082823D10699802925D9E16809222280AF
:1009C8000968BFF35F8F61B3A17C204611F07C0FEB
:1009D80005D14FF0A040012206F0E0FD20468169D4
:1009E8000968BFF35F8FE1B1817F11F07C0F04D1FB
:1009F8004FF0A040012206F0D1FD022008B0B0BDA2
:100A0800072008B0B0BD0123204600222380A94258
:100A180038BF0D46C0E92B25FFF759FEC0B208B014
:100A2800B0BD4AF228704AF24C72C0F60000C0F617
:100A38000002222108F026FBB0B502AF88B08C4630
:100A48000188042940D111688023C58800220593B4
:100A580000F12403D1F8C011049306924B00212B16
:100A68008DF81C20029200923FD20446684603216A
:100A7800624606F013FFC0B2082823D106998029E0
:100A880025D9E168092222800968BFF35F8FB1B3D5
:100A9800A17C204611F07C0F05D14FF0A040012227
:100AA80006F07CFD204681690968BFF35F8F31B38A
:100AB800817F11F07C0F04D14FF0A040012206F095
:100AC8006DFD022008B0B0BD072008B0B0BD0123FD
:100AD800204600222380A94238BF0D46C0E92B25B5
:100AE800FFF7F5FDC0B208B0B0BD4AF2503C002097
:100AF800C0F6000C19462022634608F013FA4AF2A1
:100B080028704AF24C72C0F60000C0F6000222219A
:100B180008F0B8FAF0B503AF2DE9000788B00288ED
:100B2800042A57D1D1E9002580238C680021B0F828
:100B380006908046243004900691684605938DF807
:100B48001C1002910091116806F050FDC0B20828EF
:100B58003CD18CB105EBC4066C464FF0000AD5E9D0
:100B68000001CA6821469047C1B208292ED108352C
:100B7800CDF808A0B542F2D1684606F01FFE0699E6
:100B880080292CD9D8F80C100922A8F80020096867
:100B9800BFF35F8FA1B398F81210404611F07C0F95
:100BA80005D14FF0A040012206F0F8FC40468169CB
:100BB8000968BFF35F8F19B3817F11F07C0F04D1EF
:100BC8004FF0A040012206F0E9FC022008B0BDE881
:100BD8000007F0BD072008B0BDE80007F0BD0123FD
:100BE80040460022A8F80030494538BF8946C0E988
:100BF8002B29FFF76CFDC0B208B0BDE80007F0BDB7
:100C08004AF228704AF24C72C0F60000C0F60002A0
:100C1800222108F037FAF0B503AF4DF804BD028879
:100C2800042A06D14C68802C07D902205DF804BB41
:100C3800F0BD07205DF804BBF0BD096800F124028F
:100C4800C68805461046224608F072FF0020B442C6
:100C580038BF2646C5E92B060120288028465DF8BE
:100C680004BBBDE8F040FFF732BDB0B502AF88B0B5
:100C78000288042A38D109680446C588243000222D
:100C8800802304906846069205938DF81C200292F2
:100C9800009206F052FEC0B2082823D10699802996
:100CA80025D9E168092222800968BFF35F8F61B303
:100CB800A17C204611F07C0F05D14FF0A040012205
:100CC80006F06CFC204681690968BFF35F8FE1B1CB
:100CD800817F11F07C0F04D14FF0A040012206F073
:100CE8005DFC022008B0B0BD072008B0B0BD0123EC
:100CF800204600222380A94238BF0D46C0E92B2593
:100D0800FFF7E5FCC0B208B0B0BD4AF228704AF25D
:100D18004C72C0F60000C0F60002222108F0B2F9B9
:100D2800D0B502AFC168092202800968BFF35F8F9E
:100D3800D9B1817C11F07C0F06D104464FF0A04058
:100D4800012206F02BFC204681690968BFF35F8FFA
:100D580059B1817F11F07C0F18BFD0BD4FF0A04072
:100D68000122BDE8D04006F019BC4AF228704AF2C8
:100D78004C72C0F60000C0F60002222108F082F989
:100D880080B56F460830BDE8804004F01DBA80B5D4
:100D98006F460830BDE8804004F07EBA80B56F46E3
:100DA80090F84620C9B2914218BF80BDBDE8804086
:100DB80000F0C4B880B56F460830BDE8804004F044
:100DC80010BBF0B503AF2DE9000F83B08246D1F810
:100DD800D4000E8F0D4601F15008C0F180019946EC
:100DE800B1421CD2D5F8D040211A8031B14253D338
:100DF800802C01D180210CE07F2C00F29780934653
:100E0800021B08EB0401404608F068F9D5E93410E4
:100E18005A46401A0023C0F18001C5E93430B14276
:100E280065D381195CD280295AD8696B0968BFF3E8
:100E38005F8F002966D095F83A30032B07D8C3EBAB
:100E4800C30301EB830191F87030072B09D105200A
:100E580001218AF801008AF8001003B0BDE8000FEC
:100E6800F0BD144608EB00026C3101A8334606F0C9
:100E7800AAFA9DF804109DF80500012908BF00286A
:100E880003D00029E4D1029800E000202246D5E9E9
:100E980034410844C5F8D400A04206D10120AAF87C
:100EA800000003B0BDE8000FF0BD001B484538BF87
:100EB800814609EB0406A6422FD3812E2DD208EBDA
:100EC800040110464A4608F033FE0020CAF8049090
:100ED8008AF80000C5F8D06003B0BDE8000FF0BD87
:100EE8004AF2E8338022C0F6000308F01BF84AF201
:100EF80090304AF2D832C0F60000C0F60002452110
:100F080008F0C0F84AF228704AF24C72C0F60000A5
:100F1800C0F60002222108F0B5F84AF270332046E4
:100F2800C0F600033146802207F0FCFF4AF2603227
:100F38002046C0F60002802108F090F8F0B503AF13
:100F48004DF804BDD0E90035D0E95621022B18BF71
:100F58000025914224D1002D4AD0016C0968BFF3C5
:100F68005F8F00296DD090F94620B2F1FF3F3BDC3E
:100F7800D2B202F07F02032A36D802EB420201EB1A
:100F880082010A79072A2FD0044608460121002247
:100F9800012506F00EF9C0B2082847D1256044E0C3
:100FA800038F092D88BF013B9CB2891AA14238BF23
:100FB8000C46A11891423CD381293AD2016C0968A8
:100FC800BFF35F8FE9B390F94630B3F1FF3F0BDC15
:100FD800DBB203F07F03032B06D803EB430301EBDB
:100FE80083031979072909D105205DF804BBF0BDF1
:100FF8000021016008205DF804BBF0BD0646D8302A
:1010080081181846224606F0D4F8C0B208280DD137
:10101800D6F85801691C328F2044C6F858010120BF
:10102800944208BF0220C6E9000100205DF804BB15
:10103800F0BD4AF270331046C0F60003802207F074
:1010480071FF4AF228704AF24C72C0F60000C0F6EE
:101058000002222108F016F880B56F46002080BDF6
:1010680080B56F4680BD80B56F46002080BD80B5D5
:101078006F46002080BD80B56F46082080BD80B5D2
:101088006F4680BD80B56F46024640695FFA81FCB5
:1010980020B1117C614504BF916980BD107FD2E900
:1010A8000831C0B26045184618BF0020002B08BFA1
:1010B800184680BD80B56F460822002182814FF412
:1010C8001652C0E95611C0E93411A0F84E108173C8
:1010D8008260016080BD80B56F4600F00100BDE808
:1010E800804006F095BE80B56F46ADF5226D06F0DE
:1010F80084FE41F20001C2F200010A783AB1FFF71A
:10110800EAFF4AF20840C0F6000007F074FF012227
:101118000A7006F07DFE06F091FE044606F081FE98
:1011280041F20100E207C2F20000017808D161B182
:1011380006F079FE4AF21840C0F6000007F05BFF9F
:101148000029F7D10121017003E00121017006F0A7
:101158006AFE21AC342104F1080008F092FC46F63E
:1011680000404FF0010BC0F2DC2017ADCDE929B0EB
:1011780047F64000C0F27D102146CDE921B028464F
:101188008DF8BDB005F023F84EF21000CEF2000045
:10119800016821F0040101601B98C008309005F136
:1011A800280005F01AF840F210084FF40019C4F2AC
:1011B80002084FF4800A58F8040C4FF40001022288
:1011C80031AC6BF3010048F8040C58F8040C002605
:1011D80045236BF3830048F8040C58F8040C6BF3B0
:1011E800051048F8040C58F8040C6BF3871048F8FD
:1011F800040C58F8040C6BF3092048F8040CC8F8E0
:10120800089058F80C0C20F0200048F80C0C58F8FE
:10121800100C6BF38B2048F8100CC8F808A058F88D
:101228000C0C20F0400048F80C0C58F8100C6BF32C
:101238000D3048F8100CC8F8081058F80C0C20F0BD
:10124800800048F80C0C58F8100C6BF38F3048F8F5
:10125800100CC8F80890C8F808A0C8F808100A21A7
:1012680058F80C0C20F4006048F80C0CD8F814005E
:1012780061F30F30C8F8140058F8100C62F3975057
:1012880048F8100C58F80C0C20F4805048F80C0C56
:10129800D8F8140061F31340C8F8140058F8100C7B
:1012A8001B9962F3196048F8100C4FF0A0404AF2FD
:1012B8002842CDE9981040F200014FF48060C2F254
:1012C80000018E9107218F90C0F60002ADF8C8008A
:1012D8009BA88DF820128DF804128DF8E8118DF86E
:1012E800CC118DF8B0118DF894118DF878118DF816
:1012F8005C118DF840118DF834118DF828118DF896
:101308001C118DF810118DF804118DF8F8108DF856
:10131800EC108DF8E0108DF8D4102146ADF8586225
:10132800CDE99466CDE992669A96ADF85C62CDE90E
:10133800906633963196CDF800B003F098FC0DF224
:101348007C452146402200232846019603F019FBDC
:10135800C7AC294604F10800482208F044FB04F110
:1013680050004FF48871C79608F08BFB0DF5FE65A9
:101378004FF4D27105F11C0008F083FB322031A92B
:10138800C0F200102A46CDF8C00940F2EF20C0F69E
:101398000100CDF8B0B9CDF8BC091020C0F210207A
:1013A800CDF8B80941F2C060C2F2DA70CDF8B409DC
:1013B80040F20940CDF808080C20CDF804084AF29C
:1013C8006D40C0F60000CDF800080F20CDF8FC07EE
:1013D8004AF27940C0F60000CDF8F8070420CDF8AD
:1013E800F4074AF28C40C0F60000CDF8F0070DF281
:1013F8007C4004F011FD0DF21C744AF29041C0F6D5
:101408000001C3222046CDF81467CDF8106708F014
:10141800EAFA0DF5FC608DF81FB703300E90A7F1BE
:101428005C008DF8E86702300D9004F1B600049076
:1014380004F1A900059004F19C00069004F18F00C6
:10144800079004F18200089004F17500099004F1F6
:1014580068000A9004F15B000B9004F14E000C90B8
:1014680004F141000F9004F13400129004F12700B8
:10147800159004F11A00139004F10D001690C7A8F6
:10148800CDF8E467D830CDF8E0678DF8EE678DF8D1
:10149800ED678DF8EC678DF8EB678DF8EA678DF8E6
:1014A800E967149006E0002801F00D8630A80A21AB
:1014B80004F050FE4AF29050A7F15C05C0F6000017
:1014C800022247F8500C4AF25450C0F60000294650
:1014D80047F8580C9BA847F85C0C0DF27C40C7AC49
:1014E80047F8544C04F066FB0DF5E26228462146A5
:1014F8000823FFF766FC17F85C0C002804BF9DF86A
:1015080010073F2840F01C839DF8EE579DF8E92707
:101518009DF8EA479DF8EB979DF8ECA79DF8ED67D5
:1015280075B1DDF87804CDE91024C0F180011629E1
:101538003ED8DDF87434DBB3802B24D180212FE032
:1015480056B9BAF1000F08BFB9F1000F04D1002C49
:1015580008BF002A00F0F583DDF8780448F25F152B
:10156800C0F60005CDE91024C0F18001162900F26B
:10157800BA80DDF87434002B00F0B580802B40F081
:1015880099808021A7E07F2B01F28287149CC21AE0
:10159800E118204607F0A2FDDDF87414DDF87804A0
:1015A800401A0022CDF87424C0F18001CDF87804E7
:1015B80017294FF0170438BF0C46A1B121188142F2
:1015C800C1F04B87812981F0488714992246084445
:1015D8004AF2CC51C0F6000108F0AAFADDF8780406
:1015E8002044CDF87804C7A8FFF7A8FC00204AF2E9
:1015F800F65247F80C0C0DF2EF708DF8EF5748F2E1
:101608005F1547F85C0CA7F10C00A7F15C03C0F666
:1016180000050421C0F6000247F8585C04F0DAFC23
:10162800002841D08346DDF87804C0F18004A14247
:1016380021D9DDF87434F3B1802B01D1802212E076
:101648007F2B01F22587149D0C46C21AE9182846FB
:1016580007F044FDDDF8742448F25F15DDF87804DE
:101668002146C0F60005801A0023C0F18004CDF899
:101678007434CDF87804A14238BF0C468CB12118D7
:101688008142C1F0EA86812981F0E78614992246D1
:101698000844594608F04CFADDF878042044CDF89F
:1016A8007804C7A8FFF74AFC4FF0010B8DF8EF67E5
:1016B800DEBB92E07F2B01F2EB86149DC21AE9187B
:1016C800284607F00BFDDDF8741448F25F15DDF8C5
:1016D8007804C0F60005401A0022CDF87424C0F141
:1016E8008001CDF8780417294FF0170438BF0C464D
:1016F800A1B121188142C1F0B086812981F0AD865F
:101708001499224608444AF2CC51C0F6000108F068
:101718000FFADDF878042044CDF87804C7A8FFF75D
:101728000DFC002E8DF8EF6757D000204AF2F652D4
:1017380047F80C0C0DF2EF7047F85C0CA7F10C00A1
:10174800A7F15C030421C0F6000247F8585C04F0D6
:1017580041FC002841D00446DDF87804C0F1800639
:10176800B14221D9DDF87434F3B1802B01D1802244
:1017780012E07F2B01F28C86149E0D46C21AF118D6
:10178800304607F0ABFCDDF874242946DDF8780410
:1017980048F25F15C0F60005801A0023C0F18006E4
:1017A800CDF87434CDF87804B14238BF0E468EB106
:1017B80031188142C1F05186812981F04E861499F1
:1017C80032460844214608F0B3F9DDF8780430447D
:1017D800CDF87804C7A8FFF7B1FB8DF8EFA7BAF1E9
:1017E800000F4FF4800A57D000204AF2F65247F80B
:1017F8000C0C0DF2EF7047F85C0CA7F10C00A7F188
:101808005C030421C0F6000247F8585C04F0E2FBD0
:10181800002841D00446DDF87804C0F18006B142C2
:1018280021D9DDF87434F3B1802B01D1802212E084
:101838007F2B01F22D86149E0D46C21AF1183046F0
:1018480007F04CFCDDF874242946DDF8780448F2EA
:101858005F15C0F60005801A0023CDF87434C0F176
:101868008006CDF87804B14238BF0E468EB13118E3
:101878008142C1F0F285812981F0EF8514993246C1
:101888000844214608F054F9DDF878043044CDF8CE
:101898007804C7A8FFF752FB8DF8EF97B9F1000F4E
:1018A8004FF4001957D000204AF2F65247F80C0CB2
:1018B8000DF2EF7047F85C0CA7F10C00A7F15C0380
:1018C8000421C0F6000247F8585C04F083FB0028A6
:1018D80041D00446DDF87804C0F18006B14221D930
:1018E800DDF87434F3B1802B01D1802212E07F2B14
:1018F80001F2CE85149E0D46C21AF118304607F043
:10190800EDFBDDF874242946DDF8780448F25F150C
:10191800C0F60005801A0023C0F18006CDF87434A3
:10192800CDF87804B14238BF0E468EB131188142E5
:10193800C1F09385812981F0908514993246084435
:10194800214608F0F5F8DDF878043044CDF878043D
:10195800C7A8FFF7F3FA11988DF8EF07002857D0BA
:1019680000204AF2F65247F80C0C0DF2EF7047F8D7
:101978005C0CA7F10C00A7F15C030421C0F600027F
:1019880047F8585C04F026FB002841D00446DDF8EF
:101998007804C0F18006B14221D9DDF87434F3B17E
:1019A800802B01D1802212E07F2B01F27185149ED9
:1019B8000D46C21AF118304607F090FBDDF8742482
:1019C8002946DDF8780448F25F15C0F60005801A4C
:1019D8000023CDF87434C0F18006CDF87804B14204
:1019E80038BF0E468EB131188142C1F03685812943
:1019F80081F03385149932460844214608F098F856
:101A0800DDF878043044CDF87804C7A8FFF796FAD3
:101A180010988DF8EF07002852D000204AF2F652AD
:101A280047F80C0C0DF2EF7047F85C0CA7F10C00AE
:101A3800A7F15C030421C0F6000247F8585C04F0E3
:101A4800C9FAE8B30446DDF87804C0F18006B1426B
:101A58001DD9DDF87434D3B1802B01D180220EE07A
:101A68007F2B01F21585149E0D46C21AF1183046D7
:101A780007F034FBDDF874242946DDF87804801A71
:101A88000023C0F18006CDF87434CDF87804B14253
:101A980038BF0E468EB131188142C1F0DE848129EB
:101AA80081F0DB84149932460844214608F040F856
:101AB800DDF878043044CDF87804C7A8FFF73EFA7B
:101AC800DDF87804C0F1800101291BD8DDF87434F1
:101AD800C3B1802B01D180210CE07F2B01F2D88487
:101AE800149EC21AF118304607F0F8FADDF874149B
:101AF800DDF87804401A0022CDF87424C0F1800182
:101B0800CDF8780402294FF0020438BF0C46A1B181
:101B180021188142C1F0A184812981F09E84149901
:101B280008444AF20061C0F60001224608F000F8B5
:101B3800DDF878042044CDF87804C7A8FFF7FEF94B
:101B4800C8F80890D8F800109DF82807DDF84CE090
:101B5800C90757D1012807F80CBC02D10DF21C7136
:101B680046E09DF835170129169941D09DF842178E
:101B7800012971463CD09DF84F170129159937D096
:101B88009DF85C170129129932D09DF8691701292F
:101B98000F992DD09DF8761701290C9928D09DF81A
:101BA800831701290B9923D09DF8901701290A99C9
:101BB8001ED09DF89D170129099919D09DF8AA17DB
:101BC8000129089914D09DF8B717012907990FD052
:101BD8009DF8C417012906990AD09DF8D117012943
:101BE800059905D09DF8DE170129049941F058841C
:101BF800497839B19DF8EE278A421CBF9DF8ED3728
:101C08008B4268D1D8F80010C90700F0B8800128C5
:101C180007F80CBC02D10DF21C7146E09DF835178F
:101C28000129169941D09DF84217012971463CD0E7
:101C38009DF84F170129159937D09DF85C17012990
:101C4800129932D09DF8691701290F992DD09DF866
:101C5800761701290C9928D09DF8831701290B992B
:101C680023D09DF8901701290A991ED09DF89D1739
:101C78000129099919D09DF8AA170129089914D0A2
:101C88009DF8B717012907990FD09DF8C4170129A6
:101C980006990AD09DF8D1170129059905D09DF814
:101CA800DE170129049941F0FB8349789DF8EE2756
:101CB8008A4202D10DF2EE715FE09DF8ED278A426B
:101CC80002D10DF2ED7158E09DF8EC278A422AD135
:101CD8000DF2EC7151E09DF8EC678E421CBF9DF847
:101CE800EB578D423FF48EAF9DF8EA478C421CBFFC
:101CF8009DF8E9C78C453FF485AF002A01F0A98219
:101D0800002B01F0D582002E01F00183002D01F097
:101D18002D83002C01F05983BCF1000F04BF0DF294
:101D2800E97211706EE79DF8EB278A4202D10DF235
:101D3800EB7122E09DF8EA278A4218D10DF2EA7188
:101D48001BE0DDF87804C0F18001162901F2118248
:101D5800DDF874344FF400194FF4800A002B01F0B9
:101D68002282802B41F00A82802101F014BA9DF86A
:101D7800E9278A4203D10DF2E97100220A70D8F8E6
:101D880000200221022807F80C1C02D10DF21C7158
:101D980046E09DF835170229169941D09DF842175B
:101DA800022971463CD09DF84F170229159937D062
:101DB8009DF85C170229129932D09DF869170229FB
:101DC8000F992DD09DF8761702290C9928D09DF8E7
:101DD800831702290B9923D09DF8901702290A9995
:101DE8001ED09DF89D170229099919D09DF8AA17A8
:101DF8000229089914D09DF8B717022907990FD01E
:101E08009DF8C417022906990AD09DF8D11702290E
:101E1800059905D09DF8DE170229049941F0408301
:101E2800497892072FD4002958D09DF8EE278A4286
:101E38001CBF9DF8ED378B4250D09DF8EC678E4261
:101E48001CBF9DF8EB578D4248D09DF8EA478C425D
:101E58001CBF9DF8E9C78C4540D0002A01F0FE81DF
:101E6800002B01F02A82002E01F05682002D01F08D
:101E78008282002C01F0AE82BCF1000F2ED10DF24F
:101E8800E97201F0A9BA9DF8EE278A4202D10DF253
:101E9800EE7121E09DF8ED278A4202D10DF2ED7135
:101EA8001AE09DF8EC278A4202D10DF2EC7113E09A
:101EB8009DF8EB278A4202D10DF2EB710CE09DF8F8
:101EC800EA278A4202D10DF2EA7105E09DF8E92776
:101ED8008A4203D10DF2E97100220A70D8F8002075
:101EE8000321032807F80C1C02D10DF21C7146E0EF
:101EF8009DF835170329169941D09DF842170329F3
:101F080071463CD09DF84F170329159937D09DF895
:101F18005C170329129932D09DF8691703290F9984
:101F28002DD09DF8761703290C9928D09DF8831792
:101F380003290B9923D09DF8901703290A991ED0DD
:101F48009DF89D170329099919D09DF8AA17032907
:101F5800089914D09DF8B717032907990FD09DF851
:101F6800C417032906990AD09DF8D11703290599A2
:101F780005D09DF8DE170329049941F0918249782C
:101F880052072FD4002958D09DF8EE278A421CBF4B
:101F98009DF8ED378B4250D09DF8EC678E421CBF00
:101FA8009DF8EB578D4248D09DF8EA478C421CBFFC
:101FB8009DF8E9C78C4540D0002A01F05281002BDA
:101FC80001F07E81002E01F0AA81002D01F0D6815A
:101FD800002C01F00482BCF1000F2ED10DF2E97241
:101FE80001F0FFB99DF8EE278A4202D10DF2EE7199
:101FF80021E09DF8ED278A4202D10DF2ED711AE039
:102008009DF8EC278A4202D10DF2EC7113E09DF89D
:10201800EB278A4202D10DF2EB710CE09DF8EA271A
:102028008A4202D10DF2EA7105E09DF8E9278A4259
:1020380003D10DF2E97100220A70D8F800200421BA
:10204800042807F80C1C02D10DF21C7146E09DF81B
:1020580035170429169941D09DF84217042971466D
:102068003CD09DF84F170429159937D09DF85C1777
:102078000429129932D09DF8691704290F992DD097
:102088009DF8761704290C9928D09DF88317042900
:102098000B9923D09DF8901704290A991ED09DF812
:1020A8009D170429099919D09DF8AA170429089998
:1020B80014D09DF8B717042907990FD09DF8C417B5
:1020C800042906990AD09DF8D1170429059905D045
:1020D8009DF8DE170429049941F0E2814978120736
:1020E8002FD4002958D09DF8EE278A421CBF9DF8AE
:1020F800ED378B4250D09DF8EC678E421CBF9DF89F
:10210800EB578D4248D09DF8EA478C421CBF9DF89A
:10211800E9C78C4540D0002A01F0A680002B01F0C9
:10212800D280002E01F0FE80002D01F02A81002CC3
:1021380001F05A81BCF1000F2ED10DF2E97201F0C5
:1021480055B99DF8EE278A4202D10DF2EE7121E0D1
:102158009DF8ED278A4202D10DF2ED711AE09DF843
:10216800EC278A4202D10DF2EC7113E09DF8EB27BF
:102178008A4202D10DF2EB710CE09DF8EA278A42FF
:1021880002D10DF2EA7105E09DF8E9278A4203D1F0
:102198000DF2E97100220A70D8F80010052205280E
:1021A80007F80C2C02D10DF21C7046E09DF835079B
:1021B8000528169841D09DF84207052870463CD05E
:1021C8009DF84F070528159837D09DF85C07052816
:1021D800129832D09DF8690705280F982DD09DF8E0
:1021E800760705280C9828D09DF8830705280B98B2
:1021F80023D09DF8900705280A981ED09DF89D07C2
:102208000528099819D09DF8AA070528089814D018
:102218009DF8B707052807980FD09DF8C40705282B
:1022280006980AD09DF8D1070528059805D09DF88D
:10223800DE070528049841F033814078C9062DD47B
:10224800002856D09DF8EE1781421CBF9DF8ED2757
:1022580082424ED09DF8EC3783421CBF9DF8EB6755
:10226800864246D09DF8EA5785421CBF9DF8E9474B
:1022780084423ED0002900F0FA87002A01F0268027
:10228800002B01F05280002E01F07E80002D01F01D
:10229800B08074BB0DF2E97101F0ADB89DF8EE178E
:1022A800814202D10DF2EE7021E09DF8ED178142D6
:1022B80002D10DF2ED701AE09DF8EC17814202D1BF
:1022C8000DF2EC7013E09DF8EB17814202D10DF28C
:1022D800EB700CE09DF8EA17814202D10DF2EA702A
:1022E80005E09DF8E917814203D10DF2E97000215C
:1022F800017020200621C8F80800C8F808A0D8F8FE
:1023080000209DF8280707F80C1C062802D10DF2BA
:102318001C7146E09DF835170629169941D09DF89D
:102328004217062971463CD09DF84F170629159982
:1023380037D09DF85C170629129932D09DF8691795
:1023480006290F992DD09DF8761706290C9928D0C3
:102358009DF8831706290B9923D09DF89017062915
:102368000A991ED09DF89D170629099919D09DF83C
:10237800AA170629089914D09DF8B71706290799AE
:102388000FD09DF8C417062906990AD09DF8D117D1
:102398000629059905D09DF8DE170629049941F00C
:1023A8007F804978D2072FD1002958D09DF8EE2791
:1023B8008A421CBF9DF8ED378B4250D09DF8EC67E0
:1023C8008E421CBF9DF8EB578D4248D09DF8EA47D6
:1023D8008C421CBF9DF8E9C78C4540D0002A00F00C
:1023E8004987002B00F07587002E00F0A187002D8B
:1023F80000F0CD87002C01F00180BCF1000F2ED138
:102408000DF2E97200F0FCBF9DF8EE278A4202D176
:102418000DF2EE7121E09DF8ED278A4202D10DF20E
:10242800ED711AE09DF8EC278A4202D10DF2EC71A9
:1024380013E09DF8EB278A4202D10DF2EB710CE014
:102448009DF8EA278A4202D10DF2EA7105E09DF86B
:10245800E9278A4203D10DF2E97100220A70D8F8FF
:1024680000200721072807F80C1C02D10DF21C7167
:1024780046E09DF835170729169941D09DF842176F
:10248800072971463CD09DF84F170729159937D071
:102498009DF85C170729129932D09DF8691707290A
:1024A8000F992DD09DF8761707290C9928D09DF8FB
:1024B800831707290B9923D09DF8901707290A99A4
:1024C8001ED09DF89D170729099919D09DF8AA17BC
:1024D8000729089914D09DF8B717072907990FD02D
:1024E8009DF8C417072906990AD09DF8D11707291E
:1024F800059905D09DF8DE170729049940F0D08783
:10250800497892072FD4002958D09DF8EE278A429F
:102518001CBF9DF8ED378B4250D09DF8EC678E427A
:102528001CBF9DF8EB578D4248D09DF8EA478C4276
:102538001CBF9DF8E9C78C4540D0002A00F09D8655
:10254800002B00F0C986002E00F0F586002D00F063
:102558002187002C00F05787BCF1000F2ED10DF217
:10256800E97200F052BF9DF8EE278A4202D10DF2BF
:10257800EE7121E09DF8ED278A4202D10DF2ED714E
:102588001AE09DF8EC278A4202D10DF2EC7113E0B3
:102598009DF8EB278A4202D10DF2EB710CE09DF811
:1025A800EA278A4202D10DF2EA7105E09DF8E9278F
:1025B8008A4203D10DF2E97100220A70D8F800208E
:1025C8000821082807F80C1C02D10DF21C7146E0FE
:1025D8009DF835170829169941D09DF84217082902
:1025E80071463CD09DF84F170829159937D09DF8AA
:1025F8005C170829129932D09DF8691708290F9994
:102608002DD09DF8761708290C9928D09DF88317A6
:1026180008290B9923D09DF8901708290A991ED0EC
:102628009DF89D170829099919D09DF8AA17082916
:10263800089914D09DF8B717082907990FD09DF865
:10264800C417082906990AD09DF8D11708290599B1
:1026580005D09DF8DE170829049940F021874978AC
:1026680052072FD4002958D09DF8EE278A421CBF64
:102678009DF8ED378B4250D09DF8EC678E421CBF19
:102688009DF8EB578D4248D09DF8EA478C421CBF15
:102698009DF8E9C78C4540D0002A00F0F185002B51
:1026A80000F01D86002E00F04986002D00F075868A
:1026B800002C00F0AD86BCF1000F2ED10DF2E972AE
:1026C80000F0A8BE9DF8EE278A4202D10DF2EE7105
:1026D80021E09DF8ED278A4202D10DF2ED711AE052
:1026E8009DF8EC278A4202D10DF2EC7113E09DF8B7
:1026F800EB278A4202D10DF2EB710CE09DF8EA2734
:102708008A4202D10DF2EA7105E09DF8E9278A4272
:1027180003D10DF2E97100220A70D8F800200921CE
:10272800092807F80C1C02D10DF21C7146E09DF82F
:1027380035170929169941D09DF84217092971467C
:102748003CD09DF84F170929159937D09DF85C178B
:102758000929129932D09DF8691709290F992DD0A6
:102768009DF8761709290C9928D09DF8831709290F
:102778000B9923D09DF8901709290A991ED09DF826
:102788009D170929099919D09DF8AA1709290899A7
:1027980014D09DF8B717092907990FD09DF8C417C9
:1027A800092906990AD09DF8D1170929059905D054
:1027B8009DF8DE170929049940F0728649781207B6
:1027C8002FD4002958D09DF8EE278A421CBF9DF8C7
:1027D800ED378B4250D09DF8EC678E421CBF9DF8B8
:1027E800EB578D4248D09DF8EA478C421CBF9DF8B4
:1027F800E9C78C4540D0002A00F04585002B00F041
:102808007185002E00F09D85002D00F0C985002CF3
:1028180000F00386BCF1000F2ED10DF2E97200F032
:10282800FEBD9DF8EE278A4202D10DF2EE7121E03D
:102838009DF8ED278A4202D10DF2ED711AE09DF85C
:10284800EC278A4202D10DF2EC7113E09DF8EB27D8
:102858008A4202D10DF2EB710CE09DF8EA278A4218
:1028680002D10DF2EA7105E09DF8E9278A4203D109
:102878000DF2E97100220A70D8F800100A220A281D
:1028880007F80C2C02D10DF21C7046E09DF83507B4
:102898000A28169841D09DF842070A2870463CD06D
:1028A8009DF84F070A28159837D09DF85C070A2825
:1028B800129832D09DF869070A280F982DD09DF8F4
:1028C80076070A280C9828D09DF883070A280B98C1
:1028D80023D09DF890070A280A981ED09DF89D07D6
:1028E8000A28099819D09DF8AA070A28089814D028
:1028F8009DF8B7070A2807980FD09DF8C4070A283B
:1029080006980AD09DF8D1070A28059805D09DF8A1
:10291800DE070A28049840F0C3854078C9062DD4FC
:10292800002856D09DF8EE1781421CBF9DF8ED2770
:1029380082424ED09DF8EC3783421CBF9DF8EB676E
:10294800864246D09DF8EA5785421CBF9DF8E94764
:1029580084423ED0002900F09984002A00F0C58402
:10296800002B00F0F184002E00F01D85002D00F0F2
:10297800598574BB0DF2E97100F056BD9DF8EE174C
:10298800814202D10DF2EE7021E09DF8ED178142EF
:1029980002D10DF2ED701AE09DF8EC17814202D1D8
:1029A8000DF2EC7013E09DF8EB17814202D10DF2A5
:1029B800EB700CE09DF8EA17814202D10DF2EA7043
:1029C80005E09DF8E917814203D10DF2E970002175
:1029D800017040200B21C8F808004FF40000C8F827
:1029E8000800D8F800209DF8280707F80C1C0B28C9
:1029F80002D10DF21C7146E09DF835170B29169986
:102A080041D09DF842170B2971463CD09DF84F17CD
:102A18000B29159937D09DF85C170B29129932D0DC
:102A28009DF869170B290F992DD09DF876170B295A
:102A38000C9928D09DF883170B290B9923D09DF862
:102A480090170B290A991ED09DF89D170B290999F3
:102A580019D09DF8AA170B29089914D09DF8B71713
:102A68000B2907990FD09DF8C4170B2906990AD08E
:102A78009DF8D1170B29059905D09DF8DE170B296C
:102A8800049940F00D854978D2072FD1002958D0F4
:102A98009DF8EE278A421CBF9DF8ED378B4250D037
:102AA8009DF8EC678E421CBF9DF8EB578D4248D0CD
:102AB8009DF8EA478C421CBF9DF8E9C78C4540D079
:102AC800002A00F0E683002B00F01284002E00F0AC
:102AD8003E84002D00F06A84002C00F0A884BCF12C
:102AE800000F2ED10DF2E97200F0A3BC9DF8EE277D
:102AF8008A4202D10DF2EE7121E09DF8ED278A425B
:102B080002D10DF2ED711AE09DF8EC278A4202D14C
:102B18000DF2EC7113E09DF8EB278A4202D10DF219
:102B2800EB710CE09DF8EA278A4202D10DF2EA71B6
:102B380005E09DF8E9278A4203D10DF2E9710022E8
:102B48000A70D8F800200C210C2807F80C1C02D1B8
:102B58000DF21C7146E09DF835170C29169941D0E5
:102B68009DF842170C2971463CD09DF84F170C2947
:102B7800159937D09DF85C170C29129932D09DF819
:102B880069170C290F992DD09DF876170C290C99E7
:102B980028D09DF883170C290B9923D09DF89017FE
:102BA8000C290A991ED09DF89D170C29099919D04E
:102BB8009DF8AA170C29089914D09DF8B7170C2965
:102BC80007990FD09DF8C4170C2906990AD09DF8CB
:102BD800D1170C29059905D09DF8DE170C29049901
:102BE80040F05E84497892072ED4002957D09DF88A
:102BF800EE278A421CBF9DF8ED378B424FD09DF8D7
:102C0800EC678E421CBF9DF8EB578D4247D09DF86C
:102C1800EA478C421CBF9DF8E9C78C453FD0002A83
:102C280000F03A83002B00F06683002E00F09283B8
:102C3800002D00F0BE83002C00F0FE83BCF1000FD5
:102C48002DD10DF2E972F9E39DF8EE278A4202D1FF
:102C58000DF2EE7121E09DF8ED278A4202D10DF2C6
:102C6800ED711AE09DF8EC278A4202D10DF2EC7161
:102C780013E09DF8EB278A4202D10DF2EB710CE0CC
:102C88009DF8EA278A4202D10DF2EA7105E09DF823
:102C9800E9278A4203D10DF2E97100220A70D8F8B7
:102CA80000200D210D2807F80C1C02D10DF21C7113
:102CB80046E09DF835170D29169941D09DF8421721
:102CC8000D2971463CD09DF84F170D29159937D01D
:102CD8009DF85C170D29129932D09DF869170D29B6
:102CE8000F992DD09DF876170D290C9928D09DF8AD
:102CF80083170D290B9923D09DF890170D290A9950
:102D08001ED09DF89D170D29099919D09DF8AA176D
:102D18000D29089914D09DF8B7170D2907990FD0D8
:102D28009DF8C4170D2906990AD09DF8D1170D29C9
:102D3800059905D09DF8DE170D29049940F0B08358
:102D4800497852072ED4002957D09DF8EE278A4299
:102D58001CBF9DF8ED378B424FD09DF8EC678E4233
:102D68001CBF9DF8EB578D4247D09DF8EA478C422F
:102D78001CBF9DF8E9C78C453FD0002A00F08F8220
:102D8800002B00F0BB82002E00F0E782002D00F03F
:102D98001383002C00F05583BCF1000F2DD10DF2E8
:102DA800E97250E39DF8EE278A4202D10DF2EE71E6
:102DB80021E09DF8ED278A4202D10DF2ED711AE06B
:102DC8009DF8EC278A4202D10DF2EC7113E09DF8D0
:102DD800EB278A4202D10DF2EB710CE09DF8EA274D
:102DE8008A4202D10DF2EA7105E09DF8E9278A428C
:102DF80003D10DF2E97100220A70D8F800200E21E3
:102E08000E2807F80C1C02D10DF21C7146E09DF843
:102E180035170E29169941D09DF842170E2971468B
:102E28003CD09DF84F170E29159937D09DF85C179F
:102E38000E29129932D09DF869170E290F992DD0B5
:102E48009DF876170E290C9928D09DF883170E291E
:102E58000B9923D09DF890170E290A991ED09DF83A
:102E68009D170E29099919D09DF8AA170E290899B6
:102E780014D09DF8B7170E2907990FD09DF8C417DD
:102E88000E2906990AD09DF8D1170E29059905D063
:102E98009DF8DE170E29049940F00283497812073D
:102EA8002ED4002957D09DF8EE278A421CBF9DF8E2
:102EB800ED378B424FD09DF8EC678E421CBF9DF8D2
:102EC800EB578D4247D09DF8EA478C421CBF9DF8CE
:102ED800E9C78C453FD0002A00F0E481002B00F0C0
:102EE8001082002E00F03C82002D00F06882002C39
:102EF80000F0AB82BCF1000F2DD10DF2E972A6E211
:102F08009DF8EE278A4202D10DF2EE7121E09DF87C
:102F1800ED278A4202D10DF2ED711AE09DF8EC27F7
:102F28008A4202D10DF2EC7113E09DF8EB278A4238
:102F380002D10DF2EB710CE09DF8EA278A4202D12A
:102F48000DF2EA7105E09DF8E9278A4203D10DF2F6
:102F5800E97100220A70D8F800100F220F2807F82C
:102F68000C2C02D10DF21C7046E09DF835070F2895
:102F7800169841D09DF842070F2870463CD09DF81E
:102F88004F070F28159837D09DF85C070F2812981F
:102F980032D09DF869070F280F982DD09DF8760735
:102FA8000F280C9828D09DF883070F280B9823D05A
:102FB8009DF890070F280A981ED09DF89D070F28A6
:102FC800099819D09DF8AA070F28089814D09DF8D9
:102FD800B7070F2807980FD09DF8C4070F28069841
:102FE8000AD09DF8D1070F28059805D09DF8DE076F
:102FF8000F28049840F054824078C9062CD4002841
:1030080055D09DF8EE1781421CBF9DF8ED278242EE
:103018004DD09DF8EC3783421CBF9DF8EB67864284
:1030280045D09DF8EA5785421CBF9DF8E947844280
:103038003DD0002900F03981002A00F06581002B7D
:1030480000F09181002E00F0BD81002D00F001827A
:103058006CBB0DF2E971FEE19DF8EE17814202D1D9
:103068000DF2EE7021E09DF8ED17814202D10DF2CC
:10307800ED701AE09DF8EC17814202D10DF2EC7068
:1030880013E09DF8EB17814202D10DF2EB700CE0D2
:103098009DF8EA17814202D10DF2EA7005E09DF829
:1030A800E917814203D10DF2E970002101708020F7
:1030B800C8F808009DF86D020138012803D89DF86A
:1030C800181302294CD19DF80C0307283EF4EEA9E9
:1030D8000D983E2106F032FDBDF8E007402127F8A3
:1030E8005C0C022047F8181CA7F15C0147F8140C87
:1030F800A7F11C000E9A47F81C1CA7F1100147F80D
:10310800100CA7F10C0001F066FD57F80C0C07280D
:103118007EF4CCA957F8142C412A80F0A581C198D7
:103128000068BFF35F8F002800F0A7819DF90A139C
:10313800B1F1FF3F3EF7BAA9C9B201F07F010329F7
:103148003EF6B4A901EB410100EB810001790729A2
:103158003EF4ACA9A7F15C0104F02BF8FEF7A6B980
:103168009DF86C02C9077EF49EA900283EF49EA92A
:10317800A9E74FF400194FF4800A14E07F2B00F2FE
:103188008781149EC21AF118304605F0A7FFDDF8B2
:103198007414DDF87804401A0022CDF87424C0F1C4
:1031A8008001CDF8780417294FF0170438BF0C4672
:1031B800A1B121188142C0F05081812980F04D8150
:1031C8001499224608444AF2CC51C0F6000106F090
:1031D800AFFCDDF878042044CDF87804C7A8FDF7E3
:1031E800ADFEDDF87804C0F1800111291BD8DDF8A7
:1031F8007434C3B1802B01D180210CE07F2B00F205
:103208004781149EC21AF118304605F067FFDDF8B1
:103218007414DDF87804401A0022CDF87424C0F143
:103228008001CDF8780412290C4628BF1224002901
:103238003EF483AC21188142C0F00F81812980F0CF
:103248000C81149908444AF2E451C0F60001FEF7D3
:103258006CBC0DF2EE721170FEF7D4BC0DF2EE727A
:10326800BAE00DF2EE72BCE00DF2EE72BEE00DF2C5
:10327800EE71C0E00DF2EE72C2E00DF2EE72C4E043
:103288000DF2EE72C6E00DF2EE72C8E00DF2EE71CC
:10329800CAE00DF2EE72CCE00DF2EE72CEE00DF265
:1032A800EE72D0E00DF2EE72D1E00DF2EE71D2E0E6
:1032B8000DF2ED721170FEF7A5BC0DF2ED728BE008
:1032C8000DF2ED728DE00DF2ED728FE00DF2ED7101
:1032D80091E00DF2ED7293E00DF2ED7295E00DF2D2
:1032E800ED7297E00DF2ED7299E00DF2ED719BE051
:1032F8000DF2ED729DE00DF2ED729FE00DF2ED72B0
:10330800A1E00DF2ED72A2E00DF2ED71A3E00DF275
:10331800EC721170FEF776BC0DF2EC725CE00DF207
:10332800EC725EE00DF2EC7260E00DF2EC7162E0BE
:103338000DF2EC7264E00DF2EC7266E00DF2EC72E4
:1033480068E00DF2EC726AE00DF2EC716CE00DF2DF
:10335800EC726EE00DF2EC7270E00DF2EC7272E05D
:103368000DF2EC7273E00DF2EC7174E00DF2EB7299
:103378001170FEF747BC0DF2EB722DE00DF2EB7207
:103388002FE00DF2EB7231E00DF2EB7133E00DF24C
:10339800EB7235E00DF2EB7237E00DF2EB7239E0CB
:1033A8000DF2EB723BE00DF2EB713DE00DF2EB72CA
:1033B8003FE00DF2EB7241E00DF2EB7243E00DF2EB
:1033C800EB7244E00DF2EB7145E00DF2EA72117018
:1033D800FEF718BC0DF2EA721170FEF77FBD0DF210
:1033E800EA721170FEF729BE0DF2EA721170FEF74B
:1033F800D3BE0DF2EA710870FEF77BBF0DF2EA72D8
:103408001170FFF72CB80DF2EA721170FFF7D6B8F9
:103418000DF2EA721170FFF780B90DF2EA721170BD
:10342800FFF72ABA0DF2EA710870FFF7D2BA0DF267
:10343800EA721170FFF785BB0DF2EA721170FFF79F
:103448002EBC0DF2EA721170D7E40DF2EA72117017
:1034580081E50DF2EA71087029E64AF2803380228C
:10346800C0F6000305F05EFD4AF61C031146C0F6DF
:1034780000030020402205F055FD4AF228704AF268
:103488004C72C0F60000C0F60002222105F0FAFDD9
:103498004AF260321846C0F60002802105F0DEFDCF
:1034A80048F221004AF2F832C0F60000A7F15C01A8
:1034B80047F8580CA7F10C0047F85C0C49F6E9608E
:1034C800C0F60000C0F6000205F0E2FD80B56F46C8
:1034D800FDF709FEF0B503AF4DF804BD0C460546EF
:1034E80004F0ACFC064604F09CFCD5F89401D0F836
:1034F800001864F30A11C0F80018F00705D15DF848
:1035080004BBBDE8F04004F08EBC5DF804BBF0BD20
:10351800F0B503AF2DE9000F83B00E46814604F0E5
:103528008DFC054604F07DFCD6F89411D1F83CB02A
:103538004C69E0040FD4A0046ED4B4F1FF3F40F30B
:10354800FE82200500F11583E00600F120830022A9
:103558004FF0000ADDE34FF480504861D6F894013B
:10356800D0F81C180021C0F81C183079072875D12C
:10357800307C072840F09080307F072840F0AA80F0
:1035880096F82800072840F0C58096F834000728E8
:1035980040F0E08096F84000072840F0FB8096F85D
:1035A8004C00072840F0168196F85800072840F08C
:1035B800318196F86400072840F04C8196F8700035
:1035C800072840F0678196F88C00072840F085812D
:1035D80096F8A800072840F0A48196F8C4000728A8
:1035E80040F0C38196F8E000072840F0E28196F8A1
:1035F800FC00072840F0018296F81801072840F0DF
:10360800208296F83401072840F03F8296F850014E
:10361800072840F05D827AE24FF400504861D6F8FE
:103628009401D0F80818C1F34101DFE811F08D02C8
:1036380004007D050400D6F890214AF6C041C0F286
:10364800D8018A42C0F07B854EF2C011C0F2E40175
:103658008A4280F085824FF4705104E3307A3168F1
:1036680010F07F0001EB4010D0F8001921F4004160
:10367800C0F80019D0F8001900F5106006D0B1F1B3
:10368800FF3FDEBF016841F080410160FF2181609A
:10369800307C07283FF470AF307DF16810F07F0070
:1036A80001EB4010D0F8001921F40041C0F80019CE
:1036B800D0F8001900F5106006D0B1F1FF3FDEBF69
:1036C800016841F080410160FF218160307F072857
:1036D8003FF456AF96F82000B16910F07F0001EB77
:1036E8004010D0F8001921F40041C0F80019D0F8B2
:1036F800001900F5106006D0B1F1FF3FDEBF016888
:1037080041F080410160FF21816096F82800072878
:103718003FF43BAF96F82C00716A10F07F0001EB84
:103728004010D0F8001921F40041C0F80019D0F871
:10373800001900F5106006D0B1F1FF3FDEBF016847
:1037480041F080410160FF21816096F8340007282C
:103758003FF420AF96F83800316B10F07F0001EB92
:103768004010D0F8001921F40041C0F80019D0F831
:10377800001900F5106006D0B1F1FF3FDEBF016807
:1037880041F080410160FF21816096F840000728E0
:103798003FF405AF96F84400F16B10F07F0001EBA1
:1037A8004010D0F8001921F40041C0F80019D0F8F1
:1037B800001900F5106006D0B1F1FF3FDEBF0168C7
:1037C80041F080410160FF21816096F84C00072894
:1037D8003FF4EAAE96F85000B16C10F07F0001EBB0
:1037E8004010D0F8001921F40041C0F80019D0F8B1
:1037F800001900F5106006D0B1F1FF3FDEBF016887
:1038080041F080410160FF21816096F85800072847
:103818003FF4CFAE96F85C00716D10F07F0001EBBD
:103828004010D0F8001921F40041C0F80019D0F870
:10383800001900F5106006D0B1F1FF3FDEBF016846
:1038480041F080410160FF21816096F864000728FB
:103858003FF4B4AE96F86800316E10F07F0001EBCB
:103868004010D0F8001921F40041C0F80019D0F830
:10387800001900F5106006D0B1F1FF3FDEBF016806
:1038880041F080410160FF21816096F870000728AF
:103898003FF499AE96F87400F16E00F07F0001EBEA
:1038A8004010D0F8001B21F40041C0F8001BD0F8EC
:1038B800001B00F53060B1F1FF3F07DC96F874108B
:1038C80049061EBF016841F080410160FF21816007
:1038D80096F88C0007283FF47BAE96F89000D6F84F
:1038E800881000F07F0001EB4010D0F8001B21F495
:1038F8000041C0F8001BD0F8001B00F53060B1F1A2
:10390800FF3F07DC96F8901049061EBF016841F09A
:1039180080410160FF21816096F8A80007283FF4E4
:103928005CAE96F8AC00D6F8A41000F07F0001EB6E
:103938004010D0F8001B21F40041C0F8001BD0F85B
:10394800001B00F53060B1F1FF3F07DC96F8AC10C2
:1039580049061EBF016841F080410160FF21816076
:1039680096F8C40007283FF43DAE96F8C800D6F88C
:10397800C01000F07F0001EB4010D0F8001B21F4CC
:103988000041C0F8001BD0F8001B00F53060B1F111
:10399800FF3F07DC96F8C81049061EBF016841F0D2
:1039A80080410160FF21816096F8E00007283FF41C
:1039B8001EAE96F8E400D6F8DC1000F07F0001EBAC
:1039C8004010D0F8001B21F40041C0F8001BD0F8CB
:1039D800001B00F53060B1F1FF3F07DC96F8E410FA
:1039E80049061EBF016841F080410160FF218160E6
:1039F80096F8FC0007283FF4FFAD96F80001D6F8CA
:103A0800F81000F07F0001EB4010D0F8001B21F403
:103A18000041C0F8001BD0F8001B00F53060B1F180
:103A2800FF3F07DC96F8001149061EBF016841F008
:103A380080410160FF21816096F8180107283FF452
:103A4800E0AD96F81C01D6F8141100F07F0001EBE8
:103A58004010D0F8001B21F40041C0F8001BD0F83A
:103A6800001B00F53060B1F1FF3F07DC96F81C1130
:103A780049061EBF016841F080410160FF21816055
:103A880096F8340107283FF4C1AD96F83801D6F806
:103A9800301100F07F0001EB4010D0F8001B21F43A
:103AA8000041C0F8001BD0F8001B00F53060B1F1F0
:103AB800FF3F07DC96F8381149061EBF016841F040
:103AC80080410160FF21816096F8500107281ED0CF
:103AD80096F85401D6F84C1100F07F0001EB401025
:103AE800D0F8001B21F40041C0F8001BD0F8001BDF
:103AF80000F53060B1F1FF3F07DC96F85411490634
:103B08001EBF016841F080410160FF218160D6F845
:103B18009401016941F010010161D6F89411086916
:103B2800C0067FF508AD0869C00644BF08695FEAAA
:103B3800C0607FF500AD0869C006F0D4FBE44FF023
:103B480000404861042094E0D6F890114CF27F328E
:103B5800C0F2C912914240F2FD824FF4105182E046
:103B680042F20041C0F2F4018A4207D24FF4605198
:103B780079E04FF40060486103207AE047F2803131
:103B8800C0F206118A4217D24FF450516BE0D1F8B7
:103B98001CC00CF00F08CCF3434EAEF10300022812
:103BA80013D3BEF1060F33D0BEF1020F1DD1012091
:103BB800002300FA08F26BE044F6A011C0F21A11D3
:103BC8008A421CD24FF440514DE0BBF5885F18BFC4
:103BD800BBF5905F09D101EB4810D0F8001B41F00C
:103BE8000441C0F8001BD6F89411086A00224EF070
:103BF80004004FF0000A0023062849D089E042F665
:103C08000051C0F231118A4224D24FF430512AE0D7
:103C180001EB48102A460025D0F81009C1F6F875BE
:103C2800284230D00869154620F4FC6040EA881024
:103C380020300861D6F894110869800624D50869EF
:103C4800800644BF08695FEA80601DD50869800660
:103C5800F2D419E04AF24041C0F24C118A4280F095
:103C680048824FF42051C26822F470521143C16057
:103C78000120A9F80000E80708BF04F0D4F803B051
:103C8800BDE8000FF0BD15460120002200FA08F338
:103C9800B8F1080F029500F26E82C8EBC800924690
:103CA80006EB800090F87050072D30D000F16C05BD
:103CB800E868002840F05982A87E4FF0FF32EA6099
:103CC80010BB0193AEF10603B3FA83F3086A05F15A
:103CD8001000CCF30A125B0903F005FABBF50C5F80
:103CE800C0F2FE81019B05D0BBF5405F18BFBBF554
:103CF800445F09D1D6F8940100EB4810D0F8001BB6
:103D080041F00441C0F8001BE8680130E8601A4639
:103D1800029D600303D44FF000081446FAE030799E
:103D2800072803D14FF00008144617E0307A1446EC
:103D3800D6F8941100F07F0001EB4010D0F8081974
:103D4800C90702D14FF0000808E000F51060012112
:103D58008160307A00F00F0001FA00F8307C072803
:103D680015D0307DD6F8941100F07F0001EB40109B
:103D7800D0F80819C9070AD000F510600121816040
:103D8800307D00F00F0001FA00F048EA0008307FAB
:103D9800072817D096F82000D6F8941100F07F0075
:103DA80001EB4010D0F80819C9070BD000F51060D6
:103DB8000121816096F8200000F00F0001FA00F060
:103DC80048EA000896F82800072817D096F82C002B
:103DD800D6F8941100F07F0001EB4010D0F80819D4
:103DE800C9070BD000F510600121816096F82C00FE
:103DF80000F00F0001FA00F048EA000896F83400D5
:103E0800072817D096F83800D6F8941100F07F00EC
:103E180001EB4010D0F80819C9070BD000F5106065
:103E28000121816096F8380000F00F0001FA00F0D7
:103E380048EA000896F84000072817D096F844008A
:103E4800D6F8941100F07F0001EB4010D0F8081963
:103E5800C9070BD000F510600121816096F8440075
:103E680000F00F0001FA00F048EA000896F84C004C
:103E7800072817D096F85000D6F8941100F07F0064
:103E880001EB4010D0F80819C9070BD000F51060F5
:103E98000121816096F8500000F00F0001FA00F04F
:103EA80048EA000896F85800072817D096F85C00EA
:103EB800D6F8941100F07F0001EB4010D0F80819F3
:103EC800C9070BD000F510600121816096F85C00ED
:103ED80000F00F0001FA00F048EA000896F86400C4
:103EE800072817D096F86800D6F8941100F07F00DC
:103EF80001EB4010D0F80819C9070BD000F5106085
:103F08000121816096F8680000F00F0001FA00F0C6
:103F180048EA000896F8700007281AD006F16C00E5
:103F280003F027FAC0B202280BD0012811D196F865
:103F38007400012100F00F0001FA00F04AEA000ABB
:103F480007E096F87400012100F00F0001FA00F074
:103F5800044396F88C00072812D006F1880003F075
:103F680008FAC0B260B1012896F890004FF001013C
:103F780000F00F0001FA00F00CBF4AEA000A0443FF
:103F880096F8A800072812D006F1A40003F0F1F96A
:103F9800C0B260B1012896F8AC004FF0010100F002
:103FA8000F0001FA00F00CBF4AEA000A044396F831
:103FB800C400072812D006F1C00003F0DAF9C0B235
:103FC80060B1012896F8C8004FF0010100F00F0019
:103FD80001FA00F00CBF4AEA000A044396F8E00030
:103FE800072812D006F1DC0003F0C3F9C0B260B1B3
:103FF800012896F8E4004FF0010100F00F0001FAE3
:1040080000F00CBF4AEA000A044396F8FC000728AF
:1040180012D006F1F80003F0ACF9C0B260B1012883
:1040280096F800014FF0010100F00F0001FA00F0CE
:104038000CBF4AEA000A044396F81801072812D070
:1040480006F58A7003F095F9C0B260B1012896F8B8
:104058001C014FF0010100F00F0001FA00F00CBF45
:104068004AEA000A044396F83401072812D006F5F4
:10407800987003F07EF9C0B260B1012896F8380153
:104088004FF0010100F00F0001FA00F00CBF4AEAFE
:10409800000A044396F85001072812D006F5A670C6
:1040A80003F067F9C0B260B1012896F854014FF0E7
:1040B800010100F00F0001FA00F00CBF4AEA000A03
:1040C800044344EA080050EA0A0007D0A9F8064069
:1040D8000220A9F80480A9F802A0CAE50020C8E5D2
:1040E800019BBBF5005F18BFBBF5045F3FF402AE50
:1040F8000AE643F20061C0F26E118A42FFF42DAD68
:1041080049F6E051C0F2A3118A4202D24FF400519D
:10411800A9E544F600034FF4C051C0F2E8139A42EF
:1041280038BF4FF4E0519EE54AF2A8604AF2B862FF
:10413800C0F60000C0F600020F2104F0A3FF4AF207
:1041480070604AF29862C0F60000C0F600021821BA
:1041580004F098FF4AF270604AF28862C0F60000E4
:10416800C0F60002182104F08DFF4AF26060C0F624
:10417800000004F0ABFE4AF250624046C0F600026E
:10418800092104F06BFFB0B502AF82B0044603F01A
:1041980055FE054603F045FEB4F87001D4F89411B5
:1041A8001E3082B24A62B4F87811D4F89421C0EA79
:1041B800014308449362B4F87A21D4F89431C0EAF0
:1041C80002411044C3F80411B4F87C11D4F89431B6
:1041D800C0EA01420844C3F80821B4F87E21D4F8A3
:1041E8009431C0EA02411044C3F80C1180B2B0F512
:1041F800A07F00F21D82D4F894014322016962F382
:104208000A110161D4F89401016911F0300F0BD043
:10421800016911F0300F1CBF016911F0300F03D094
:10422800016911F0300FEFD12179072951D1207C94
:10423800072861D1207F072874D194F8280007281F
:1042480040F0898094F83400072840F09D8094F865
:104258004000072840F0B18094F84C00072840F04F
:10426800C58094F85800072840F0D98094F8640075
:10427800072840F0ED8094F87000072840F001818D
:1042880094F88C00072840F0138194F8A8000728B8
:1042980040F0258194F8C400072840F0378194F84D
:1042A800E000072840F0498194F8FC00072840F016
:1042B8005B8194F81801072840F06D8194F8340167
:1042C800072840F07F8194F85001072840F090813A
:1042D800A0E1D0F81C180123227A02F01F0203FA89
:1042E80002F21143C0F81C18A7F10901204602F098
:1042F800EAFF207C07289DD0D4F894010123D0F848
:104308001C18227D02F01F0203FA02F21143C0F8C2
:104318001C1804F10C00A7F1090102F0D4FF207F5A
:1043280007288AD0D4F894010123D0F81C1894F8EF
:10433800202002F01F0203FA02F21143C0F81C18F1
:1043480004F11800A7F1090102F0BDFF94F8280054
:1043580007283FF477AFD4F894010123D0F81C184C
:1043680094F82C2002F01F0203FA02F21143C0F85D
:104378001C1804F12400A7F1090102F0A4FF94F825
:10438800340007283FF463AFD4F894010123D0F830
:104398001C1894F8382002F01F0203FA02F21143A5
:1043A800C0F81C1804F13000A7F1090102F08BFFD6
:1043B80094F8400007283FF44FAFD4F89401012344
:1043C800D0F81C1894F8442002F01F0203FA02F2F5
:1043D8001143C0F81C1804F13C00A7F1090102F0D0
:1043E80072FF94F84C0007283FF43BAFD4F89401CF
:1043F8000123D0F81C1894F8502002F01F0203FA89
:1044080002F21143C0F81C1804F14800A7F1090191
:1044180002F059FF94F8580007283FF427AFD4F862
:1044280094010123D0F81C1894F85C2002F01F02B4
:1044380003FA02F21143C0F81C1804F15400A7F162
:10444800090102F040FF94F8640007283FF413AF15
:10445800D4F894010123D0F81C1894F8682002F0CD
:104468001F0203FA02F21143C0F81C1804F160009D
:10447800A7F1090102F027FF94F8700007283FF41C
:10448800FFAE94F8741004F16C00490607D1D4F813
:104498009411D1F81C2842F48032C1F81C28A7F1E5
:1044A800090103F01BF894F88C0007283FF4EDAEDF
:1044B80094F8901004F18800490607D1D4F89411B3
:1044C800D1F81C2842F48032C1F81C28A7F1090150
:1044D80003F004F894F8A80007283FF4DBAE94F83A
:1044E800AC1004F1A400490607D1D4F89411D1F80E
:1044F8001C2842F48032C1F81C28A7F1090102F0F7
:10450800EDFF94F8C40007283FF4C9AE94F8C8102A
:1045180004F1C000490607D1D4F89411D1F81C2839
:1045280042F48032C1F81C28A7F1090102F0D6FF35
:1045380094F8E00007283FF4B7AE94F8E41004F1CB
:10454800DC00490607D1D4F89411D1F81C2842F4AC
:104558008032C1F81C28A7F1090102F0BFFF94F8C6
:10456800FC0007283FF4A5AE94F8001104F1F80008
:10457800490607D1D4F89411D1F81C2842F48032A6
:10458800C1F81C28A7F1090102F0A8FF94F8180146
:1045980007283FF493AE94F81C1104F58A70490675
:1045A80007D1D4F89411D1F81C2842F48032C1F80C
:1045B8001C28A7F1090102F091FF94F8340107289B
:1045C8003FF481AE94F8381104F59870490607D184
:1045D800D4F89411D1F81C2842F48032C1F81C2870
:1045E800A7F1090102F07AFF94F85001072811D0C9
:1045F80094F8541104F5A670490607D1D4F894111B
:10460800D1F81C2842F48032C1F81C28A7F109010E
:1046180002F064FFD4F89401D0F8001821F4FE6188
:10462800C0F80018E80708BF03F0FDFB02B0B0BDF2
:104638004AF202604AF24062C0F60000C0F6000288
:104648003C2104F01FFDB0B502AF054601F0D4FDD2
:1046580003F0F4FB044603F0E4FBD5F89401C16BC6
:104668000269002A09D40269002A5CBF0269002A8B
:1046780003D40269B2F1FF3FF2DCC2684FF6FF6370
:10468800CBF6FF731A4002F18042C2600269002A29
:1046980009D40269002A5CBF0269002A03D40269AE
:1046A800B2F1FF3FF2DC026942F0010202610269E5
:1046B800D20709D00269D2071CBF02695FEAC27239
:1046C80002D00269D207F2D1826BB1F5045F42F4DD
:1046D8008032826309DBB1F5405F15DAB1F5045F1A
:1046E80016D0B1F50C5F13D01AE0B1F5885F18BF8A
:1046F800B1F5905F41D1816B41F400118163816B09
:1047080021F4E01181630BE018BFB1F5445F07D1D4
:10471800816B21F400118163016841F0C0010160DF
:10472800002141F60302C0F8001ED0F8041841F039
:104738000201C0F80418D0F8001891430331C0F8FA
:1047480000180121C0F8101843F61001C8F204013E
:1047580081614FF0FF314161816841F00101816061
:10476800D0F8041821F00201C0F80418E00718BFB7
:10477800B0BDBDE8B04003F056BBB1F5005FC7D08F
:10478800CEE7F0B503AF2DE9000FD7E904A98C46B1
:10479800D7E902E803F07F015FEA0C6308D082B131
:1047A800012203291BD905211046BDE8000FF0BDE1
:1047B80072B10122032922D905211046BDE8000F54
:1047C800F0BD90F88C21910714D4022301212DE02B
:1047D80090F88D2191071ED40223012186E090F8DC
:1047E8008C3102FA01F4234278D005211046BDE845
:1047F800000FF0BD510713D40423022116E090F8EE
:104808008D3102FA01F4234200F0B88005211046E8
:10481800BDE8000FF0BD510763D40423022165E011
:1048280011074FF0030100F1A48008231A4380F810
:104838008C2100F5BC7232F811302BB10122052110
:104848001046BDE8000FF0BD032313FA8AF5B0F84F
:10485800786110234FEA950EBEF1100FB0F87AE197
:10486800B0F886C1B0F884B17644B0F8704188BF1A
:10487800AB08B0F87C51B0F87EE11C443544B0F880
:1048880080817544B0F882614544B0F888E13544C8
:104898005D4405EB0C06764414FA86F61E36B6F52A
:1048A800A07F2FD822F8113001EB4103002200F835
:1048B800232000EB8300502361F07F01C370FB6865
:1048C8004371BB68A0F8012080F809900172A0F834
:1048D80006A003711046BDE8000FF0BD43EA0402CC
:1048E800A5E711074FF0030143D408231A4380F8C2
:1048F8008D21032212FA8AF4D0E95B6303EB940258
:10490800B24205D9012204211046BDE8000FF0BDCE
:10491800A608D0F87441D0F86851A64288BF34463A
:10492800C0E95C24C1EBC10205EB830300EB820004
:10493800502280F86F200022C0E920621E0E80F805
:104948007C301B0AA0F86D20826780F86C2080F804
:10495800759080F87410A0F872A080F8718080F8C3
:1049680070E080F87F60A0F87D301046BDE8000F49
:10497800F0BD01221046BDE8000FF0BD43EA040275
:10498800B5E7F0B503AF2DE9000F8BB00D4604462F
:10499800F9689846286892465BB1002840F0D880AC
:1049A800B86807906879069000F10100687139B914
:1049B8000CE0002900F0BD80002840F0C98068792B
:1049C80039690591411CC0B26971049095F804B029
:1049D800A8680BF101012971002840F0B3804FF05D
:1049E800FF300821A860FF2005F10C06CDE9021070
:1049F80006208021009030460022FFF7C2FEAA68F8
:104A0800C00702F10102AA6040F0A88028680028C7
:104A180040F0928095F80490002A09F1010028716D
:104A280040F090804FF0FF300991A8600020CDE958
:104A380002A005200090304600210022FFF7A1FEC9
:104A4800AA68C00702F10102AA6040F09B80002A10
:104A580078D152464FF0FF30CDF820809046A860BC
:104A68000020CDE9028005208A460090304680214A
:104A78000022FFF786FEC00701BF84F844B084F81F
:104A8800459040F2FF60A4F8270001BF099884F818
:104A980026000820A08401BF05F5D2724FF4A06358
:104AA800A4F83F3084F83E1001BFA4F83C80A2630C
:104AB800A4F8333084F832A001BFA4F83080E26251
:104AC800A968069B01BFA360089BE360079B01BF21
:104AD8002361049B6361FB6801BFA361059BC4E973
:104AE8000732013101BFA9600021A4F84610A17165
:104AF80001BFA0804FF4165020600BB004BFBDE882
:104B0800000FF0BDA8684AF25C73A7F11D0207F810
:104B18001D1C0130A8604AF27C70C0F60003C0F684
:104B280000000F2100904AF26C70C0F6000004F0FB
:104B38006CFA00283FF44AAF4AF21870C0F6000039
:104B480004F0C4F94AF2C860C0F6000004F0BEF9E7
:104B58004AF20870C0F6000004F0B8F94AF28C7006
:104B68004AF25C73C0F60000A7F11F0200904AF2F7
:104B78006C7007F81F1CC0F60000C0F600030F2178
:104B880004F043FA4AF27C704AF25C73C0F6000003
:104B9800A7F11E0200904AF26C7007F81E1CC0F6BE
:104BA8000000C0F600030F2104F02FFA80B56F460D
:104BB80000784AF640020B464AF6E001C0F60001CA
:104BC800C0F6000251F8201052F820201846BDE81F
:104BD800804003F0B4BDB0B502AF096800248B680B
:104BE8005D1C42D0D1F804E073453ED2D1F800C034
:104BF80014788D600CF803406C1C4FF0000434D01E
:104C0800754532D254780CF805409D1C6C1C4FF049
:104C180000048D6029D0754527D294780CF805409A
:104C2800DD1C6C1C4FF000048D601ED075451CD235
:104C3800D4780CF805401D1D6C1C4FF000048D60E5
:104C480013D0754511D214790CF805405D1D6C1C04
:104C58004FF000048D6008D075453FBF52790CF8BD
:104C680005209A1D8A6038BF07240460B0BDF0B5DE
:104C780003AF2DE9000F87B005460868002840F00B
:104C8800868091F804B00C4688680BF10101217107
:104C9800002876D1D7F808804FF0FF30A060402078
:104CA80004F10C069246CDE9020806200090304631
:104CB800002100229946FFF764FDA268C00702F1AF
:104CC8000102A26069D1002A5BD14FF0FF30059143
:104CD8004146A0604020D046CDE902014FF0060AC7
:104CE800304680210022CDF800A0FFF74AFDC0071A
:104CF80001BF85F8ADB0C5E9298985F8A0A0BA68D3
:104D080001BF85F89F2085F89E104023A5F89C30A8
:104D180001BF04F5D270C5F8980085F894A085F80D
:104D2800932001BF059985F89210A5F89030C5F831
:104D38008C0001BF022085F8AC00A068002101BFEB
:104D480085F8891029600130A06002BF07B0BDE86E
:104D5800000FF0BDA0684AF25C73A7F11D0207F8C6
:104D68001D1C0130A0604AF28C70C0F60003C0F62A
:104D780000000F2100904AF26C70C0F6000004F0A9
:104D880044F94AF2C860C0F6000004F09FF84AF2FD
:104D98001870C0F6000004F099F84AF28C704AF2D4
:104DA8005C73C0F60000A7F11E0200904AF26C7016
:104DB80007F81E1CC0F60000C0F600030F2104F01F
:104DC80024F9D0B502AF90F8AD3054889C4209D18F
:104DD800537A92F806C0012B05D0002B08BFBCF10E
:104DE800060F32D0D0BDBCF1010F18BFBCF1020FC5
:104DF80048D1088840F002000628F3D1C868092283
:104E08000A800068BFF35F8F002800F085808A7CE5
:104E180012F07C0F07D10C4611464FF0A04001223A
:104E280002F0BCFB214688690068BFF35F8F002849
:104E380072D0897F11F07C0F18BFD0BD4FF0A04011
:104E48000122BDE8D04002F0A9BB5278212A2AD01D
:104E5800222A04BF0A88042AC4D10122D0E92903DE
:104E6800CC884FF0000C0A8001F1A402A34238BF9D
:104E78001C4682E80910C1F8B0400846BDE8D04099
:104E8800FBF725BCBCF1030FACD190F8AC000A8845
:104E980002282ED142F002000628A3D10846BDE818
:104EA800D040FBF73DBF0A88042A9BD142F2012279
:104EB800C378A1F8292042F20912C0F21012D0F8E2
:104EC800A8004A620022C1F8AC200124CA8881F8EF
:104ED8002B00000A0C80092A81F8283028BF0922F3
:104EE800C1F8B02081F82C000846BDE8D040FBF797
:104EF800EEBB042A7FF476AFCA88012381F8240028
:104F080000200B80002A18BF0122C1E92B020846A5
:104F1800BDE8D040FBF7DBBB4AF228704AF24C727E
:104F2800C0F60000C0F60002222104F0ABF8F0B58C
:104F380003AF2DE90007A0B0137A012B16D190F822
:104F4800AD3056889E4211D19379092B12D00A2B85
:104F580000F0AC800B2B04D190F8AC30022B40F061
:104F68009D80088840F0020006281DD020B0BDE8CA
:104F78000007F0BD158840F2041C94880426B5F596
:104F8800806F6FF00703C0F2023C03EA551238BF86
:104F98002CFA02F6802C31D90A88002380F889304F
:104FA80042F002000628E1D1C86809220A80006898
:104FB800BFF35F8F002800F0A4808A7C12F07C0F7A
:104FC80007D10C4611464FF0A040012202F0E6FA44
:104FD800214688690068BFF35F8F002800F0918040
:104FE800897F11F07C0FC1D14FF0A040012220B081
:104FF800BDE80007BDE8F04002F0D0BA8146884617
:105008006846802104F03DFDD8F8B020812A80F060
:105018008380A242C0F08980EA4608F12401504604
:105028002246EDB204F0DFFC09F10400514680226B
:1050380004F0D9FCB8F8000089F88960062889F8D6
:105048008850C9F8844091D1D8F8180041460068C2
:10505800BFF35F8F002854D091F91E10B1F1FF3FC4
:105068003FF784AFC9B201F07F0103293FF67EAF55
:1050780001EB410100EB8100017907293FF476AF8C
:105088000121002202F095F8C0B2082804BF0820C8
:10509800A8F8000020B0BDE80007F0BD83782BB960
:1050A8001278002A18BF012280F8AC200888062848
:1050B8007FF45CAF88690068BFF35F8F08B391F92C
:1050C8001E20B2F1FF3F3FF751AFD2B202F07F028C
:1050D800032A3FF64BAF02EB420200EB8200027953
:1050E800072A3FF443AF0C460121002202F061F881
:1050F800C0B2082804BF0820208020B0BDE80007FF
:10510800F0BD4AF228704AF24C72C0F60000C0F6B0
:105118000002222103F0B6FF4AF240331146C0F6DE
:1051280000030020802203F0FDFE4AF62C03002035
:10513800C0F60003214603F0F5FEB0B502AF84B017
:1051480005460C460378032295F8AD104078009088
:10515800204602F045FDC0B208282CD1D5F8A81089
:1051680042F2012027F80C0C4FF48872E8780723E4
:1051780027F80F2CA7F10F0207F80D0C080A07F8FB
:105188000A1C212107F8090C204602F087FBC0B24F
:10519800082810D195F89400072807D005F18C014C
:1051A8002046FBF721F8C1B2082904D195F8A000E0
:1051B800072802D1082004B0B0BD05F198012046A7
:1051C800FBF712F804B0B0BDD0B502AF537A012B8B
:1051D80007D1137A012B02BF90F8443054889C42BF
:1051E80000D0D0BD9379212B04BF9288072A28D0FC
:1051F800088840F002000628F3D1C86809220A800E
:105208000068BFF35F8FE0B38A7C12F07C0F07D190
:105218000C4611464FF0A040012202F0BFF921468A
:1052280088690068BFF35F8F58B3897F11F07C0FDE
:1052380018BFD0BD4FF0A0400122BDE8D04002F019
:10524800ADB90A88042ACCD1CA88002390F804C0D2
:10525800012490F805E0072AC1F8AC30837900688A
:10526800486208460C8081F8283081F829E081F8E6
:105278002AC028BF0722C1F8B020BDE8D040FBF7FC
:1052880026BA4AF228704AF24C72C0F60000C0F6FC
:105298000002222103F0F6FED0B502AF537A012BAB
:1052A80007D1137A012B02BF90F8443054889C42EE
:1052B80000D0D0BD9379002B59D0202B0ED0222BB3
:1052C8002CD112780B8802F0010480F84640C2F312
:1052D8004002062B80F84720EBD14BE0D1F8B020F4
:1052E800812A75D2062A19D991F8282091F82940DF
:1052F80091F82AE0032A4B6AB1F800C003604FF026
:10530800000380F804E028BF1A46052C827138BFD4
:105318002346BCF1060F4371CBD12BE0088840F03F
:1053280002000628C5D1C86809220A800068BFF3B0
:105338005F8F002841D08A7C12F07C0F07D10C4681
:1053480011464FF0A040012202F028F92146886951
:105358000068BFF35F8F80B3897F11F07C0FA8D1FD
:105368004FF0A0400122BDE8D04002F017B90888EC
:1053780006289ED188690068BFF35F8FE8B191F96C
:105388001E20B2F1FF3F94DCD2B202F07F02032A62
:1053980088BFD0BD02EB420200EB82000279072AE7
:1053A8003FF487AF0C460121002201F002FFC0B292
:1053B800082804BF08202080D0BD4AF228704AF28D
:1053C8004C72C0F60000C0F60002222103F05AFE1B
:1053D8004AF240331146C0F600030020802203F051
:1053E800A1FDF0B503AF2DE9000B86B090F844603D
:1053F80081460024022588460846314602220223B7
:10540800CDE90054029402F0EAF9C0B2082876D136
:10541800D9F80C10002299F808000223002918BFB7
:105428000121CDE90054CDE902104046314602F091
:1054380046F9C0B2082862D14AF63C024046C0F696
:1054480000022421032302F029FAC0B2082856D109
:105458004AF22C024046C0F600022421022302F040
:105468001DFAC0B208284AD10620A7F11E0207F883
:105478001D6C242199F84560032307F81E0C40464B
:1054880007F81C6C02F00AFAC0B2082837D10120CC
:10549800A7F11B0227F81B0C40462421032307F819
:1054A800196C02F0FBF9C0B2082828D109F12001D3
:1054B8004046FAF799FEC1B2082920D1D9F8181048
:1054C800002299F814000A23002918BF0121CDE908
:1054D8000022CDE902104046314602F0F0F8C0B291
:1054E80008280CD109F138014046FAF77DFEC1B20F
:1054F800082904D109F12C014046FAF775FE06B0D7
:10550800BDE8000BF0BDF0B503AF2DE9000F85B085
:105518001E469246884683464FEAC20982B14D46E6
:105528004446D4E9000132464B6A59469847BBF8CD
:10553800000040F0020006282CD10834083DF0D1C4
:10554800707A58B3BBF8000040F00200062821D159
:10555800DBF80C000921ABF800100068BFF35F8F7F
:10556800002800F0D9809BF8121011F07C0F04D1AC
:105578004FF0A040012202F011F8DBF81800006893
:10558800BFF35F8F002800F0C7809BF81E1011F052
:105598007C0F1DD005B0BDE8000FF0BD317AB079A1
:1055A80002294DD001291CD00029CBD1002868D070
:1055B800062856D00828C5D19BF88E0201210491EF
:1055C800A7F1260102380391B0FA80F0400998E06B
:1055D8004FF0A040012201F0E1FF05B0BDE8000F47
:1055E800F0BDB0B30A28ADD17588FF2D0DD9BBF831
:1055F800000040F002000628CCD1584605B0BDE8AE
:10560800000FBDE8F040FBF78BBBB9F1000F72D07B
:10561800F8E802014A6B29469047A9F10809C00732
:10562800F3D0012007F8261C0490A7F1260003A94F
:1056380003905846FBF7EFFA05B0BDE8000FF0BD40
:1056480000287FF47FAF708810F00C0F28D001205D
:1056580037E0BBF8000004289CD10020ABF82400F8
:1056680037E07188524630885B46CDE900010BF17E
:10567800B400414600F060F9C0B208283FF462AFB8
:1056880088E79BF88C0202229BF88D120492A7F1FE
:10569800260240000392C0B2084327F8260C32E0E5
:1056A80040F6001142B200F00700C5F20001B2F165
:1056B800FF3FC8BF01F5007141EA40100068C0F320
:1056C8004050BBF8001004297FF464AFABF8240005
:1056D8000020BBF806100122ABF80020022928BFE1
:1056E8000221CBE92B015846FAF7F1FFC0B208288E
:1056F8003FF428AF4EE701200490A7F1260003905D
:10570800002007F8260C03A95846FBF784FAC0B214
:1057180008283FF417AF3DE74AF228704AF24C7266
:10572800C0F60000C0F60002222103F0ABFCD4D47E
:10573800F0B503AF2DE9000F81B01E4689468346B8
:105748004FEAC20A82B155464C46D4E900013246B6
:105758000B6A59469847BBF8000040F0020006283B
:105768002CD10834083DF0D1707A58B3BBF800004A
:1057780040F00200062821D1DBF80C000921ABF823
:1057880000100068BFF35F8F002800F0CA809BF804
:10579800121011F07C0F04D14FF0A040012201F04B
:1057A800FDFEDBF818000068BFF35F8F002800F0EB
:1057B800B8809BF81E1011F07C0F20D001B0BDE816
:1057C800000FF0BD317AB079B6F80080E9B301294D
:1057D8001FD00229CAD101284BD0032808BFB8F12D
:1057E800000FC3D1708810F00C0F40F0928000F0C9
:1057F80083014FF0A040012201F0D0FE89E04FF074
:10580800A040012201B0BDE8000FBDE8F04001F062
:10581800C5BE0B28AAD1768846EA0800FF2838D8E2
:10582800BAF1000F61D0F9E8020142468B6B3146AC
:105838009847AAF1080A0028F2D0584601B0BDE8F6
:10584800000FBDE8F040FAF74DBD013808283FF6D3
:105858008DAFDFE800F0060539052D050505410087
:1058680084E7B8F1010F7FF481AF00208BF88C0238
:105878004FE0B8F1000F7FF479AF708810F00C0F8B
:1058880047D100F083014FF0A040002201F086FECE
:105898003FE0BBF8000040F0020006287FF48EAF1E
:1058A800584601B0BDE8000FBDE8F040FBF738BA34
:1058B800A8F1010080B27F28BFF458AFDBF8880256
:1058C8004146FDF707FE21E0B8F1010F7FF44EAF26
:1058D80001208BF88C021CE0B8F1000F13D0B8F14E
:1058E800010F7FF443AF022011E0B8F1000F10D090
:1058F800BBF8000040F0020006287FF45FAF58466E
:10590800FBF70EFA32E79BF88E0210B101208BF8F4
:105918008E025846FAF7E6FCC0B208283FF426AFD4
:105928004CE74AF228704AF24C72C0F60000C0F602
:105938000002222103F0A6FBF0B503AF2DE9000712
:105948008AB0BD680E464FF0FF340190A9B204EB4F
:1059580011210E2952D8DFE801F008430D515151A9
:1059680051515151515151514C0001A91846FBF761
:105978007CF9FEE029067AD0D7F80C905FFA85FC0E
:10598800BCF1040F80F08A80D0F8C0110022A1EB8E
:10599800C1014FEA810E1EEB02062FD081181FFAB3
:1059A80089F50C8BAC4200F0CA8016F11C0425D096
:1059B8008C8EAC4200F0C08016F138041ED0B1F8CD
:1059C8005040AC4200F0BA8016F1540416D0B1F839
:1059D8006C107032A942DED11044A0F11C01AEE077
:1059E80001A802A902901846CDE90362FBF792F8D4
:1059F800BFE0B0F8CA01B0F5007F29D1188840F09F
:105A08000200062840F0C580D8680921198000687E
:105A1800BFF35F8F002800F0C180997C11F07C0FE4
:105A280006D14FF0A04001221C4601F0B7FD2346E5
:105A380098690068BFF35F8F002800F0AF80997FF6
:105A480011F07C0F09D008200AB0BDE80007F0BDAE
:105A580018463146FAF716FF8BE04FF0A0400122B6
:105A680001F09CFD08200AB0BDE80007F0BDD0F8A1
:105A7800C0110022CDE90822CDE906221029CDE97E
:105A88000422CDE902220A4628BF102200294DD05F
:105A980002F0030C042912D200222FE09846002AB3
:105AA8006FD006EBC204D6E900014A464B69294685
:105AB8009847002857D10836A642F4D161E09108EA
:105AC80000F15008C900A1EB920100224FEA011E23
