:020000040800F2
:10000000000002209901000805740008CD91000845
:10001000057400080574000805740008000000005D
:10002000000000000000000000000000057400084F
:10003000057400080000000005740008057400083D
:1000400005740008057400080574000805740008AC
:10005000057400080574000805740008057400089C
:10006000057400080574000805740008057400088C
:10007000057400080574000805740008057400087C
:1000800005740008057400080574000800000000ED
:1000900000000000000000000000000005740008DF
:1000A000057400080574000805740008057400084C
:1000B000057400080574000805740008057400083C
:1000C000057400080574000805740008057400082C
:1000D000057400080574000805740008000000009D
:1000E000057400080574000805740008000000008D
:1000F000000000000000000000000000057400087F
:10010000000000000574000805740008057400086C
:1001100000000000000000000000000000000000DF
:1001200005740008057400080574000805740008CB
:10013000057400080000000000000000000000003E
:10014000000000000000000000000000057400082E
:10015000057400080574000805740008057400089B
:10016000057400080574000800000000000000008D
:10017000000000000000000000000000000000007F
:1001800000000000057400080000000000000000EE
:08019000057400080574000865
:1001980007F037F90E480F490022814201D004C008
:1001A800FBE70D480D490E4A814202D008CA08C033
:1001B800FAE70C484FF47001026842EA0102026053
:1001C800BFF34F8FBFF36F8F05F0DDF900DE00003E
:1001D8000000002004100020000000200000002083
:1001E80090A6000888ED00E0F0B503AF4DF8048D47
:1001F8008268012A3ED1C3684269934260D2056988
:10020800D0F818C0EC5C0134EC540CF102049442B0
:100218002CD80CF580739646934238BF9E46A3426D
:1002280046D3AEEB0403052B20D38B790E7A91F8D5
:1002380007E091F80980022E89882B5505EB040305
:1002480099704FEA1121D9704FF0010183F804E049
:1002580088BFF11E3601CCB246EA8806012C08BFD9
:10026800711C59700CF10703934207D902205DF8FD
:10027800048BF0BD07205DF8048BF0BD944528D2AF
:10028800072105F80C100CF1010191423FBF05222E
:100298006A54836108203CBF5DF8048BF0BD49F6C1
:1002A80078030846C0F6000311461A4608F0B2F96A
:1002B80049F688032046C0F60003714608F00EF997
:1002C80049F698041846C0F600041146224608F07C
:1002D800A1F949F668036046C0F6000311461A46BC
:1002E80008F098F9D0B502AF0188062917D18169BD
:1002F8000968BFF35F8F01B390F91E20B2F1FF3F89
:100308000BDCD2B202F07F02032A06D802EB4202CB
:1003180001EB82010A79072A03D10520D0BD072005
:10032800D0BD044608460121002206F01FFAC0B2DB
:10033800082804BF08202080D0BD49F6C42049F60B
:10034800E822C0F60000C0F60002222108F076F983
:10035800F0B503AF4DF8048D86B00A88531E032B01
:1003680054D3052A52D0072A78D1D1F8AC50D1F805
:1003780006604A89802DD1F80230ADF80C20CDE90D
:10038800013600F2ED80CA681268BFF35F8F002A59
:1003980000F0DB808B7C032B08D8C3EBC30302EB94
:1003A800830494F87020072A40F0A2800E4640F299
:1003B8000151ADF810109DF81110002948D0F168CE
:1003C800092232800968BFF35F8F002900F0BD80E1
:1003D800B17C11F07C0F06D104464FF0A0400122F9
:1003E80006F0B9FB2046B1690968BFF35F8F0029A1
:1003F80000F0AB80B17F11F07C0F29D104464FF09B
:10040800A040012206F0A7FB204621E0CA68126836
:10041800BFF35F8F002A00F098808B7C032B2ED8C7
:10042800C3EBC30302EB830292F87030072B26D08C
:100438000C4602F16C0104AA06460023002510466A
:10044800012206F09DFA9DF810103046D1B925809A
:100458000421417206B05DF8048BF0BDCA681268C9
:10046800BFF35F8F002A70D08B7C032B07D8C3EBB8
:10047800C30302EB830292F87030072B0BD10521DE
:100488008DF811109DF8111005224272017006B006
:100498005DF8048BF0BD0D4602F16C0104AA044618
:1004A80000231046012206F06BFA9DF81010204632
:1004B8000029E7D1E96809232B800968BFF35F8F1A
:1004C800002942D0A97C2A4611F07C0F06D14FF0B2
:1004D800A040012206F03FFB2A46204691690968A0
:1004E800BFF35F8F89B3917F11F07C0FB0D186E79E
:1004F8000E46294401F1240204F16C0104ACC5F153
:1005080080038046204606F03BFA9DF810104046CE
:1005180000297FF450AF059A5119A94229D381299E
:1005280027D2D6E92B131144C6F8AC1099428FD3C1
:10053800DDE901120625BDF80C3035800160426006
:10054800038106B05DF8048BF0BD49F6C42049F676
:10055800E822C0F60000C0F60002222108F06EF87A
:1005680049F6B8032846C0F600038021802207F028
:10057800B5FF49F6A8032846C0F60003802207F015
:10058800ADFFF0B503AF2DE9000F83B00446C8688E
:100598000068BFF35F8F002800F085808A7C032AFB
:1005A80021D8C2EBC20200EB820090F87020072A23
:1005B80019D000F16C0201F124050E466846114677
:1005C8002A46802306F0DCF99DF8000001280AD0AD
:1005D800019A812A72D26846294606F0CBFE9DF818
:1005E8000900042805D10420607203B0BDE8000F9B
:1005F800F0BDF168BDF808A09DF807509DF8069079
:10060800BDF804B0DDF800800968BFF35F8F0029EA
:1006180049D0B17C304611F07C0F05D14FF0A04095
:10062800002206F098FA3046BDB10421A0F80AA0CD
:10063800457280F80890A0F806B0C0F802800180E2
:10064800A4F808A0E57184F80690A4F804B0C4F8EA
:10065800008003B0BDE8000FF0BDBBF1000F11D062
:10066800BBF1800FBFD80021A0F80AA0C0E92B1B5E
:100678004172072180F80890A0F806B0C0F80280FF
:100688000180B0E70621A4F808A001800021C0F885
:10069800B010E17184F80690A180C4F8008003B01E
:1006A800BDE8000FF0BD49F6C42049F6E822C0F6BF
:1006B8000000C0F60002222107F0C0FF49F6C80377
:1006C8001146C0F600030020802207F007FFF0B5AE
:1006D80003AF4DF804BD0246D0E92934D0F8AC0088
:1006E800D2F8B010002B958B08BF8024091AA942B4
:1006F80038BF0D46291844D2A14242D89169002B2F
:1007080008BF02F124030968BFF35F8F00293FD0B7
:1007180092F91E60B6F1FF3F0CDCF6B206F07F06D8
:10072800032E07D806EB460601EB860C9CF804104E
:10073800072903D105205DF804BBF0BD191816463A
:1007480060462A4606F012F8C0B2082816D1D6F834
:10075800AC00411927D2A14225D8D6F8B0003246BC
:10076800C6F8AC10814208D30020918BC2F8A400CF
:1007780003208D4208BF0220108008205DF804BBCA
:10078800F0BD49F6E8032246C0F6000307F0A6FECE
:1007980049F6C42049F6E822C0F60000C0F6000277
:1007A800222107F04BFF49F6D8032246C0F6000382
:1007B80007F094FEB0B502AF01884B1E0021072B4D
:1007C80042D80022DFE803F004230E3E3E3E3E3CC2
:1007D800FFF77DFFC1B2B1F108020CBF114601223B
:1007E8001046B0BDC1680968BFF35F8F00293ED0CD
:1007F800817C11F07C0F05D104464FF0A04006F033
:10080800AAF920460521018000210020B0BD816998
:100818000968BFF35F8F51B390F91E20B2F1FF3F13
:100828000BDCD2B202F07F02032A06D802EB4202A6
:1008380001EB82010A79072A08D101200521B0BD00
:10084800012102801046B0BD0020B0BD0446084614
:1008580001210022012505F089FFC1B2082904D130
:100868000320208000210020B0BD2846B0BD49F6F5
:10087800C42049F6E822C0F60000C0F60002222192
:1008880007F0DCFEF0B503AF2DE9000B8CB00C4689
:100898000188042953D1B0F8069080462430059089
:1008A80001A80B9009A800211546802207910692FD
:1008B8008DF8201003910191099106F0EEFCC0B269
:1008C800082838D16DB104EBC50609ADD4E900019B
:1008D8000A6929469047C1B208292CD10834B44284
:1008E800F4D109A806F032FD079980292CD9D8F847
:1008F8000C100922A8F800200968BFF35F8FA1B384
:1009080098F81210404611F07C0F05D14FF0A04026
:10091800012206F020F9404681690968BFF35F8F1C
:1009280019B3817F11F07C0F04D14FF0A040012250
:1009380006F011F902200CB0BDE8000BF0BD07204D
:100948000CB0BDE8000BF0BD012340460022A8F81A
:100958000030494538BF8946C0E92B29FFF7B7FE63
:10096800C0B20CB0BDE8000BF0BD49F6C42049F692
:10097800E822C0F60000C0F60002222107F05EFE61
:10098800B0B502AF88B00288042A39D18024D1E9F1
:10099800001205940446C588243000230490684654
:1009A80006938DF81C300293009306F04AFBC0B200
:1009B800082823D10699802925D9E16809222280AF
:1009C8000968BFF35F8F61B3A17C204611F07C0FEB
:1009D80005D14FF0A040012206F0BDF820468169FC
:1009E8000968BFF35F8FE1B1817F11F07C0F04D1FB
:1009F8004FF0A040012206F0AEF8022008B0B0BDCA
:100A0800072008B0B0BD0123204600222380A94258
:100A180038BF0D46C0E92B25FFF759FEC0B208B014
:100A2800B0BD49F6C42049F6E822C0F60000C0F679
:100A38000002222107F002FEB0B502AF88B08C4652
:100A48000188042940D111688023C58800220593B4
:100A580000F12403D1F8C011049306924B00212B16
:100A68008DF81C20029200923FD20446684603216A
:100A7800624606F0F0F9C0B2082823D10699802909
:100A880025D9E168092222800968BFF35F8FB1B3D5
:100A9800A17C204611F07C0F05D14FF0A040012227
:100AA80006F059F8204681690968BFF35F8F31B3B2
:100AB800817F11F07C0F04D14FF0A040012206F095
:100AC8004AF8022008B0B0BD072008B0B0BD012325
:100AD800204600222380A94238BF0D46C0E92B25B5
:100AE800FFF7F5FDC0B208B0B0BD49F6081C0020FC
:100AF800C0F6000C19462022634607F0EFFC49F6C1
:100B0800C42049F6E822C0F60000C0F600022221FF
:100B180007F094FDF0B503AF2DE9000788B002880F
:100B2800042A57D1D1E9002580238C680021B0F828
:100B380006908046243004900691684605938DF807
:100B48001C1002910091116806F02DF8C0B2082817
:100B58003CD18CB105EBC4066C464FF0000AD5E9D0
:100B68000001CA6821469047C1B208292ED108352C
:100B7800CDF808A0B542F2D1684606F0FCF806990F
:100B880080292CD9D8F80C100922A8F80020096867
:100B9800BFF35F8FA1B398F81210404611F07C0F95
:100BA80005D14FF0A040012205F0D5FF40468169EC
:100BB8000968BFF35F8F19B3817F11F07C0F04D1EF
:100BC8004FF0A040012205F0C6FF022008B0BDE8A2
:100BD8000007F0BD072008B0BDE80007F0BD0123FD
:100BE80040460022A8F80030494538BF8946C0E988
:100BF8002B29FFF76CFDC0B208B0BDE80007F0BDB7
:100C080049F6C42049F6E822C0F60000C0F6000202
:100C1800222107F013FDF0B503AF4DF804BD02889B
:100C2800042A06D14C68802C07D902205DF804BB41
:100C3800F0BD07205DF804BBF0BD096800F124028F
:100C4800C68805461046224608F04EFA0020B442EF
:100C580038BF2646C5E92B060120288028465DF8BE
:100C680004BBBDE8F040FFF732BDB0B502AF88B0B5
:100C78000288042A38D109680446C588243000222D
:100C8800802304906846069205938DF81C200292F2
:100C9800009206F02FF9C0B2082823D106998029BE
:100CA80025D9E168092222800968BFF35F8F61B303
:100CB800A17C204611F07C0F05D14FF0A040012205
:100CC80005F049FF204681690968BFF35F8FE1B1EC
:100CD800817F11F07C0F04D14FF0A040012205F074
:100CE8003AFF022008B0B0BD072008B0B0BD01230C
:100CF800204600222380A94238BF0D46C0E92B2593
:100D0800FFF7E5FCC0B208B0B0BD49F6C42049F60B
:100D1800E822C0F60000C0F60002222107F08EFC8F
:100D2800D0B502AFC168092202800968BFF35F8F9E
:100D3800D9B1817C11F07C0F06D104464FF0A04058
:100D4800012205F008FF204681690968BFF35F8F1B
:100D580059B1817F11F07C0F18BFD0BD4FF0A04072
:100D68000122BDE8D04005F0F6BE49F6C42049F698
:100D7800E822C0F60000C0F60002222107F05EFC5F
:100D880080B56F460830BDE8804004F05DBA80B594
:100D98006F460830BDE8804004F0BEBA80B56F46A3
:100DA80090F84620C9B2914218BF80BDBDE8804086
:100DB80000F0C4B880B56F460830BDE8804004F044
:100DC80050BBF0B503AF2DE9000F83B08246D1F8D0
:100DD800D4000E8F0D4601F15008C0F180019946EC
:100DE800B1421CD2D5F8D040211A8031B14253D338
:100DF800802C01D180210CE07F2C00F29780934653
:100E0800021B08EB0401404607F044FCD5E9341006
:100E18005A46401A0023C0F18001C5E93430B14276
:100E280065D381195CD280295AD8696B0968BFF3E8
:100E38005F8F002966D095F83A30032B07D8C3EBAB
:100E4800C30301EB830191F87030072B09D105200A
:100E580001218AF801008AF8001003B0BDE8000FEC
:100E6800F0BD144608EB00026C3101A8334605F0CA
:100E780087FD9DF804109DF80500012908BF00288A
:100E880003D00029E4D1029800E000202246D5E9E9
:100E980034410844C5F8D400A04206D10120AAF87C
:100EA800000003B0BDE8000FF0BD001B484538BF87
:100EB800814609EB0406A6422FD3812E2DD208EBDA
:100EC800040110464A4608F00FF90020CAF80490B9
:100ED8008AF80000C5F8D06003B0BDE8000FF0BD87
:100EE80049F6A0138022C0F6000307F0F7FA49F686
:100EF800481049F69012C0F60000C0F600024521DD
:100F080007F09CFB49F6C42049F6E822C0F6000029
:100F1800C0F60002222107F091FB49F6281320466B
:100F2800C0F600033146802207F0D8FA49F61812B5
:100F38002046C0F60002802107F06CFBF0B503AF35
:100F48004DF804BDD0E90035D0E95621022B18BF71
:100F58000025914224D1002D4AD0016C0968BFF3C5
:100F68005F8F00296DD090F94620B2F1FF3F3BDC3E
:100F7800D2B202F07F02032A36D802EB420201EB1A
:100F880082010A79072A2FD0044608460121002247
:100F9800012505F0EBFBC0B2082847D1256044E0E5
:100FA800038F092D88BF013B9CB2891AA14238BF23
:100FB8000C46A11891423CD381293AD2016C0968A8
:100FC800BFF35F8FE9B390F94630B3F1FF3F0BDC15
:100FD800DBB203F07F03032B06D803EB430301EBDB
:100FE80083031979072909D105205DF804BBF0BDF1
:100FF8000021016008205DF804BBF0BD0646D8302A
:1010080081181846224605F0B1FBC0B208280DD158
:10101800D6F85801691C328F2044C6F858010120BF
:10102800944208BF0220C6E9000100205DF804BB15
:10103800F0BD49F628131046C0F60003802207F0D9
:101048004DFA49F6C42049F6E822C0F60000C0F679
:101058000002222107F0F2FAF0B503AF4DF804BD03
:101068000C46054606F0C7F9064606F0B7F9D5F866
:101078009401D0F8001864F30A11C0F80018F007BA
:1010880005D15DF804BBBDE8F04006F0A9B95DF8EC
:1010980004BBF0BDF0B503AF2DE9000F83B00E46D9
:1010A800814606F0A8F9054606F098F9D6F8941195
:1010B800D1F83CB04C69E0040FD4A0046ED4B4F16C
:1010C800FF3F40F3FE82200500F11583E00600F1A2
:1010D800208300224FF0000ADDE34FF4805048617E
:1010E800D6F89401D0F81C180021C0F81C183079E3
:1010F800072875D1307C072840F09080307F07287A
:1011080040F0AA8096F82800072840F0C58096F895
:101118003400072840F0E08096F84000072840F0A7
:10112800FB8096F84C00072840F0168196F8580086
:10113800072840F0318196F86400072840F04C8178
:1011480096F87000072840F0678196F88C00072809
:1011580040F0858196F8A800072840F0A48196F809
:10116800C400072840F0C38196F8E000072840F043
:10117800E28196F8FC00072840F0018296F81801F1
:10118800072840F0208296F83401072840F03F8273
:1011980096F85001072840F05D827AE24FF400503B
:1011A8004861D6F89401D0F80818C1F34101DFE886
:1011B80011F08D0204007D050400D6F890214AF64E
:1011C800C041C0F2D8018A42C0F07B854EF2C011FE
:1011D800C0F2E4018A4280F085824FF4705104E342
:1011E800307A316810F07F0001EB4010D0F8001918
:1011F80021F40041C0F80019D0F8001900F510607A
:1012080006D0B1F1FF3FDEBF016841F080410160C7
:10121800FF218160307C07283FF470AF307DF16892
:1012280010F07F0001EB4010D0F8001921F40041C4
:10123800C0F80019D0F8001900F5106006D0B1F117
:10124800FF3FDEBF016841F080410160FF218160FE
:10125800307F07283FF456AF96F82000B16910F0A8
:101268007F0001EB4010D0F8001921F40041C0F8CC
:101278000019D0F8001900F5106006D0B1F1FF3F51
:10128800DEBF016841F080410160FF21816096F86E
:10129800280007283FF43BAF96F82C00716A10F03D
:1012A8007F0001EB4010D0F8001921F40041C0F88C
:1012B8000019D0F8001900F5106006D0B1F1FF3F11
:1012C800DEBF016841F080410160FF21816096F82E
:1012D800340007283FF420AF96F83800316B10F03F
:1012E8007F0001EB4010D0F8001921F40041C0F84C
:1012F8000019D0F8001900F5106006D0B1F1FF3FD1
:10130800DEBF016841F080410160FF21816096F8ED
:10131800400007283FF405AF96F84400F16B10F041
:101328007F0001EB4010D0F8001921F40041C0F80B
:101338000019D0F8001900F5106006D0B1F1FF3F90
:10134800DEBF016841F080410160FF21816096F8AD
:101358004C0007283FF4EAAE96F85000B16C10F044
:101368007F0001EB4010D0F8001921F40041C0F8CB
:101378000019D0F8001900F5106006D0B1F1FF3F50
:10138800DEBF016841F080410160FF21816096F86D
:10139800580007283FF4CFAE96F85C00716D10F046
:1013A8007F0001EB4010D0F8001921F40041C0F88B
:1013B8000019D0F8001900F5106006D0B1F1FF3F10
:1013C800DEBF016841F080410160FF21816096F82D
:1013D800640007283FF4B4AE96F86800316E10F048
:1013E8007F0001EB4010D0F8001921F40041C0F84B
:1013F8000019D0F8001900F5106006D0B1F1FF3FD0
:10140800DEBF016841F080410160FF21816096F8EC
:10141800700007283FF499AE96F87400F16E00F05A
:101428007F0001EB4010D0F8001B21F40041C0F808
:10143800001BD0F8001B00F53060B1F1FF3F07DC5E
:1014480096F8741049061EBF016841F0804101609A
:10145800FF21816096F88C0007283FF47BAE96F850
:101468009000D6F8881000F07F0001EB4010D0F80B
:10147800001B21F40041C0F8001BD0F8001B00F548
:101488003060B1F1FF3F07DC96F8901049061EBFA7
:10149800016841F080410160FF21816096F8A80051
:1014A80007283FF45CAE96F8AC00D6F8A41000F01C
:1014B8007F0001EB4010D0F8001B21F40041C0F878
:1014C800001BD0F8001B00F53060B1F1FF3F07DCCE
:1014D80096F8AC1049061EBF016841F080410160D2
:1014E800FF21816096F8C40007283FF43DAE96F8C6
:1014F800C800D6F8C01000F07F0001EB4010D0F80B
:10150800001B21F40041C0F8001BD0F8001B00F5B7
:101518003060B1F1FF3F07DC96F8C81049061EBFDE
:10152800016841F080410160FF21816096F8E00088
:1015380007283FF41EAE96F8E400D6F8DC1000F059
:101548007F0001EB4010D0F8001B21F40041C0F8E7
:10155800001BD0F8001B00F53060B1F1FF3F07DC3D
:1015680096F8E41049061EBF016841F08041016009
:10157800FF21816096F8FC0007283FF4FFAD96F83C
:101588000001D6F8F81000F07F0001EB4010D0F809
:10159800001B21F40041C0F8001BD0F8001B00F527
:1015A8003060B1F1FF3F07DC96F8001149061EBF15
:1015B800016841F080410160FF21816096F81801BF
:1015C80007283FF4E0AD96F81C01D6F8141100F096
:1015D8007F0001EB4010D0F8001B21F40041C0F857
:1015E800001BD0F8001B00F53060B1F1FF3F07DCAD
:1015F80096F81C1149061EBF016841F08041016040
:10160800FF21816096F8340107283FF4C1AD96F8B0
:101618003801D6F8301100F07F0001EB4010D0F807
:10162800001B21F40041C0F8001BD0F8001B00F596
:101638003060B1F1FF3F07DC96F8381149061EBF4C
:10164800016841F080410160FF21816096F85001F6
:1016580007281ED096F85401D6F84C1100F07F00E8
:1016680001EB4010D0F8001B21F40041C0F8001B2A
:10167800D0F8001B00F53060B1F1FF3F07DC96F8A9
:10168800541149061EBF016841F080410160FF21E5
:101698008160D6F89401016941F010010161D6F822
:1016A80094110869C0067FF508AD0869C00644BFF3
:1016B80008695FEAC0607FF500AD0869C006F0D42C
:1016C800FBE44FF000404861042094E0D6F8901104
:1016D8004CF27F32C0F2C912914240F2FD824FF4BF
:1016E800105182E042F20041C0F2F4018A4207D26E
:1016F8004FF4605179E04FF40060486103207AE0CC
:1017080047F28031C0F206118A4217D24FF4505185
:101718006BE0D1F81CC00CF00F08CCF3434EAEF1CF
:101728000300022813D3BEF1060F33D0BEF1020F17
:101738001DD10120002300FA08F26BE044F6A01145
:10174800C0F21A118A421CD24FF440514DE0BBF549
:10175800885F18BFBBF5905F09D101EB4810D0F83E
:10176800001B41F00441C0F8001BD6F89411086A28
:1017780000224EF004004FF0000A0023062849D04A
:1017880089E042F60051C0F231118A4224D24FF466
:1017980030512AE001EB48102A460025D0F81009FC
:1017A800C1F6F875284230D00869154620F4FC6067
:1017B80040EA881020300861D6F89411086980063C
:1017C80024D50869800644BF08695FEA80601DD592
:1017D80008698006F2D419E04AF24041C0F24C117F
:1017E8008A4280F048824FF42051C26822F4705235
:1017F8001143C1600120A9F80000E80708BF05F0FF
:10180800EFFD03B0BDE8000FF0BD15460120002232
:1018180000FA08F3B8F1080F029500F26E82C8EBDF
:10182800C800924606EB800090F87050072D30D023
:1018380000F16C05E868002840F05982A87E4FF056
:10184800FF32EA6010BB0193AEF10603B3FA83F3EB
:10185800086A05F11000CCF30A125B0904F020FFB6
:10186800BBF50C5FC0F2FE81019B05D0BBF5405F64
:1018780018BFBBF5445F09D1D6F8940100EB4810B6
:10188800D0F8001B41F00441C0F8001BE8680130A3
:10189800E8601A46029D600303D44FF0000814461E
:1018A800FAE03079072803D14FF00008144617E012
:1018B800307A1446D6F8941100F07F0001EB4010FE
:1018C800D0F80819C90702D14FF0000808E000F560
:1018D800106001218160307A00F00F0001FA00F8F1
:1018E800307C072815D0307DD6F8941100F07F00A1
:1018F80001EB4010D0F80819C9070AD000F51060AC
:1019080001218160307D00F00F0001FA00F048EA03
:101918000008307F072817D096F82000D6F89411D1
:1019280000F07F0001EB4010D0F80819C9070BD070
:1019380000F510600121816096F8200000F00F008A
:1019480001FA00F048EA000896F82800072817D09E
:1019580096F82C00D6F8941100F07F0001EB4010A7
:10196800D0F80819C9070BD000F510600121816073
:1019780096F82C0000F00F0001FA00F048EA000881
:1019880096F83400072817D096F83800D6F894113E
:1019980000F07F0001EB4010D0F80819C9070BD000
:1019A80000F510600121816096F8380000F00F0002
:1019B80001FA00F048EA000896F84000072817D016
:1019C80096F84400D6F8941100F07F0001EB40101F
:1019D800D0F80819C9070BD000F510600121816003
:1019E80096F8440000F00F0001FA00F048EA0008F9
:1019F80096F84C00072817D096F85000D6F894119E
:101A080000F07F0001EB4010D0F80819C9070BD08F
:101A180000F510600121816096F8500000F00F0079
:101A280001FA00F048EA000896F85800072817D08D
:101A380096F85C00D6F8941100F07F0001EB401096
:101A4800D0F80819C9070BD000F510600121816092
:101A580096F85C0000F00F0001FA00F048EA000870
:101A680096F86400072817D096F86800D6F89411FD
:101A780000F07F0001EB4010D0F80819C9070BD01F
:101A880000F510600121816096F8680000F00F00F1
:101A980001FA00F048EA000896F8700007281AD002
:101AA80006F16C0004F042FFC0B202280BD00128F6
:101AB80011D196F87400012100F00F0001FA00F02E
:101AC8004AEA000A07E096F87400012100F00F00C6
:101AD80001FA00F0044396F88C00072812D006F1AA
:101AE800880004F023FFC0B260B1012896F8900086
:101AF8004FF0010100F00F0001FA00F00CBF4AEAB4
:101B0800000A044396F8A800072812D006F1A4009A
:101B180004F00CFFC0B260B1012896F8AC004FF099
:101B2800010100F00F0001FA00F00CBF4AEA000AB8
:101B3800044396F8C400072812D006F1C00004F048
:101B4800F5FEC0B260B1012896F8C8004FF0010157
:101B580000F00F0001FA00F00CBF4AEA000A044343
:101B680096F8E000072812D006F1DC0004F0DEFE4B
:101B7800C0B260B1012896F8E4004FF0010100F00E
:101B88000F0001FA00F00CBF4AEA000A044396F875
:101B9800FC00072812D006F1F80004F0C7FEC0B216
:101BA80060B1012896F800014FF0010100F00F0024
:101BB80001FA00F00CBF4AEA000A044396F818013B
:101BC800072812D006F58A7004F0B0FEC0B260B1E2
:101BD800012896F81C014FF0010100F00F0001FAEE
:101BE80000F00CBF4AEA000A044396F834010728BB
:101BF80012D006F5987004F099FEC0B260B10128C1
:101C080096F838014FF0010100F00F0001FA00F0DA
:101C18000CBF4AEA000A044396F85001072812D07C
:101C280006F5A67004F082FEC0B260B1012896F8ED
:101C380054014FF0010100F00F0001FA00F00CBF51
:101C48004AEA000A044344EA080050EA0A0007D0B6
:101C5800A9F806400220A9F80480A9F802A0CAE55C
:101C68000020C8E5019BBBF5005F18BFBBF5045F0A
:101C78003FF402AE0AE643F20061C0F26E118A42F6
:101C8800FFF42DAD49F6E051C0F2A3118A4202D209
:101C98004FF40051A9E544F600034FF4C051C0F2D7
:101CA800E8139A4238BF4FF4E0519EE549F65420B4
:101CB80049F66422C0F60000C0F600020F2106F0C3
:101CC800BDFC49F61C2049F64422C0F60000C0F6C7
:101CD8000002182106F0B2FC49F61C2049F634220D
:101CE800C0F60000C0F60002182106F0A7FC49F66D
:101CF8000C20C0F6000006F0C5FB49F6FC12404671
:101D0800C0F60002092106F085FCB0B502AF82B02A
:101D1800044605F070FB054605F060FBB4F8700159
:101D2800D4F894111E3082B24A62B4F87811D4F80B
:101D38009421C0EA014308449362B4F87A21D4F8A4
:101D48009431C0EA02411044C3F80411B4F87C117C
:101D5800D4F89431C0EA01420844C3F80821B4F821
:101D68007E21D4F89431C0EA02411044C3F80C1122
:101D780080B2B0F5A07F00F21D82D4F8940143220E
:101D8800016962F30A110161D4F89401016911F043
:101D9800300F0BD0016911F0300F1CBF016911F031
:101DA800300F03D0016911F0300FEFD121790729E5
:101DB80051D1207C072861D1207F072874D194F85D
:101DC8002800072840F0898094F83400072840F05C
:101DD8009D8094F84000072840F0B18094F84C00AA
:101DE800072840F0C58094F85800072840F0D980AB
:101DF80094F86400072840F0ED8094F870000728F4
:101E080040F0018194F88C00072840F0138194F881
:101E1800A800072840F0258194F8C400072840F05E
:101E2800378194F8E000072840F0498194F8FC00D5
:101E3800072840F05B8194F81801072840F06D816D
:101E480094F83401072840F07F8194F8500107285E
:101E580040F09081A0E1D0F81C180123227A02F00A
:101E68001F0203FA02F21143C0F81C18A7F1090176
:101E7800204604F005FD207C07289DD0D4F8940165
:101E88000123D0F81C18227D02F01F0203FA02F287
:101E98001143C0F81C1804F10C00A7F1090104F063
:101EA800EFFC207F07288AD0D4F894010123D0F8CA
:101EB8001C1894F8202002F01F0203FA02F21143C2
:101EC800C0F81C1804F11800A7F1090104F0D8FCA7
:101ED80094F8280007283FF477AFD4F89401012339
:101EE800D0F81C1894F82C2002F01F0203FA02F212
:101EF8001143C0F81C1804F12400A7F1090104F0EB
:101F0800BFFC94F8340007283FF463AFD4F8940179
:101F18000123D0F81C1894F8382002F01F0203FAA5
:101F280002F21143C0F81C1804F13000A7F10901AE
:101F380004F0A6FC94F8400007283FF44FAFD4F80B
:101F480094010123D0F81C1894F8442002F01F02D1
:101F580003FA02F21143C0F81C1804F13C00A7F17F
:101F6800090104F08DFC94F84C0007283FF43BAFBE
:101F7800D4F894010123D0F81C1894F8502002F0EA
:101F88001F0203FA02F21143C0F81C1804F14800BA
:101F9800A7F1090104F074FC94F8580007283FF4ED
:101FA80027AFD4F894010123D0F81C1894F85C20CA
:101FB80002F01F0203FA02F21143C0F81C1804F1E0
:101FC8005400A7F1090104F05BFC94F864000728A9
:101FD8003FF413AFD4F894010123D0F81C1894F8F7
:101FE800682002F01F0203FA02F21143C0F81C181D
:101FF80004F16000A7F1090104F042FC94F87000B4
:1020080007283FF4FFAE94F8741004F16C004906F9
:1020180007D1D4F89411D1F81C2842F48032C1F8C1
:102028001C28A7F1090104F036FD94F88C00072854
:102038003FF4EDAE94F8901004F18800490607D1FA
:10204800D4F89411D1F81C2842F48032C1F81C2825
:10205800A7F1090104F01FFD94F8A80007283FF430
:10206800DBAE94F8AC1004F1A400490607D1D4F80B
:102078009411D1F81C2842F48032C1F81C28A7F129
:10208800090104F008FD94F8C40007283FF4C9AE1C
:1020980094F8C81004F1C000490607D1D4F8941187
:1020A800D1F81C2842F48032C1F81C28A7F1090194
:1020B80004F0F1FC94F8E00007283FF4B7AE94F878
:1020C800E41004F1DC00490607D1D4F89411D1F8E2
:1020D8001C2842F48032C1F81C28A7F1090104F039
:1020E800DAFC94F8FC0007283FF4A5AE94F8001138
:1020F80004F1F800490607D1D4F89411D1F81C2846
:1021080042F48032C1F81C28A7F1090104F0C3FC8D
:1021180094F8180107283FF493AE94F81C1104F5BD
:102128008A70490607D1D4F89411D1F81C2842F4D2
:102138008032C1F81C28A7F1090104F0ACFC94F81E
:10214800340107283FF481AE94F8381104F59870EB
:10215800490607D1D4F89411D1F81C2842F48032EA
:10216800C1F81C28A7F1090104F095FC94F8500166
:10217800072811D094F8541104F5A670490607D120
:10218800D4F89411D1F81C2842F48032C1F81C28E4
:10219800A7F1090104F07FFCD4F89401D0F80018E5
:1021A80021F4FE61C0F80018E80708BF05F018F927
:1021B80002B0B0BD49F6B01049F6EC12C0F6000006
:1021C800C0F600023C2106F039FAB0B502AF054668
:1021D80003F0EFFA05F00FF9044605F0FFF8D5F81B
:1021E8009401C16B0269002A09D40269002A5CBF04
:1021F8000269002A03D40269B2F1FF3FF2DCC26827
:102208004FF6FF63CBF6FF731A4002F18042C260BB
:102218000269002A09D40269002A5CBF0269002AFF
:1022280003D40269B2F1FF3FF2DC026942F0010215
:1022380002610269D20709D00269D2071CBF02698C
:102248005FEAC27202D00269D207F2D1826BB1F59D
:10225800045F42F48032826309DBB1F5405F15DA2E
:10226800B1F5045F16D0B1F50C5F13D01AE0B1F5E3
:10227800885F18BFB1F5905F41D1816B41F40011BF
:102288008163816B21F4E01181630BE018BFB1F524
:10229800445F07D1816B21F400118163016841F02B
:1022A800C0010160002141F60302C0F8001ED0F809
:1022B800041841F00201C0F80418D0F8001891433E
:1022C8000331C0F800180121C0F8101843F61001B6
:1022D800C8F2040181614FF0FF314161816841F02A
:1022E80001018160D0F8041821F00201C0F8041837
:1022F800E00718BFB0BDBDE8B04005F071B8B1F552
:10230800005FC7D0CEE7F0B503AF2DE9000FD7E9DE
:1023180004A98C46D7E902E803F07F015FEA0C6361
:1023280008D082B1012203291BD905211046BDE836
:10233800000FF0BD72B10122032922D905211046F0
:10234800BDE8000FF0BD90F88C21910714D402234A
:1023580001212DE090F88D2191071ED4022301213F
:1023680086E090F88C3102FA01F4234278D00521F6
:102378001046BDE8000FF0BD510713D40423022115
:1023880016E090F88D3102FA01F4234200F0B8808B
:1023980005211046BDE8000FF0BD510763D40423A2
:1023A800022165E011074FF0030100F1A480082322
:1023B8001A4380F88C2100F5BC7232F811302BB129
:1023C800012205211046BDE8000FF0BD032313FAD2
:1023D8008AF5B0F8786110234FEA950EBEF1100F18
:1023E800B0F87AE1B0F886C1B0F884B17644B0F8B4
:1023F800704188BFAB08B0F87C51B0F87EE11C444E
:102408003544B0F880817544B0F882614544B0F82D
:1024180088E135445D4405EB0C06764414FA86F6EB
:102428001E36B6F5A07F2FD822F8113001EB4103F4
:10243800002200F8232000EB8300502361F07F0185
:10244800C370FB684371BB68A0F8012080F809904D
:102458000172A0F806A003711046BDE8000FF0BD98
:1024680043EA0402A5E711074FF0030143D4082308
:102478001A4380F88D21032212FA8AF4D0E95B63AB
:1024880003EB9402B24205D9012204211046BDE8AB
:10249800000FF0BDA608D0F87441D0F86851A642E4
:1024A80088BF3446C0E95C24C1EBC10205EB830355
:1024B80000EB8200502280F86F200022C0E92062E1
:1024C8001E0E80F87C301B0AA0F86D20826780F809
:1024D8006C2080F8759080F87410A0F872A080F8CD
:1024E800718080F870E080F87F60A0F87D30104639
:1024F800BDE8000FF0BD01221046BDE8000FF0BD99
:1025080043EA0402B5E7F0B503AF2DE9000F85B043
:102518001E469246884683464FEAC20982B14D4616
:102528004446D4E9000132464B6A59469847BBF8FD
:10253800000040F0020006282CD10834083DF0D1F4
:10254800707A58B3BBF8000040F00200062821D189
:10255800DBF80C000921ABF800100068BFF35F8FAF
:10256800002800F0D9809BF8121011F07C0F04D1DC
:102578004FF0A040012204F0EEFADBF818000068E2
:10258800BFF35F8F002800F0C7809BF81E1011F082
:102598007C0F1DD005B0BDE8000FF0BD317AB079D1
:1025A80002294DD001291CD00029CBD1002868D0A0
:1025B800062856D00828C5D19BF88E02012104911F
:1025C800A7F1260102380391B0FA80F0400998E09B
:1025D8004FF0A040012204F0BEFA05B0BDE8000F9C
:1025E800F0BDB0B30A28ADD17588FF2D0DD9BBF861
:1025F800000040F002000628CCD1584605B0BDE8DE
:10260800000FBDE8F040FEF78BBBB9F1000F72D0A8
:10261800F8E802014A6B29469047A9F10809C00762
:10262800F3D0012007F8261C0490A7F1260003A97F
:1026380003905846FEF7EFFA05B0BDE8000FF0BD6D
:1026480000287FF47FAF708810F00C0F28D001208D
:1026580037E0BBF8000004289CD10020ABF8240028
:1026680037E07188524630885B46CDE900010BF1AE
:10267800B400414600F060F9C0B208283FF462AFE8
:1026880088E79BF88C0202229BF88D120492A7F12E
:10269800260240000392C0B2084327F8260C32E015
:1026A80040F6001142B200F00700C5F20001B2F195
:1026B800FF3FC8BF01F5007141EA40100068C0F350
:1026C8004050BBF8001004297FF464AFABF8240035
:1026D8000020BBF806100122ABF80020022928BF11
:1026E8000221CBE92B015846FDF7F1FFC0B20828BB
:1026F8003FF428AF4EE701200490A7F1260003908D
:10270800002007F8260C03A95846FEF784FAC0B241
:1027180008283FF417AF3DE749F6C42049F6E822F8
:10272800C0F60000C0F60002222105F087FFD4D4CD
:10273800F0B503AF2DE9000F81B01E4689468346E8
:102748004FEAC20A82B155464C46D4E900013246E6
:102758000B6A59469847BBF8000040F0020006286B
:102768002CD10834083DF0D1707A58B3BBF800007A
:1027780040F00200062821D1DBF80C000921ABF853
:1027880000100068BFF35F8F002800F0CA809BF834
:10279800121011F07C0F04D14FF0A040012204F078
:1027A800DAF9DBF818000068BFF35F8F002800F043
:1027B800B8809BF81E1011F07C0F20D001B0BDE846
:1027C800000FF0BD317AB079B6F80080E9B301297D
:1027D8001FD00229CAD101284BD0032808BFB8F15D
:1027E800000FC3D1708810F00C0F40F0928000F0F9
:1027F80083014FF0A040012204F0ADF989E04FF0C9
:10280800A040012201B0BDE8000FBDE8F04004F08F
:10281800A2B90B28AAD1768846EA0800FF2838D83A
:10282800BAF1000F61D0F9E8020142468B6B3146DC
:102838009847AAF1080A0028F2D0584601B0BDE826
:10284800000FBDE8F040FDF74DBD013808283FF600
:102858008DAFDFE800F0060539052D0505054100B7
:1028680084E7B8F1010F7FF481AF00208BF88C0268
:102878004FE0B8F1000F7FF479AF708810F00C0FBB
:1028880047D100F083014FF0A040002204F063F923
:102898003FE0BBF8000040F0020006287FF48EAF4E
:1028A800584601B0BDE8000FBDE8F040FEF738BA61
:1028B800A8F1010080B27F28BFF458AFDBF8880286
:1028C8004146FEF7C9FB21E0B8F1010F7FF44EAF96
:1028D80001208BF88C021CE0B8F1000F13D0B8F17E
:1028E800010F7FF443AF022011E0B8F1000F10D0C0
:1028F800BBF8000040F0020006287FF45FAF58469E
:10290800FEF70EFA32E79BF88E0210B101208BF821
:102918008E025846FDF7E6FCC0B208283FF426AF01
:102928004CE749F6C42049F6E822C0F60000C0F694
:102938000002222105F082FEF0B503AF2DE9000761
:102948008AB0BD680E464FF0FF340190A9B204EB7F
:1029580011210E2952D8DFE801F008430D515151D9
:1029680051515151515151514C0001A91846FEF78E
:102978007CF9FEE029067AD0D7F80C905FFA85FC3E
:10298800BCF1040F80F08A80D0F8C0110022A1EBBE
:10299800C1014FEA810E1EEB02062FD081181FFAE3
:1029A80089F50C8BAC4200F0CA8016F11C0425D0C6
:1029B8008C8EAC4200F0C08016F138041ED0B1F8FD
:1029C8005040AC4200F0BA8016F1540416D0B1F869
:1029D8006C107032A942DED11044A0F11C01AEE0A7
:1029E80001A802A902901846CDE90362FEF792F801
:1029F800BFE0B0F8CA01B0F5007F29D1188840F0CF
:102A08000200062840F0C580D868092119800068AE
:102A1800BFF35F8F002800F0C180997C11F07C0F14
:102A280006D14FF0A04001221C4604F094F823463A
:102A380098690068BFF35F8F002800F0AF80997F26
:102A480011F07C0F09D008200AB0BDE80007F0BDDE
:102A580018463146FDF716FF8BE04FF0A0400122E3
:102A680004F079F808200AB0BDE80007F0BDD0F8F6
:102A7800C0110022CDE90822CDE906221029CDE9AE
:102A88000422CDE902220A4628BF102200294DD08F
:102A980002F0030C042912D200222FE09846002AE3
:102AA8006FD006EBC204D6E900014A464B692946B5
:102AB8009847002857D10836A642F4D161E091081A
:102AC80000F15008C900A1EB920100224FEA011E53
:102AD80002A9A1F108040021451838F801907031C5
:102AE800AE8E0432B5F86CA08E452D8B24F8085FA5
:102AF8006680A4F80490A4F806A0EDD1BCF1000FFC
:102B080014D0C2EBC201BCF1010F00EB810002A995
:102B1800068B21F8126009D001EB4201868EBCF1C8
:102B2800020F4E801CBFB0F85000888002A901AA8D
:102B38001846FDF781FF1CE01C3100E0383198464B
:102B4800BCF1010F09D0BCF1020F02D004220846E3
:102B580006E001F108000C2202E001F11000142245
:102B6800006870B18958CDE9020102A94046FDF715
:102B780007FFC0B2082808BF08200AB0BDE8000750
:102B8800F0BDB8F80000434640F0020006283FF4C4
:102B98003BAF07200AB0BDE80007F0BD49F6C420E6
:102BA80049F6E822C0F60000C0F60002222105F02E
:102BB80045FDD4D4F0B503AF2DE9000F95B0D0F89A
:102BC8008842064607A8884615462146FEF762FA57
:102BD80096F88E22BDF81C10032A0FD100294FF059
:102BE800000018BF03290FD096F88F22042A00F09E
:102BF8000881042086F88E2286F88F020020DFE8FC
:102C080001F003113207030015B0BDE8000FF0BD55
:102C1800032086F88F2286F88E02002015B0BDE8C2
:102C2800000FF0BD2046FFF770F800204FF48061D8
:102C3800002D86F8900286F88C02A6F88E12308055
:102C4800E2D008EBC504A8F1080555F8080F696833
:102C58008969884705F10800A042F6D1002015B01F
:102C6800BDE8000FF0BDBDF82010BDF81E00BDF88E
:102C78002220CDE90401084340EA020906925FEAEE
:102C8800C97048D00698C00726D10498C00708D054
:102C980009A83146FDF75CFB9DF82D00052840F09A
:102CA800A28004208DF839009DF8390004281BD033
:102CB8009DF83700F8B180282BD1DDE90C120FAB55
:102CC800BDF83800CDE90F124146ADF84400304652
:102CD8002A46FFF718FC1CE00CA83146FDF751FC0A
:102CE8009DF839000428E3D10598C0071CBF304679
:102CF800FDF760FD0DE0DDE90C1212ABBDF8380000
:102D0800CDE912124146ADF8500030462A46FFF789
:102D18000FFD29F00109E800B9F1000FCDE902859E
:102D280001904BD00398002858D0DDE90110A0F19C
:102D3800080A01264FF0020B00EB010802200546A5
:102D4800069854461BEA000F0AD054F8080F616829
:102D58008A6A3146904704F108004045F5D10EE0F3
:102D680004981BEA000F0AD0544654F8080F61680B
:102D7800CA6A3146904704F108004045F5D10598E4
:102D88001BEA000F0CD066F07F04564656F8080F71
:102D980071680A6B2146904706F108004045F5D155
:102DA80029EA0B095FEA094008D0102D28464FEAA6
:102DB8004B0B2E4638BF01300F2DC0D9039868B190
:102DC800DDE90110A0F10805441855F8080F6968F5
:102DD800C969884705F10800A042F6D1012015B05D
:102DE800BDE8000FF0BDDDE90912BDF82C00ADF813
:102DF8003800CDE90C129DF8390004283FF474AF6F
:102E080056E749F6183049F63432C0F60000C0F6E5
:102E180000021C2105F0B8FBF0B503AF2DE9000F47
:102E280085B00446886800287CD14FF0FF3092F8BE
:102E3800CFA18860002001F10C05CDE902A0032094
:102E480090460E4600902846002101220023FFF7F5
:102E58005AFA8946B168C00701F10101B16079D118
:102E680000295FD14FF0FF308021B0600020CDE90C
:102E780002A003200090284601228023FFF743FA8E
:102E8800C0077BD1B3684FF44070326806F5D27B37
:102E9800A4F81F00581C002AA177A4F81CA0C4F8A5
:102EA80018B0B06044D14FF0FF310028316045D1EF
:102EB8002846B160FFF789F9B0680130B06043D3A4
:102EC8004FF0FF308021B06004F12400BFF35F8F22
:102ED800C6F8A451BFF35F8F06F0AFF84FF4407007
:102EE8004146A4F8130004F1B4004FF4EA72C4F8A0
:102EF800885284F81290A4F810A0C4F80CB006F018
:102F08004EF80020042184F88E02C4E92B00C4F88E
:102F1800A4002080A4F88F12A4F88C0205B0BDE8A4
:102F2800000FF0BD49F67420C0F6000005F0AAFABB
:102F380049F68420C0F6000005F0A4FA49F694206A
:102F4800C0F6000005F09EFA49F6A420C0F600007D
:102F580005F098FA49F6044049F64433C0F60000F3
:102F6800A7F11E02009049F65430C0F60000C0F6E2
:102F78000003202107F81E9C05F023FBB06849F6E2
:102F88004433A7F11D0207F81D1C0130B06049F653
:102F9800F430C0F60003C0F600002021009049F686
:102FA8005430C0F6000005F00CFB80B56F46007881
:102FB80049F674320B4649F69441C0F60001C0F652
:102FC800000251F8201052F820201846BDE8804031
:102FD80004F091BE80B56F46002080BD80B56F4675
:102FE80080BD80B56F46002080BD80B56F4600204B
:102FF80080BD80B56F46082080BD80B56F4680BD16
:1030080080B56F46024640695FFA81FC20B1117CA9
:10301800614504BF916980BD107FD2E90831C0B213
:103028006045184618BF0020002B08BF184680BD11
:1030380080B56F460822002182814FF41652C0E9FC
:103048005611C0E93411A0F84E10817382600160F6
:1030580080BD80B56F4600F00100BDE8804004F0F7
:10306800B4B980B56F46007849F674320B4649F614
:103078005C71C0F60001C0F6000251F8201052F849
:1030880020201846BDE8804004F035BE80B56F4664
:10309800ADF6182D04F08EF941F20001C2F20001DC
:1030A8000A783AB1FFF7D5FF49F65450C0F6000048
:1030B80005F07DFA01220A7004F087F904F09BF903
:1030C800044604F08BF941F20100E207C2F2000065
:1030D800017808D161B104F083F949F66450C0F66B
:1030E800000005F064FA0029F7D10121017003E01E
:1030F8000121017004F074F927AC342104F10800AF
:1031080005F09BFF46F600400126C0F2DC201DAD0D
:10311800CDE92F6047F64000C0F27D102146CDE989
:10312800276028468DF8D56002F02EFB4EF210007D
:10313800CEF20000016821F0040101602198C00866
:10314800369005F1280002F025FB10234FF40010FB
:10315800C4F202030A219860022253F80C0C37AD1E
:1031680005F10C0420F0200043F80C0C53F8100C67
:1031780066F38B2043F8100C4FF48000986053F8E6
:103188000C0C20F0400043F80C0C53F8100C66F3BC
:103198000D3043F8100C4FF40000986053F80C0CF5
:1031A80020F0800043F80C0C53F8100C66F38F30B5
:1031B80043F8100C53F80C0C20F4006043F80C0C86
:1031C800586961F30F30586153F8100C62F3975047
:1031D80043F8100C53F80C0C20F4805043F80C0CF6
:1031E800586961F31340586153F8100C219962F340
:1031F80019604FF0A04243F8100C0020CDE99E1250
:103208004FF48061959140F20001C2F20001ADF8DF
:103218007002CDE99A000022CDE99800A090ADF89F
:103228007402CDE9960037904FF0FF309491072152
:1032380039904020CDE9020606208DF838128DF825
:103248001C128DF800128DF8E4118DF8C8118DF854
:10325800AC118DF890118DF874118DF858118DF806
:103268004C118DF840118DF834118DF828118DF816
:103278001C118DF810118DF804118DF8F8108DF8C7
:10328800EC1004218DF8E1100021009020468DF803
:10329800E060FFF738F8399AC00702F10102399265
:1032A8005AD1002A40F071814FF0FF304026399002
:1032B8000120CDE902600620884600902046802142
:1032C80000224FF00009FFF71EF8399AC00702F1F3
:1032D8000102399240D149F6745005F5D275C0F60D
:1032E80000008DF82213CA904521379840F20163F7
:1032F800CB9102210028ADF82333ADF82063C795A0
:10330800ADF817338DF81683ADF81463C495ADF88E
:1033180030138DF80D93CDF8849240F042819DF8DA
:10332800E060002A06F101008DF8E00040F02D81F0
:103338004FF0FF3008213990FF20CDE90210062018
:103348000090204680210022FEF7DDFF399AC00751
:1033580002F10102399213D049F6E4408DF8941431
:10336800C0F6000049F6B443009049F6C4400DF297
:103378009442C0F60000C0F600030F2105F021F9C1
:103388003798002840F00D819DF8E0B0002A1C9184
:103398000BF101008DF8E00040F0F7804FF0FF30AE
:1033A800402139900020CDE90210052000902046E8
:1033B80000210022FEF7A7FF399AC00702F1010297
:1033C800399217D1002A40F0E0804FF0FF3088464C
:1033D800399005204FF0400A0090204680210022B5
:1033E800CDE902A9FEF78FFF399AC00702F1010261
:1033F800399206D049F6D4408DF89414C0F60000EE
:10340800B0E74FF4A060ADF878A3ADF86CA30DF564
:103418004D7AADF87B03ADF86F030AF1D8008DF84B
:103428007A138021DD958DF86E83DA95149005F076
:1034380004FE40F2FF608A21ADF863031C988DF802
:1034480062030820ADF86003ADF840034FF416504E
:10345800CF900AF14E00CDF89094CDF88C948DF869
:1034680081B38DF88063D795CDF85493CDF8489300
:103478008DF84293CDF8349305F03CFE0DF5FF64CA
:103488004FF4D27104F11C0005F0D7FD322037A9A2
:10349800C0F200100425CDF8C80940F2EF20C0F6AC
:1034A80001002246CDF8C4091020C0F21020CDF842
:1034B800FC57CDF8C00941F2C060C2F2DA70CDF80D
:1034C800BC090120CDF8B80940F20940CDF8100830
:1034D8000C20CDF80C0849F6B950C0F60000CDF81C
:1034E80008080F20CDF8040849F6C550C0F60000BA
:1034F800CDF8000849F6D850C0F60000CDF8F80716
:103508000DF29440FFF788FC0DF2347649F6DC5151
:10351800C0F60001C3223046CDF82C97CDF8289785
:1035280005F03DFD9DF8401705208DF8375710250B
:103538008DF844070620C4F20205062907F8080C8E
:103548005FD09DF84D17062901D10D3659E09DF839
:103558005A17062901D11A3653E09DF8671706292C
:1035680001D127364DE09DF87417062901D134366C
:1035780047E09DF88117062901D1413641E09DF8C1
:103588008E17062907D14E363BE049F67420C0F65F
:10359800000004F077FF9DF89B17062907D15B36DA
:1035A8002FE049F6B420C0F6000004F06BFF9DF848
:1035B800A817062901D1683623E09DF8B517062912
:1035C80001D175361DE09DF8C217062901D1823652
:1035D80017E09DF8CF17062901D18F3611E09DF825
:1035E800DC17062901D19C360BE09DF8E91706295E
:1035F80001D1A93605E09DF8F617062941F0F583B3
:10360800B636F0700B209DF8401707F8080C0DF23D
:1036180034700B29014661D09DF84D170B2902D152
:1036280000F10D015AE09DF85A170B2902D100F15B
:103638001A0153E09DF867170B2902D100F1270101
:103648004CE09DF874170B2902D100F1340145E0D4
:103658009DF881170B2902D100F141013EE09DF848
:103668008E170B2902D100F14E0137E09DF89B1708
:103678000B2902D100F15B0130E09DF8A8170B2956
:1036880002D100F1680129E09DF8B5170B2902D194
:1036980000F1750122E09DF8C2170B2902D100F153
:1036A80082011BE09DF8CF170B2902D100F18F0191
:1036B80014E09DF8DC170B2902D100F19C010DE004
:1036C8009DF8E9170B2902D100F1A90106E09DF840
:1036D800F6170B2941F0898300F1B6014FF007086E
:1036E800002681F80380A7F14C0101F108020F922E
:1036F80000F1B602059200F1A902069200F19C02BF
:10370800079200F18F02089200F18202099200F1FB
:1037180075020A9200F168020B9200F15B020C92AA
:1037280000F14E020D9200F141020E9200F13402B6
:10373800109200F12702119200F11A020D30139035
:10374800C81C129000204FF0000B1692CDE91A0009
:103758001C90CDE91700199006E0002801F0BA8204
:1037680036A80A2101F0D3FF49F6DC60A7F14C0422
:10377800C0F60000022247E911A049F6A060C0F691
:103788000000214647F8480CA1A847F84C0C0DF258
:103798009440FFF70FFA0DF5E562204651460823DD
:1037A800FDF70FFB17F84C0C002804BF9DF82807FD
:1037B8003F2840F027831C98159660B1DDF89004E7
:1037C800C0F180010E293BD8DDF88C34C3B3802BBF
:1037D80021D180212CE0BBF1000F0BD1B9F1000FF2
:1037E80004BF1B98002805D11A98002808BF002E8E
:1037F80000F04883DDF89004C0F180010E2900F242
:10380800B980DDF88C34002B00F0B480802B40F0B8
:103818009B808021A6E07F2B01F2DF82149EC21AD2
:10382800F118304604F036FFDDF88C14DDF890040A
:10383800401A0022CDF88C24C0F18001CDF8900404
:103848000F294FF00F0438BF0C46A1B1211881424F
:10385800C1F0B182812981F0AE82149922460844D0
:1038680049F62C71C0F6000105F03EFCDDF8900425
:103878002044CDF8900450465646FDF75FFB1C984F
:1038880049F63D728DF8F707002047F8080C47F213
:103898001970C0F60000A7F14C0347F8480C0DF268
:1038A800F77047F84C0CA7F108000421C0F6000295
:1038B80001F06DFEE8B38246DDF89004C0F18004A3
:1038C800A1421DD9DDF88C34D3B1802B01D18022DF
:1038D8000EE07F2B01F28182149D0C46C21AE91872
:1038E800284604F0D7FEDDF88C242146DDF8900444
:1038F800801A0023C0F18004CDF88C34CDF89004F0
:10390800A14238BF0C468CB121188142C1F05382C4
:10391800812981F05082149922460844514605F0C5
:10392800E3FBDDF890042044CDF890043046FDF721
:1039380005FB1025B246C4F20205159EBBF1000F27
:103948008DF8F7B739D195E07F2B01F24682149EA6
:10395800C21AF118304604F09DFEDDF88C14DDF82B
:103968009004159E401A0022CDF88C24C0F18001E5
:10397800CDF890040F294FF00F0438BF0C46A1B1C1
:1039880021188142C1F01782812981F0148214998B
:103998002246084449F62C71C0F6000105F0A4FB44
:1039A800DDF890042044CDF890045046FDF7C6FA9F
:1039B800BBF1000F8DF8F7B75CD0002049F63D72D7
:1039C80047F8080C47F21970C0F60000A7F14C033D
:1039D80047F8480C0DF2F77047F84C0CA7F10800AF
:1039E8000421C0F6000201F0D2FD002842D00446AE
:1039F800DDF89004C0F18006B14221D9DDF88C349D
:103A0800F3B1802B01D1802212E07F2B01F2E581F6
:103A1800149ED0468A46C21AF118304604F03AFE7F
:103A2800DDF88C245146DDF89004C2464FF00708B3
:103A3800801A0023C0F18006CDF88C34CDF89004AC
:103A4800B14238BF0E468EB131188142C1F0B38100
:103A5800812981F0B081149932460844214605F045
:103A680043FBDDF890043044CDF890045046FDF750
:103A780065FA159EB9F1000F8DF8F7975CD0002014
:103A880049F63D7247F8080C47F21970C0F6000075
:103A9800A7F14C0347F8480C0DF2F77047F84C0CA7
:103AA800A7F108000421C0F6000201F070FD00280B
:103AB80042D00446DDF89004C0F18006B14221D915
:103AC800DDF88C34F3B1802B01D1802212E07F2BFA
:103AD80001F28381149ED0468A46C21AF1183046F4
:103AE80004F0D8FDDDF88C245146DDF89004C24678
:103AF8004FF00708801A0023CDF88C34C0F18006F7
:103B0800CDF89004B14238BF0E468EB131188142CB
:103B1800C1F05181812981F04E81149932460844BF
:103B2800214605F0E1FADDF890043044CDF8900420
:103B38005046FDF703FA159E1B988DF8F7070028E5
:103B48005CD0002049F63D7247F8080C47F219701E
:103B5800C0F60000A7F14C0347F8480C0DF2F770C7
:103B680047F84C0CA7F108000421C0F6000201F048
:103B78000EFD002842D00446DDF89004C0F180060E
:103B8800B14221D9DDF88C34F3B1802B01D18022E8
:103B980012E07F2B01F22181149ED0468A46C21A78
:103BA800F118304604F076FDDDF88C245146DDF836
:103BB8009004C2464FF00708801A0023C0F180061F
:103BC800CDF88C34CDF89004B14238BF0E468EB192
:103BD80031188142C1F0EF80812981F0EC8014997D
:103BE80032460844214605F07FFADDF89004304457
:103BF800CDF890045046FDF7A1F9159E1A988DF856
:103C0800F70700285CD0002049F63D7247F8080CF9
:103C180047F21970C0F60000A7F14C0347F8480CAA
:103C28000DF2F77047F84C0CA7F108000421C0F614
:103C3800000201F0ACFC002842D00446DDF89004F4
:103C4800C0F18006B14221D9DDF88C34F3B1802B64
:103C580001D1802212E07F2B01F2BF80149ED04652
:103C68008A46C21AF118304604F014FDDDF88C2497
:103C78005146DDF89004C2464FF00708801A002329
:103C8800CDF88C34C0F18006CDF89004B14238BF2D
:103C98000E468EB131188142C1F08D80812981F0A4
:103CA8008A80149932460844214605F01DFADDF849
:103CB80090043044CDF890045046FDF73FF9159E26
:103CC800002E8DF8F7675CD0002049F63D7247F862
:103CD800080C47F21970C0F60000A7F14C0347F82A
:103CE800480C0DF2F77047F84C0CA7F108000421B6
:103CF800C0F6000201F04BFC002842D00446DDF873
:103D08009004C0F18006B14221D9DDF88C34F3B1BA
:103D1800802B01D1802212E07F2B01F25E80149E5D
:103D2800D0468A46C21AF118304604F0B3FCDDF8D2
:103D38008C245146DDF89004C2464FF00708801ADB
:103D48000023C0F18006CDF88C34CDF89004B14240
:103D580038BF0E468EB131188142C1F02C808129BE
:103D680081F02980149932460844214605F0BCF9AF
:103D7800DDF890043044CDF890045046FDF7DEF8A5
:103D8800159EDDF89004C0F1800101291CD8DDF8EA
:103D98008C34CBB1802B01D180210DE07F2B01F237
:103DA8001C80149EC21AF118304604F073FCDDF82A
:103DB8008C14DDF89004159E401A0022CDF88C244E
:103DC800C0F18001CDF8900402294FF0020438BFF9
:103DD8000C46A1B121188142C0F0ED87812980F0FD
:103DE800EA871499084449F63B71C0F60001224657
:103DF80005F07AF9DDF890042044CDF89004504697
:103E0800FDF79CF81A9807F8450C1B9807F8460C1C
:103E18001C9807F8490C179807F84A0C189807F8DF
:103E28004B0C199807F84C0C4FF4001007F8446C29
:103E380007F8479C07F848BCA8602868DDE91263C2
:103E4800C00711D017F8490C90B117F8480C88B181
:103E580017F8470C80B117F8460C78B117F8450CDD
:103E680070B117F8440CF8B12868800773D484E05F
:103E780000201AE0012018E0022016E0032014E0D8
:103E8800042012E0DDF89004C0F18001112900F24D
:103E98007E87DDF88C34002B00F07987802B40F08A
:103EA8006187802100F06BBF05209DF84017012233
:103EB80007F8092C012902D10DF2347146E09DF86A
:103EC8004D170129194641D09DF85A17012916990D
:103ED8003CD09DF867170129119937D09DF87417C0
:103EE8000129109932D09DF8811701290E992DD0FA
:103EF8009DF88E1701290D9928D09DF89B17012947
:103F08000C9923D09DF8A81701290B991ED09DF86C
:103F1800B51701290A9919D09DF8C21701290999DD
:103F280014D09DF8CF17012908990FD09DF8DC17F8
:103F3800012907990AD09DF8E9170129069905D0A2
:103F48009DF8F6170129059940F06587C97831541D
:103F58002868800711D517F8490C90B117F8480C54
:103F680088B117F8470C80B117F8460C78B117F8E4
:103F7800450C70B117F8440C68B12868400761D443
:103F880072E0002008E0012006E0022004E003209F
:103F980002E0042000E005209DF84017022207F8FF
:103FA800092C022902D10DF2347146E09DF84D1713
:103FB8000229194641D09DF85A17022916993CD072
:103FC8009DF867170229119937D09DF874170229AF
:103FD800109932D09DF8811702290E992DD09DF89D
:103FE8008E1702290D9928D09DF89B1702290C9944
:103FF80023D09DF8A81702290B991ED09DF8B51754
:1040080002290A9919D09DF8C2170229099914D0D2
:104018009DF8CF17022908990FD09DF8DC170229BF
:1040280007990AD09DF8E9170229069905D09DF845
:10403800F6170229059940F0EE86C97831542868A8
:10404800400711D517F8490C90B117F8480C88B1FA
:1040580017F8470C80B117F8460C78B117F8450CDB
:1040680070B117F8440C68B12868000761D472E091
:10407800002008E0012006E0022004E0032002E01E
:10408800042000E005209DF84017032207F8092CBA
:10409800032902D10DF2347146E09DF84D1703292A
:1040A800194641D09DF85A17032916993CD09DF816
:1040B80067170329119937D09DF8741703291099A8
:1040C80032D09DF8811703290E992DD09DF88E17AF
:1040D80003290D9928D09DF89B1703290C9923D003
:1040E8009DF8A81703290B991ED09DF8B517032929
:1040F8000A9919D09DF8C2170329099914D09DF877
:10410800CF17032908990FD09DF8DC1703290799C1
:104118000AD09DF8E9170329069905D09DF8F617E6
:104128000329059940F07786C97831542868000733
:1041380011D517F8490C90B117F8480C88B117F841
:10414800470C80B117F8460C78B117F8450C70B1D8
:1041580017F8440C68B12868C00661D4D1E0002083
:1041680008E0012006E0022004E0032002E0042029
:1041780000E005209DF84017042207F8092C0429BF
:1041880002D10DF2347146E09DF84D170429194605
:1041980041D09DF85A17042916993CD09DF8671705
:1041A8000429119937D09DF874170429109932D031
:1041B8009DF8811704290E992DD09DF88E17042992
:1041C8000D9928D09DF89B1704290C9923D09DF8A8
:1041D800A81704290B991ED09DF8B51704290A9928
:1041E80019D09DF8C2170429099914D09DF8CF1742
:1041F800042908990FD09DF8DC17042907990AD0DB
:104208009DF8E9170429069905D09DF8F6170429A1
:10421800059940F00086C97831542868C00670D5E1
:1042280017F8490C88B117F8480C80B117F8470CF3
:1042380078B117F8460C70B117F8450C68B117F843
:10424800440C00285DD1052008E0002006E001208C
:1042580004E0022002E0032000E004209DF840175B
:10426800052207F8092C052902D10DF2347146E020
:104278009DF84D170529194641D09DF85A1705296B
:1042880016993CD09DF867170529119937D09DF8E4
:1042980074170529109932D09DF8811705290E99B0
:1042A8002DD09DF88E1705290D9928D09DF89B17BC
:1042B80005290C9923D09DF8A81705290B991ED01C
:1042C8009DF8B51705290A9919D09DF8C21705292F
:1042D800099914D09DF8CF17052908990FD09DF892
:1042E800DC17052907990AD09DF8E91705290699C9
:1042F80005D09DF8F6170529059940F08C85C978F1
:1043080031542020A8604FF48000A8602868C007B6
:1043180011D017F8490C90B117F8480C88B117F864
:10432800470C80B117F8460C78B117F8450C70B1F6
:1043380017F8440C68B12868800761D472E000203F
:1043480008E0012006E0022004E0032002E0042047
:1043580000E005209DF84017062207F8092C0629D9
:1043680002D10DF2347146E09DF84D170629194621
:1043780041D09DF85A17062916993CD09DF8671721
:104388000629119937D09DF874170629109932D04B
:104398009DF8811706290E992DD09DF88E170629AC
:1043A8000D9928D09DF89B1706290C9923D09DF8C4
:1043B800A81706290B991ED09DF8B51706290A9942
:1043C80019D09DF8C2170629099914D09DF8CF175E
:1043D800062908990FD09DF8DC17062907990AD0F5
:1043E8009DF8E9170629069905D09DF8F6170629BC
:1043F800059940F01085C97831542868800711D58F
:1044080017F8490C90B117F8480CB8B117F8470CD1
:10441800E0B117F8460C08B317F8450C30B317F895
:10442800440C68B3286840077DD48EE000209DF8CE
:10443800401707F8098C07291FD028E001209DF8AC
:10444800401707F8098C072917D020E002209DF8AB
:10445800401707F8098C07290FD018E003209DF8AA
:10446800401707F8098C072907D010E004209DF8A9
:10447800401707F8098C072909D10DF234714DE06E
:1044880005209DF8401707F8098C0729F5D09DF8F5
:104498004D170729194641D09DF85A17072916992B
:1044A8003CD09DF867170729119937D09DF87417E4
:1044B8000729109932D09DF8811707290E992DD018
:1044C8009DF88E1707290D9928D09DF89B17072965
:1044D8000C9923D09DF8A81707290B991ED09DF891
:1044E800B51707290A9919D09DF8C21707290999FC
:1044F80014D09DF8CF17072908990FD09DF8DC171D
:10450800072907990AD09DF8E9170729069905D0C0
:104518009DF8F6170729059940F07D84C97831542C
:104528002868400711D517F8490C90B117F8480CBE
:1045380088B117F8470C80B117F8460C78B117F80E
:10454800450C70B117F8440C68B12868000761D4AD
:1045580072E0002008E0012006E0022004E00320C9
:1045680002E0042000E005209DF84017082207F823
:10457800092C082902D10DF2347146E09DF84D1737
:104588000829194641D09DF85A17082916993CD090
:104598009DF867170829119937D09DF874170829CD
:1045A800109932D09DF8811708290E992DD09DF8C1
:1045B8008E1708290D9928D09DF89B1708290C9962
:1045C80023D09DF8A81708290B991ED09DF8B51778
:1045D80008290A9919D09DF8C2170829099914D0F1
:1045E8009DF8CF17082908990FD09DF8DC170829DE
:1045F80007990AD09DF8E9170829069905D09DF86A
:10460800F6170829059940F00684C97831542868B6
:10461800000711D517F8490C90B117F8480C88B164
:1046280017F8470C80B117F8460C78B117F8450C05
:1046380070B117F8440C68B12868C00661D4D1E09D
:10464800002008E0012006E0022004E0032002E048
:10465800042000E005209DF84017092207F8092CDE
:10466800092902D10DF2347146E09DF84D17092948
:10467800194641D09DF85A17092916993CD09DF83A
:1046880067170929119937D09DF8741709291099C6
:1046980032D09DF8811709290E992DD09DF88E17D3
:1046A80009290D9928D09DF89B1709290C9923D021
:1046B8009DF8A81709290B991ED09DF8B517092947
:1046C8000A9919D09DF8C2170929099914D09DF89B
:1046D800CF17092908990FD09DF8DC1709290799E0
:1046E8000AD09DF8E9170929069905D09DF8F6170B
:1046F8000929059940F08F83C97831542868C00684
:1047080070D517F8490C88B117F8480C80B117F81C
:10471800470C78B117F8460C70B117F8450C68B11A
:1047280017F8440C00285DD1052008E0002006E0B9
:10473800012004E0022002E0032000E004209DF8AC
:1047480040170A2207F8092C0A2902D10DF2347100
:1047580046E09DF84D170A29194641D09DF85A1789
:104768000A2916993CD09DF867170A29119937D05C
:104778009DF874170A29109932D09DF881170A29D3
:104788000E992DD09DF88E170A290D9928D09DF8DD
:104798009B170A290C9923D09DF8A8170A290B9969
:1047A8001ED09DF8B5170A290A9919D09DF8C21785
:1047B8000A29099914D09DF8CF170A2908990FD00A
:1047C8009DF8DC170A2907990AD09DF8E9170A29E4
:1047D800069905D09DF8F6170A29059940F01B831C
:1047E800C97831544020A8604FF40000A8602868B8
:1047F800C00711D017F8490C90B117F8480C88B1C8
:1048080017F8470C80B117F8460C78B117F8450C23
:1048180070B117F8440C68B12868800761D472E059
:10482800002008E0012006E0022004E0032002E066
:10483800042000E005209DF840170B2207F8092CFA
:104848000B2902D10DF2347146E09DF84D170B2962
:10485800194641D09DF85A170B2916993CD09DF856
:1048680067170B29119937D09DF874170B291099E0
:1048780032D09DF881170B290E992DD09DF88E17EF
:104888000B290D9928D09DF89B170B290C9923D03B
:104898009DF8A8170B290B991ED09DF8B5170B2961
:1048A8000A9919D09DF8C2170B29099914D09DF8B7
:1048B800CF170B2908990FD09DF8DC170B290799FA
:1048C8000AD09DF8E9170B29069905D09DF8F61727
:1048D8000B29059940F09F82C978315428688007D0
:1048E80011D517F8490C90B117F8480C88B117F88A
:1048F800470C80B117F8460C78B117F8450C70B121
:1049080017F8440C68B12868400761D472E00020A9
:1049180008E0012006E0022004E0032002E0042071
:1049280000E005209DF840170C2207F8092C0C29F7
:1049380002D10DF2347146E09DF84D170C29194645
:1049480041D09DF85A170C2916993CD09DF8671745
:104958000C29119937D09DF874170C29109932D069
:104968009DF881170C290E992DD09DF88E170C29CA
:104978000D9928D09DF89B170C290C9923D09DF8E8
:10498800A8170C290B991ED09DF8B5170C290A9960
:1049980019D09DF8C2170C29099914D09DF8CF1782
:1049A8000C2908990FD09DF8DC170C2907990AD013
:1049B8009DF8E9170C29069905D09DF8F6170C29DA
:1049C800059940F02882C97831542868400711D5E4
:1049D80017F8490C90B117F8480C88B117F8470C2C
:1049E80080B117F8460C78B117F8450C70B117F874
:1049F800440C68B12868000761D472E0002008E020
:104A0800012006E0022004E0032002E0042000E088
:104A180005209DF840170D2207F8092C0D2902D111
:104A28000DF2347146E09DF84D170D29194641D015
:104A38009DF85A170D2916993CD09DF867170D292E
:104A4800119937D09DF874170D29109932D09DF817
:104A580081170D290E992DD09DF88E170D290D99C6
:104A680028D09DF89B170D290C9923D09DF8A817DD
:104A78000D290B991ED09DF8B5170D290A9919D043
:104A88009DF8C2170D29099914D09DF8CF170D2943
:104A980008990FD09DF8DC170D2907990AD09DF8C1
:104AA800E9170D29069905D09DF8F6170D290599DE
:104AB80040F0B181C97831542868000711D517F83A
:104AC800490C90B117F8480C88B117F8470C80B119
:104AD80017F8460C78B117F8450C70B117F8440C64
:104AE80068B12868C00661D4D1E0002008E0012040
:104AF80006E0022004E0032002E0042000E0052094
:104B08009DF840170E2207F8092C0E2902D10DF244
:104B1800347146E09DF84D170E29194641D09DF88D
:104B28005A170E2916993CD09DF867170E29119926
:104B380037D09DF874170E29109932D09DF8811737
:104B48000E290E992DD09DF88E170E290D9928D073
:104B58009DF89B170E290C9923D09DF8A8170E29AC
:104B68000B991ED09DF8B5170E290A9919D09DF8F2
:104B7800C2170E29099914D09DF8CF170E29089944
:104B88000FD09DF8DC170E2907990AD09DF8E91770
:104B98000E29069905D09DF8F6170E29059940F0BB
:104BA8003A81C97831542868C00670D517F8490C7D
:104BB80088B117F8480C80B117F8470C78B117F886
:104BC800460C70B117F8450C68B117F8440C00286A
:104BD8005DD1052008E0002006E0012004E0022065
:104BE80002E0032000E004209DF840170F2207F898
:104BF800092C0F2902D10DF2347146E09DF84D17AA
:104C08000F29194641D09DF85A170F2916993CD0FB
:104C18009DF867170F29119937D09DF874170F2938
:104C2800109932D09DF881170F290E992DD09DF833
:104C38008E170F290D9928D09DF89B170F290C99CD
:104C480023D09DF8A8170F290B991ED09DF8B517EA
:104C58000F290A9919D09DF8C2170F29099914D05C
:104C68009DF8CF170F2908990FD09DF8DC170F2949
:104C780007990AD09DF8E9170F29069905D09DF8DC
:104C8800F6170F29059940F0C680C978315480205D
:104C9800A86017F84C1C199117F84B1C189117F8B5
:104CA8004A1C9DF88502179117F8491C013817F816
:104CB800446C012817F8479C17F848BC1C9117F852
:104CC800451C1A9117F8461C1B9103D89DF8301300
:104CD80002293ED19DF8240307283EF441AD0F98E0
:104CE800382104F0AAF91A9807F8460C1B9807F817
:104CF800470C1C9807F84A0C1899C79807F84B1CDA
:104D0800199907F8456C07F8489C07F849BC07F853
:104D18004C1C0068BFF35F8F002853D09DF9221305
:104D2800B1F1FF3F3EF71CADC9B201F07F01032985
:104D38003EF616AD01EB410100EB81000179072930
:104D48003EF40EADA7F14C01082201F00FFDFEF76D
:104D580007BD9DF88402C9077EF4FFAC00283EF425
:104D6800FFACB7E77F2B38D8149EC21AF11830462B
:104D780003F090FCDDF88C14DDF89004159E401AC1
:104D88000022C0F18001CDF88C24CDF890041229BE
:104D98000C4628BF122400293FF431A8211881426B
:104DA80009D3812907D21499084449F61871C0F625
:104DB8000001FFF71CB849F638138022C0F600033B
:104DC80003F08CFB49F6C42049F6E822C0F600003F
:104DD800C0F60002222103F031FC49F618121846E9
:104DE800C0F60002802103F015FC47F2DB5049F6BB
:104DF800F822C0F60000A7F14C0147F8480CA7F1CB
:104E0800080047F84C0C49F2A140C0F60000C0F673
:104E1800000203F019FC47F2DB5049F60832C0F6ED
:104E28000000A7F1080147F8040CA7F1090047F8AA
:104E3800080C49F2A140C0F60000C0F6000203F0D9
:104E480003FCD0B502AF90F8AD3054889C4209D12C
:104E5800537A92F806C0012B05D0002B08BFBCF18D
:104E6800060F32D0D0BDBCF1010F18BFBCF1020F44
:104E780048D1088840F002000628F3D1C868092202
:104E88000A800068BFF35F8F002800F085808A7C65
:104E980012F07C0F07D10C4611464FF0A0400122BA
:104EA80001F059FE214688690068BFF35F8F00282A
:104EB80072D0897F11F07C0F18BFD0BD4FF0A04091
:104EC8000122BDE8D04001F046BE5278212A2AD0FE
:104ED800222A04BF0A88042AC4D10122D0E929035E
:104EE800CC884FF0000C0A8001F1A402A34238BF1D
:104EF8001C4682E80910C1F8B0400846BDE8D04019
:104F0800FBF7E5BBBCF1030FACD190F8AC000A8805
:104F180002282ED142F002000628A3D10846BDE897
:104F2800D040FBF7FDBE0A88042A9BD142F2012239
:104F3800C378A1F8292042F20912C0F21012D0F861
:104F4800A8004A620022C1F8AC200124CA8881F86E
:104F58002B00000A0C80092A81F8283028BF092272
:104F6800C1F8B02081F82C000846BDE8D040FBF716
:104F7800AEBB042A7FF476AFCA88012381F82400E7
:104F880000200B80002A18BF0122C1E92B02084625
:104F9800BDE8D040FBF79BBB49F6C42049F6E822A0
:104FA800C0F60000C0F60002222103F047FBF0B56E
:104FB80003AF2DE90007A0B0137A012B16D190F8A2
:104FC800AD3056889E4211D19379092B12D00A2B05
:104FD80000F0AC800B2B04D190F8AC30022B40F0E1
:104FE8009D80088840F0020006281DD020B0BDE84A
:104FF8000007F0BD158840F2041C94880426B5F516
:10500800806F6FF00703C0F2023C03EA551238BF05
:105018002CFA02F6802C31D90A88002380F88930CE
:1050280042F002000628E1D1C86809220A80006817
:10503800BFF35F8F002800F0A4808A7C12F07C0FF9
:1050480007D10C4611464FF0A040012201F083FD24
:10505800214688690068BFF35F8F002800F09180BF
:10506800897F11F07C0FC1D14FF0A040012220B000
:10507800BDE80007BDE8F04001F06DBD81468846F7
:105088006846802103F0D9FFD8F8B020812A80F043
:105098008380A242C0F08980EA4608F12401504684
:1050A8002246EDB203F07BFF09F10400514680224D
:1050B80003F075FFB8F8000089F88960062889F8B8
:1050C8008850C9F8844091D1D8F818004146006842
:1050D800BFF35F8F002854D091F91E10B1F1FF3F44
:1050E8003FF784AFC9B201F07F0103293FF67EAFD5
:1050F80001EB410100EB8100017907293FF476AF0C
:105108000121002201F032FBC0B2082804BF0820A8
:10511800A8F8000020B0BDE80007F0BD83782BB9DF
:105128001278002A18BF012280F8AC2008880628C7
:105138007FF45CAF88690068BFF35F8F08B391F9AB
:105148001E20B2F1FF3F3FF751AFD2B202F07F020B
:10515800032A3FF64BAF02EB420200EB82000279D2
:10516800072A3FF443AF0C460121002201F0FEFA62
:10517800C0B2082804BF0820208020B0BDE800077E
:10518800F0BD49F6C42049F6E822C0F60000C0F692
:105198000002222103F052FA49F6F8031146C0F63C
:1051A80000030020802203F099F949F64873002093
:1051B800C0F60003214603F091F9B0B502AF84B000
:1051C80005460C460378032295F8AD104078009008
:1051D800204601F0E2FFC0B208282CD1D5F8A8106B
:1051E80042F2012027F80C0C4FF48872E878072364
:1051F80027F80F2CA7F10F0207F80D0C080A07F87B
:105208000A1C212107F8090C204601F024FEC0B22F
:10521800082810D195F89400072807D005F18C01CB
:105228002046FAF7E1FFC1B2082904D195F8A00099
:10523800072802D1082004B0B0BD05F19801204626
:10524800FAF7D2FF04B0B0BDD0B502AF537A012B44
:1052580007D1137A012B02BF90F8443054889C423E
:1052680000D0D0BD9379212B04BF9288072A28D07B
:10527800088840F002000628F3D1C86809220A808D
:105288000068BFF35F8FE0B38A7C12F07C0F07D110
:105298000C4611464FF0A040012201F05CFC21466B
:1052A80088690068BFF35F8F58B3897F11F07C0F5E
:1052B80018BFD0BD4FF0A0400122BDE8D04001F09A
:1052C8004ABC0A88042ACCD1CA88002390F804C0B2
:1052D800012490F805E0072AC1F8AC30837900680A
:1052E800486208460C8081F8283081F829E081F866
:1052F8002AC028BF0722C1F8B020BDE8D040FBF77C
:10530800E6B949F6C42049F6E822C0F60000C0F61E
:105318000002222103F092F9D0B502AF537A012B93
:1053280007D1137A012B02BF90F8443054889C426D
:1053380000D0D0BD9379002B59D0202B0ED0222B32
:105348002CD112780B8802F0010480F84640C2F391
:105358004002062B80F84720EBD14BE0D1F8B02073
:10536800812A75D2062A19D991F8282091F829405E
:1053780091F82AE0032A4B6AB1F800C003604FF0A5
:10538800000380F804E028BF1A46052C827138BF54
:105398002346BCF1060F4371CBD12BE0088840F0BF
:1053A80002000628C5D1C86809220A800068BFF330
:1053B8005F8F002841D08A7C12F07C0F07D10C4601
:1053C80011464FF0A040012201F0C5FB2146886933
:1053D8000068BFF35F8F80B3897F11F07C0FA8D17D
:1053E8004FF0A0400122BDE8D04001F0B4BB0888CE
:1053F80006289ED188690068BFF35F8FE8B191F9EC
:105408001E20B2F1FF3F94DCD2B202F07F02032AE1
:1054180088BFD0BD02EB420200EB82000279072A66
:105428003FF487AF0C460121002201F09FF9C0B27A
:10543800082804BF08202080D0BD49F6C42049F6BA
:10544800E822C0F60000C0F60002222103F0F6F8B8
:1054580049F6F8031146C0F600030020802203F045
:105468003DF8F0B503AF2DE9000B86B090F8446025
:105478008146002402258846084631460222022336
:10548800CDE90054029401F087FCC0B2082876D117
:10549800D9F80C10002299F808000223002918BF37
:1054A8000121CDE90054CDE902104046314601F012
:1054B800E3FBC0B2082862D149F658724046C0F6EC
:1054C80000022421032301F0C6FCC0B2082856D1EB
:1054D80049F2E4524046C0F600022421022301F0BA
:1054E800BAFCC0B208284AD10620A7F11E0207F864
:1054F8001D6C242199F84560032307F81E0C4046CB
:1055080007F81C6C01F0A7FCC0B2082837D10120AD
:10551800A7F11B0227F81B0C40462421032307F898
:10552800196C01F098FCC0B2082828D109F12001B3
:105538004046FAF759FEC1B2082920D1D9F8181007
:10554800002299F814000A23002918BF0121CDE987
:105558000022CDE902104046314601F08DFBC0B271
:1055680008280CD109F138014046FAF73DFEC1B2CE
:10557800082904D109F12C014046FAF735FE06B096
:10558800BDE8000BF0BD80B56F46FDF77FFDD0B5D7
:1055980002AF86B000248DE8130049F67C71C0F68E
:1055A8000001684602F0DDF810B1204606B0D0BD13
:1055B800DDE90102824202D9204606B0D0BD009939
:1055C80003A802F04BFE0599DDE90304002818BF83
:1055D8000024204606B0D0BDF0B503AF4DF8048DC9
:1055E80082B000228029019207D28DF8041001258B
:1055F800D0E90116B1422AD252E04FF6FE760B46A8
:10560800C0F2FF368A0966F39F13B1F5006F0BD21B
:1056180042F0C0018DF805308DF804100225D0E95C
:105628000116B14213D23BE066F39F120D0BB1F5A0
:10563800803F22D245F0E00103258DF806308DF831
:1056480005208DF80410D0E90116B14228D38A1B31
:105658000168002480468B1901A9AA4228BF2A465E
:10566800184638BF012403F03FFD7019C8F8080038
:10567800204602B05DF8048BF0BD66F39F156FF00D
:105688000F0444EA91418DF805508DF80730042540
:105698008DF806208DF80410D0E90116B142D6D253
:1056A8000124204602B05DF8048BF0BD80B56F463A
:1056B80013460A4649F67C71C0F60001BDE88040F1
:1056C80002F04FB8F0B503AF4DF8048DD0E90135BD
:1056D800AB4204D2012420465DF8048BF0BDD0F81B
:1056E80000C05B1B934228BF1346AC444FF0000434
:1056F8008046164660461A4638BF012403F0F4FC7B
:10570800A819C8F8080020465DF8048BF0BD0068A9
:105718004DF68362C4F21B32A0FB0202900C484390
:105728004FF47A714843002808BF704780B56F4628
:105738004EF210016FF07F4CCEF200014FF0000ED8
:1057480005E00B68801A23F001030B6019D06FF095
:105758007F42604538BF02464A60C1F808E00B68DE
:1057680043F001030B600B68DB03EAD40B68DB032F
:105778005CBF0B685FEAC333E3D40B68DB03F2D585
:10578800DFE7BDE88040704780B56F46002200F033
:1057980030F880BDB0B502AF40F200240125C4F254
:1057A8004724C4F8005401F023FE0020256020603F
:1057B800B0BDF0B503AF4DF804BD01F01CFE0446C2
:1057C80001F00CFE40F29C250126C4F24725C5F8DD
:1057D800006401F00DFE00202E602860E00705D16E
:1057E8005DF804BBBDE8F04001F0FABD5DF804BB0C
:1057F800F0BDF0B503AF2DE9000F99B010928A46BD
:10580800D1E9002142F2004BC0F2F40B0B90002AC0
:10581800DAE9083018BF8B46B0EB0B0118BF01213D
:105828000F9219400D912AD09AF8391001230C9142
:10583800DAE90A68CDE9000111A85946DAE90C4508
:1058480000F09BFCA5EB080104EA0600B1FA81F11F
:105858002B46490908400E9016A818BF002459463F
:10586800224600F018FC1198022818BF5FEAC070A1
:1058780057D149F69470C0F6000002F098FE9AF8E5
:10588800390059460C900023019011A8DAE90A86DC
:10589800DAE90C4500F071FCA91B04EA0800B1FA2A
:1058A80081F12B46490910EA010916A818BF0024FE
:1058B8005946224600F0EFFBCDF83890B9F1000FB9
:1058C800DDF86090DDF858C018BFB146464608BFFD
:1058D8008CF001061198DDE91343B0F1020E0CBFFC
:1058E80074464FF0010EDAE902200A93002A08BF35
:1058F8005846002800F0E481ABF10101CDE90864C5
:105908004218B2FBF0F0012835D0022830D0002828
:1059180000F0B581C21E032A5ED204204FF0900821
:105928002BE00E984FF0010EDDE912B4149B00280D
:10593800DDF858C0DDF8609014BFC1468CF0010650
:1059480010980028CFD1ABF1B7704AF60132A0F514
:105958005850C0F287429042C5D349F6A4704AF223
:105968000002C0F60000C0F600025C2102F066FEEC
:105978004FF0800801E04FF0000890FAA0F04FF2D5
:105988008002B0FA80F0DAE90446C0F2FA222BFA73
:1059980000F5954238BF2A46002C18BF3246002A27
:1059A80000F09481681E1418B4FBF2F6012E10D092
:1059B800022E0AD0002E00F06D81F21E032A13D2A7
:1059C800042402264FF4A0531AE002244FF4805313
:1059D80016E00124002313E0821F062A80F00981C3
:1059E80008204FF0A008C8E7B41F4FF4E053062C76
:1059F8004FF0100438BF4FF4C05338BF08240226B4
:105A080094FAA4F4B4FA84F425FA04F2109C34B994
:105A18004FF28104C0F2FA24A24280F01A814EF2B9
:105A28000014CDE90613CDE90469C0F2F554DAE9AA
:105A38000661A54238BF2C46002E18BF0C46002C24
:105A480000F04A8120440392B0FBF4F6012E12D0F4
:105A5800022E0BD0002E00F02881F01E624603288B
:105A68000DD2042402264FF4204013E0624602249B
:105A78004FF400400EE06246012400200AE0B11F06
:105A88004FF460401024062938BF4FF4404038BF17
:105A98000824022694FAA4F1B1FA81F125FA01F951
:105AA800109931B94EF20111C0F2F551894580F0D3
:105AB800DB80069945F2C743C0F21E1343F6000483
:105AC800C4F20204C909A1FB0313D4F8001409099C
