:020000040800F2
:100000000000022099010008A97E0008C99200089A
:10001000A97E0008A97E0008A97E00080000000053
:10002000000000000000000000000000A97E0008A1
:10003000A97E000800000000A97E0008A97E000833
:10004000A97E0008A97E0008A97E0008A97E0008F4
:10005000A97E0008A97E0008A97E0008A97E0008E4
:10006000A97E0008A97E0008A97E0008A97E0008D4
:10007000A97E0008A97E0008A97E0008A97E0008C4
:10008000A97E0008A97E0008A97E000800000000E3
:10009000000000000000000000000000A97E000831
:1000A000A97E0008A97E0008A97E0008A97E000894
:1000B000A97E0008A97E0008A97E0008A97E000884
:1000C000A97E0008A97E0008A97E0008A97E000874
:1000D000A97E0008A97E0008A97E00080000000093
:1000E000A97E0008A97E0008A97E00080000000083
:1000F000000000000000000000000000A97E0008D1
:1001000000000000A97E0008A97E0008A97E000862
:1001100000000000000000000000000000000000DF
:10012000A97E0008A97E0008A97E0008A97E000813
:10013000A97E000800000000000000000000000090
:10014000000000000000000000000000A97E000880
:10015000A97E0008A97E0008A97E0008A97E0008E3
:10016000A97E0008A97E0008000000000000000031
:10017000000000000000000000000000000000007F
:1001800000000000A97E0008000000000000000040
:08019000A97E0008A97E000809
:1001980007F089FE0E480F490022814201D004C0B1
:1001A800FBE70D480D490E4A814202D008CA08C033
:1001B800FAE70C484FF47001026842EA0102026053
:1001C800BFF34F8FBFF36F8F03F07DF900DE0000A0
:1001D80000000020E43E0020000000200000002075
:1001E800C8A5000888ED00E0D0B502AF018806294F
:1001F80017D181690968BFF35F8F01B390F91E2099
:10020800B2F1FF3F0BDCD2B202F07F02032A06D81C
:1002180002EB420201EB82010A79072A03D1052089
:10022800D0BD0720D0BD044608460121002206F0B3
:10023800EFFFC0B2082804BF08202080D0BD49F6CF
:10024800D41049F6F812C0F60000C0F600022221C8
:1002580008F084FDF0B503AF4DF8048D86B00A8828
:10026800531E032B54D3052A52D0072A78D1D1F82C
:10027800AC50D1F806604A89802DD1F80230ADF82B
:100288000C20CDE9013600F2ED80CA681268BFF390
:100298005F8F002A00F0DB808B7C032B08D8C3EB30
:1002A800C30302EB830494F87020072A40F0A2806D
:1002B8000E4640F20151ADF810109DF811100029BA
:1002C80048D0F168092232800968BFF35F8F00299E
:1002D80000F0BD80B17C11F07C0F06D104464FF0D0
:1002E800A040012207F089F92046B1690968BFF3E7
:1002F8005F8F002900F0AB80B17F11F07C0F29D10E
:1003080004464FF0A040012207F077F9204621E08B
:10031800CA681268BFF35F8F002A00F098808B7C50
:10032800032B2ED8C3EBC30302EB830292F8703081
:10033800072B26D00C4602F16C0104AA06460023BE
:1003480000251046012207F06DF89DF81010304680
:10035800D1B925800421417206B05DF8048BF0BD47
:10036800CA681268BFF35F8F002A70D08B7C032B9A
:1003780007D8C3EBC30302EB830292F87030072B54
:100388000BD105218DF811109DF81110052242722C
:10039800017006B05DF8048BF0BD0D4602F16C01EA
:1003A80004AA044600231046012207F03BF89DF8F2
:1003B800101020460029E7D1E96809232B80096835
:1003C800BFF35F8F002942D0A97C2A4611F07C0F29
:1003D80006D14FF0A040012207F00FF92A46204627
:1003E80091690968BFF35F8F89B3917F11F07C0F22
:1003F800B0D186E70E46294401F1240204F16C01CC
:1004080004ACC5F180038046204607F00BF89DF840
:100418001010404600297FF450AF059A5119A9429F
:1004280029D3812927D2D6E92B131144C6F8AC1059
:1004380099428FD3DDE901120625BDF80C303580CD
:1004480001604260038106B05DF8048BF0BD49F697
:10045800D41049F6F812C0F60000C0F600022221B6
:1004680008F07CFC49F674132846C0F60003802186
:10047800802208F0C3FB49F664132846C0F600033F
:10048800802208F0BBFBF0B503AF2DE9000F83B065
:100498000446C8680068BFF35F8F002800F08580B5
:1004A8008A7C032A21D8C2EBC20200EB820090F8B2
:1004B8007020072A19D000F16C0201F124050E46BC
:1004C800684611462A46802306F0ACFF9DF80000D6
:1004D80001280AD0019A812A72D26846294607F073
:1004E8009BFC9DF80900042805D10420607203B024
:1004F800BDE8000FF0BDF168BDF808A09DF80750F1
:100508009DF80690BDF804B0DDF800800968BFF3D7
:100518005F8F002949D0B17C304611F07C0F05D19E
:100528004FF0A040002207F068F83046BDB1042122
:10053800A0F80AA0457280F80890A0F806B0C0F8A4
:1005480002800180A4F808A0E57184F80690A4F858
:1005580004B0C4F8008003B0BDE8000FF0BDBBF1E3
:10056800000F11D0BBF1800FBFD80021A0F80AA05E
:10057800C0E92B1B4172072180F80890A0F806B04B
:10058800C0F802800180B0E70621A4F808A0018025
:100598000021C0F8B010E17184F80690A180C4F879
:1005A800008003B0BDE8000FF0BD49F6D41049F64D
:1005B800F812C0F60000C0F60002222108F0CEFBB7
:1005C80049F684131146C0F600030020802208F083
:1005D80015FBF0B503AF4DF804BD0246D0E9293448
:1005E800D0F8AC00D2F8B010002B958B08BF80244F
:1005F800091AA94238BF0D46291844D2A14242D847
:1006080091690968BFF35F8F002943D092F91E6092
:10061800002B08BF02F12403B6F1FF3F0CDCF6B251
:1006280006F07F06032E07D806EB460601EB860C7C
:100638009CF80410072903D105205DF804BBF0BD20
:100648001918164660462A4606F0E2FDC0B2082888
:1006580016D1D6F8AC00411927D2A14225D8D6F830
:10066800B0003246C6F8AC10814208D30020918B06
:10067800C2F8A40003208D4208BF02201080082081
:100688005DF804BBF0BD49F6A4132246C0F600038A
:1006980008F0B4FA49F6D41049F6F812C0F600008A
:1006A800C0F60002222108F059FB49F694132246AD
:1006B800C0F6000308F0A2FAB0B502AF01884B1EDD
:1006C8000021072B42D80022DFE803F004230E3E66
:1006D8003E3E3E3CFFF77DFFC1B2B1F108020CBFC0
:1006E800114601221046B0BDC1680968BFF35F8F8B
:1006F80000293ED0817C11F07C0F05D104464FF0D3
:10070800A04006F07AFF2046052101800021002044
:10071800B0BD81690968BFF35F8F51B390F91E209E
:10072800B2F1FF3F0BDCD2B202F07F02032A06D8F7
:1007380002EB420201EB82010A79072A08D1012063
:100748000521B0BD012102801046B0BD0020B0BD1A
:100758000446084601210022012506F059FDC1B2D0
:10076800082904D10320208000210020B0BD28469C
:10077800B0BD49F6D41049F6F812C0F60000C0F62C
:100788000002222108F0EAFAF0B503AF2DE9000BC8
:100798008CB00C460188042953D1B0F806908046E5
:1007A8002430059001A80B9009A800211546802245
:1007B800079106928DF8201003910191099107F095
:1007C800BEFAC0B2082838D16DB104EBC50609AD30
:1007D800D4E900010A6929469047C1B208292CD1F9
:1007E8000834B442F4D109A807F002FB079980291C
:1007F8002CD9D8F80C100922A8F800200968BFF3F2
:100808005F8FA1B398F81210404611F07C0F05D104
:100818004FF0A040012206F0F0FE404681690968C9
:10082800BFF35F8F19B3817F11F07C0F04D14FF0B4
:10083800A040012206F0E1FE02200CB0BDE8000B4A
:10084800F0BD07200CB0BDE8000BF0BD0123404609
:100858000022A8F80030494538BF8946C0E92B294D
:10086800FFF7B7FEC0B20CB0BDE8000BF0BD49F60B
:10087800D41049F6F812C0F60000C0F60002222192
:1008880008F06CFAB0B502AF88B00288042A39D1F2
:100898008024D1E9001205940446C5882430002339
:1008A8000490684606938DF81C300293009307F075
:1008B8001AF9C0B2082823D10699802925D9E168F8
:1008C800092222800968BFF35F8F61B3A17C2046AB
:1008D80011F07C0F05D14FF0A040012206F08DFEEB
:1008E800204681690968BFF35F8FE1B1817F11F00C
:1008F8007C0F04D14FF0A040012206F07EFE0220BA
:1009080008B0B0BD072008B0B0BD012320460022C2
:100918002380A94238BF0D46C0E92B25FFF759FEB1
:10092800C0B208B0B0BD49F6D41049F6F812C0F606
:100938000000C0F60002222108F010FAB0B502AF9C
:1009480088B08C460188042940D111688023C58865
:100958000022059300F12403D1F8C01104930692F4
:100968004B00212B8DF81C20029200923FD20446A6
:1009780068460321624606F0C0FFC0B2082823D1AA
:100988000699802925D9E168092222800968BFF3E0
:100998005F8FB1B3A17C204611F07C0F05D14FF0D9
:1009A800A040012206F029FE204681690968BFF3AC
:1009B8005F8F31B3817F11F07C0F04D14FF0A040DD
:1009C800012206F01AFE022008B0B0BD072008B0C8
:1009D800B0BD0123204600222380A94238BF0D461E
:1009E800C0E92B25FFF7F5FDC0B208B0B0BD49F648
:1009F800C41C0020C0F6000C19462022634608F0EB
:100A0800FDF849F6D41049F6F812C0F60000C0F611
:100A18000002222108F0A2F9F0B503AF2DE9000782
:100A280088B00288042A57D1D1E9002580238C6830
:100A38000021B0F80690804624300490069168465C
:100A480005938DF81C1002910091116806F0FDFDC8
:100A5800C0B208283CD18CB105EBC4066C464FF0F7
:100A6800000AD5E90001CA6821469047C1B20829A1
:100A78002ED10835CDF808A0B542F2D1684606F067
:100A8800CCFE069980292CD9D8F80C100922A8F890
:100A980000200968BFF35F8FA1B398F81210404691
:100AA80011F07C0F05D14FF0A040012206F0A5FD02
:100AB800404681690968BFF35F8F19B3817F11F0E0
:100AC8007C0F04D14FF0A040012206F096FD0220D1
:100AD80008B0BDE80007F0BD072008B0BDE8000772
:100AE800F0BD012340460022A8F80030494538BF30
:100AF8008946C0E92B29FFF76CFDC0B208B0BDE8F4
:100B08000007F0BD49F6D41049F6F812C0F6000007
:100B1800C0F60002222108F021F9F0B503AF4DF824
:100B280004BD0288042A06D14C68802C07D902200B
:100B38005DF804BBF0BD07205DF804BBF0BD096893
:100B480000F12402C68805461046224608F04AFBF2
:100B58000020B44238BF2646C5E92B06012028806C
:100B680028465DF804BBBDE8F040FFF732BDB0B5DC
:100B780002AF88B00288042A38D109680446C588BB
:100B880024300022802304906846069205938DF84D
:100B98001C200292009206F0FFFEC0B2082823D162
:100BA8000699802925D9E168092222800968BFF3BE
:100BB8005F8F61B3A17C204611F07C0F05D14FF007
:100BC800A040012206F019FD204681690968BFF39B
:100BD8005F8FE1B1817F11F07C0F04D14FF0A0400D
:100BE800012206F00AFD022008B0B0BD072008B0B7
:100BF800B0BD0123204600222380A94238BF0D46FC
:100C0800C0E92B25FFF7E5FCC0B208B0B0BD49F636
:100C1800D41049F6F812C0F60000C0F600022221EE
:100C280008F09CF8D0B502AFC168092202800968B3
:100C3800BFF35F8FD9B1817C11F07C0F06D10446D8
:100C48004FF0A040012206F0D8FC204681690968CF
:100C5800BFF35F8F59B1817F11F07C0F18BFD0BDF2
:100C68004FF0A0400122BDE8D04006F0C6BC49F6CE
:100C7800D41049F6F812C0F60000C0F6000222218E
:100C880008F06CF880B56F460830BDE8804005F084
:100C9800F1B880B56F460830BDE8804005F052B91C
:100CA800D0B502AF88B090F84620C9B2914218D1A9
:100CB80000F10801CDE90010D0E90021D0E956344F
:100CC800022A18BF00219C4202910CD1F1B1016C9B
:100CD8000968BFF35F8FA9B390F94600B0F1FF3FF1
:100CE80018DD08B0D0BD02AB079301AB06936B4685
:100CF800028F0593092988BF013A00F1D80103A89A
:100D080005AB92B204F020FC08B0D0BD0021016010
:100D180008B0D0BDC0B200F07F000328E1D800EBD6
:100D2800400001EB800001790729DAD00121002277
:100D3800012406F06DFAC0B2082804BF01980460C7
:100D480008B0D0BD49F6D41049F6F812C0F6000034
:100D5800C0F60002222108F001F880B56F4608307D
:100D6800BDE8804005F093B980B56F46002080BD8E
:100D780080B56F4680BD80B56F46002080BD80B5C8
:100D88006F46002080BD80B56F46082080BD80B5C5
:100D98006F4680BD80B56F46024640695FFA81FCA8
:100DA80020B1117C614504BF916980BD107FD2E9F3
:100DB8000831C0B26045184618BF0020002B08BF94
:100DC800184680BD80B56F460822002182814FF405
:100DD8001652C0E95611C0E93411A0F84E108173BB
:100DE8008260016080BD80B56F4600F00100BDE8FB
:100DF800804007F03CB880B56F46ADF6082D07F087
:100E08002BF843F6E061C2F200010A78002A40F0AC
:100E1800BE8101220A7007F02AF807F03EF804465E
:100E280007F02EF843F6E160E207C2F2000001780D
:100E380008D161B107F026F849F62820C0F600006D
:100E480007F045FF0029F7D10121017003E00121D6
:100E5800017007F017F81EAC342104F1080008F0FF
:100E68006AF946F600404FF00109C0F2DC2014ADE3
:100E7800CDE9269047F64000C0F27D102146CDE925
:100E88001E9028468DF8B19005F0D0F94EF210006A
:100E9800CEF20000016821F0040101601898C00832
:100EA8002D9005F1280005F0C7F910250DF1B808B7
:100EB800C4F20205002455F8040C69F3010045F852
:100EC800040C55F8040C69F3830045F8040C55F834
:100ED800040C69F3051045F8040C55F8040C69F383
:100EE800871045F8040C55F8040C69F3092045F8F7
:100EF800040C4FF40010A86055F80C1C21F02001D8
:100F080045F80C1C55F8101C69F38B2145F8101C8A
:100F18004FF48001A96055F80C2C22F0400245F8E6
:100F28000C2C55F8102C69F30D3245F8102C4FF4A1
:100F38000002AA6055F80C3C23F0800345F80C3CED
:100F480055F8103C69F38F3345F8103CA8604523E9
:100F5800A9600A21AA60022255F80C0C20F400604E
:100F680045F80C0C686961F30F30686155F8100C8E
:100F780062F3975045F8100C55F80C0C20F480508B
:100F880045F80C0C686961F31340686155F8100C5A
:100F9800189962F3196045F8100C4FF0A04049F613
:100FA8003822CDE9951040F6B8708C9040F20000D8
:100FB800C2F20000C0F600028B9007208DF81402E0
:100FC80041468DF8F8018DF8DC018DF8C0018DF8E7
:100FD800A4018DF888018DF86C018DF850018DF809
:100FE80034018DF828018DF81C018DF810018DF859
:100FF80004018DF8F8008DF8EC008DF8E0008DF80C
:10100800D4008DF8C8004FF48060ADF8BC0098A8F3
:10101800ADF84C42CDE99144CDE98F449794ADF8B1
:101028005042CDE98D4430942E94CDF8009004F0D0
:1010380074FC0DF58E654146402200232846019434
:1010480004F0F5FAC4AE294606F10800482207F074
:10105800B1FE06F150004FF48871C49408F06BF8A3
:101068000DF5FB654FF4D27105F11C0008F063F82B
:1010780032200426C0F200104146CDF8A80940F2FB
:10108800EF20C0F601002A46CDF8A4091020C0F2CE
:101098001020CDF89899CDF8A00941F2C060C2F2AD
:1010A800DA70CDF8DC67CDF89C0940F20940CDF83C
:1010B800F0070C20CDF8EC0749F67D20C0F60000BB
:1010C800CDF8E8070F20CDF8E40749F68920C0F6E7
:1010D8000000CDF8E00749F69C20C0F60000CDF8E6
:1010E800D8070DF58E6004F0D3F80DF2047449F6B4
:1010F800A021C0F60001C322204607F05BFE9DF840
:10110800100705218DF81217032103288DF80567AC
:1011180007F80C1C5BD09DF81D07032801D10D347E
:1011280055E09DF82A07032801D11A344FE09DF8AD
:101138003707032801D1273449E09DF844070328DD
:1011480001D1343443E09DF85107032801D14134DB
:101158003DE09DF85E07032801D14E3437E09DF845
:101168006B07032801D15B3431E09DF87807032829
:1011780001D168342BE09DF88507032801D1753427
:1011880025E09DF89207032809D182341FE0FFF774
:101198002AFE49F6DC30C0F6000007F098FD9DF8FD
:1011A8009F07032801D18F3411E09DF8AC0703286D
:1011B80001D19C340BE09DF8B907032801D1A9346B
:1011C80005E09DF8C607032842F05181B634062091
:1011D80007F80C6C60700DF204709DF81017042964
:1011E80053D09DF81D17042901D10D304DE09DF80D
:1011F8002A17042901D11A3047E09DF83717042926
:1012080001D1273041E09DF84417042901D1343039
:101218003BE09DF85117042901D1413035E09DF894
:101228005E17042901D14E302FE09DF86B17042971
:1012380001D15B3029E09DF87817042901D1683085
:1012480023E09DF88517042901D175301DE09DF82C
:101258009217042901D1823017E09DF89F170429BD
:1012680001D18F3011E09DF8AC17042901D19C30D1
:101278000BE09DF8B917042901D1A93005E09DF8C4
:10128800C617042942F0F380B630072141700520C3
:101298009DF8101707F80C0C0DF20470052953D0AF
:1012A8009DF81D17052901D10D304DE09DF82A172D
:1012B800052901D11A3047E09DF83717052901D1D2
:1012C800273041E09DF84417052901D134303BE02F
:1012D8009DF85117052901D1413035E09DF85E1779
:1012E800052901D14E302FE09DF86B17052901D152
:1012F8005B3029E09DF87817052901D1683023E093
:101308009DF88517052901D175301DE09DF89217C4
:10131800052901D1823017E09DF89F17052901D1D1
:101328008F3011E09DF8AC17052901D19C300BE0F6
:101338009DF8B917052901D1A93005E09DF8C61710
:10134800052942F09480B6300821417006209DF8A6
:10135800101707F80C0C0DF20470062953D09DF8ED
:101368001D17062901D10D304DE09DF82A170629D1
:1013780001D11A3047E09DF83717062901D12730E7
:1013880041E09DF84417062901D134303BE09DF82F
:101398005117062901D1413035E09DF85E1706291D
:1013A80001D14E302FE09DF86B17062901D15B3033
:1013B80029E09DF87817062901D1683023E09DF8C7
:1013C8008517062901D175301DE09DF89217062969
:1013D80001D1823017E09DF89F17062901D18F307F
:1013E80011E09DF8AC17062901D19C300BE09DF85F
:1013F800B917062901D1A93005E09DF8C6170629B5
:1014080042F03580B6300921417007209DF8101749
:1014180007F80C0C0DF20470072953D09DF81D171E
:10142800072901D10D304DE09DF82A17072901D170
:101438001A3047E09DF83717072901D1273041E0D6
:101448009DF84417072901D134303BE09DF8511726
:10145800072901D1413035E09DF85E17072901D1F0
:101468004E302FE09DF86B17072901D15B3029E03A
:101478009DF87817072901D1683023E09DF8851772
:10148800072901D175301DE09DF89217072901D170
:10149800823017E09DF89F17072901D18F3011E09E
:1014A8009DF8AC17072901D19C300BE09DF8B917BE
:1014B800072901D1A93005E09DF8C617072941F091
:1014C800D687B6300A21417008209DF8101707F812
:1014D8000C0C0DF20470082953D09DF81D1708292B
:1014E80001D10D304DE09DF82A17082901D11A3095
:1014F80047E09DF83717082901D1273041E09DF8CA
:101508004417082901D134303BE09DF851170829C8
:1015180001D1413035E09DF85E17082901D14E30E0
:101528002FE09DF86B17082901D15B3029E09DF861
:101538007817082901D1683023E09DF88517082914
:1015480001D175301DE09DF89217082901D182302C
:1015580017E09DF89F17082901D18F3011E09DF8F9
:10156800AC17082901D19C300BE09DF8B917082960
:1015780001D1A93005E09DF8C617082941F0778701
:10158800B6300B21417009209DF8101707F80C0C94
:101598000DF20470092953D09DF81D17092901D1AE
:1015A8000D304DE09DF82A17092901D11A3047E07E
:1015B8009DF83717092901D1273041E09DF84417D4
:1015C800092901D134303BE09DF85117092901D18F
:1015D800413035E09DF85E17092901D14E302FE0E2
:1015E8009DF86B17092901D15B3029E09DF8781720
:1015F800092901D1683023E09DF88517092901D10F
:1016080075301DE09DF89217092901D1823017E045
:101618009DF89F17092901D18F3011E09DF8AC176B
:10162800092901D19C300BE09DF8B917092901D18E
:10163800A93005E09DF8C617092941F01887B6308A
:101648000C2141700A209DF8101707F80C0C0DF2B8
:1016580004700A2953D09DF81D170A2901D10D30AD
:101668004DE09DF82A170A2901D11A3047E09DF864
:1016780037170A2901D1273041E09DF844170A2974
:1016880001D134303BE09DF851170A2901D141308E
:1016980035E09DF85E170A2901D14E302FE09DF8FC
:1016A8006B170A2901D15B3029E09DF878170A29C0
:1016B80001D1683023E09DF885170A2901D17530DA
:1016C8001DE09DF892170A2901D1823017E09DF894
:1016D8009F170A2901D18F3011E09DF8AC170A290C
:1016E80001D19C300BE09DF8B9170A2901D1A93026
:1016F80005E09DF8C6170A2941F0B986B6300D21D4
:1017080041700B209DF8101707F80C0C0DF20470AF
:101718000B2953D09DF81D170B2901D10D304DE031
:101728009DF82A170B2901D11A3047E09DF8371781
:101738000B2901D1273041E09DF844170B2901D12D
:1017480034303BE09DF851170B2901D1413035E089
:101758009DF85E170B2901D14E302FE09DF86B17CD
:101768000B2901D15B3029E09DF878170B2901D1AD
:10177800683023E09DF885170B2901D175301DE0ED
:101788009DF892170B2901D1823017E09DF89F1719
:101798000B2901D18F3011E09DF8AC170B2901D12D
:1017A8009C300BE09DF8B9170B2901D1A93005E051
:1017B8009DF8C6170B2941F05A86B6300E214170A4
:1017C8000C209DF8101707F80C0C0DF204700C296A
:1017D80053D09DF81D170C2901D10D304DE09DF80F
:1017E8002A170C2901D11A3047E09DF837170C2920
:1017F80001D1273041E09DF844170C2901D134303C
:101808003BE09DF851170C2901D1413035E09DF896
:101818005E170C2901D14E302FE09DF86B170C296B
:1018280001D15B3029E09DF878170C2901D1683087
:1018380023E09DF885170C2901D175301DE09DF82E
:1018480092170C2901D1823017E09DF89F170C29B7
:1018580001D18F3011E09DF8AC170C2901D19C30D3
:101868000BE09DF8B9170C2901D1A93005E09DF8C6
:10187800C6170C2941F0FB85B6300F2141700D20A9
:101888009DF8101707F80C0C0DF204700D2953D0B1
:101898009DF81D170D2901D10D304DE09DF82A172F
:1018A8000D2901D11A3047E09DF837170D2901D1CC
:1018B800273041E09DF844170D2901D134303BE031
:1018C8009DF851170D2901D1413035E09DF85E177B
:1018D8000D2901D14E302FE09DF86B170D2901D14C
:1018E8005B3029E09DF878170D2901D1683023E095
:1018F8009DF885170D2901D175301DE09DF89217C7
:101908000D2901D1823017E09DF89F170D2901D1CB
:101918008F3011E09DF8AC170D2901D19C300BE0F8
:101928009DF8B9170D2901D1A93005E09DF8C61712
:101938000D2941F09C85B630102141700E209DF88C
:10194800101707F80C0C0DF204700E2953D09DF8EF
:101958001D170E2901D10D304DE09DF82A170E29CB
:1019680001D11A3047E09DF837170E2901D12730E9
:1019780041E09DF844170E2901D134303BE09DF831
:1019880051170E2901D1413035E09DF85E170E2917
:1019980001D14E302FE09DF86B170E2901D15B3035
:1019A80029E09DF878170E2901D1683023E09DF8C9
:1019B80085170E2901D175301DE09DF892170E2963
:1019C80001D1823017E09DF89F170E2901D18F3081
:1019D80011E09DF8AC170E2901D19C300BE09DF861
:1019E800B9170E2901D1A93005E09DF8C6170E29AF
:1019F80041F03D85B630112141700F209DF8101738
:101A080007F80C0C0DF204700F29014661D09DF8FF
:101A18001D170F2902D100F10D015AE09DF82A1770
:101A28000F2902D100F11A0153E09DF837170F2949
:101A380002D100F127014CE09DF844170F2902D18B
:101A480000F1340145E09DF851170F2902D100F14A
:101A580041013EE09DF85E170F2902D100F14E01C9
:101A680037E09DF86B170F2902D100F15B0130E0D8
:101A78009DF878170F2902D100F1680129E09DF837
:101A880085170F2902D100F1750122E09DF8921700
:101A98000F2902D100F182011BE09DF89F170F2941
:101AA80002D100F18F0114E09DF8AC170F2902D183
:101AB80000F19C010DE09DF8B9170F2902D100F142
:101AC800A90106E09DF8C6170F2941F0D08400F15E
:101AD800B601122210264A70A7F15C0102310E915C
:101AE80000F1B601049100F1A901059100F19C01F2
:101AF800069100F18F01079100F18201089100F130
:101B08007501099100F168010A9100F15B010B91DF
:101B180000F14E010C9100F141010F9100F13401E7
:101B2800109100F12701139100F11A010D30129064
:101B38000DF5F96003300D900020002500244FF0CA
:101B4800000A4FF000084FF000094FF0000BC4F2F4
:101B5800020611918DF8D007CDF8CC07CDF8C8074B
:101B68008DF8D7078DF8D6078DF8D5078DF8D407E7
:101B78008DF8D3078DF8D20706E0002801F0158309
:101B88002DA80A2104F015FB49F6A030A7F15C0145
:101B9800C0F60000022247F8500CC4A847F8540CBD
:101BA80049F66430C0F6000047F8580C98A847F882
:101BB8005C0C0DF58E6003F039FA10204FF400111B
:101BC800C4F202008160012102689DF8100707F83D
:101BD8000C1C012802D10DF2047146E09DF81D1776
:101BE8000129129941D09DF82A17012911993CD051
:101BF8009DF837170129139937D09DF84417012903
:101C0800109932D09DF8511701290F992DD09DF8C0
:101C18005E1701290C9928D09DF86B1701290B999B
:101C280023D09DF8781701290A991ED09DF88517A9
:101C38000129099919D09DF892170129089914D0FA
:101C48009DF89F17012907990FD09DF8AC17012916
:101C580006990AD09DF8B9170129059905D09DF86C
:101C6800C6170129049941F018844978D20724D16C
:101C7800002945D08B4518BF894541D0884518BFF4
:101C88008A453DD08C4218BF8D4239D0BBF1000F38
:101C98002CD0B9F1000F01F0DD82B8F1000F01F08E
:101CA800DC82BAF1000F01F0DB82002C01F0DB824C
:101CB80035BB0DF2D27201F0D8BA8B4502D10DF2C4
:101CC800D7711BE0894502D10DF2D67116E088451F
:101CD80002D10DF2D57111E08A4502D10DF2D4710D
:101CE8000CE08C4206D10DF2D37107E00DF2D772E9
:101CF80001F0BBBA8D4203D10DF2D27100220A70F5
:101D080032680221022807F80C1C04D10DF2047174
:101D1800DDE911894AE0DDF848909DF81D17DDF8E6
:101D280044800229494641D09DF82A170229414694
:101D38003CD09DF837170229139937D09DF84417DE
:101D48000229109932D09DF8511702290F992DD0E8
:101D58009DF85E1702290C9928D09DF86B17022967
:101D68000B9923D09DF8781702290A991ED09DF85F
:101D780085170229099919D09DF8921702290899FF
:101D880014D09DF89F17022907990FD09DF8AC171A
:101D9800022906990AD09DF8B9170229059905D094
:101DA8009DF8C6170229049941F0778349784FF0C6
:101DB800000A920730D4002963D09DF8D7278A42B9
:101DC8001CBF9DF8D6378B425BD09DF8D5578D4206
:101DD8001CBF9DF8D4478C4253D09DF8D3C78C457F
:101DE8001CBF9DF8D2E78E454BD0002A01F04082F7
:101DF800002B01F06782002D01F08E82002C01F08B
:101E0800B582BCF1000F01F0DB82BEF1000F38D1C2
:101E18000DF2D27201F0D6BA9DF8D7278A4204D1C2
:101E28000DF2D77181F800A02BE09DF8D6278A42E1
:101E380004D10DF2D67181F800A022E09DF8D527D3
:101E48008A4204D10DF2D57181F800A019E09DF8FD
:101E5800D4278A4204D10DF2D47181F800A010E091
:101E68009DF8D3278A4204D10DF2D37181F800A0DE
:101E780007E09DF8D2278A4204BF0DF2D27181F89B
:101E880000A032680321032807F80C1C02D10DF2C8
:101E9800047146E09DF81D170329494641D09DF875
:101EA8002A17032941463CD09DF83717032913996F
:101EB80037D09DF844170329109932D09DF851174F
:101EC80003290F992DD09DF85E1703290C9928D066
:101ED8009DF86B1703290B9923D09DF878170329D0
:101EE8000A991ED09DF885170329099919D09DF8DC
:101EF80092170329089914D09DF89F170329079969
:101F08000FD09DF8AC17032906990AD09DF8B91788
:101F18000329059905D09DF8C6170329049941F0AE
:101F2800BC824978520730D4002963D09DF8D7275E
:101F38008A421CBF9DF8D6378B425BD09DF8D55797
:101F48008D421CBF9DF8D4478C4253D09DF8D3C70F
:101F58008C451CBF9DF8D2E78E454BD0002A01F076
:101F68008A81002B01F0B181002D01F0D881002C6D
:101F780001F0FF81BCF1000F01F02782BEF1000FD4
:101F880038D10DF2D27201F022BA9DF8D7278A42D1
:101F980004D10DF2D77181F800A02BE09DF8D62767
:101FA8008A4204D10DF2D67181F800A022E09DF892
:101FB800D5278A4204D10DF2D57181F800A019E025
:101FC8009DF8D4278A4204D10DF2D47181F800A07B
:101FD80010E09DF8D3278A4204D10DF2D37181F81D
:101FE80000A007E09DF8D2278A4204BF0DF2D27103
:101FF80081F800A032680421042807F80C1C02D1DB
:102008000DF2047146E09DF81D170429494641D098
:102018009DF82A17042941463CD09DF83717042912
:10202800139937D09DF844170429109932D09DF898
:10203800511704290F992DD09DF85E1704290C9982
:1020480028D09DF86B1704290B9923D09DF8781791
:1020580004290A991ED09DF885170429099919D0D1
:102068009DF892170429089914D09DF89F17042900
:1020780007990FD09DF8AC17042906990AD09DF846
:10208800B9170429059905D09DF8C617042904999C
:1020980041F003824978120730D4002963D09DF8B3
:1020A800D7278A421CBF9DF8D6378B425BD09DF854
:1020B800D5578D421CBF9DF8D4478C4253D09DF80C
:1020C800D3C78C451CBF9DF8D2E78E454BD0002A5C
:1020D80001F0D480002B01F0FB80002D01F022815B
:1020E800002C01F04981BCF1000F01F07381BEF1B1
:1020F800000F38D10DF2D27201F06EB99DF8D727D2
:102108008A4204D10DF2D77181F800A02BE09DF826
:10211800D6278A4204D10DF2D67181F800A022E0B8
:102128009DF8D5278A4204D10DF2D57181F800A017
:1021380019E09DF8D4278A4204D10DF2D47181F8B0
:1021480000A010E09DF8D3278A4204D10DF2D37184
:1021580081F800A007E09DF8D2278A4204BF0DF25B
:10216800D27181F800A031680522052807F80C2CE7
:1021780002D10DF2047046E09DF81D070528484677
:1021880041D09DF82A07052840463CD09DF83707DE
:102198000528139837D09DF844070528109832D0A1
:1021A8009DF8510705280F982DD09DF85E07052842
:1021B8000C9828D09DF86B0705280B9823D09DF81C
:1021C800780705280A981ED09DF8850705280998DC
:1021D80019D09DF892070528089814D09DF89F07F4
:1021E800052807980FD09DF8AC07052806980AD04F
:1021F8009DF8B9070528059805D09DF8C607052854
:10220800049841F04A814078C9062FD4002862D04A
:102218009DF8D71781421CBF9DF8D62782425AD015
:102228009DF8D53783421CBF9DF8D457854252D0BC
:102238009DF8D34784421CBF9DF8D2C784454AD035
:10224800002901F01E80002A01F04580002B01F0D2
:102258006C80002D01F09380002C01F0C080BCF14F
:10226800000F38D10DF2D27101F0BBB89DF8D71725
:10227800814204D10DF2D77080F800A02BE09DF8C0
:10228800D617814204D10DF2D67080F800A022E062
:102298009DF8D517814204D10DF2D57080F800A0C1
:1022A80019E09DF8D417814204D10DF2D47080F85A
:1022B80000A010E09DF8D317814204D10DF2D3702D
:1022C80080F800A007E09DF8D217814204BF0DF204
:1022D800D27080F800A020200621B0604FF4800062
:1022E800B06032689DF8100707F80C1C062802D168
:1022F8000DF2047146E09DF81D170629494641D0A4
:102308009DF82A17062941463CD09DF8371706291B
:10231800139937D09DF844170629109932D09DF8A3
:10232800511706290F992DD09DF85E1706290C998B
:1023380028D09DF86B1706290B9923D09DF878179C
:1023480006290A991ED09DF885170629099919D0DA
:102358009DF892170629089914D09DF89F17062909
:1023680007990FD09DF8AC17062906990AD09DF851
:10237800B9170629059905D09DF8C61706290499A5
:1023880041F08B804978D20730D1002963D09DF87D
:10239800D7278A421CBF9DF8D6378B425BD09DF861
:1023A800D5578D421CBF9DF8D4478C4253D09DF819
:1023B800D3C78C451CBF9DF8D2E78E454BD0002A69
:1023C80000F06287002B00F08987002D00F0B087AD
:1023D800002C00F0D787BCF1000F01F00580BEF19A
:1023E800000F38D10DF2D27201F000B89DF8D7274E
:1023F8008A4204D10DF2D77181F800A02BE09DF834
:10240800D6278A4204D10DF2D67181F800A022E0C5
:102418009DF8D5278A4204D10DF2D57181F800A024
:1024280019E09DF8D4278A4204D10DF2D47181F8BD
:1024380000A010E09DF8D3278A4204D10DF2D37191
:1024480081F800A007E09DF8D2278A4204BF0DF268
:10245800D27181F800A032680721072807F80C1C00
:1024680002D10DF2047146E09DF81D17072949466F
:1024780041D09DF82A17072941463CD09DF83717C7
:102488000729139937D09DF844170729109932D096
:102498009DF8511707290F992DD09DF85E17072928
:1024A8000C9928D09DF86B1707290B9923D09DF814
:1024B800781707290A991ED09DF8851707290999C1
:1024C80019D09DF892170729089914D09DF89F17DD
:1024D800072907990FD09DF8AC17072906990AD044
:1024E8009DF8B9170729059905D09DF8C61707293A
:1024F800049940F0D2874978920730D4002963D0F4
:102508009DF8D7278A421CBF9DF8D6378B425BD0EF
:102518009DF8D5578D421CBF9DF8D4478C4253D0A7
:102528009DF8D3C78C451CBF9DF8D2E78E454BD08C
:10253800002A00F0AC86002B00F0D386002D00F0B6
:10254800FA86002C00F02187BCF1000F00F05187BB
:10255800BEF1000F38D10DF2D27200F04CBF9DF8D9
:10256800D7278A4204D10DF2D77181F800A02BE059
:102578009DF8D6278A4204D10DF2D67181F800A0C1
:1025880022E09DF8D5278A4204D10DF2D57181F851
:1025980000A019E09DF8D4278A4204D10DF2D47125
:1025A80081F800A010E09DF8D3278A4204D10DF2EB
:1025B800D37181F800A007E09DF8D2278A4204BFB2
:1025C8000DF2D27181F800A032680821082807F8B6
:1025D8000C1C02D10DF2047146E09DF81D17082964
:1025E800494641D09DF82A17082941463CD09DF814
:1025F80037170829139937D09DF8441708291099D7
:1026080032D09DF8511708290F992DD09DF85E17E3
:1026180008290C9928D09DF86B1708290B9923D005
:102628009DF8781708290A991ED09DF8851708295A
:10263800099919D09DF892170829089914D09DF87E
:102648009F17082907990FD09DF8AC1708290699F4
:102658000AD09DF8B9170829059905D09DF8C6171D
:102668000829049940F019874978520730D400297D
:1026780063D09DF8D7278A421CBF9DF8D6378B4276
:102688005BD09DF8D5578D421CBF9DF8D4478C422E
:1026980053D09DF8D3C78C451CBF9DF8D2E78E4513
:1026A8004BD0002A00F0F685002B00F01D86002D87
:1026B80000F04486002C00F06B86BCF1000F00F09F
:1026C8009D86BEF1000F38D10DF2D27200F098BE8F
:1026D8009DF8D7278A4204D10DF2D77181F800A05E
:1026E8002BE09DF8D6278A4204D10DF2D67181F8E5
:1026F80000A022E09DF8D5278A4204D10DF2D571B9
:1027080081F800A019E09DF8D4278A4204D10DF27F
:10271800D47181F800A010E09DF8D3278A4204D133
:102728000DF2D37181F800A007E09DF8D2278A4204
:1027380004BF0DF2D27181F800A03268092109287E
:1027480007F80C1C02D10DF2047146E09DF81D1724
:102758000929494641D09DF82A17092941463CD004
:102768009DF837170929139937D09DF84417092977
:10277800109932D09DF8511709290F992DD09DF83D
:102788005E1709290C9928D09DF86B1709290B9910
:1027980023D09DF8781709290A991ED09DF8851726
:1027A8000929099919D09DF892170929089914D06F
:1027B8009DF89F17092907990FD09DF8AC1709298B
:1027C80006990AD09DF8B9170929059905D09DF8E9
:1027D800C6170929049940F060864978120730D451
:1027E800002963D09DF8D7278A421CBF9DF8D637A9
:1027F8008B425BD09DF8D5578D421CBF9DF8D447BE
:102808008C4253D09DF8D3C78C451CBF9DF8D2E7A6
:102818008E454BD0002A00F04085002B00F06785DC
:10282800002D00F08E85002C00F0B585BCF1000F5E
:1028380000F0E985BEF1000F38D10DF2D27200F038
:10284800E4BD9DF8D7278A4204D10DF2D77181F8EB
:1028580000A02BE09DF8D6278A4204D10DF2D6714C
:1028680081F800A022E09DF8D5278A4204D10DF214
:10287800D57181F800A019E09DF8D4278A4204D1C7
:102888000DF2D47181F800A010E09DF8D3278A4298
:1028980004D10DF2D37181F800A007E09DF8D2278A
:1028A8008A4204BF0DF2D27181F800A031680A2271
:1028B8000A2807F80C2C02D10DF2047046E09DF8A6
:1028C8001D070A28484641D09DF82A070A2840468D
:1028D8003CD09DF837070A28139837D09DF844074D
:1028E8000A28109832D09DF851070A280F982DD041
:1028F8009DF85E070A280C9828D09DF86B070A28CF
:102908000B9823D09DF878070A280A981ED09DF8BE
:1029180085070A28099819D09DF892070A28089867
:1029280014D09DF89F070A2807980FD09DF8AC0788
:102938000A2806980AD09DF8B9070A28059805D0EC
:102948009DF8C6070A28049840F0A7854078C9066C
:102958002FD4002862D09DF8D71781421CBF9DF85C
:10296800D62782425AD09DF8D53783421CBF9DF89E
:10297800D457854252D09DF8D34784421CBF9DF856
:10298800D2C784454AD0002900F08A84002A00F082
:10299800B184002B00F0D884002D00F0FF84002CB7
:1029A80000F03685BCF1000F38D10DF2D27100F07D
:1029B80031BD9DF8D717814204D10DF2D77080F848
:1029C80000A02BE09DF8D617814204D10DF2D670F5
:1029D80080F800A022E09DF8D517814204D10DF2BD
:1029E800D57080F800A019E09DF8D417814204D171
:1029F8000DF2D47080F800A010E09DF8D317814242
:102A080004D10DF2D37080F800A007E09DF8D2172A
:102A1800814204BF0DF2D27080F800A040200B2143
:102A2800B0604FF40000B06032689DF8100707F8F6
:102A38000C1C0B2802D10DF2047146E09DF81D17FD
:102A48000B29494641D09DF82A170B2941463CD00D
:102A58009DF837170B29139937D09DF844170B2980
:102A6800109932D09DF851170B290F992DD09DF848
:102A78005E170B290C9928D09DF86B170B290B9919
:102A880023D09DF878170B290A991ED09DF8851731
:102A98000B29099919D09DF892170B29089914D078
:102AA8009DF89F170B2907990FD09DF8AC170B2994
:102AB80006990AD09DF8B9170B29059905D09DF8F4
:102AC800C6170B29049940F0E8844978D20730D119
:102AD800002963D09DF8D7278A421CBF9DF8D637B6
:102AE8008B425BD09DF8D5578D421CBF9DF8D447CB
:102AF8008C4253D09DF8D3C78C451CBF9DF8D2E7B4
:102B08008E454BD0002A00F0CE83002B00F0F583D1
:102B1800002D00F01C84002C00F04384BCF1000F51
:102B280000F07B84BEF1000F38D10DF2D27200F0B4
:102B380076BC9DF8D7278A4204D10DF2D77181F867
:102B480000A02BE09DF8D6278A4204D10DF2D67159
:102B580081F800A022E09DF8D5278A4204D10DF221
:102B6800D57181F800A019E09DF8D4278A4204D1D4
:102B78000DF2D47181F800A010E09DF8D3278A42A5
:102B880004D10DF2D37181F800A007E09DF8D22797
:102B98008A4204BF0DF2D27181F800A032680C217C
:102BA8000C2807F80C1C02D10DF2047146E09DF8C0
:102BB8001D170C29494641D09DF82A170C29414672
:102BC8003CD09DF837170C29139937D09DF8441736
:102BD8000C29109932D09DF851170C290F992DD036
:102BE8009DF85E170C290C9928D09DF86B170C29B5
:102BF8000B9923D09DF878170C290A991ED09DF8B7
:102C080085170C29099919D09DF892170C2908994C
:102C180014D09DF89F170C2907990FD09DF8AC1771
:102C28000C2906990AD09DF8B9170C29059905D0E1
:102C38009DF8C6170C29049940F02F84497892070B
:102C48002FD4002962D09DF8D7278A421CBF9DF84F
:102C5800D6378B425AD09DF8D5578D421CBF9DF868
:102C6800D4478C4252D09DF8D3C78C451CBF9DF8E1
:102C7800D2E78E454AD0002A00F01883002B00F0D6
:102C88003F83002D00F06683002C00F08D83BCF19B
:102C9800000F00F0C783BEF1000F37D10DF2D272DA
:102CA800C2E39DF8D7278A4204D10DF2D77181F883
:102CB80000A02BE09DF8D6278A4204D10DF2D671E8
:102CC80081F800A022E09DF8D5278A4204D10DF2B0
:102CD800D57181F800A019E09DF8D4278A4204D163
:102CE8000DF2D47181F800A010E09DF8D3278A4234
:102CF80004D10DF2D37181F800A007E09DF8D22726
:102D08008A4204BF0DF2D27181F800A032680D2109
:102D18000D2807F80C1C02D10DF2047146E09DF84D
:102D28001D170D29494641D09DF82A170D294146FE
:102D38003CD09DF837170D29139937D09DF84417C3
:102D48000D29109932D09DF851170D290F992DD0C2
:102D58009DF85E170D290C9928D09DF86B170D2941
:102D68000B9923D09DF878170D290A991ED09DF844
:102D780085170D29099919D09DF892170D290899D9
:102D880014D09DF89F170D2907990FD09DF8AC17FF
:102D98000D2906990AD09DF8B9170D29059905D06E
:102DA8009DF8C6170D29049940F077834978520792
:102DB8002FD4002962D09DF8D7278A421CBF9DF8DE
:102DC800D6378B425AD09DF8D5578D421CBF9DF8F7
:102DD800D4478C4252D09DF8D3C78C451CBF9DF870
:102DE800D2E78E454AD0002A00F06382002B00F01B
:102DF8008A82002D00F0B182002C00F0D882BCF14C
:102E0800000F00F01483BEF1000F37D10DF2D2721B
:102E18000FE39DF8D7278A4204D10DF2D77181F8C4
:102E280000A02BE09DF8D6278A4204D10DF2D67176
:102E380081F800A022E09DF8D5278A4204D10DF23E
:102E4800D57181F800A019E09DF8D4278A4204D1F1
:102E58000DF2D47181F800A010E09DF8D3278A42C2
:102E680004D10DF2D37181F800A007E09DF8D227B4
:102E78008A4204BF0DF2D27181F800A032680E2197
:102E88000E2807F80C1C02D10DF2047146E09DF8DB
:102E98001D170E29494641D09DF82A170E2941468B
:102EA8003CD09DF837170E29139937D09DF8441751
:102EB8000E29109932D09DF851170E290F992DD04F
:102EC8009DF85E170E290C9928D09DF86B170E29CE
:102ED8000B9923D09DF878170E290A991ED09DF8D2
:102EE80085170E29099919D09DF892170E29089966
:102EF80014D09DF89F170E2907990FD09DF8AC178D
:102F08000E2906990AD09DF8B9170E29059905D0FA
:102F18009DF8C6170E29049940F0BF824978120718
:102F28002FD4002962D09DF8D7278A421CBF9DF86C
:102F3800D6378B425AD09DF8D5578D421CBF9DF885
:102F4800D4478C4252D09DF8D3C78C451CBF9DF8FE
:102F5800D2E78E454AD0002A00F0AE81002B00F05F
:102F6800D581002D00F0FC81002C00F02382BCF1FB
:102F7800000F00F06082BEF1000F37D10DF2D2725F
:102F88005BE29DF8D7278A4204D10DF2D77181F808
:102F980000A02BE09DF8D6278A4204D10DF2D67105
:102FA80081F800A022E09DF8D5278A4204D10DF2CD
:102FB800D57181F800A019E09DF8D4278A4204D180
:102FC8000DF2D47181F800A010E09DF8D3278A4251
:102FD80004D10DF2D37181F800A007E09DF8D22743
:102FE8008A4204BF0DF2D27181F800A031680F2225
:102FF8000F2807F80C2C02D10DF2047046E09DF85A
:103008001D070F28484641D09DF82A070F2840463B
:103018003CD09DF837070F28139837D09DF8440700
:103028000F28109832D09DF851070F280F982DD0EF
:103038009DF85E070F280C9828D09DF86B070F287D
:103048000B9823D09DF878070F280A981ED09DF872
:1030580085070F28099819D09DF892070F28089816
:1030680014D09DF89F070F2807980FD09DF8AC073C
:103078000F2806980AD09DF8B9070F28059805D09B
:103088009DF8C6070F28049840F007824078C906C3
:103098002ED4002861D09DF8D71781421CBF9DF817
:1030A800D627824259D09DF8D53783421CBF9DF858
:1030B800D457854251D09DF8D34784421CBF9DF810
:1030C800D2C7844549D0002900F0F980002A00F0D1
:1030D8002081002B00F04781002D00F06E81002C2C
:1030E80000F0AD81BCF1000F37D10DF2D271A8E12B
:1030F8009DF8D717814204D10DF2D77080F800A04F
:103108002BE09DF8D617814204D10DF2D67080F8D5
:1031180000A022E09DF8D517814204D10DF2D570A8
:1031280080F800A019E09DF8D417814204D10DF26F
:10313800D47080F800A010E09DF8D317814204D124
:103148000DF2D37080F800A007E09DF8D2178142F5
:1031580004BF0DF2D27080F800A0802051469DF87F
:10316800D4A79DF8D5879DF8D6979DF8D7B79DF831
:10317800D3479DF8D257B0609DF861028DF8D057BB
:1031880001388DF8CF4701288DF8CEA78DF8CD8767
:103198008DF8CC978DF8CBB78DF8CA17ADF8C8174E
:1031A80003D89DF80C1302294BD19DF8000307287A
:1031B8003EF4E6AC0E983E2106F01AF800200D9A6F
:1031C80027F85C0C402047F8180CA7F15C0047F87A
:1031D8001C0C022047F8140CA7F11C0047F8100C2F
:1031E800A7F10C00A7F1100102F04BFB57F80C0CEB
:1031F80007287EF4C5AC57F8142C412A80F02381A7
:10320800BE980068BFF35F8F002800F025819DF904
:10321800FE12B1F1FF3F3EF7B3ACC9B201F07F0136
:1032280003293EF6ADAC01EB410100EB81000179C9
:1032380007293EF4A5ACA7F15C0103F0E9FFFEF70E
:103248009FBC9DF86002C9077EF497AC00283EF445
:1032580097ACAAE70DF2D67207E00DF2D57204E03A
:103268000DF2D47201E00DF2D3721170FEF748BD71
:103278000DF2D772A6E00DF2D772A8E00DF2D77260
:10328800AAE00DF2D771ACE00DF2D772AEE00DF204
:10329800D772B0E00DF2D772B2E00DF2D772B4E097
:1032A8000DF2D771B6E00DF2D772B8E00DF2D77211
:1032B800BAE00DF2D772BCE00DF2D772BDE00DF2A4
:1032C800D771BEE00DF2D6727CE00DF2D6727EE0C8
:1032D8000DF2D67280E00DF2D67182E00DF2D67250
:1032E80084E00DF2D67286E00DF2D67288E00DF217
:1032F800D6728AE00DF2D6718CE00DF2D6728EE0AD
:103308000DF2D67290E00DF2D67292E00DF2D672FE
:1033180093E00DF2D67194E00DF2D57252E00DF201
:10332800D57254E00DF2D57256E00DF2D57158E021
:103338000DF2D5725AE00DF2D5725CE00DF2D5723D
:103348005EE00DF2D57260E00DF2D57162E00DF22B
:10335800D57264E00DF2D57266E00DF2D57268E0C0
:103368000DF2D57269E00DF2D5716AE00DF2D472F2
:1033780028E00DF2D4722AE00DF2D4722CE00DF29E
:10338800D4712EE00DF2D47230E00DF2D47232E036
:103398000DF2D47234E00DF2D47236E00DF2D4712D
:1033A80038E00DF2D4723AE00DF2D4723CE00DF23E
:1033B800D4723EE00DF2D4723FE00DF2D47140E0D9
:1033C8000DF2D3721170FEF75CBD0DF2D37211705D
:1033D800FEF710BE0DF2D3721170FEF7C4BE0DF2E7
:1033E800D3710870FEF777BF0DF2D3721170FFF733
:1033F80032B80DF2D3721170FFF7E6B80DF2D3723E
:103408001170FFF79AB90DF2D3721170FFF74EBA27
:103418000DF2D3710870FFF701BB0DF2D372117072
:10342800FFF7BCBB0DF2D3721170FFF76FBC0DF242
:10343800D372117022E50DF2D3721170D6E50DF238
:10344800D371087089E649F68C731146C0F60003FB
:103458000020402205F0D2FB49F6D41049F6F812B4
:10346800C0F60000C0F60002222105F077FC48F201
:103478007F0049F60822C0F60000A7F15C0147F872
:10348800580CA7F10C0047F85C0C49F29D50C0F6A7
:103498000000C0F6000205F067FC48F27F0049F61C
:1034A8001822C0F60000A7F15C0147F8580CA7F1F4
:1034B8000C0047F85C0C49F29D50C0F60000C0F6BD
:1034C800000205F051FC80B56F46FDF794FCF0B59D
:1034D80003AF4DF804BD0C46054604F0DEFC064675
:1034E80004F0CEFCD5F89401D0F8001864F30A1162
:1034F800C0F80018F00705D15DF804BBBDE8F0403E
:1035080004F0C0BC5DF804BBF0BDD4D4F0B503AF83
:103518002DE9000F83B00E46814604F0BEFC054637
:1035280004F0AEFCD6F89411D1F83CB04C69E00434
:103538000FD4A0046ED4B4F1FF3F40F3FE822005FF
:1035480000F11583E00600F1208300224FF0000A05
:10355800DDE34FF480504861D6F89401D0F81C1888
:103568000021C0F81C183079072875D1307C07284D
:1035780040F09080307F072840F0AA8096F8280015
:10358800072840F0C58096F83400072840F0E0800E
:1035980096F84000072840F0FB8096F84C00072872
:1035A80040F0168196F85800072840F0318196F8C7
:1035B8006400072840F04C8196F87000072840F016
:1035C800678196F88C00072840F0858196F8A80056
:1035D800072840F0A48196F8C400072840F0C3816A
:1035E80096F8E000072840F0E28196F8FC000728EA
:1035F80040F0018296F81801072840F0208296F8DA
:103608003401072840F03F8296F85001072840F01F
:103618005D827AE24FF400504861D6F89401D0F800
:103628000818C1F34101DFE811F08D0204007D059F
:103638000400D6F890214AF6C041C0F2D8018A4267
:10364800C0F07B854EF2C011C0F2E4018A4280F0DE
:1036580085824FF4705104E3307A316810F07F00AE
:1036680001EB4010D0F8001921F40041C0F800190E
:10367800D0F8001900F5106006D0B1F1FF3FDEBFA9
:10368800016841F080410160FF218160307C07289A
:103698003FF470AF307DF16810F07F0001EB40100F
:1036A800D0F8001921F40041C0F80019D0F8001929
:1036B80000F5106006D0B1F1FF3FDEBF016841F0B0
:1036C80080410160FF218160307F07283FF456AFB9
:1036D80096F82000B16910F07F0001EB4010D0F897
:1036E800001921F40041C0F80019D0F8001900F5BC
:1036F800106006D0B1F1FF3FDEBF016841F08041A4
:103708000160FF21816096F8280007283FF43BAF4D
:1037180096F82C00716A10F07F0001EB4010D0F889
:10372800001921F40041C0F80019D0F8001900F57B
:10373800106006D0B1F1FF3FDEBF016841F0804163
:103748000160FF21816096F8340007283FF420AF1C
:1037580096F83800316B10F07F0001EB4010D0F87C
:10376800001921F40041C0F80019D0F8001900F53B
:10377800106006D0B1F1FF3FDEBF016841F0804123
:103788000160FF21816096F8400007283FF405AFEB
:1037980096F84400F16B10F07F0001EB4010D0F870
:1037A800001921F40041C0F80019D0F8001900F5FB
:1037B800106006D0B1F1FF3FDEBF016841F08041E3
:1037C8000160FF21816096F84C0007283FF4EAAEBB
:1037D80096F85000B16C10F07F0001EB4010D0F863
:1037E800001921F40041C0F80019D0F8001900F5BB
:1037F800106006D0B1F1FF3FDEBF016841F08041A3
:103808000160FF21816096F8580007283FF4CFAE89
:1038180096F85C00716D10F07F0001EB4010D0F855
:10382800001921F40041C0F80019D0F8001900F57A
:10383800106006D0B1F1FF3FDEBF016841F0804162
:103848000160FF21816096F8640007283FF4B4AE58
:1038580096F86800316E10F07F0001EB4010D0F848
:10386800001921F40041C0F80019D0F8001900F53A
:10387800106006D0B1F1FF3FDEBF016841F0804122
:103888000160FF21816096F8700007283FF499AE27
:1038980096F87400F16E00F07F0001EB4010D0F84C
:1038A800001B21F40041C0F8001BD0F8001B00F5F4
:1038B8003060B1F1FF3F07DC96F8741049061EBF6F
:1038C800016841F080410160FF21816096F88C0019
:1038D80007283FF47BAE96F89000D6F8881000F0E1
:1038E8007F0001EB4010D0F8001B21F40041C0F824
:1038F800001BD0F8001B00F53060B1F1FF3F07DC7A
:1039080096F8901049061EBF016841F08041016099
:10391800FF21816096F8A80007283FF45CAE96F86E
:10392800AC00D6F8A41000F07F0001EB4010D0F8EE
:10393800001B21F40041C0F8001BD0F8001B00F563
:103948003060B1F1FF3F07DC96F8AC1049061EBFA6
:10395800016841F080410160FF21816096F8C40050
:1039680007283FF43DAE96F8C800D6F8C01000F01E
:103978007F0001EB4010D0F8001B21F40041C0F893
:10398800001BD0F8001B00F53060B1F1FF3F07DCE9
:1039980096F8C81049061EBF016841F080410160D1
:1039A800FF21816096F8E00007283FF41EAE96F8E4
:1039B800E400D6F8DC1000F07F0001EB4010D0F8EE
:1039C800001B21F40041C0F8001BD0F8001B00F5D3
:1039D8003060B1F1FF3F07DC96F8E41049061EBFDE
:1039E800016841F080410160FF21816096F8FC0088
:1039F80007283FF4FFAD96F80001D6F8F81000F05C
:103A08007F0001EB4010D0F8001B21F40041C0F802
:103A1800001BD0F8001B00F53060B1F1FF3F07DC58
:103A280096F8001149061EBF016841F08041016007
:103A3800FF21816096F8180107283FF4E0AD96F859
:103A48001C01D6F8141100F07F0001EB4010D0F8EB
:103A5800001B21F40041C0F8001BD0F8001B00F542
:103A68003060B1F1FF3F07DC96F81C1149061EBF14
:103A7800016841F080410160FF21816096F83401BE
:103A880007283FF4C1AD96F83801D6F8301100F098
:103A98007F0001EB4010D0F8001B21F40041C0F872
:103AA800001BD0F8001B00F53060B1F1FF3F07DCC8
:103AB80096F8381149061EBF016841F0804101603F
:103AC800FF21816096F8500107281ED096F854010E
:103AD800D6F84C1100F07F0001EB4010D0F8001B25
:103AE80021F40041C0F8001BD0F8001B00F530603D
:103AF800B1F1FF3F07DC96F8541149061EBF016873
:103B080041F080410160FF218160D6F8940101698C
:103B180041F010010161D6F894110869C0067FF5DB
:103B280008AD0869C00644BF08695FEAC0607FF550
:103B380000AD0869C006F0D4FBE44FF000404861CE
:103B4800042094E0D6F890114CF27F32C0F2C912EA
:103B5800914240F2FD824FF4105182E042F200415E
:103B6800C0F2F4018A4207D24FF4605179E04FF471
:103B78000060486103207AE047F28031C0F2061104
:103B88008A4217D24FF450516BE0D1F81CC00CF0A8
:103B98000F08CCF3434EAEF10300022813D3BEF155
:103BA800060F33D0BEF1020F1DD10120002300FA09
:103BB80008F26BE044F6A011C0F21A118A421CD236
:103BC8004FF440514DE0BBF5885F18BFBBF5905FDF
:103BD80009D101EB4810D0F8001B41F00441C0F8AE
:103BE800001BD6F89411086A00224EF004004FF02A
:103BF800000A0023062849D089E042F60051C0F2A5
:103C080031118A4224D24FF430512AE001EB481096
:103C18002A460025D0F81009C1F6F875284230D098
:103C28000869154620F4FC6040EA881020300861D5
:103C3800D6F894110869800624D50869800644BF1F
:103C480008695FEA80601DD508698006F2D419E02A
:103C58004AF24041C0F24C118A4280F048824FF447
:103C68002051C26822F470521143C1600120A9F8A2
:103C78000000E80708BF04F005F903B0BDE8000F2D
:103C8800F0BD15460120002200FA08F3B8F1080F2C
:103C9800029500F26E82C8EBC800924606EB8000DF
:103CA80090F87050072D30D000F16C05E8680028B6
:103CB80040F05982A87E4FF0FF32EA6010BB0193B2
:103CC800AEF10603B3FA83F3086A05F11000CCF3EA
:103CD8000A125B0903F036FABBF50C5FC0F2FE81ED
:103CE800019B05D0BBF5405F18BFBBF5445F09D108
:103CF800D6F8940100EB4810D0F8001B41F00441BD
:103D0800C0F8001BE8680130E8601A46029D6003AD
:103D180003D44FF000081446FAE03079072803D19D
:103D28004FF00008144617E0307A1446D6F894117C
:103D380000F07F0001EB4010D0F80819C90702D144
:103D48004FF0000808E000F5106001218160307A2A
:103D580000F00F0001FA00F8307C072815D0307DFC
:103D6800D6F8941100F07F0001EB4010D0F8081944
:103D7800C9070AD000F5106001218160307D00F08C
:103D88000F0001FA00F048EA0008307F072817D032
:103D980096F82000D6F8941100F07F0001EB40104F
:103DA800D0F80819C9070BD000F51060012181600F
:103DB80096F8200000F00F0001FA00F048EA000829
:103DC80096F82800072817D096F82C00D6F89411F2
:103DD80000F07F0001EB4010D0F80819C9070BD09C
:103DE80000F510600121816096F82C0000F00F00AA
:103DF80001FA00F048EA000896F83400072817D0BE
:103E080096F83800D6F8941100F07F0001EB4010C6
:103E1800D0F80819C9070BD000F51060012181609E
:103E280096F8380000F00F0001FA00F048EA0008A0
:103E380096F84000072817D096F84400D6F8941151
:103E480000F07F0001EB4010D0F80819C9070BD02B
:103E580000F510600121816096F8440000F00F0021
:103E680001FA00F048EA000896F84C00072817D035
:103E780096F85000D6F8941100F07F0001EB40103E
:103E8800D0F80819C9070BD000F51060012181602E
:103E980096F8500000F00F0001FA00F048EA000818
:103EA80096F85800072817D096F85C00D6F89411B1
:103EB80000F07F0001EB4010D0F80819C9070BD0BB
:103EC80000F510600121816096F85C0000F00F0099
:103ED80001FA00F048EA000896F86400072817D0AD
:103EE80096F86800D6F8941100F07F0001EB4010B6
:103EF800D0F80819C9070BD000F5106001218160BE
:103F080096F8680000F00F0001FA00F048EA00088F
:103F180096F8700007281AD006F16C0003F058FADA
:103F2800C0B202280BD0012811D196F874000121E3
:103F380000F00F0001FA00F04AEA000A07E096F8DC
:103F48007400012100F00F0001FA00F0044396F814
:103F58008C00072812D006F1880003F039FAC0B2A5
:103F680060B1012896F890004FF0010100F00F00B1
:103F780001FA00F00CBF4AEA000A044396F8A800C8
:103F8800072812D006F1A40003F022FAC0B260B1EB
:103F9800012896F8AC004FF0010100F00F0001FA7B
:103FA80000F00CBF4AEA000A044396F8C400072848
:103FB80012D006F1C00003F00BFAC0B260B10128BC
:103FC80096F8C8004FF0010100F00F0001FA00F068
:103FD8000CBF4AEA000A044396F8E000072812D00A
:103FE80006F1DC0003F0F4F9C0B260B1012896F8DC
:103FF800E4004FF0010100F00F0001FA00F00CBFDF
:104008004AEA000A044396F8FC00072812D006F191
:10401800F80003F0DDF9C0B260B1012896F800019C
:104028004FF0010100F00F0001FA00F00CBF4AEA5E
:10403800000A044396F81801072812D006F58A707A
:1040480003F0C6F9C0B260B1012896F81C014FF020
:10405800010100F00F0001FA00F00CBF4AEA000A63
:10406800044396F83401072812D006F5987003F037
:10407800AFF9C0B260B1012896F838014FF00101DC
:1040880000F00F0001FA00F00CBF4AEA000A0443EE
:1040980096F85001072812D006F5A67003F098F993
:1040A800C0B260B1012896F854014FF0010100F048
:1040B8000F0001FA00F00CBF4AEA000A044344EA80
:1040C800080050EA0A0007D0A9F806400220A9F81B
:1040D8000480A9F802A0CAE50020C8E5019BBBF549
:1040E800005F18BFBBF5045F3FF402AE0AE643F277
:1040F8000061C0F26E118A42FFF42DAD49F6E0511D
:10410800C0F2A3118A4202D24FF40051A9E544F645
:1041180000034FF4C051C0F2E8139A4238BF4FF47D
:10412800E0519EE549F6904049F6A042C0F60000ED
:10413800C0F600020F2104F011FE49F6584049F676
:104148008042C0F60000C0F60002182104F006FE06
:1041580049F6584049F67042C0F60000C0F6000221
:10416800182104F0FBFD49F64840C0F6000004F0B1
:1041780019FD49F638424046C0F60002092104F00C
:10418800D9FDB0B502AF82B0044603F086FE0546FD
:1041980003F076FEB4F87001D4F894111E3082B2A0
:1041A8004A62B4F87811D4F89421C0EA014308446B
:1041B8009362B4F87A21D4F89431C0EA02411044E9
:1041C800C3F80411B4F87C11D4F89431C0EA014260
:1041D8000844C3F80821B4F87E21D4F89431C0EA21
:1041E80002411044C3F80C1180B2B0F5A07F00F270
:1041F8001D82D4F894014322016962F30A11016116
:10420800D4F89401016911F0300F0BD0016911F055
:10421800300F1CBF016911F0300F03D0016911F094
:10422800300FEFD12179072951D1207C072861D19E
:10423800207F072874D194F82800072840F0898047
:1042480094F83400072840F09D8094F8400007282F
:1042580040F0B18094F84C00072840F0C58094F8ED
:104268005800072840F0D98094F86400072840F0E7
:10427800ED8094F87000072840F0018194F88C00D4
:10428800072840F0138194F8A800072840F02581FA
:1042980094F8C400072840F0378194F8E000072814
:1042A80040F0498194F8FC00072840F05B8194F8BD
:1042B8001801072840F06D8194F83401072840F070
:1042C8007F8194F85001072840F09081A0E1D0F850
:1042D8001C180123227A02F01F0203FA02F211438A
:1042E800C0F81C18A7F10901204603F01BF8207C30
:1042F80007289DD0D4F894010123D0F81C18227DFA
:1043080002F01F0203FA02F21143C0F81C1804F16C
:104318000C00A7F1090103F005F8207F07288AD0CF
:10432800D4F894010123D0F81C1894F8202002F046
:104338001F0203FA02F21143C0F81C1804F1180016
:10434800A7F1090102F0EEFF94F8280007283FF4CE
:1043580077AFD4F894010123D0F81C1894F82C20D6
:1043680002F01F0203FA02F21143C0F81C1804F10C
:104378002400A7F1090102F0D5FF94F834000728BA
:104388003FF463AFD4F894010123D0F81C1894F8D3
:10439800382002F01F0203FA02F21143C0F81C1879
:1043A80004F13000A7F1090102F0BCFF94F84000C5
:1043B80007283FF44FAFD4F894010123D0F81C1814
:1043C80094F8442002F01F0203FA02F21143C0F8E5
:1043D8001C1804F13C00A7F1090102F0A3FF94F8AE
:1043E8004C0007283FF43BAFD4F894010123D0F8E0
:1043F8001C1894F8502002F01F0203FA02F211432D
:10440800C0F81C1804F14800A7F1090102F08AFF5E
:1044180094F8580007283FF427AFD4F894010123F3
:10442800D0F81C1894F85C2002F01F0203FA02F27C
:104438001143C0F81C1804F15400A7F1090102F057
:1044480071FF94F8640007283FF413AFD4F894017F
:104458000123D0F81C1894F8682002F01F0203FA10
:1044680002F21143C0F81C1804F16000A7F1090119
:1044780002F058FF94F8700007283FF4FFAE94F854
:10448800741004F16C00490607D1D4F89411D1F8DE
:104498001C2842F48032C1F81C28A7F1090103F056
:1044A8004CF894F88C0007283FF4EDAE94F890107F
:1044B80004F18800490607D1D4F89411D1F81C28D2
:1044C80042F48032C1F81C28A7F1090103F035F83D
:1044D80094F8A80007283FF4DBAE94F8AC1004F178
:1044E800A400490607D1D4F89411D1F81C2842F445
:1044F8008032C1F81C28A7F1090103F01EF894F8CE
:10450800C40007283FF4C9AE94F8C81004F1C000ED
:10451800490607D1D4F89411D1F81C2842F4803206
:10452800C1F81C28A7F1090103F007F894F8E00086
:1045380007283FF4B7AE94F8E41004F1DC0049060C
:1045480007D1D4F89411D1F81C2842F48032C1F86C
:104558001C28A7F1090102F0F0FF94F8FC000728D5
:104568003FF4A5AE94F8001104F1F800490607D10C
:10457800D4F89411D1F81C2842F48032C1F81C28D0
:10458800A7F1090102F0D9FF94F8180107283FF4B0
:1045980093AE94F81C1104F58A70490607D1D4F833
:1045A8009411D1F81C2842F48032C1F81C28A7F1D4
:1045B800090102F0C2FF94F8340107283FF481AEE4
:1045C80094F8381104F59870490607D1D4F8941175
:1045D800D1F81C2842F48032C1F81C28A7F109013F
:1045E80002F0ABFF94F85001072811D094F8541149
:1045F80004F5A670490607D1D4F89411D1F81C28FF
:1046080042F48032C1F81C28A7F1090102F095FF95
:10461800D4F89401D0F8001821F4FE61C0F800180D
:10462800E80708BF03F02EFC02B0B0BD49F6EC3035
:1046380049F62842C0F60000C0F600023C2104F00A
:104648008DFBB0B502AF054601F005FE03F025FC71
:10465800044603F015FCD5F89401C16B0269002AE1
:1046680009D40269002A5CBF0269002A03D40269DE
:10467800B2F1FF3FF2DCC2684FF6FF63CBF6FF737F
:104688001A4002F18042C2600269002A09D4026914
:10469800002A5CBF0269002A03D40269B2F1FF3F15
:1046A800F2DC026942F0010202610269D20709D014
:1046B8000269D2071CBF02695FEAC27202D00269AE
:1046C800D207F2D1826BB1F5045F42F48032826383
:1046D80009DBB1F5405F15DAB1F5045F16D0B1F525
:1046E8000C5F13D01AE0B1F5885F18BFB1F5905F81
:1046F80041D1816B41F400118163816B21F4E01198
:1047080081630BE018BFB1F5445F07D1816B21F4D9
:1047180000118163016841F0C0010160002141F688
:104728000302C0F8001ED0F8041841F00201C0F8D6
:104738000418D0F8001891430331C0F8001801217B
:10474800C0F8101843F61001C8F2040181614FF057
:10475800FF314161816841F001018160D0F804189E
:1047680021F00201C0F80418E00718BFB0BDBDE889
:10477800B04003F087BBB1F5005FC7D0CEE7F0B516
:1047880003AF2DE9000FD7E904A98C46D7E902E861
:1047980003F07F015FEA0C6308D082B1012203298C
:1047A8001BD905211046BDE8000FF0BD72B10122EA
:1047B800032922D905211046BDE8000FF0BD90F865
:1047C8008C21910714D4022301212DE090F88D212A
:1047D80091071ED40223012186E090F88C3102FA59
:1047E80001F4234278D005211046BDE8000FF0BD42
:1047F800510713D40423022116E090F88D3102FAF0
:1048080001F4234200F0B88005211046BDE8000FEE
:10481800F0BD510763D40423022165E011074FF06E
:10482800030100F1A48008231A4380F88C2100F5C5
:10483800BC7232F811302BB1012205211046BDE8B7
:10484800000FF0BD032313FA8AF5B0F8786110233E
:104858004FEA950EBEF1100FB0F87AE1B0F886C1B4
:10486800B0F884B17644B0F8704188BFAB08B0F8AE
:104878007C51B0F87EE11C443544B0F88081754421
:10488800B0F882614544B0F888E135445D4405EBF1
:104898000C06764414FA86F61E36B6F5A07F2FD895
:1048A80022F8113001EB4103002200F8232000EB2D
:1048B8008300502361F07F01C370FB684371BB68BC
:1048C800A0F8012080F809900172A0F806A00371F1
:1048D8001046BDE8000FF0BD43EA0402A5E7110742
:1048E8004FF0030143D408231A4380F88D21032293
:1048F80012FA8AF4D0E95B6303EB9402B24205D959
:10490800012204211046BDE8000FF0BDA608D0F82A
:104918007441D0F86851A64288BF3446C0E95C2487
:10492800C1EBC10205EB830300EB8200502280F843
:104938006F200022C0E920621E0E80F87C301B0A1E
:10494800A0F86D20826780F86C2080F8759080F858
:104958007410A0F872A080F8718080F870E080F878
:104968007F60A0F87D301046BDE8000FF0BD012241
:104978001046BDE8000FF0BD43EA0402B5E7F0B504
:1049880003AF2DE9000F85B01E4692468846834640
:104998004FEAC20982B14D464446D4E90001324685
:1049A8004B6A59469847BBF8000040F002000628B9
:1049B8002CD10834083DF0D1707A58B3BBF8000008
:1049C80040F00200062821D1DBF80C000921ABF8E1
:1049D80000100068BFF35F8F002800F0D9809BF8B3
:1049E800121011F07C0F04D14FF0A040012202F008
:1049F80004FEDBF818000068BFF35F8F002800F0A2
:104A0800C7809BF81E1011F07C0F1DD005B0BDE8C3
:104A1800000FF0BD317AB07902294DD001291CD0A0
:104A28000029CBD1002868D0062856D00828C5D13F
:104A38009BF88E0201210491A7F126010238039107
:104A4800B0FA80F0400998E04FF0A040012202F04F
:104A5800D4FD05B0BDE8000FF0BDB0B30A28ADD154
:104A68007588FF2D0DD9BBF8000040F0020006281C
:104A7800CCD1584605B0BDE8000FBDE8F040FCF7C2
:104A8800D1B8B9F1000F72D0F8E802014A6B294693
:104A98009047A9F10809C007F3D0012007F8261CA0
:104AA8000490A7F1260003A903905846FCF735F8AF
:104AB80005B0BDE8000FF0BD00287FF47FAF708817
:104AC80010F00C0F28D0012037E0BBF800000428B4
:104AD8009CD10020ABF8240037E07188524630881A
:104AE8005B46CDE900010BF1B400414600F060F9E6
:104AF800C0B208283FF462AF88E79BF88C02022214
:104B08009BF88D120492A7F1260240000392C0B2CE
:104B1800084327F8260C32E040F6001142B200F0B4
:104B28000700C5F20001B2F1FF3FC8BF01F50071EF
:104B380041EA40100068C0F34050BBF80010042957
:104B48007FF464AFABF824000020BBF80610012204
:104B5800ABF80020022928BF0221CBE92B015846D7
:104B6800FBF737FDC0B208283FF428AF4EE7012015
:104B78000490A7F126000390002007F8260C03A94B
:104B88005846FBF7CAFFC0B208283FF417AF3DE705
:104B980049F6D41049F6F812C0F60000C0F6000233
:104BA800222104F0DBF8D4D4F0B503AF2DE9000FCF
:104BB80081B01E46894683464FEAC20A82B15546ED
:104BC8004C46D4E9000132460B6A59469847BBF86F
:104BD800000040F0020006282CD10834083DF0D12E
:104BE800707A58B3BBF8000040F00200062821D1C3
:104BF800DBF80C000921ABF800100068BFF35F8FE9
:104C0800002800F0CA809BF8121011F07C0F04D124
:104C18004FF0A040012202F0F0FCDBF81800006819
:104C2800BFF35F8F002800F0B8809BF81E1011F0CA
:104C38007C0F20D001B0BDE8000FF0BD317AB0790B
:104C4800B6F80080E9B301291FD00229CAD101288A
:104C58004BD0032808BFB8F1000FC3D1708810F0FB
:104C68000C0F40F0928000F083014FF0A040012229
:104C780002F0C3FC89E04FF0A040012201B0BDE87A
:104C8800000FBDE8F04002F0B8BC0B28AAD1768826
:104C980046EA0800FF2838D8BAF1000F61D0F9E8D1
:104CA800020142468B6B31469847AAF1080A002850
:104CB800F2D0584601B0BDE8000FBDE8F040FBF760
:104CC80093BA013808283FF68DAFDFE800F00605F3
:104CD80039052D050505410084E7B8F1010F7FF47A
:104CE80081AF00208BF88C024FE0B8F1000F7FF401
:104CF80079AF708810F00C0F47D100F083014FF0A6
:104D0800A040002202F079FC3FE0BBF8000040F030
:104D1800020006287FF48EAF584601B0BDE8000FA8
:104D2800BDE8F040FBF77EBFA8F1010080B27F2804
:104D3800BFF458AFDBF888024146FEF7C8FB21E014
:104D4800B8F1010F7FF44EAF01208BF88C021CE004
:104D5800B8F1000F13D0B8F1010F7FF443AF022070
:104D680011E0B8F1000F10D0BBF8000040F00200CD
:104D780006287FF45FAF5846FBF754FF32E79BF8ED
:104D88008E0210B101208BF88E025846FBF72CFAE0
:104D9800C0B208283FF426AF4CE749F6D41049F6CC
:104DA800F812C0F60000C0F60002222103F0D6FF78
:104DB800F0B503AF2DE900078AB0BD680E464FF085
:104DC800FF340190A9B204EB11210E2952D8DFE873
:104DD80001F008430D515151515151515151515107
:104DE8004C0001A91846FBF7C2FEFEE029067AD05E
:104DF800D7F80C905FFA85FCBCF1040F80F08A802C
:104E0800D0F8C0110022A1EBC1014FEA810E1EEBC0
:104E180002062FD081181FFA89F50C8BAC4200F0DE
:104E2800CA8016F11C0425D08C8EAC4200F0C080DC
:104E380016F138041ED0B1F85040AC4200F0BA80E8
:104E480016F1540416D0B1F86C107032A942DED1B4
:104E58001044A0F11C01AEE001A802A90290184676
:104E6800CDE90362FBF7D8FDBFE0B0F8CA01B0F5A1
:104E7800007F29D1188840F00200062840F0C5803C
:104E8800D868092119800068BFF35F8F002800F0F7
:104E9800C180997C11F07C0F06D14FF0A04001220F
:104EA8001C4602F0AAFB234698690068BFF35F8F8F
:104EB800002800F0AF80997F11F07C0F09D00820FE
:104EC8000AB0BDE80007F0BD18463146FBF75CFCA8
:104ED8008BE04FF0A040012202F08FFB08200AB0BF
:104EE800BDE80007F0BDD0F8C0110022CDE90822C6
:104EF800CDE906221029CDE90422CDE902220A468D
:104F080028BF102200294DD002F0030C042912D228
:104F180000222FE09846002A6FD006EBC204D6E99B
:104F280000014A464B6929469847002857D1083658
:104F3800A642F4D161E0910800F15008C900A1EB44
:104F4800920100224FEA011E02A9A1F108040021E2
:104F5800451838F801907031AE8E0432B5F86CA05F
:104F68008E452D8B24F8085F6680A4F80490A4F879
:104F780006A0EDD1BCF1000F14D0C2EBC201BCF108
:104F8800010F00EB810002A9068B21F8126009D0FD
:104F980001EB4201868EBCF1020F4E801CBFB0F8B7
:104FA8005000888002A901AA1846FBF7C7FC1CE03C
:104FB8001C3100E038319846BCF1010F09D0BCF132
:104FC800020F02D00422084606E001F108000C2274
:104FD80002E001F110001422006870B18958CDE98F
:104FE800020102A94046FBF74DFCC0B2082808BFE1
:104FF80008200AB0BDE80007F0BDB8F80000434635
:1050080040F0020006283FF43BAF07200AB0BDE895
:105018000007F0BD49F6D41049F6F812C0F60000B2
:10502800C0F60002222103F099FED4D4F0B503AFF4
:105038002DE9000F95B0D0F88842064607A88846A3
:1050480015462146FEF762FA96F88E22BDF81C1026
:10505800032A0FD100294FF0000018BF03290FD0F1
:1050680096F88F22042A00F00881042086F88E2200
:1050780086F88F020020DFE801F0031132070300F1
:1050880015B0BDE8000FF0BD032086F88F2286F822
:105098008E02002015B0BDE8000FF0BD2046FFF7D6
:1050A80070F800204FF48061002D86F8900286F891
:1050B8008C02A6F88E123080E2D008EBC504A8F165
:1050C800080555F8080F69688969884705F10800D7
:1050D800A042F6D1002015B0BDE8000FF0BDBDF824
:1050E8002010BDF81E00BDF82220CDE904010843B8
:1050F80040EA020906925FEAC97048D00698C007DC
:1051080026D10498C00708D009A83146FBF7A2F8B1
:105118009DF82D00052840F0A28004208DF8390064
:105128009DF8390004281BD09DF83700F8B1802875
:105138002BD1DDE90C120FABBDF83800CDE90F1209
:105148004146ADF8440030462A46FFF718FC1CE0FB
:105158000CA83146FBF797F99DF839000428E3D1EC
:105168000598C0071CBF3046FBF7A6FA0DE0DDE93D
:105178000C1212ABBDF83800CDE912124146ADF859
:10518800500030462A46FFF70FFD29F00109E800D4
:10519800B9F1000FCDE9028501904BD003980028A2
:1051A80058D0DDE90110A0F1080A01264FF0020BE2
:1051B80000EB010802200546069854461BEA000F3A
:1051C8000AD054F8080F61688A6A3146904704F19A
:1051D80008004045F5D10EE004981BEA000F0AD0FC
:1051E800544654F8080F6168CA6A3146904704F17A
:1051F80008004045F5D105981BEA000F0CD066F071
:105208007F04564656F8080F71680A6B2146904786
:1052180006F108004045F5D129EA0B095FEA094083
:1052280008D0102D28464FEA4B0B2E4638BF0130C8
:105238000F2DC0D9039868B1DDE90110A0F1080568
:10524800441855F8080F6968C969884705F10800C6
:10525800A042F6D1012015B0BDE8000FF0BDDDE990
:105268000912BDF82C00ADF83800CDE90C129DF8F4
:10527800390004283FF474AF56E749F6B04049F6C0
:10528800CC42C0F60000C0F600021C2103F00CFD61
:10529800F0B503AF2DE9000F85B0044688680028F3
:1052A8007CD14FF0FF3092F8CFA18860002001F147
:1052B8000C05CDE902A0032090460E460090284632
:1052C800002101220023FFF75AFA8946B168C00776
:1052D80001F10101B16079D100295FD14FF0FF30B0
:1052E8008021B0600020CDE902A00320009028466C
:1052F80001228023FFF743FAC0077BD1B3684FF43C
:105308004070326806F5D27BA4F81F00581C002AAA
:10531800A177A4F81CA0C4F818B0B06044D14FF02D
:10532800FF310028316045D12846B160FFF789F97F
:10533800B0680130B06043D34FF0FF308021B060D7
:1053480004F12400BFF35F8FC6F8A451BFF35F8F49
:1053580003F0F1FE4FF440704146A4F8130004F145
:10536800B4004FF4EA72C4F8885284F81290A4F892
:1053780010A0C4F80CB003F01DFD0020042184F82F
:105388008E02C4E92B00C4F8A4002080A4F88F1270
:10539800A4F88C0205B0BDE8000FF0BD49F67C60AA
:1053A800C0F6000003F0FEFB49F68C60C0F6000072
:1053B80003F0F8FB49F69C60C0F6000003F0F2FB2E
:1053C80049F6AC60C0F6000003F0ECFB49F69C50CF
:1053D80049F6DC43C0F60000A7F11E02009049F62A
:1053E800EC40C0F60000C0F60003202107F81E9C20
:1053F80003F077FCB06849F6DC43A7F11D0207F813
:105408001D1C0130B06049F68C50C0F60003C0F690
:1054180000002021009049F6EC40C0F6000003F09F
:1054280060FC80B56F46007849F60C520B4649F689
:105438001C61C0F60001C0F6000251F8201052F8B5
:1054480020201846BDE8804003F0F9B8F0B503AF56
:105458004DF8048D8268012A3ED1C368426993429F
:1054680060D20569D0F818C0EC5C0134EC540CF13A
:10547800020494422CD80CF580739646934238BFA8
:105488009E46A34246D3AEEB0403052B20D38B796B
:105498000E7A91F807E091F80980022E89882B5539
:1054A80005EB040399704FEA1121D9704FF00101FF
:1054B80083F804E088BFF11E3601CCB246EA8806BC
:1054C800012C08BF711C59700CF10703934207D9CE
:1054D80002205DF8048BF0BD07205DF8048BF0BD59
:1054E800944528D2072105F80C100CF101019142CE
:1054F8003FBF05226A54836108203CBF5DF8048BD6
:10550800F0BD49F64C630846C0F6000311461A463A
:1055180003F010FC49F65C632046C0F600037146B0
:1055280003F06CFB49F66C641846C0F6000411469B
:10553800224603F0FFFB49F63C636046C0F60003D1
:1055480011461A4603F0F6FBF0B503AF2DE9000B40
:10555800D1E920C6A6EB0C06964238BF324602EBCC
:105568000C0EE6454FD3BEF1800F4CD81C68256859
:10557800AE6B3668BFF35F8F002E4DD095F93E5065
:10558800B5F1FF3F0CDCEDB205F07F05032D07D820
:1055980005EB450506EB850E9EF80450072D06D150
:1055A8000521012241700270BDE8000BF0BD88465C
:1055B8006144064670469946154601F029FE0146A3
:1055C8003046C9B20829ECD121680A8E294695428D
:1055D80007D1D9F808204E4645461268531C0222C6
:1055E80002E0012245464E46766841603668C6E9C3
:1055F80000230023D5F8802003705018C5F88000D8
:10560800BDE8000BF0BD49F6DC636046C0F6000358
:105618007146802203F0F2FA49F6D41049F6F812DE
:10562800C0F60000C0F60002222103F097FBF0B597
:1056380003AF2DE9000F8BB00D460446F968984674
:10564800286892465BB1002840F0D880B868079077
:105658006879069000F10100687139B90CE00029F9
:1056680000F0BD80002840F0C9806879396905914B
:10567800411CC0B26971049095F804B0A8680BF198
:1056880001012971002840F0B3804FF0FF30082154
:10569800A860FF2005F10C06CDE902100620802144
:1056A800009030460022FFF76AF8AA68C00702F1A6
:1056B8000102AA6040F0A8802868002840F0928083
:1056C80095F80490002A09F10100287140F09080B3
:1056D8004FF0FF300991A8600020CDE902A0052015
:1056E8000090304600210022FFF749F8AA68C00759
:1056F80002F10102AA6040F09B80002A78D152464C
:105708004FF0FF30CDF820809046A8600020CDE90A
:10571800028005208A460090304680210022FFF74B
:105728002EF8C00701BF84F844B084F8459040F2D1
:10573800FF60A4F8270001BF099884F82600082014
:10574800A08401BF05F5D2724FF4A063A4F83F30DE
:1057580084F83E1001BFA4F83C80A263A4F833305B
:1057680084F832A001BFA4F83080E262A968069BE1
:1057780001BFA360089BE360079B01BF2361049BF3
:105788006361FB6801BFA361059BC4E9073201316E
:1057980001BFA9600021A4F84610A17101BFA08033
:1057A8004FF4165020600BB004BFBDE8000FF0BDE9
:1057B800A86849F6EC63A7F11D0207F81D1C013023
:1057C800A86049F60C70C0F60003C0F600000F216F
:1057D800009049F6FC60C0F6000003F082FA002849
:1057E8003FF44AAF49F6CC60C0F6000003F0DAF99E
:1057F80049F67C60C0F6000003F0D4F949F6BC60B5
:10580800C0F6000003F0CEF949F61C7049F6EC63C7
:10581800C0F60000A7F11F02009049F6FC6007F8E7
:105828001F1CC0F60000C0F600030F2103F059FA50
:1058380049F60C7049F6EC63C0F60000A7F11E02A9
:10584800009049F6FC6007F81E1CC0F60000C0F680
:1058580000030F2103F045FA80B56F46007849F63A
:105868000C520B4649F6B071C0F60001C0F60002B2
:1058780051F8201052F820201846BDE8804002F068
:10588800DEBEB0B502AF096800248B685D1C42D04B
:10589800D1F804E073453ED2D1F800C014788D6089
:1058A8000CF803406C1C4FF0000434D0754532D21C
:1058B80054780CF805409D1C6C1C4FF000048D605A
:1058C80029D0754527D294780CF80540DD1C6C1C4E
:1058D8004FF000048D601ED075451CD2D4780CF8AA
:1058E80005401D1D6C1C4FF000048D6013D07545DC
:1058F80011D214790CF805405D1D6C1C4FF00004A2
:105908008D6008D075453FBF52790CF805209A1D67
:105918008A6038BF07240460B0BDF0B503AF2DE935
:10592800000F87B005460868002840F0868091F887
:1059380004B00C4688680BF101012171002876D16A
:10594800D7F808804FF0FF30A060402004F10C0623
:105958009246CDE902080620009030460021002238
:105968009946FEF70CFFA268C00702F10102A26087
:1059780069D1002A5BD14FF0FF3005914146A06004
:105988004020D046CDE902014FF0060A304680217A
:105998000022CDF800A0FEF7F2FEC00701BF85F88F
:1059A800ADB0C5E9298985F8A0A0BA6801BF85F816
:1059B8009F2085F89E104023A5F89C3001BF04F570
:1059C800D270C5F8980085F894A085F8932001BF97
:1059D800059985F89210A5F89030C5F88C0001BF9C
:1059E800022085F8AC00A068002101BF85F8891065
:1059F80029600130A06002BF07B0BDE8000FF0BD0C
:105A0800A06849F6EC63A7F11D0207F81D1C0130D8
:105A1800A06049F61C70C0F60003C0F600000F2114
:105A2800009049F6FC60C0F6000003F05AF949F608
:105A38007C60C0F6000003F0B5F849F6CC60C0F60B
:105A4800000003F0AFF849F61C7049F6EC63C0F6A5
:105A58000000A7F11E02009049F6FC6007F81E1C22
:105A6800C0F60000C0F600030F2103F03AF9D0B5E4
:105A780002AF90F8AD3054889C4209D1537A92F81D
:105A880006C0012B05D0002B08BFBCF1060F32D091
:105A9800D0BDBCF1010F18BFBCF1020F48D1088876
:105AA80040F002000628F3D1C86809220A8000687D
:105AB800BFF35F8F002800F085808A7C12F07C0F8E
:105AC80007D10C4611464FF0A040012201F095FD88
