:020000040800F2
:100000000000022099010008AB6A0008418700083F
:10001000AB6A0008AB6A0008AB6A00080000000089
:10002000000000000000000000000000AB6A0008B3
:10003000AB6A000800000000AB6A0008AB6A000869
:10004000AB6A0008AB6A0008AB6A0008AB6A00083C
:10005000AB6A0008AB6A0008AB6A0008AB6A00082C
:10006000AB6A0008AB6A0008AB6A0008AB6A00081C
:10007000AB6A0008AB6A0008AB6A0008AB6A00080C
:10008000AB6A0008AB6A0008AB6A00080000000019
:10009000000000000000000000000000AB6A000843
:1000A000AB6A0008AB6A0008AB6A0008AB6A0008DC
:1000B000AB6A0008AB6A0008AB6A0008AB6A0008CC
:1000C000AB6A0008AB6A0008AB6A0008AB6A0008BC
:1000D000AB6A0008AB6A0008AB6A000800000000C9
:1000E000AB6A0008AB6A0008AB6A000800000000B9
:1000F000000000000000000000000000AB6A0008E3
:1001000000000000AB6A0008AB6A0008AB6A000898
:1001100000000000000000000000000000000000DF
:10012000AB6A0008AB6A0008AB6A0008AB6A00085B
:10013000AB6A0008000000000000000000000000A2
:10014000000000000000000000000000AB6A000892
:10015000AB6A0008AB6A0008AB6A0008AB6A00082B
:10016000AB6A0008AB6A0008000000000000000055
:10017000000000000000000000000000000000007F
:1001800000000000AB6A0008000000000000000052
:08019000AB6A0008AB6A00082D
:1001980006F08AFC0E480F490022814201D004C0B3
:1001A800FBE70D480D490E4A814202D008CA08C033
:1001B800FAE70C484FF47001026842EA0102026053
:1001C800BFF34F8FBFF36F8F01F08DFF00DE00008C
:1001D8000000002004100020000000200000002083
:1001E800F49A000888ED00E0F0B503AF4DF8048DEF
:1001F8008268012A3ED1C3684269934260D2056988
:10020800D0F818C0EC5C0134EC540CF102049442B0
:100218002CD80CF580739646934238BF9E46A3426D
:1002280046D3AEEB0403052B20D38B790E7A91F8D5
:1002380007E091F80980022E89882B5505EB040305
:1002480099704FEA1121D9704FF0010183F804E049
:1002580088BFF11E3601CCB246EA8806012C08BFD9
:10026800711C59700CF10703934207D902205DF8FD
:10027800048BF0BD07205DF8048BF0BD944528D2AF
:10028800072105F80C100CF1010191423FBF05222E
:100298006A54836108203CBF5DF8048BF0BD48F6C2
:1002A800A8530846C0F6000311461A4607F0D4FCC6
:1002B80048F6B8532046C0F60003714607F030FCF4
:1002C80048F6C8541846C0F600041146224607F0FE
:1002D800C3FC48F698536046C0F6000311461A4618
:1002E80007F0BAFCD0B502AF0188062917D1816999
:1002F8000968BFF35F8F01B390F91E20B2F1FF3F89
:100308000BDCD2B202F07F02032A06D802EB4202CB
:1003180001EB82010A79072A03D10520D0BD072005
:10032800D0BD044608460121002205F072FDC0B286
:10033800082804BF08202080D0BD48F6486048F649
:100348006C62C0F60000C0F60002222107F098FC9B
:10035800F0B503AF4DF8048D86B00A88531E032B01
:1003680054D3052A52D0072A78D1D1F8AC50D1F805
:1003780006604A89802DD1F80230ADF80C20CDE90D
:10038800013600F2ED80CA681268BFF35F8F002A59
:1003980000F0DB808B7C032B08D8C3EBC30302EB94
:1003A800830494F87020072A40F0A2800E4640F299
:1003B8000151ADF810109DF81110002948D0F168CE
:1003C800092232800968BFF35F8F002900F0BD80E1
:1003D800B17C11F07C0F06D104464FF0A0400122F9
:1003E80005F00CFF2046B1690968BFF35F8F00294B
:1003F80000F0AB80B17F11F07C0F29D104464FF09B
:10040800A040012205F0FAFE204621E0CA681268E1
:10041800BFF35F8F002A00F098808B7C032B2ED8C7
:10042800C3EBC30302EB830292F87030072B26D08C
:100438000C4602F16C0104AA06460023002510466A
:10044800012205F0F0FD9DF810103046D1B9258045
:100458000421417206B05DF8048BF0BDCA681268C9
:10046800BFF35F8F002A70D08B7C032B07D8C3EBB8
:10047800C30302EB830292F87030072B0BD10521DE
:100488008DF811109DF8111005224272017006B006
:100498005DF8048BF0BD0D4602F16C0104AA044618
:1004A80000231046012205F0BEFD9DF810102046DD
:1004B8000029E7D1E96809232B800968BFF35F8F1A
:1004C800002942D0A97C2A4611F07C0F06D14FF0B2
:1004D800A040012205F092FE2A462046916909684B
:1004E800BFF35F8F89B3917F11F07C0FB0D186E79E
:1004F8000E46294401F1240204F16C0104ACC5F153
:1005080080038046204605F08EFD9DF81010404679
:1005180000297FF450AF059A5119A94229D381299E
:1005280027D2D6E92B131144C6F8AC1099428FD3C1
:10053800DDE901120625BDF80C3035800160426006
:10054800038106B05DF8048BF0BD48F6486048F6B4
:100558006C62C0F60000C0F60002222107F090FB92
:1005680048F6E8532846C0F600038021802207F0A9
:10057800D7FA48F6D8532846C0F60003802207F079
:10058800CFFAF0B503AF2DE9000F83B00446C86871
:100598000068BFF35F8F002800F085808A7C032AFB
:1005A80021D8C2EBC20200EB820090F87020072A23
:1005B80019D000F16C0201F124050E466846114677
:1005C8002A46802305F02FFD9DF8000001280AD057
:1005D800019A812A72D26846294606F01EFA9DF8C9
:1005E8000900042805D10420607203B0BDE8000F9B
:1005F800F0BDF168BDF808A09DF807509DF8069079
:10060800BDF804B0DDF800800968BFF35F8F0029EA
:1006180049D0B17C304611F07C0F05D14FF0A04095
:10062800002205F0EBFD3046BDB10421A0F80AA078
:10063800457280F80890A0F806B0C0F802800180E2
:10064800A4F808A0E57184F80690A4F804B0C4F8EA
:10065800008003B0BDE8000FF0BDBBF1000F11D062
:10066800BBF1800FBFD80021A0F80AA0C0E92B1B5E
:100678004172072180F80890A0F806B0C0F80280FF
:100688000180B0E70621A4F808A001800021C0F885
:10069800B010E17184F80690A180C4F8008003B01E
:1006A800BDE8000FF0BD48F6486048F66C62C0F639
:1006B8000000C0F60002222107F0E2FA48F6F853DB
:1006C8001146C0F600030020802207F029FAF0B591
:1006D80003AF4DF804BD0246D0E92934D0F8AC0088
:1006E800D2F8B010002B958B08BF8024091AA942B4
:1006F80038BF0D46291844D2A14242D891690968E9
:10070800BFF35F8F002943D092F91E60002B08BF0A
:1007180002F12403B6F1FF3F0CDCF6B206F07F06C7
:10072800032E07D806EB460601EB860C9CF804104E
:10073800072903D105205DF804BBF0BD191816463A
:1007480060462A4605F065FBC0B2082816D1D6F8DF
:10075800AC00411927D2A14225D8D6F8B0003246BC
:10076800C6F8AC10814208D30020918BC2F8A400CF
:1007780003208D4208BF0220108008205DF804BBCA
:10078800F0BD48F618632246C0F6000307F0C8F922
:1007980048F6486048F66C62C0F60000C0F60002F1
:1007A800222107F06DFA48F608632246C0F60003D6
:1007B80007F0B6F9B0B502AF01884B1E0021072B30
:1007C80042D80022DFE803F004230E3E3E3E3E3CC2
:1007D800FFF77DFFC1B2B1F108020CBF114601223B
:1007E8001046B0BDC1680968BFF35F8F00293ED0CD
:1007F800817C11F07C0F05D104464FF0A04005F034
:10080800FDFC20460521018000210020B0BD816942
:100818000968BFF35F8F51B390F91E20B2F1FF3F13
:100828000BDCD2B202F07F02032A06D802EB4202A6
:1008380001EB82010A79072A08D101200521B0BD00
:10084800012102801046B0BD0020B0BD0446084614
:1008580001210022012505F0DCFAC1B2082904D1E2
:100868000320208000210020B0BD2846B0BD48F6F6
:10087800486048F66C62C0F60000C0F6000222210B
:1008880007F0FEF9F0B503AF2DE9000B8CB00C466C
:100898000188042953D1B0F8069080462430059089
:1008A80001A80B9009A800211546802207910692FD
:1008B8008DF8201003910191099106F041F8C0B21A
:1008C800082838D16DB104EBC50609ADD4E900019B
:1008D8000A6929469047C1B208292CD10834B44284
:1008E800F4D109A806F085F8079980292CD9D8F8F9
:1008F8000C100922A8F800200968BFF35F8FA1B384
:1009080098F81210404611F07C0F05D14FF0A04026
:10091800012205F073FC404681690968BFF35F8FC7
:1009280019B3817F11F07C0F04D14FF0A040012250
:1009380005F064FC02200CB0BDE8000BF0BD0720F8
:100948000CB0BDE8000BF0BD012340460022A8F81A
:100958000030494538BF8946C0E92B29FFF7B7FE63
:10096800C0B20CB0BDE8000BF0BD48F6486048F6D0
:100978006C62C0F60000C0F60002222107F080F980
:10098800B0B502AF88B00288042A39D18024D1E9F1
:10099800001205940446C588243000230490684654
:1009A80006938DF81C300293009305F09DFEC0B2AB
:1009B800082823D10699802925D9E16809222280AF
:1009C8000968BFF35F8F61B3A17C204611F07C0FEB
:1009D80005D14FF0A040012205F010FC20468169A6
:1009E8000968BFF35F8FE1B1817F11F07C0F04D1FB
:1009F8004FF0A040012205F001FC022008B0B0BD74
:100A0800072008B0B0BD0123204600222380A94258
:100A180038BF0D46C0E92B25FFF759FEC0B208B014
:100A2800B0BD48F6486048F66C62C0F60000C0F6F3
:100A38000002222107F024F9B0B502AF88B08C4635
:100A48000188042940D111688023C58800220593B4
:100A580000F12403D1F8C011049306924B00212B16
:100A68008DF81C20029200923FD20446684603216A
:100A7800624605F043FDC0B2082823D106998029B3
:100A880025D9E168092222800968BFF35F8FB1B3D5
:100A9800A17C204611F07C0F05D14FF0A040012227
:100AA80005F0ACFB204681690968BFF35F8F31B35D
:100AB800817F11F07C0F04D14FF0A040012205F096
:100AC8009DFB022008B0B0BD072008B0B0BD0123CF
:100AD800204600222380A94238BF0D46C0E92B25B5
:100AE800FFF7F5FDC0B208B0B0BD48F6386C00207D
:100AF800C0F6000C19462022634607F011F848F6A4
:100B0800486048F66C62C0F60000C0F60002222178
:100B180007F0B6F8F0B503AF2DE9000788B00288F2
:100B2800042A57D1D1E9002580238C680021B0F828
:100B380006908046243004900691684605938DF807
:100B48001C1002910091116805F080FBC0B20828C2
:100B58003CD18CB105EBC4066C464FF0000AD5E9D0
:100B68000001CA6821469047C1B208292ED108352C
:100B7800CDF808A0B542F2D1684605F04FFC0699B9
:100B880080292CD9D8F80C100922A8F80020096867
:100B9800BFF35F8FA1B398F81210404611F07C0F95
:100BA80005D14FF0A040012205F028FB404681699D
:100BB8000968BFF35F8F19B3817F11F07C0F04D1EF
:100BC8004FF0A040012205F019FB022008B0BDE853
:100BD8000007F0BD072008B0BDE80007F0BD0123FD
:100BE80040460022A8F80030494538BF8946C0E988
:100BF8002B29FFF76CFDC0B208B0BDE80007F0BDB7
:100C080048F6486048F66C62C0F60000C0F600027C
:100C1800222107F035F8F0B503AF4DF804BD02887E
:100C2800042A06D14C68802C07D902205DF804BB41
:100C3800F0BD07205DF804BBF0BD096800F124028F
:100C4800C68805461046224607F070FD0020B442CB
:100C580038BF2646C5E92B060120288028465DF8BE
:100C680004BBBDE8F040FFF732BDB0B502AF88B0B5
:100C78000288042A38D109680446C588243000222D
:100C8800802304906846069205938DF81C200292F2
:100C9800009205F082FCC0B2082823D10699802969
:100CA80025D9E168092222800968BFF35F8F61B303
:100CB800A17C204611F07C0F05D14FF0A040012205
:100CC80005F09CFA204681690968BFF35F8FE1B19E
:100CD800817F11F07C0F04D14FF0A040012205F074
:100CE8008DFA022008B0B0BD072008B0B0BD0123BE
:100CF800204600222380A94238BF0D46C0E92B2593
:100D0800FFF7E5FCC0B208B0B0BD48F6486048F649
:100D18006C62C0F60000C0F60002222106F0B0FFA7
:100D2800D0B502AFC168092202800968BFF35F8F9E
:100D3800D9B1817C11F07C0F06D104464FF0A04058
:100D4800012205F05BFA204681690968BFF35F8FCD
:100D580059B1817F11F07C0F18BFD0BD4FF0A04072
:100D68000122BDE8D04005F049BA48F6486048F687
:100D78006C62C0F60000C0F60002222106F080FF77
:100D8800F0B503AF2DE9000BD1E920C6A6EB0C06A0
:100D9800964238BF324602EB0C0EE6454FD3BEF101
:100DA800800F4CD81C682568AE6B3668BFF35F8F20
:100DB800002E4DD095F93E50B5F1FF3F0CDCEDB259
:100DC80005F07F05032D07D805EB450506EB850ED5
:100DD8009EF80450072D06D10521012241700270AA
:100DE800BDE8000BF0BD884661440646704699464A
:100DF800154605F00EF801463046C9B20829ECD16F
:100E080021680A8E2946954207D1D9F808204E460E
:100E180045461268531C022202E0012245464E460E
:100E2800766841603668C6E900230023D5F880203B
:100E380003705018C5F88000BDE8000BF0BD48F6F7
:100E48008C636046C0F600037146802206F068FE97
:100E580048F6486048F66C62C0F60000C0F600022A
:100E6800222106F00DFFF0B503AF4DF8048D1D46A5
:100E78000346D1F88400C0F18006B24225D9D1F8E2
:100E88008040261A8036B24205D900201870586072
:100E98005DF8048BF0BD802C01D180240FE07F2CFD
:100EA8006ED81E460B199046021B08460C4619467A
:100EB80006F012FF2146D4E9204033464246001B83
:100EC8000026C1E92060C0F18006964242D384180A
:100ED80038D2802C36D82D68EE6A3668BFF35F8F1B
:100EE800002E42D095F83250042D07D2C5EBC50527
:100EF80006EB850494F87060072E05D140F2015086
:100F080018805DF8048BF0BD0D180E4604F16C01D5
:100F18001C46184613462A4605F085F8207801280D
:100F280004BF6178002902D048B9606802E0002057
:100F380020706060D6F884100844C6F884005DF814
:100F4800048BF0BD48F604732146C0F600038022E6
:100F580006F0E6FD48F6AC6048F6F462C0F600001C
:100F6800C0F60002452106F08BFE48F6486048F6B8
:100F78006C62C0F60000C0F60002222106F080FE76
:100F880048F67C622046C0F60002802106F064FE26
:100F980080B56F46002080BD80B56F4680BD80B5A6
:100FA8006F46002080BD80B56F46002080BD80B5AB
:100FB8006F46082080BD80B56F4680BD80B56F46FE
:100FC800024640695FFA81FC20B1117C614504BF8B
:100FD800916980BD107FD2E90831C0B260451846DA
:100FE80018BF0020002B08BF184680BD80B56F468B
:100FF8000822002182814FF41652C0E95611C0E937
:101008003411A0F84E1081738260016080BD80B5F4
:101018006F4600F00100BDE8804005F029BD80B5AD
:101028006F46ADF5106D05F018FD41F20001C2F2F2
:1010380000010A783AB1FFF7EAFF48F61470C0F6E3
:10104800000006F0D6FD01220A7005F011FD05F03A
:1010580025FD044605F015FD41F20100E207C2F244
:101068000000017808D161B105F00DFD48F6247043
:10107800C0F6000006F0BDFD0029F7D1012101707E
:1010880003E00121017005F0FEFC13AC342104F1EA
:10109800080007F0F4FA46F600400126C0F2DC200A
:1010A80009ADCDE91B6047F64000C0F27D1021462E
:1010B800CDE9136028468DF8856003F0B8FE4EF23E
:1010C8001000CEF20000016821F0040101600D98C3
:1010D800C008229005F1280003F0AFFE40F2100B83
:1010E8004FF40011C4F2020B4FF480025BF8040CB9
:1010F8004FF400030DF18C094FF0000A66F301006C
:101108004BF8040C5BF8040C66F383004BF8040CF2
:101118005BF8040C66F305104BF8040C5BF8040C40
:1011280066F387104BF8040C5BF8040C66F309208F
:101138004BF8040CCBF808105BF80C0C20F02000DE
:101148004BF80C0C5BF8100C66F38B204BF8100C6A
:10115800CBF808205BF80C0C20F040004BF80C0C86
:101168005BF8100C66F30D304BF8100CCBF8083018
:101178005BF80C0C20F080004BF80C0C5BF8100CA2
:1011880066F38F304BF8100CCBF808100A21CBF817
:1011980008200222CBF8083045235BF80C0C20F419
:1011A80000604BF80C0CDBF8140061F30F30CBF83F
:1011B80014005BF8100C62F397504BF8100C5BF8B6
:1011C8000C0C20F480504BF80C0CDBF8140061F385
:1011D8001340CBF814005BF8100C0D9962F31960FA
:1011E8004BF8100C4FF0A04048F63472CDE98A1045
:1011F80040F200014FF48060C2F2000180910721A3
:101208008190C0F60002ADF890008DA88DF8E81125
:101218008DF8CC118DF8B0118DF894118DF87811E6
:101228008DF85C118DF840118DF824118DF8081196
:101238008DF8FC108DF8F0108DF8E4108DF8D810AA
:101248008DF8CC108DF8C0108DF8B4108DF8A8105A
:101258008DF89C104946ADF820A2CDE986AACDE9C3
:1012680084AACDF830A2ADF824A2CDE982AACDF89F
:1012780094A0CDF88CA0009602F0C8FC0DF244446E
:101288004946402200232046CDF804A002F094FBF2
:101298000DF53978214608F108004822079007F033
:1012A800A0F908F150004FF48871CDF8E4A2089035
:1012B80007F0E5F90DF5DD654FF4D27105F11C0075
:1012C80007F0DDF932202A46C0F200104946CDF871
:1012D800B80840F2EF20C0F60100CDF8A868CDF8B4
:1012E800B4081020C0F210208DADCDF8B00841F23E
:1012F800C060C2F2DA70CDF8AC0840F20940CDF80F
:1013080000070C20CDF8FC0648F67970C0F60000FE
:10131800CDF8F8060F20CDF8F40648F68570C0F62B
:101328000000CDF8F0060420CDF8EC0648F69870D9
:10133800C0F60000CDF8E8060DF2444003F09CFB2F
:1013480048F6D87908F1D800C0F60009CDF8DCA62F
:10135800CDF8D8A68DF8E6A68DF8E5A68DF8E4A612
:101368008DF8E3A68DF8E2A68DF8E1A6069006E0D2
:10137800002800F0E68522A80A2103F01BFDB9A881
:1013880047F8380C48F69C70A7F14006C0F60000F4
:10139800022247E910502046314647F8349C03F0B2
:1013A80039FABDF81C23A7F144030899079847F8B0
:1013B800440C3046FFF757FD17F8400C002840F062
:1013C8001983DDE9ED01814200F014830A1A08212E
:1013D800082A28BF0A4614188442C0F06986812C5E
:1013E80080F06686089901440DF5DB6007F09EF9E8
:1013F8009DF8D806ED940DF244443F2840F0FA8257
:101408009DF8E6669DF8E1269DF8E2469DF8E3061C
:101418009DF8E4869DF8E5567EB10590DDF8400418
:10142800CDE90324C0F18001162939D8DDF83C3410
:10143800B3B3802B20D180212BE04DB9B8F1000F38
:1014480008BF002804D1002C08BF002A00F0AE8590
:101458000590DDF84004CDE90324C0F18001162988
:1014680000F29E80DDF83C34002B00F09980802B40
:1014780040F0828080218CE07F2B00F22C86069C35
:10148800C21AE118204606F027FCDDF83C14DDF806
:101498004004401ACDF83CA4CDF84004C0F18001C6
:1014A80017294FF0170438BF0C46A1B12118814203
:1014B800C0F0F785812980F0F48506992246084412
:1014C80049F21401C0F6000107F030F9DDF84004D4
:1014D8002044CDF84004B9A802F00CFA46F65B5057
:1014E80049F23E02C0F60000A7F1400347F83C0C61
:1014F8000DF2E76047F8400CA7F144000421C0F65C
:1015080000028DF8E76647F844AC03F093FB002827
:1015180064D08146DDF84004C0F18004A1421CD9A2
:10152800DDF83C34CBB1802B01D180220EE07F2B3B
:1015380000F2D185069E0C46C21AF118304606F014
:10154800CBFBDDF83C242146DDF84004801ACDF8B9
:101558003CA4C0F18004CDF84004A14238BF0C4639
:10156800CCB321188142C0F09C85812980F09985EF
:1015780006990844494626E07F2B00F2AC85069E72
:10158800C21AF118304606F0A7FBDDF83C14DDF866
:101598004004401ACDF83CA4CDF84004C0F18001C5
:1015A80017294FF0170438BF0C46A1B12118814202
:1015B800C0F07785812980F074850699084449F23E
:1015C8001401C0F60001224607F0B0F8DDF8400427
:1015D8002044CDF84004B9A802F08CF98DF8E756FC
:1015E800002D8DAD55D046F65B5049F23E02C0F64F
:1015F8000000A7F1400347F83C0C0DF2E76047F8FC
:10160800400CA7F144000421C0F6000247F844AC9E
:1016180003F010FBE8B30446DDF84004C0F1800590
:10162800A9421CD9DDF83C34CBB1802B01D18022F2
:101638000EE07F2B00F24F85069E0D46C21AF11868
:10164800304606F049FBDDF83C242946DDF8400425
:10165800801ACDF83CA4C0F18005CDF84004A94219
:1016680038BF0D468DB129188142C0F01A858129ED
:1016780080F0178506992A460844214607F056F84F
:10168800DDF840042844CDF84004B9A802F032F946
:101698008DAD48F6D8798DF8E786C0F60009B8F11F
:1016A800000F55D046F65B5049F23E02C0F60000E6
:1016B800A7F1400347F83C0C0DF2E76047F8400CEF
:1016C800A7F144000421C0F6000247F844AC03F037
:1016D800B1FAE8B30446DDF84004C0F18005A94238
:1016E8001CD9DDF83C34CBB1802B01D180220EE02F
:1016F8007F2B00F2F084069E0D46C21AF118304680
:1017080006F0EAFADDF83C242946DDF84004801AA0
:10171800CDF83CA4CDF84004C0F18005A94238BFFB
:101728000D468DB129188142C0F0BB84812980F013
:10173800B88406992A460844214606F0F7FFDDF8E2
:1017480040042844CDF84004B9A802F0D3F88DAD80
:1017580005988DF8E706002855D046F65B5049F203
:101768003E02C0F60000A7F1400347F83C0C0DF21A
:10177800E76047F8400CA7F144000421C0F60002D6
:1017880047F844AC03F056FAE8B30446DDF84004E1
:10179800C0F18005A9421CD9DDF83C34CBB1802BBF
:1017A80001D180220EE07F2B00F29584069E0D4623
:1017B800C21AF118304606F08FFADDF83C242946A3
:1017C800DDF84004801ACDF83CA4C0F18005CDF8BE
:1017D8004004A94238BF0D468DB129188142C0F096
:1017E8006084812980F05D8406992A460844214650
:1017F80006F09CFFDDF840042844CDF84004B9A861
:1018080002F078F88DAD04988DF8E706002855D0D9
:1018180046F65B5049F23E02C0F60000A7F14003CD
:1018280047F83C0C0DF2E76047F8400CA7F144007C
:101838000421C0F6000247F844AC03F0FBF9E8B312
:101848000446DDF84004C0F18005A9421CD9DDF842
:101858003C34CBB1802B01D180220EE07F2B00F2EB
:101868003A84069E0D46C21AF118304606F034FA3C
:10187800DDF83C242946DDF84004801ACDF83CA464
:10188800CDF84004C0F18005A94238BF0D468DB19E
:1018980029188142C0F00584812980F002840699C4
:1018A8002A460844214606F041FFDDF84004284452
:1018B800CDF84004B9A802F01DF88DAD03988DF855
:1018C800E706002855D046F65B5049F23E02C0F6BE
:1018D8000000A7F1400347F83C0C0DF2E76047F819
:1018E800400CA7F144000421C0F6000247F844ACBC
:1018F80003F0A0F9E8B30446DDF84004C0F1800520
:10190800A9421CD9DDF83C34CBB1802B01D180220F
:101918000EE07F2B00F2DF83069E0D46C21AF118F7
:10192800304606F0D9F9DDF83C242946DDF84004B4
:10193800801ACDF83CA4C0F18005CDF84004A94236
:1019480038BF0D468DB129188142C0F0AA8381297C
:1019580080F0A78306992A460844214606F0E6FE49
:10196800DDF840042844CDF84004B9A801F0C2FFCE
:101978008DADDDF84004C0F1800101291AD8DDF8E9
:101988003C34BBB1802B01D180210CE07F2B00F2CD
:10199800A283069EC21AF118304606F09DF9DDF8BA
:1019A8003C14DDF84004401ACDF83CA4CDF84004BE
:1019B800C0F1800102294FF0020438BF0C46A1B1E2
:1019C80021188142C0F06D83812980F06A830699CD
:1019D800084449F24801C0F60001224606F0A6FE76
:1019E800DDF840042044CDF84004B9A801F082FF96
:1019F8000DF244444FF40010CBF80800DBF8000067
:101A0800DBF80000C0073BD09DF8E606C8B19DF89A
:101A1800E506F8B19DF8E40628B39DF8E30658B347
:101A28009DF8E206002850D09DF8E106002804BF82
:101A38000DF2E16080F800A0DBF80000800723D4F5
:101A480050E00DF2E66080F800A0DBF800008007A7
:101A58001AD447E00DF2E56080F800A0DBF800003A
:101A6800800711D43EE00DF2E46080F800A0DBF8B6
:101A78000000800708D435E00DF2E36080F800A08C
:101A8800DBF8000080072DD59DF8E60688B19DF8A3
:101A9800E50688B19DF8E40688B19DF8E30688B1AB
:101AA8009DF8E206D0B19DF8E106D8B90DF2E160E3
:101AB80016E00DF2E66013E00DF2E56010E00DF2BD
:101AC800E4600DE00DF2E3600AE00DF2E26080F8F8
:101AD80000A0DBF800008007D6D403E00DF2E26036
:101AE80080F800A0DBF80000400724D59DF8E60642
:101AF80088B19DF8E50688B19DF8E40688B19DF89F
:101B0800E30688B19DF8E20688B19DF8E10690B930
:101B18000DF2E1600DE00DF2E6600AE00DF2E5601D
:101B280007E00DF2E46004E00DF2E36001E00DF27D
:101B3800E26080F800A0DBF80000000724D59DF8DB
:101B4800E60688B19DF8E50688B19DF8E40688B1F7
:101B58009DF8E30688B19DF8E20688B19DF8E10694
:101B680090B90DF2E1600DE00DF2E6600AE00DF2C9
:101B7800E56007E00DF2E46004E00DF2E36001E0E7
:101B88000DF2E26080F800A0DBF80000C00624D562
:101B98009DF8E60688B19DF8E50688B19DF8E4064B
:101BA80088B19DF8E30688B19DF8E20688B19DF8F2
:101BB800E10690B90DF2E1600DE00DF2E6600AE091
:101BC8000DF2E56007E00DF2E46004E00DF2E36079
:101BD80001E00DF2E26080F800A02020CBF80800B8
:101BE8004FF48000CBF80800DBF80000C00724D0D1
:101BF8009DF8E60688B19DF8E50688B19DF8E406EB
:101C080088B19DF8E30688B19DF8E20688B19DF891
:101C1800E10690B90DF2E1600DE00DF2E6600AE030
:101C28000DF2E56007E00DF2E46004E00DF2E36018
:101C380001E00DF2E26080F800A0DBF80000800708
:101C480024D59DF8E60688B19DF8E50688B19DF88B
:101C5800E40688B19DF8E30688B19DF8E20688B1EC
:101C68009DF8E10690B90DF2E1600DE00DF2E66035
:101C78000AE00DF2E56007E00DF2E46004E00DF221
:101C8800E36001E00DF2E26080F800A0DBF80000FC
:101C9800400724D59DF8E60688B19DF8E50688B189
:101CA8009DF8E40688B19DF8E30688B19DF8E20640
:101CB80088B19DF8E10690B90DF2E1600DE00DF2F2
:101CC800E6600AE00DF2E56007E00DF2E46004E08A
:101CD8000DF2E36001E00DF2E26080F800A0DBF8AD
:101CE8000000000724D59DF8E60688B19DF8E506B2
:101CF80088B19DF8E40688B19DF8E30688B19DF89F
:101D0800E20688B19DF8E10690B90DF2E1600DE0B8
:101D18000DF2E6600AE00DF2E56007E00DF2E4601E
:101D280004E00DF2E36001E00DF2E26080F800A04B
:101D3800DBF80000C00624D59DF8E60688B19DF8BA
:101D4800E50688B19DF8E40688B19DF8E30688B1F8
:101D58009DF8E20688B19DF8E10690B90DF2E160C0
:101D68000DE00DF2E6600AE00DF2E56007E00DF225
:101D7800E46004E00DF2E36001E00DF2E26080F857
:101D880000A04020CBF808004FF40000CBF8080072
:101D9800DBF80000C00724D09DF8E60688B19DF85E
:101DA800E50688B19DF8E40688B19DF8E30688B198
:101DB8009DF8E20688B19DF8E10690B90DF2E16060
:101DC8000DE00DF2E6600AE00DF2E56007E00DF2C5
:101DD800E46004E00DF2E36001E00DF2E26080F8F7
:101DE80000A0DBF80000800724D59DF8E60688B13E
:101DF8009DF8E50688B19DF8E40688B19DF8E306EC
:101E080088B19DF8E20688B19DF8E10690B90DF217
:101E1800E1600DE00DF2E6600AE00DF2E56007E032
:101E28000DF2E46004E00DF2E36001E00DF2E2601F
:101E380080F800A0DBF80000400724D59DF8E606EE
:101E480088B19DF8E50688B19DF8E40688B19DF84B
:101E5800E30688B19DF8E20688B19DF8E10690B9DD
:101E68000DF2E1600DE00DF2E6600AE00DF2E560CA
:101E780007E00DF2E46004E00DF2E36001E00DF22A
:101E8800E26080F800A0DBF80000000724D59DF888
:101E9800E60688B19DF8E50688B19DF8E40688B1A4
:101EA8009DF8E30688B19DF8E20688B19DF8E10641
:101EB80090B90DF2E1600DE00DF2E6600AE00DF276
:101EC800E56007E00DF2E46004E00DF2E36001E094
:101ED8000DF2E26080F800A0DBF80000C00624D50F
:101EE8009DF8E60688B19DF8E50688B19DF8E406F8
:101EF80088B19DF8E30688B19DF8E20688B19DF89F
:101F0800E10690B90DF2E1600DE00DF2E6600AE03D
:101F18000DF2E56007E00DF2E46004E00DF2E36025
:101F280001E00DF2E26080F800A08020CBF8080004
:101F38009DF835020138012803D89DF8E0120229DE
:101F48002BD19DF8D40207283FF415AAA7F1400029
:101F5800402106F094FBB3980068BFF35F8F002818
:101F680000F0AE809DF9D212B1F1FF3F3FF703AA0E
:101F7800C9B201F07F0103293FF6FDA901EB410138
:101F880000EB8100017907293FF4F5A9A7F1400189
:101F9800082203F03EFFFFF7EEB99DF83402C907A7
:101FA8007FF4E6A900283FF4E6A9CAE7DDF8400473
:101FB800C0F1800116290BD8DDF83C348DAD43B152
:101FC80048F6D879802BC0F6000907D1802111E0A6
:101FD8008DAD48F6D879C0F6000912E07F2B7AD883
:101FE800069CC21AE118204605F076FEDDF83C147E
:101FF800DDF84004401ACDF83CA4CDF84004C0F107
:10200800800117294FF0170438BF0C4691B12118E9
:10201800814246D3812944D206992246084449F28E
:102028001401C0F6000106F081FBDDF840042044ED
:10203800CDF84004B9A801F05DFCDDF84004C0F11A
:102048008001112919D8DDF83C34B3B1802B01D1B6
:1020580080210BE07F2B3ED8069CC21AE11820464F
:1020680005F03AFEDDF83C14DDF84004401ACDF8DE
:102078003CA4CDF84004C0F1800112290C4628BFC9
:10208800122400293FF4B1AC2118814209D38129D7
:1020980007D20699084449F22C01C0F60001FFF75F
:1020A8009CBC48F69C638022C0F6000305F038FD0E
:1020B80048F68C632146C0F60003802205F030FD07
:1020C80048F6486048F66C62C0F60000C0F60002A8
:1020D800222105F0D5FD48F67C621846C0F60002BC
:1020E800802105F0B9FD80B56F46FEF798FFF0B581
:1020F80003AF4DF804BD0C46054604F0CFFC064678
:1021080004F0BFFCD5F89401D0F8001864F30A1164
:10211800C0F80018F00705D15DF804BBBDE8F04031
:1021280004F0B1BC5DF804BBF0BDD4D4F0B503AF86
:102138002DE9000F83B00E46814604F0AFFC05463A
:1021480004F09FFCD6F89411D1F83CB04C69E00437
:102158000FD4A0046ED4B4F1FF3F40F3FE822005F3
:1021680000F11583E00600F1208300224FF0000AF9
:10217800DDE34FF480504861D6F89401D0F81C187C
:102188000021C0F81C183079072875D1307C072841
:1021980040F09080307F072840F0AA8096F8280009
:1021A800072840F0C58096F83400072840F0E08002
:1021B80096F84000072840F0FB8096F84C00072866
:1021C80040F0168196F85800072840F0318196F8BB
:1021D8006400072840F04C8196F87000072840F00A
:1021E800678196F88C00072840F0858196F8A8004A
:1021F800072840F0A48196F8C400072840F0C3815E
:1022080096F8E000072840F0E28196F8FC000728DD
:1022180040F0018296F81801072840F0208296F8CD
:102228003401072840F03F8296F85001072840F013
:102238005D827AE24FF400504861D6F89401D0F8F4
:102248000818C1F34101DFE811F08D0204007D0593
:102258000400D6F890214AF6C041C0F2D8018A425B
:10226800C0F07B854EF2C011C0F2E4018A4280F0D2
:1022780085824FF4705104E3307A316810F07F00A2
:1022880001EB4010D0F8001921F40041C0F8001902
:10229800D0F8001900F5106006D0B1F1FF3FDEBF9D
:1022A800016841F080410160FF218160307C07288E
:1022B8003FF470AF307DF16810F07F0001EB401003
:1022C800D0F8001921F40041C0F80019D0F800191D
:1022D80000F5106006D0B1F1FF3FDEBF016841F0A4
:1022E80080410160FF218160307F07283FF456AFAD
:1022F80096F82000B16910F07F0001EB4010D0F88B
:10230800001921F40041C0F80019D0F8001900F5AF
:10231800106006D0B1F1FF3FDEBF016841F0804197
:102328000160FF21816096F8280007283FF43BAF41
:1023380096F82C00716A10F07F0001EB4010D0F87D
:10234800001921F40041C0F80019D0F8001900F56F
:10235800106006D0B1F1FF3FDEBF016841F0804157
:102368000160FF21816096F8340007283FF420AF10
:1023780096F83800316B10F07F0001EB4010D0F870
:10238800001921F40041C0F80019D0F8001900F52F
:10239800106006D0B1F1FF3FDEBF016841F0804117
:1023A8000160FF21816096F8400007283FF405AFDF
:1023B80096F84400F16B10F07F0001EB4010D0F864
:1023C800001921F40041C0F80019D0F8001900F5EF
:1023D800106006D0B1F1FF3FDEBF016841F08041D7
:1023E8000160FF21816096F84C0007283FF4EAAEAF
:1023F80096F85000B16C10F07F0001EB4010D0F857
:10240800001921F40041C0F80019D0F8001900F5AE
:10241800106006D0B1F1FF3FDEBF016841F0804196
:102428000160FF21816096F8580007283FF4CFAE7D
:1024380096F85C00716D10F07F0001EB4010D0F849
:10244800001921F40041C0F80019D0F8001900F56E
:10245800106006D0B1F1FF3FDEBF016841F0804156
:102468000160FF21816096F8640007283FF4B4AE4C
:1024780096F86800316E10F07F0001EB4010D0F83C
:10248800001921F40041C0F80019D0F8001900F52E
:10249800106006D0B1F1FF3FDEBF016841F0804116
:1024A8000160FF21816096F8700007283FF499AE1B
:1024B80096F87400F16E00F07F0001EB4010D0F840
:1024C800001B21F40041C0F8001BD0F8001B00F5E8
:1024D8003060B1F1FF3F07DC96F8741049061EBF63
:1024E800016841F080410160FF21816096F88C000D
:1024F80007283FF47BAE96F89000D6F8881000F0D5
:102508007F0001EB4010D0F8001B21F40041C0F817
:10251800001BD0F8001B00F53060B1F1FF3F07DC6D
:1025280096F8901049061EBF016841F0804101608D
:10253800FF21816096F8A80007283FF45CAE96F862
:10254800AC00D6F8A41000F07F0001EB4010D0F8E2
:10255800001B21F40041C0F8001BD0F8001B00F557
:102568003060B1F1FF3F07DC96F8AC1049061EBF9A
:10257800016841F080410160FF21816096F8C40044
:1025880007283FF43DAE96F8C800D6F8C01000F012
:102598007F0001EB4010D0F8001B21F40041C0F887
:1025A800001BD0F8001B00F53060B1F1FF3F07DCDD
:1025B80096F8C81049061EBF016841F080410160C5
:1025C800FF21816096F8E00007283FF41EAE96F8D8
:1025D800E400D6F8DC1000F07F0001EB4010D0F8E2
:1025E800001B21F40041C0F8001BD0F8001B00F5C7
:1025F8003060B1F1FF3F07DC96F8E41049061EBFD2
:10260800016841F080410160FF21816096F8FC007B
:1026180007283FF4FFAD96F80001D6F8F81000F04F
:102628007F0001EB4010D0F8001B21F40041C0F8F6
:10263800001BD0F8001B00F53060B1F1FF3F07DC4C
:1026480096F8001149061EBF016841F080410160FB
:10265800FF21816096F8180107283FF4E0AD96F84D
:102668001C01D6F8141100F07F0001EB4010D0F8DF
:10267800001B21F40041C0F8001BD0F8001B00F536
:102688003060B1F1FF3F07DC96F81C1149061EBF08
:10269800016841F080410160FF21816096F83401B2
:1026A80007283FF4C1AD96F83801D6F8301100F08C
:1026B8007F0001EB4010D0F8001B21F40041C0F866
:1026C800001BD0F8001B00F53060B1F1FF3F07DCBC
:1026D80096F8381149061EBF016841F08041016033
:1026E800FF21816096F8500107281ED096F8540102
:1026F800D6F84C1100F07F0001EB4010D0F8001B19
:1027080021F40041C0F8001BD0F8001B00F5306030
:10271800B1F1FF3F07DC96F8541149061EBF016866
:1027280041F080410160FF218160D6F89401016980
:1027380041F010010161D6F894110869C0067FF5CF
:1027480008AD0869C00644BF08695FEAC0607FF544
:1027580000AD0869C006F0D4FBE44FF000404861C2
:10276800042094E0D6F890114CF27F32C0F2C912DE
:10277800914240F2FD824FF4105182E042F2004152
:10278800C0F2F4018A4207D24FF4605179E04FF465
:102798000060486103207AE047F28031C0F20611F8
:1027A8008A4217D24FF450516BE0D1F81CC00CF09C
:1027B8000F08CCF3434EAEF10300022813D3BEF149
:1027C800060F33D0BEF1020F1DD10120002300FAFD
:1027D80008F26BE044F6A011C0F21A118A421CD22A
:1027E8004FF440514DE0BBF5885F18BFBBF5905FD3
:1027F80009D101EB4810D0F8001B41F00441C0F8A2
:10280800001BD6F89411086A00224EF004004FF01D
:10281800000A0023062849D089E042F60051C0F298
:1028280031118A4224D24FF430512AE001EB48108A
:102838002A460025D0F81009C1F6F875284230D08C
:102848000869154620F4FC6040EA881020300861C9
:10285800D6F894110869800624D50869800644BF13
:1028680008695FEA80601DD508698006F2D419E01E
:102878004AF24041C0F24C118A4280F048824FF43B
:102888002051C26822F470521143C1600120A9F896
:102898000000E80708BF04F0F6F803B0BDE8000F31
:1028A800F0BD15460120002200FA08F3B8F1080F20
:1028B800029500F26E82C8EBC800924606EB8000D3
:1028C80090F87050072D30D000F16C05E8680028AA
:1028D80040F05982A87E4FF0FF32EA6010BB0193A6
:1028E800AEF10603B3FA83F3086A05F11000CCF3DE
:1028F8000A125B0903F027FABBF50C5FC0F2FE81F0
:10290800019B05D0BBF5405F18BFBBF5445F09D1FB
:10291800D6F8940100EB4810D0F8001B41F00441B0
:10292800C0F8001BE8680130E8601A46029D6003A1
:1029380003D44FF000081446FAE03079072803D191
:102948004FF00008144617E0307A1446D6F8941170
:1029580000F07F0001EB4010D0F80819C90702D138
:102968004FF0000808E000F5106001218160307A1E
:1029780000F00F0001FA00F8307C072815D0307DF0
:10298800D6F8941100F07F0001EB4010D0F8081938
:10299800C9070AD000F5106001218160307D00F080
:1029A8000F0001FA00F048EA0008307F072817D026
:1029B80096F82000D6F8941100F07F0001EB401043
:1029C800D0F80819C9070BD000F510600121816003
:1029D80096F8200000F00F0001FA00F048EA00081D
:1029E80096F82800072817D096F82C00D6F89411E6
:1029F80000F07F0001EB4010D0F80819C9070BD090
:102A080000F510600121816096F82C0000F00F009D
:102A180001FA00F048EA000896F83400072817D0B1
:102A280096F83800D6F8941100F07F0001EB4010BA
:102A3800D0F80819C9070BD000F510600121816092
:102A480096F8380000F00F0001FA00F048EA000894
:102A580096F84000072817D096F84400D6F8941145
:102A680000F07F0001EB4010D0F80819C9070BD01F
:102A780000F510600121816096F8440000F00F0015
:102A880001FA00F048EA000896F84C00072817D029
:102A980096F85000D6F8941100F07F0001EB401032
:102AA800D0F80819C9070BD000F510600121816022
:102AB80096F8500000F00F0001FA00F048EA00080C
:102AC80096F85800072817D096F85C00D6F89411A5
:102AD80000F07F0001EB4010D0F80819C9070BD0AF
:102AE80000F510600121816096F85C0000F00F008D
:102AF80001FA00F048EA000896F86400072817D0A1
:102B080096F86800D6F8941100F07F0001EB4010A9
:102B1800D0F80819C9070BD000F5106001218160B1
:102B280096F8680000F00F0001FA00F048EA000883
:102B380096F8700007281AD006F16C0003F049FADD
:102B4800C0B202280BD0012811D196F874000121D7
:102B580000F00F0001FA00F04AEA000A07E096F8D0
:102B68007400012100F00F0001FA00F0044396F808
:102B78008C00072812D006F1880003F02AFAC0B2A8
:102B880060B1012896F890004FF0010100F00F00A5
:102B980001FA00F00CBF4AEA000A044396F8A800BC
:102BA800072812D006F1A40003F013FAC0B260B1EE
:102BB800012896F8AC004FF0010100F00F0001FA6F
:102BC80000F00CBF4AEA000A044396F8C40007283C
:102BD80012D006F1C00003F0FCF9C0B260B10128C0
:102BE80096F8C8004FF0010100F00F0001FA00F05C
:102BF8000CBF4AEA000A044396F8E000072812D0FE
:102C080006F1DC0003F0E5F9C0B260B1012896F8DE
:102C1800E4004FF0010100F00F0001FA00F00CBFD2
:102C28004AEA000A044396F8FC00072812D006F185
:102C3800F80003F0CEF9C0B260B1012896F800019F
:102C48004FF0010100F00F0001FA00F00CBF4AEA52
:102C5800000A044396F81801072812D006F58A706E
:102C680003F0B7F9C0B260B1012896F81C014FF023
:102C7800010100F00F0001FA00F00CBF4AEA000A57
:102C8800044396F83401072812D006F5987003F02B
:102C9800A0F9C0B260B1012896F838014FF00101DF
:102CA80000F00F0001FA00F00CBF4AEA000A0443E2
:102CB80096F85001072812D006F5A67003F089F996
:102CC800C0B260B1012896F854014FF0010100F03C
:102CD8000F0001FA00F00CBF4AEA000A044344EA74
:102CE800080050EA0A0007D0A9F806400220A9F80F
:102CF8000480A9F802A0CAE50020C8E5019BBBF53D
:102D0800005F18BFBBF5045F3FF402AE0AE643F26A
:102D18000061C0F26E118A42FFF42DAD49F6E05110
:102D2800C0F2A3118A4202D24FF40051A9E544F639
:102D380000034FF4C051C0F2E8139A4238BF4FF471
:102D4800E0519EE549F2F00049F20012C0F6000099
:102D5800C0F600020F2104F093FF49F2B80049F2CF
:102D6800E002C0F60000C0F60002182104F088FF57
:102D780049F2B80049F2D002C0F60000C0F60002DD
:102D8800182104F07DFF49F2A800C0F6000004F005
:102D98009BFE49F298024046C0F60002092104F061
:102DA8005BFFB0B502AF82B0044603F077FE05467C
:102DB80003F067FEB4F87001D4F894111E3082B2A3
:102DC8004A62B4F87811D4F89421C0EA014308445F
:102DD8009362B4F87A21D4F89431C0EA02411044DD
:102DE800C3F80411B4F87C11D4F89431C0EA014254
:102DF8000844C3F80821B4F87E21D4F89431C0EA15
:102E080002411044C3F80C1180B2B0F5A07F00F263
:102E18001D82D4F894014322016962F30A11016109
:102E2800D4F89401016911F0300F0BD0016911F049
:102E3800300F1CBF016911F0300F03D0016911F088
:102E4800300FEFD12179072951D1207C072861D192
:102E5800207F072874D194F82800072840F089803B
:102E680094F83400072840F09D8094F84000072823
:102E780040F0B18094F84C00072840F0C58094F8E1
:102E88005800072840F0D98094F86400072840F0DB
:102E9800ED8094F87000072840F0018194F88C00C8
:102EA800072840F0138194F8A800072840F02581EE
:102EB80094F8C400072840F0378194F8E000072808
:102EC80040F0498194F8FC00072840F05B8194F8B1
:102ED8001801072840F06D8194F83401072840F064
:102EE8007F8194F85001072840F09081A0E1D0F844
:102EF8001C180123227A02F01F0203FA02F211437E
:102F0800C0F81C18A7F10901204603F00CF8207C32
:102F180007289DD0D4F894010123D0F81C18227DED
:102F280002F01F0203FA02F21143C0F81C1804F160
:102F38000C00A7F1090102F0F6FF207F07288AD0CC
:102F4800D4F894010123D0F81C1894F8202002F03A
:102F58001F0203FA02F21143C0F81C1804F118000A
:102F6800A7F1090102F0DFFF94F8280007283FF4D1
:102F780077AFD4F894010123D0F81C1894F82C20CA
:102F880002F01F0203FA02F21143C0F81C1804F100
:102F98002400A7F1090102F0C6FF94F834000728BD
:102FA8003FF463AFD4F894010123D0F81C1894F8C7
:102FB800382002F01F0203FA02F21143C0F81C186D
:102FC80004F13000A7F1090102F0ADFF94F84000C8
:102FD80007283FF44FAFD4F894010123D0F81C1808
:102FE80094F8442002F01F0203FA02F21143C0F8D9
:102FF8001C1804F13C00A7F1090102F094FF94F8B1
:103008004C0007283FF43BAFD4F894010123D0F8D3
:103018001C1894F8502002F01F0203FA02F2114320
:10302800C0F81C1804F14800A7F1090102F07BFF61
:1030380094F8580007283FF427AFD4F894010123E7
:10304800D0F81C1894F85C2002F01F0203FA02F270
:103058001143C0F81C1804F15400A7F1090102F04B
:1030680062FF94F8640007283FF413AFD4F8940182
:103078000123D0F81C1894F8682002F01F0203FA04
:1030880002F21143C0F81C1804F16000A7F109010D
:1030980002F049FF94F8700007283FF4FFAE94F857
:1030A800741004F16C00490607D1D4F89411D1F8D2
:1030B8001C2842F48032C1F81C28A7F1090103F04A
:1030C8003DF894F88C0007283FF4EDAE94F8901082
:1030D80004F18800490607D1D4F89411D1F81C28C6
:1030E80042F48032C1F81C28A7F1090103F026F840
:1030F80094F8A80007283FF4DBAE94F8AC1004F16C
:10310800A400490607D1D4F89411D1F81C2842F438
:103118008032C1F81C28A7F1090103F00FF894F8D0
:10312800C40007283FF4C9AE94F8C81004F1C000E1
:10313800490607D1D4F89411D1F81C2842F48032FA
:10314800C1F81C28A7F1090102F0F8FF94F8E00083
:1031580007283FF4B7AE94F8E41004F1DC00490600
:1031680007D1D4F89411D1F81C2842F48032C1F860
:103178001C28A7F1090102F0E1FF94F8FC000728D8
:103188003FF4A5AE94F8001104F1F800490607D100
:10319800D4F89411D1F81C2842F48032C1F81C28C4
:1031A800A7F1090102F0CAFF94F8180107283FF4B3
:1031B80093AE94F81C1104F58A70490607D1D4F827
:1031C8009411D1F81C2842F48032C1F81C28A7F1C8
:1031D800090102F0B3FF94F8340107283FF481AEE7
:1031E80094F8381104F59870490607D1D4F8941169
:1031F800D1F81C2842F48032C1F81C28A7F1090133
:1032080002F09CFF94F85001072811D094F854114B
:1032180004F5A670490607D1D4F89411D1F81C28F2
:1032280042F48032C1F81C28A7F1090102F086FF98
:10323800D4F89401D0F8001821F4FE61C0F8001801
:10324800E80708BF03F01FFC02B0B0BD49F24A000E
:1032580049F28802C0F60000C0F600023C2104F0E2
:103268000FFDB0B502AF054601F0F6FD03F016FC00
:10327800044603F006FCD5F89401C16B0269002AE4
:1032880009D40269002A5CBF0269002A03D40269D2
:10329800B2F1FF3FF2DCC2684FF6FF63CBF6FF7373
:1032A8001A4002F18042C2600269002A09D4026908
:1032B800002A5CBF0269002A03D40269B2F1FF3F09
:1032C800F2DC026942F0010202610269D20709D008
:1032D8000269D2071CBF02695FEAC27202D00269A2
:1032E800D207F2D1826BB1F5045F42F48032826377
:1032F80009DBB1F5405F15DAB1F5045F16D0B1F519
:103308000C5F13D01AE0B1F5885F18BFB1F5905F74
:1033180041D1816B41F400118163816B21F4E0118B
:1033280081630BE018BFB1F5445F07D1816B21F4CD
:1033380000118163016841F0C0010160002141F67C
:103348000302C0F8001ED0F8041841F00201C0F8CA
:103358000418D0F8001891430331C0F8001801216F
:10336800C0F8101843F61001C8F2040181614FF04B
:10337800FF314161816841F001018160D0F8041892
:1033880021F00201C0F80418E00718BFB0BDBDE87D
:10339800B04003F078BBB1F5005FC7D0CEE7F0B519
:1033A80003AF2DE9000FD7E904A98C46D7E902E855
:1033B80003F07F015FEA0C6308D082B10122032980
:1033C8001BD905211046BDE8000FF0BD72B10122DE
:1033D800032922D905211046BDE8000FF0BD90F859
:1033E8008C21910714D4022301212DE090F88D211E
:1033F80091071ED40223012186E090F88C3102FA4D
:1034080001F4234278D005211046BDE8000FF0BD35
:10341800510713D40423022116E090F88D3102FAE3
:1034280001F4234200F0B88005211046BDE8000FE2
:10343800F0BD510763D40423022165E011074FF062
:10344800030100F1A48008231A4380F88C2100F5B9
:10345800BC7232F811302BB1012205211046BDE8AB
:10346800000FF0BD032313FA8AF5B0F87861102332
:103478004FEA950EBEF1100FB0F87AE1B0F886C1A8
:10348800B0F884B17644B0F8704188BFAB08B0F8A2
:103498007C51B0F87EE11C443544B0F88081754415
:1034A800B0F882614544B0F888E135445D4405EBE5
:1034B8000C06764414FA86F61E36B6F5A07F2FD889
:1034C80022F8113001EB4103002200F8232000EB21
:1034D8008300502361F07F01C370FB684371BB68B0
:1034E800A0F8012080F809900172A0F806A00371E5
:1034F8001046BDE8000FF0BD43EA0402A5E7110736
:103508004FF0030143D408231A4380F88D21032286
:1035180012FA8AF4D0E95B6303EB9402B24205D94C
:10352800012204211046BDE8000FF0BDA608D0F81E
:103538007441D0F86851A64288BF3446C0E95C247B
:10354800C1EBC10205EB830300EB8200502280F837
:103558006F200022C0E920621E0E80F87C301B0A12
:10356800A0F86D20826780F86C2080F8759080F84C
:103578007410A0F872A080F8718080F870E080F86C
:103588007F60A0F87D301046BDE8000FF0BD012235
:103598001046BDE8000FF0BD43EA0402B5E7D0B518
:1035A80002AF537A012B07D1137A012B02BF90F88F
:1035B8004C3054889C4200D0D0BD9379212B04BF55
:1035C8009288072A27D0088840F002000628F3D1FD
:1035D800C86809220A800068BFF35F8FE0B38A7C5D
:1035E80012F07C0F07D10C4611464FF0A040012283
:1035F80002F004FE214688690068BFF35F8F58B364
:10360800897F11F07C0FD7D14FF0A0400122BDE88F
:10361800D04002F0F3BD0A88042A18BFD0BDCA887A
:10362800002390F80CC0012490F80DE0072AC1F897
:10363800AC30837B8068486208460C8081F828306B
:1036480081F829E081F82AC028BF0722C1F8B020F4
:10365800BDE8D040FDF73BB848F6486048F66C62D4
:10366800C0F60000C0F60002222104F009FBD0B524
:1036780002AF537A012B07D1137A012B02BF90F8BE
:103688004C3054889C4200D0D0BD9379002B59D03F
:10369800202B0ED0222B2CD112780B8802F001049B
:1036A80080F84E40C2F34002062B80F84F20EBD141
:1036B8004BE0D1F8B020812A75D2062A19D991F8A1
:1036C800282091F8294091F82AE0032A4B6AB1F89A
:1036D80000C083604FF0000380F80CE028BF1A4652
:1036E800052C827338BF2346BCF1060F4373CBD138
:1036F8002BE0088840F002000628C5D1C8680922D6
:103708000A800068BFF35F8F002841D08A7C12F0DE
:103718007C0F07D10C4611464FF0A040012202F061
:103728006DFD214688690068BFF35F8F80B3897F8C
:1037380011F07C0FA8D14FF0A0400122BDE8D04085
:1037480002F05CBD088806289ED188690068BFF32E
:103758005F8FE8B191F91E20B2F1FF3F94DCD2B23D
:1037680002F07F02032A88BFD0BD02EB420200EBC1
:1037780082000279072A3FF487AF0C460121002214
:1037880002F047FBC0B2082804BF08202080D0BD43
:1037980048F6486048F66C62C0F60000C0F60002C1
:1037A800222104F06DFA48F628631146C0F600039A
:1037B8000020802204F0B4F980B56F4690F84620C6
:1037C800C9B2914218BF80BDBDE8804000F092B8F0
:1037D800F0B503AF2DE9000B86B090F84C60814638
:1037E8000024022588460846314602220223CDE9F4
:1037F8000054029402F023FEC0B2082876D1D9F80A
:103808001410002299F810000223002918BF012182
:10381800CDE90054CDE902104046314602F07FFD63
:10382800C0B2082862D149F240224046C0F60002E0
:103838002421032302F062FEC0B2082856D148F6BC
:1038480013324046C0F600022421022302F056FE3D
:10385800C0B208284AD10620A7F11E0207F81D6C3D
:10386800242199F84D60032307F81E0C404607F8F9
:103878001C6C02F043FEC0B2082837D10120A7F122
:103888001B0227F81B0C40462421032307F8196C58
:1038980002F034FEC0B2082828D109F128014046B8
:1038A800FCF7A2FCC1B2082920D1D9F820100022C7
:1038B80099F81C000A23002918BF0121CDE900222C
:1038C800CDE902104046314602F029FDC0B2082871
:1038D8000CD109F140014046FCF786FCC1B2082929
:1038E80004D109F134014046FCF77EFC06B0BDE87E
:1038F800000BF0BDB0B502AF88B000F10801CDE90A
:103908000010D0E90021D0E95635022A18BF00215D
:103918009D4202911AD189B3016C0968BFF35F8F88
:1039280000293ED090F94620B2F1FF3F0BDCD2B21D
:1039380002F07F02032A06D802EB420201EB820161
:103948000A79072A1FD1052008B0B0BD02AB07933A
:1039580001AB06936B46028F0593092988BF013A8C
:1039680000F1D80103A805AB92B2FDF709FA9DF85A
:103978000C0098B19DF80D0008B0B0BD00210160A1
:10398800082008B0B0BD04460846012100220125E0
:1039980002F03FFAC0B2082801D12560002008B023
:1039A800B0BD48F6486048F66C62C0F60000C0F644
:1039B8000002222104F064F9F0B503AF2DE9000FED
:1039C8008BB00D460446F9689846286892465BB164
:1039D800002840F0D880B86807906879069000F110
:1039E8000100687139B90CE0002900F0BD80002899
:1039F80040F0C980687939690591411CC0B2697184
:103A0800049095F804B0A8680BF101012971002809
:103A180040F0B3804FF0FF300821A860FF2005F187
:103A28000C06CDE9021006208021009030460022C5
:103A3800FFF7B5FCAA68C00702F10102AA6040F0CE
:103A4800A8802868002840F0928095F80490002A01
:103A580009F10100287140F090804FF0FF30099182
:103A6800A8600020CDE902A0052000903046002182
:103A78000022FFF794FCAA68C00702F10102AA60BD
:103A880040F09B80002A78D152464FF0FF30CDF8A5
:103A980020809046A8600020CDE9028005208A4653
:103AA8000090304680210022FFF779FCC00701BF53
:103AB80084F844B084F8459040F2FF60A4F82700E9
:103AC80001BF099884F826000820A08401BF05F5E5
:103AD800D2724FF4A063A4F83F3084F83E1001BFBF
:103AE800A4F83C80A263A4F8333084F832A001BF64
:103AF800A4F83080E262A968069B01BFA360089B16
:103B0800E360079B01BF2361049B6361FB6801BFFE
:103B1800A361059BC4E90732013101BFA9600021F7
:103B2800A4F84610A17101BFA0804FF41650206080
:103B38000BB004BFBDE8000FF0BDA86849F27013D0
:103B4800A7F11D0207F81D1C0130A86049F290106A
:103B5800C0F60003C0F600000F21009049F2801063
:103B6800C0F6000004F04FF800283FF44AAF49F2CD
:103B78006010C0F6000003F0A7FF49F21010C0F66D
:103B8800000003F0A1FF49F25010C0F6000003F056
:103B98009BFF49F2A01049F27013C0F60000A7F18C
:103BA8001F02009049F2801007F81F1CC0F60000A1
:103BB800C0F600030F2104F026F849F2901049F2EC
:103BC8007013C0F60000A7F11E02009049F28010A1
:103BD80007F81E1CC0F60000C0F600030F2104F011
:103BE80012F880B56F46007849F244220B4649F234
:103BF800E421C0F60001C0F6000251F8201052F886
:103C080020201846BDE8804003F097BBF0B503AF0D
:103C18002DE9000F87B005460868002840F0868027
:103C280091F804B00C4688680BF101012171002855
:103C380076D1D7F808804FF0FF30A060402004F11B
:103C48000C069246CDE90208062000903046002175
:103C580000229946FFF7A3FBA268C00702F1010200
:103C6800A26069D1002A5BD14FF0FF30059141462F
:103C7800A0604020D046CDE902014FF0060A304648
:103C880080210022CDF800A0FFF789FBC00701BF03
:103C980085F8ADB0C5E9298985F8A0A0BA6801BF43
:103CA80085F89F2085F89E104023A5F89C3001BF19
:103CB80004F5D270C5F8980085F894A085F893208B
:103CC80001BF059985F89210A5F89030C5F88C00C9
:103CD80001BF022085F8AC00A068002101BF85F86B
:103CE800891029600130A06002BF07B0BDE8000F4D
:103CF800F0BDA06849F27013A7F11D0207F81D1C5A
:103D08000130A06049F2A010C0F60003C0F6000020
:103D18000F21009049F28010C0F6000003F073FFF5
:103D280049F21010C0F6000003F0CEFE49F2601010
:103D3800C0F6000003F0C8FE49F2A01049F2701363
:103D4800C0F60000A7F11E02009049F2801007F8A3
:103D58001E1CC0F60000C0F600030F2103F053FF3D
:103D6800D0B502AF90F8AD3054889C4209D1537A4F
:103D780092F806C0012B05D0002B08BFBCF1060F36
:103D880032D0D0BDBCF1010F18BFBCF1020F48D131
:103D9800088840F002000628F3D1C86809220A8082
:103DA8000068BFF35F8F002800F085808A7C12F0DE
:103DB8007C0F07D10C4611464FF0A040012202F0BB
:103DC8001DFA214688690068BFF35F8F002872D00A
:103DD800897F11F07C0F18BFD0BD4FF0A0400122A1
:103DE800BDE8D04002F00ABA5278212A2AD0222A05
:103DF80004BF0A88042AC4D10122D0E92903CC8847
:103E08004FF0000C0A8001F1A402A34238BF1C46FF
:103E180082E80910C1F8B0400846BDE8D040FCF778
:103E280056BCBCF1030FACD190F8AC000A8802284C
:103E38002ED142F002000628A3D10846BDE8D040A2
:103E4800FCF76EBF0A88042A9BD142F20122C3788C
:103E5800A1F8292042F20912C0F21012D0F8A800E5
:103E68004A620022C1F8AC200124CA8881F82B00DC
:103E7800000A0C80092A81F8283028BF0922C1F8D5
:103E8800B02081F82C000846BDE8D040FCF71FBCE4
:103E9800042A7FF476AFCA88012381F82400002021
:103EA8000B80002A18BF0122C1E92B020846BDE891
:103EB800D040FCF70CBC48F6486048F66C62C0F687
:103EC8000000C0F60002222103F0DAFEF0B503AFCD
:103ED8002DE90007A0B0137A012B16D190F8AD3068
:103EE80056889E4211D19379092B12D00A2B00F0E3
:103EF800AC800B2B04D190F8AC30022B40F09D80A5
:103F0800088840F0020006281DD020B0BDE8000750
:103F1800F0BD158840F2041C94880426B5F5806F1E
:103F28006FF00703C0F2023C03EA551238BF2CFABF
:103F380002F6802C31D90A88002380F8893042F0B3
:103F480002000628E1D1C86809220A800068BFF388
:103F58005F8F002800F0A4808A7C12F07C0F07D1C4
:103F68000C4611464FF0A040012202F047F92146C5
:103F780088690068BFF35F8F002800F09180897F0F
:103F880011F07C0FC1D14FF0A040012220B0BDE854
:103F98000007BDE8F04002F031B98146884668461E
:103FA800802104F06CFBD8F8B020812A80F083804F
:103FB800A242C0F08980EA4608F124015046224610
:103FC800EDB204F00EFB09F104005146802204F022
:103FD80008FBB8F8000089F88960062889F8885035
:103FE800C9F8844091D1D8F8180041460068BFF359
:103FF8005F8F002854D091F91E10B1F1FF3F3FF7B1
:1040080084AFC9B201F07F0103293FF67EAF01EB0F
:10401800410100EB8100017907293FF476AF0121C6
:10402800002201F0F6FEC0B2082804BF0820A8F854
:10403800000020B0BDE80007F0BD83782BB91278E6
:10404800002A18BF012280F8AC20088806287FF4CF
:104058005CAF88690068BFF35F8F08B391F91E20D1
:10406800B2F1FF3F3FF751AFD2B202F07F02032A0D
:104078003FF64BAF02EB420200EB82000279072ABF
:104088003FF443AF0C460121002201F0C2FEC0B24A
:10409800082804BF0820208020B0BDE80007F0BD34
:1040A80048F6486048F66C62C0F60000C0F60002A8
:1040B800222103F0E5FD48F628631146C0F6000307
:1040C8000020802203F02CFD49F230230020C0F6A6
:1040D8000003214603F024FDB0B502AF84B00546C5
:1040E8000C460378032295F8AD10407800902046DE
:1040F80002F0A6FBC0B208282CD1D5F8A81042F2CD
:10410800012027F80C0C4FF48872E878072327F869
:104118000F2CA7F10F0207F80D0C080A07F80A1C64
:10412800212107F8090C204602F0E8F9C0B2082856
:1041380010D195F89400072807D005F18C01204686
:10414800FCF752F8C1B2082904D195F8A000072855
:1041580002D1082004B0B0BD05F198012046FCF753
:1041680043F804B0B0BDF0B503AF2DE9000F85B03A
:104178001E469246884683464FEAC20982B14D469A
:104188004446D4E9000132464B6A59469847BBF881
:10419800000040F0020006282CD10834083DF0D178
:1041A800707A58B3BBF8000040F00200062821D10D
:1041B800DBF80C000921ABF800100068BFF35F8F33
:1041C800002800F0D9809BF8121011F07C0F04D160
:1041D8004FF0A040012202F011F8DBF81800006847
:1041E800BFF35F8F002800F0C7809BF81E1011F006
:1041F8007C0F1DD005B0BDE8000FF0BD317AB07955
:1042080002294DD001291CD00029CBD1002868D023
:10421800062856D00828C5D19BF88E0201210491A2
:10422800A7F1260102380391B0FA80F0400998E01E
:104238004FF0A040012201F0E1FF05B0BDE8000FFA
:10424800F0BDB0B30A28ADD17588FF2D0DD9BBF8E4
:10425800000040F002000628CCD1584605B0BDE861
:10426800000FBDE8F040FCF75BBDB9F1000F72D05C
:10427800F8E802014A6B29469047A9F10809C007E6
:10428800F3D0012007F8261C0490A7F1260003A903
:1042980003905846FCF7BFFC05B0BDE8000FF0BD21
:1042A80000287FF47FAF708810F00C0F28D0012011
:1042B80037E0BBF8000004289CD10020ABF82400AC
:1042C80037E07188524630885B46CDE900010BF132
:1042D800B400414600F060F9C0B208283FF462AF6C
:1042E80088E79BF88C0202229BF88D120492A7F1B2
:1042F800260240000392C0B2084327F8260C32E099
:1043080040F6001142B200F00700C5F20001B2F118
:10431800FF3FC8BF01F5007141EA40100068C0F3D3
:104328004050BBF8001004297FF464AFABF82400B8
:104338000020BBF806100122ABF80020022928BF94
:104348000221CBE92B015846FCF7C1F9C0B2082875
:104358003FF428AF4EE701200490A7F12600039010
:10436800002007F8260C03A95846FCF754FCC0B2F5
:1043780008283FF417AF3DE748F6486048F66C62F6
:10438800C0F60000C0F60002222103F079FCD4D464
:10439800F0B503AF2DE9000F81B01E46894683466C
:1043A8004FEAC20A82B155464C46D4E9000132466A
:1043B8000B6A59469847BBF8000040F002000628EF
:1043C8002CD10834083DF0D1707A58B3BBF80000FE
:1043D80040F00200062821D1DBF80C000921ABF8D7
:1043E80000100068BFF35F8F002800F0CA809BF8B8
:1043F800121011F07C0F04D14FF0A040012201F0FF
:10440800FDFEDBF818000068BFF35F8F002800F09E
:10441800B8809BF81E1011F07C0F20D001B0BDE8C9
:10442800000FF0BD317AB079B6F80080E9B3012900
:104438001FD00229CAD101284BD0032808BFB8F1E0
:10444800000FC3D1708810F00C0F40F0928000F07C
:1044580083014FF0A040012201F0D0FE89E04FF027
:10446800A040012201B0BDE8000FBDE8F04001F016
:10447800C5BE0B28AAD1768846EA0800FF2838D896
:10448800BAF1000F61D0F9E8020142468B6B314660
:104498009847AAF1080A0028F2D0584601B0BDE8AA
:1044A800000FBDE8F040FBF71DBF013808283FF6B4
:1044B8008DAFDFE800F0060539052D05050541003B
:1044C80084E7B8F1010F7FF481AF00208BF88C02EC
:1044D8004FE0B8F1000F7FF479AF708810F00C0F3F
:1044E80047D100F083014FF0A040002201F086FE82
:1044F8003FE0BBF8000040F0020006287FF48EAFD2
:10450800584601B0BDE8000FBDE8F040FCF708BC14
:10451800A8F1010080B27F28BFF458AFDBF8880209
:104528004146FDF7E4FD21E0B8F1010F7FF44EAFFD
:1045380001208BF88C021CE0B8F1000F13D0B8F101
:10454800010F7FF443AF022011E0B8F1000F10D043
:10455800BBF8000040F0020006287FF45FAF584621
:10456800FCF7DEFB32E79BF88E0210B101208BF8D6
:104578008E025846FBF7B6FEC0B208283FF426AFB5
:104588004CE748F6486048F66C62C0F60000C0F692
:104598000002222103F074FBF0B503AF2DE90007F8
:1045A8008AB0BD680E464FF0FF340190A9B204EB03
:1045B80011210E2952D8DFE801F008430D5151515D
:1045C80051515151515151514C0001A91846FCF714
:1045D8004CFBFEE029067AD0D7F80C905FFA85FCF0
:1045E800BCF1040F80F08A80D0F8C0110022A1EB42
:1045F800C1014FEA810E1EEB02062FD081181FFA67
:1046080089F50C8BAC4200F0CA8016F11C0425D049
:104618008C8EAC4200F0C08016F138041ED0B1F880
:104628005040AC4200F0BA8016F1540416D0B1F8EC
:104638006C107032A942DED11044A0F11C01AEE02A
:1046480001A802A902901846CDE90362FCF762FAB4
:10465800BFE0B0F8CA01B0F5007F29D1188840F052
:104668000200062840F0C580D86809211980006832
:10467800BFF35F8F002800F0C180997C11F07C0F98
:1046880006D14FF0A04001221C4601F0B7FD234699
:1046980098690068BFF35F8F002800F0AF80997FAA
:1046A80011F07C0F09D008200AB0BDE80007F0BD62
:1046B80018463146FCF7E6F88BE04FF0A04001229F
:1046C80001F09CFD08200AB0BDE80007F0BDD0F855
:1046D800C0110022CDE90822CDE906221029CDE932
:1046E8000422CDE902220A4628BF102200294DD013
:1046F80002F0030C042912D200222FE09846002A67
:104708006FD006EBC204D6E900014A464B69294638
:104718009847002857D10836A642F4D161E091089D
:1047280000F15008C900A1EB920100224FEA011ED6
:1047380002A9A1F108040021451838F80190703148
:10474800AE8E0432B5F86CA08E452D8B24F8085F28
:104758006680A4F80490A4F806A0EDD1BCF1000F7F
:1047680014D0C2EBC201BCF1010F00EB810002A919
:10477800068B21F8126009D001EB4201868EBCF14C
:10478800020F4E801CBFB0F85000888002A901AA11
:104798001846FCF751F91CE01C3100E03831984606
:1047A800BCF1010F09D0BCF1020F02D00422084667
:1047B80006E001F108000C2202E001F110001422C9
:1047C800006870B18958CDE9020102A94046FCF79A
:1047D800D7F8C0B2082808BF08200AB0BDE800070B
:1047E800F0BDB8F80000434640F0020006283FF448
:1047F8003BAF07200AB0BDE80007F0BD48F64860A7
:1048080048F66C62C0F60000C0F60002222103F0F0
:1048180037FAD4D4F0B503AF2DE9000F95B0D0F82E
:104828008842064607A8884615462146FDF77EFCBD
:1048380096F88E22BDF81C10032A0FD100294FF0DC
:10484800000018BF03290FD096F88F22042A00F021
:104858000881042086F88E2286F88F020020DFE87F
:1048680001F003113207030015B0BDE8000FF0BDD9
:10487800032086F88F2286F88E02002015B0BDE846
:10488800000FF0BD2046FEF78CFA00204FF480613F
:10489800002D86F8900286F88C02A6F88E123080D9
:1048A800E2D008EBC504A8F1080555F8080F6968B7
:1048B8008969884705F10800A042F6D1002015B0A3
:1048C800BDE8000FF0BDBDF82010BDF81E00BDF812
:1048D8002220CDE90401084340EA020906925FEA72
:1048E800C97048D00698C00726D10498C00708D0D8
:1048F80009A83146FBF72CFD9DF82D00052840F04E
:10490800A28004208DF839009DF8390004281BD0B6
:104918009DF83700F8B180282BD1DDE90C120FABD8
:10492800BDF83800CDE90F124146ADF844003046D5
:104938002A46FFF718FC1CE00CA83146FBF721FEBD
:104948009DF839000428E3D10598C0071CBF3046FC
:10495800FBF730FF0DE0DDE90C1212ABBDF83800B3
:10496800CDE912124146ADF8500030462A46FFF70D
:104978000FFD29F00109E800B9F1000FCDE9028522
:1049880001904BD00398002858D0DDE90110A0F120
:10499800080A01264FF0020B00EB01080220054629
:1049A800069854461BEA000F0AD054F8080F6168AD
:1049B8008A6A3146904704F108004045F5D10EE077
:1049C80004981BEA000F0AD0544654F8080F61688F
:1049D800CA6A3146904704F108004045F5D1059868
:1049E8001BEA000F0CD066F07F04564656F8080FF5
:1049F80071680A6B2146904706F108004045F5D1D9
:104A080029EA0B095FEA094008D0102D28464FEA29
:104A18004B0B2E4638BF01300F2DC0D9039868B113
:104A2800DDE90110A0F10805441855F8080F696878
:104A3800C969884705F10800A042F6D1012015B0E0
:104A4800BDE8000FF0BDDDE90912BDF82C00ADF896
:104A58003800CDE90C129DF8390004283FF474AFF2
:104A680056E749F2043049F22032C0F60000C0F699
:104A780000021C2103F0AAF8F0B503AF2DE9000FDE
:104A880085B00446886800287CD14FF0FF3092F842
:104A9800CFA18860002001F10C05CDE902A0032018
:104AA80090460E4600902846002101220023FEF77A
:104AB80076FC8946B168C00701F10101B16079D17E
:104AC80000295FD14FF0FF308021B0600020CDE990
:104AD80002A003200090284601228023FEF75FFCF5
:104AE800C0077BD1B3684FF44070326806F5D27BBB
:104AF800A4F81F00581C002AA177A4F81CA0C4F829
:104B080018B0B06044D14FF0FF310028316045D172
:104B18002846B160FEF7A5FBB0680130B06043D30A
:104B28004FF0FF308021B06004F12400BFF35F8FA5
:104B3800C6F8A451BFF35F8F03F0A1FD4FF4407096
:104B48004146A4F8130004F1B4004FF4EA72C4F823
:104B5800885284F81290A4F810A0C4F80CB003F09E
:104B680040FD0020042184F88E02C4E92B00C4F81B
:104B7800A4002080A4F88F12A4F88C0205B0BDE828
:104B8800000FF0BD49F21010C0F6000002F09CFFC3
:104B980049F22010C0F6000002F096FF49F23010EA
:104BA800C0F6000002F090FF49F24010C0F6000085
:104BB80002F08AFF49F2503049F23033C0F6000063
:104BC800A7F11E02009049F26420C0F60000C0F66A
:104BD8000003202107F81E9C03F015F8B06849F27D
:104BE8003033A7F11D0207F81D1C0130B06049F2EF
:104BF8004030C0F60003C0F600002021009049F2C2
:104C08006420C0F6000002F0FEFF80B56F46007811
:104C180049F244220B4649F2C031C0F60001C0F601
:104C2800000251F8201052F820201846BDE88040B4
:104C380002F083BBD0B502AF86B000248DE8130024
:104C480049F2E031C0F60001684602F0ABF810B155
:104C5800204606B0D0BDDDE90102824202D92046D5
:104C680006B0D0BD009903A802F01AFE0599DDE947
:104C78000304002818BF0024204606B0D0BDF0B5B4
:104C880003AF4DF8048D82B000228029019207D22B
:104C98008DF804100125D0E90116B1422AD252E05C
:104CA8004FF6FE760B46C0F2FF368A0966F39F136D
:104CB800B1F5006F0BD242F0C0018DF805308DF8C8
:104CC80004100225D0E90116B14213D23BE066F385
:104CD8009F120D0BB1F5803F22D245F0E00103256C
:104CE8008DF806308DF805208DF80410D0E90116EE
:104CF800B14228D38A1B0168002480468B1901A978
:104D0800AA4228BF2A46184638BF012403F00EFDE0
:104D18007019C8F80800204602B05DF8048BF0BD91
:104D280066F39F156FF00F0444EA91418DF8055022
:104D38008DF8073004258DF806208DF80410D0E989
:104D48000116B142D6D20124204602B05DF8048B88
:104D5800F0BD80B56F4613460A4649F2E031C0F609
:104D68000001BDE8804002F01DB8F0B503AF4DF872
:104D7800048DD0E90135AB4204D2012420465DF808
:104D8800048BF0BDD0F800C05B1B934228BF1346CC
:104D9800AC444FF000048046164660461A4638BFB9
:104DA800012403F0C3FCA819C8F8080020465DF8E0
:104DB800048BF0BD00684DF68362C4F21B32A0FB81
:104DC8000202900C48434FF47A714843002808BF08
:104DD800704780B56F464EF210016FF07F4CCEF2EF
:104DE80000014FF0000E05E00B68801A23F0010364
:104DF8000B6019D06FF07F42604538BF02464A60A9
:104E0800C1F808E00B6843F001030B600B68DB0393
:104E1800EAD40B68DB035CBF0B685FEAC333E3D4F7
:104E28000B68DB03F2D5DFE7BDE88040704780B54B
:104E38006F46002200F030F880BDB0B502AF40F2F6
:104E480000240125C4F24724C4F8005401F023FECD
:104E5800002025602060B0BDF0B503AF4DF804BD5B
:104E680001F01CFE044601F00CFE40F29C250126D0
:104E7800C4F24725C5F8006401F00DFE00202E603D
:104E88002860E00705D15DF804BBBDE8F04001F0FB
:104E9800FABD5DF804BBF0BDF0B503AF2DE9000F16
:104EA80099B010928A46D1E9002142F2004BC0F233
:104EB800F40B0B90002ADAE9083018BF8B46B0EBE8
:104EC8000B0118BF01210F9219400D912AD09AF8B1
:104ED800391001230C91DAE90A68CDE9000111A81B
:104EE8005946DAE90C4500F09BFCA5EB080104EAF9
:104EF8000600B1FA81F12B46490908400E9016A820
:104F080018BF00245946224600F018FC11980228C0
:104F180018BF5FEAC07057D149F2F830C0F60000F8
:104F280002F067FE9AF8390059460C900023019068
:104F380011A8DAE90A86DAE90C4500F071FCA91B28
:104F480004EA0800B1FA81F12B46490910EA01097F
:104F580016A818BF00245946224600F0EFFBCDF8EA
:104F68003890B9F1000FDDF86090DDF858C018BF2F
:104F7800B146464608BF8CF001061198DDE9134397
:104F8800B0F1020E0CBF74464FF0010EDAE90220B0
:104F98000A93002A08BF5846002800F0E481ABF1C4
:104FA8000101CDE908644218B2FBF0F0012835D0C0
:104FB800022830D0002800F0B581C21E032A5ED234
:104FC80004204FF090082BE00E984FF0010EDDE919
:104FD80012B4149B0028DDF858C0DDF8609014BFA7
:104FE800C1468CF0010610980028CFD1ABF1B770FC
:104FF8004AF60132A0F55850C0F287429042C5D314
:1050080049F2084049F26442C0F60000C0F60002C6
:105018005C2102F035FE4FF0800801E04FF00008F7
:1050280090FAA0F04FF28002B0FA80F0DAE9044674
:10503800C0F2FA222BFA00F5954238BF2A46002C16
:1050480018BF3246002A00F09481681E1418B4FB79
:10505800F2F6012E10D0022E0AD0002E00F06D813B
:10506800F21E032A13D2042402264FF4A0531AE096
:1050780002244FF4805316E00124002313E0821F1A
:10508800062A80F0098108204FF0A008C8E7B41F5D
:105098004FF4E053062C4FF0100438BF4FF4C053C0
:1050A80038BF0824022694FAA4F4B4FA84F425FA42
:1050B80004F2109C34B94FF28104C0F2FA24A242DF
:1050C80080F01A814EF20014CDE90613CDE9046987
:1050D800C0F2F554DAE90661A54238BF2C46002E25
:1050E80018BF0C46002C00F04A8120440392B0FB04
:1050F800F4F6012E12D0022E0BD0002E00F02881DB
:10510800F01E624603280DD2042402264FF42040E4
:1051180013E0624602244FF400400EE06246012488
:1051280000200AE0B11F4FF460401024062938BF60
:105138004FF4404038BF0824022694FAA4F1B1FA8B
:1051480081F125FA01F9109931B94EF20111C0F235
:10515800F551894580F0DB80069945F2C743C0F2D6
:105168001E1343F60004C4F20204C909A1FB031389
:10517800D4F8001409099B0A61F31F1343F4E06192
:10518800C4F800140F99A1B19AF83810236843EABB
:10519800814141F4803121602168890309D4216863
:1051A80089035CBF21685FEA813102D421688903E1
:1051B800F2D5BEF1000F10D0216841F08071216056
:1051C8002168890109D4216889015CBF21685FEAE7
:1051D800811102D421688901F2D5002A4AD0A16838
:1051E8000E9B21F4000163F3D751A1600799A268CF
:1051F80041EA080108434FF6F04122EA0101084359
:10520800A060102001F041FCA0680D9920F0030077
:1052180000290F9918BF02210844A060DDE909237D
:105228000C9888B1002A5CD046F60040A3F137718B
:10523800C0F2DC20C01A38BFA1F5D8404DF2C141F8
:10524800C0F2010188424CD2DDE9034009FB06F1B6
:105258000B9E6043C6E9081B0899B1600599C6E929
:105268000023C6E90315C6E90549F06119B0BDE890
:10527800000FF0BD216841F08061216021680901BB
:10528800ADD4216809015CBF21685FEA0111A6D489
:1052980021680901F2D5A2E7A0F10C021C2A03D269
:1052A80010204FF0B008BBE6A0F12802382A03D23C
:1052B80040204FF0C008B3E6A0F16002602A03D294
:1052C80080204FF0D008ABE6C0384FF0F008C02877
:1052D8004FF4007038BF4FF0E00838BF4FF48070CB
:1052E8009EE649F2845049F2B052C0F60000C0F67A
:1052F80000022C2102F0C4FC49F2DC4049F21052B1
:10530800C0F60000C0F60002312102F0B9FC49F2F3
:10531800405049F27452C0F60000C0F60002312134
:1053280002F0AEFC49F2844049F2AC42C0F60000FB
:10533800C0F60002282102F0A3FC49F2844049F299
:10534800CC42C0F60000C0F60002282102F098FC0A
:1053580049F2844049F23052C0F60000C0F600021B
:10536800282102F08DFC49F27440C0F6000002F0DA
:1053780068FC49F2BC40C0F6000002F062FC49F249
:105388002050C0F6000002F05CFCF0B503AF2DE938
:10539800000F87B0002A00F0B8810C468A4200F25C
:1053A800BA814EF6013A41F6007BB4FBF2FEC1F237
:1053B800C93A4FEA5E05CFF60A2B002B03940DD4A9
:1053C80005EB4301B1FBFEFC0CFB0EB1514505D2C8
:1053D8000CFB0EF103264FF0020834E00321A3FB77
:1053E8000116F6B92944B1FBFEFC0CFB0EB1514580
:1053F80005D20CFB0EF104264FF0030823E0002130
:10540800B1EB937F0DD105EB8301B1FBFEFC0CFBE7
:105418000EB1514505D20CFB0EF105264FF00408DC
:1054280011E00521A3FB0116002E40F082802944DB
:10543800B1FBFEFC0CFB0EB151457AD20CFB0EF110
:1054480006264FF005080595A3FB0645B1FBF8F1C4
:1054580006F101090691C91A48BF4942002D51D1E8
:10546800059D2C44B4FBFEF404FB0EB5554549D20A
:1054780004FB0EF5B5FBF6F5B5EB030B48BFCBF116
:10548800000B594538BF8B46069988BF29460691B7
:1054980084BFB046A446059DB9F1070F37D0A3FBDA
:1054A8000914002C06F10204029440F08380294478
:1054B8005446B1FBFEFA41F60071CFF60A210AFB09
:1054C8000E11A14227D20AFB0EF15C46B1FBF9F599
:1054D800E91A48BF49428B4588BF0C460494069C8C
:1054E80088BF2C46069438BF594688BFC84688BF2F
:1054F800D4464EF6013AC146C1F2C93A029C072C7D
:1055080014D05DE08B46059DB9F1070FC7D1CDF8E2
:1055180010B0C146BAE04EF6013A5946CDF810B07F
:10552800C1F2C93AC146029C072C49D18B46059D58
:10553800ACE00621A3FB0116D6B92944B1FBFEFC59
:105548000CFB0EB1514513D20CFB0EF14AF6AB24FD
:10555800CAF6AA244FF00609A1FB0414A108B1EB6E
:10556800030B069148BFCBF1000BCDF810B08DE0CE
:105578000721A3FB0116002E40F0D5802944B1FB7A
:10558800FEFC0CFB0EB1514580F0CD800CFB0EF1FA
:1055980044F62516C2F292464FF00709A1FB0656BB
:1055A800891B06EB51018D08B5EB030848BFC8F10C
:1055B800000898E05946CDF810B0C146072CB5D080
:1055C800A3FB045441F6007B06F10308CFF60A2B2F
:1055D800CDF80490002C51D1059EAC193546B4FB8A
:1055E800FEF606FB0EB4544520D206FB0EF4029DCF
:1055F800B4FBF5F5B5EB030948BFC9F10009049CF4
:10560800494588BF4C460494069C88BF2C4606949E
:1056180038BF8946DDE9014188BF0C46019488BF3F
:10562800B446059DB8F1070F04D12CE08946B8F1BE
:10563800070F28D0A3FB08142CBB2944B1FBFEF1AB
:1056480001FB0EB454451ED201FB0EF4B4FBF8F571
:10565800B5EB030B48BFCBF1000B049CD94588BFC1
:105668005C460494069C88BF2C46069438BFCB46FB
:10567800DDF8049084BFC1468C4658E78946059DED
:10568800B8F1070FD6D1CB46DDF804900721A3FB6C
:105698000114B4BB039CA2423FD8294441F60074CC
:1056A800B1FBFEF1CFF60A2401FB0E44DDF81080B1
:1056B800544517D201FB0EF644F62515C2F2924561
:1056C800A6FB0554361B04EB5606B608F31A48BF6A
:1056D8005B42069D9B4581BF984635468C464FF0F8
:1056E800070900E0069D00218273D2B2C0F810803D
:1056F80080F80F90A0F80CC026C007B0BDE8000FD6
:10570800F0BD069DDDF81080EDE749F2C050C0F607
:10571800000002F096FA002B05D449F2D050C0F6EA
:10572800000002F08EFA49F2E05049F20862C0F631
:105738000000C0F60002252102F048FAF0B503AFD8
:105748004DF8048D98B08046D007019156D04DF69B
:1057580083600293C4F21B30A1FB002648F27F420B
:10576800C0F21E020A44A2FB0002D50CB5EB964F0C
:105778004BD807A82A46FFF708FE0798022844D006
:10578800B00C07AE0DF1380C0B9C4ECE854216902E
:1057980007A88CE84E0002A90DAA149101A913913B
:1057A8004FF0000112940D9428BF01218DF85C1070
:1057B80013A938BF0135159500F04CFA07AE0DF165
:1057C8000C0C4FCE88E80E008CE80F0043F68400DE
:1057D800C4F2020048F200020168C8F6FF7206F03F
:1057E800E0631140C6F3054266F38E1242EA0312E3
:1057F8001144016018B05DF8048BF0BD0120C8F8B1
:10580800000018B05DF8048BF0BD49F2186049F249
:105818004062C0F60000C0F60002272102F0D6F967
:10582800F0B503AF2DE9000F89B08246D7E902CB66
:10583800D80708BF8C46BBF1000F08BF002824D04A
:105848004DF683630692C4F21B33BCF1000FA1FB33
:10585800032048F27F42C0F21E0201EB0204A4FBBF
:10586800033600F0D9814FEA904E4FF68010F50CC0
:10587800C0F2373084451AD94CF60040C1F6BF1043
:10588800B0FBFCF020F0010312E0022043F6040113
:10589800CAF8000043F21000C2F20040C4F202014C
:1058A80062F39650086009B0BDE8000FF0BD082308
:1058B80003FB0CF9BBF1000FCDF81C901CBF46F69A
:1058C8000049C0F2DC29754500F2AC814FF00000B8
:1058D80002F1010238BF01209442C0F091818D424B
:1058E800089300F2938144F240287545C0F20F08EE
:1058F80032D22C1874452FD8B1FBF5F07445B9FB9A
:10590800F0F202FB109214D2002C00F079818C4244
:1059180000F27C81B1FBF4F3601CB9FBF3F606FBE3
:1059280013939A4228BF1A4688BF254604468645DF
:10593800EAD14145C0F06481B1FBFEF0B9FBF0F358
:1059480003FB1090824208D8AE4635B949F2906000
:10595800C0F6000002F075F9AE46B1FBFEF108F1A1
:105968000102A1F57420A0F51070904280F03D81ED
:10597800DDE90708BBF1000F00F0F380B8F1000F74
:1059880000F062814FF2004048F60003C1F2064081
:10599800C1F22A13B0FBF1F0B3FBF1F300FB01F203
:1059A8004CF60040C1F6BF10B0FBF1F64BF2000018
:1059B800C0F6713003FB01F4B0FBF1F0029200FB7A
:1059C80001F544F62510C2F29240A2FB0002CDF880
:1059D80014A04E43079241F60042C0F64E62B2FB55
:1059E800F1F04843B0FBF8F3BCEB030843F234335F
:1059F800C3F2333348BFC8F100080494A0FB03097D
:105A080046F200034AF6AB20C2F6AA20A4FB000B1C
:105A1800C1F2E36308980024B5FBF0F0BCEB000A80
:105A2800B3FBF1F048BFCAF1000AC2454FF00003CA
:105A38000190D8BF0123B9EB950F4FEA950098BFA5
:105A4800012481454CF21D70C1F6714008BF1C4607
:105A5800A6FB0003002C1CBF4BF20002C0F67132FB
:105A680048F60004C1F22A1403931CBF4FEA9509B3
:105A7800D0460898049BB3FBF0F00023BCEB00056C
:105A880048BF6D420198A845049600FB01FA4FF003
:105A98000000D8BF0120CB4598BF012308BF0346AB
:105AA800002B1EBF1446CB464546DDF820800298E1
:105AB80000234FF20049B0FBF8F0C1F20649BCEBF5
:105AC80000024FF0000048BF5242079E9542D8BFDF
