:020000040800F2
:100000000000022099010008137800080D950008EF
:100010001378000813780008137800080000000027
:10002000000000000000000000000000137800083D
:100030001378000800000000137800081378000807
:100040001378000813780008137800081378000864
:100050001378000813780008137800081378000854
:100060001378000813780008137800081378000844
:100070001378000813780008137800081378000834
:1000800013780008137800081378000800000000B7
:1000900000000000000000000000000013780008CD
:1000A0001378000813780008137800081378000804
:1000B00013780008137800081378000813780008F4
:1000C00013780008137800081378000813780008E4
:1000D0001378000813780008137800080000000067
:1000E0001378000813780008137800080000000057
:1000F000000000000000000000000000137800086D
:100100000000000013780008137800081378000836
:1001100000000000000000000000000000000000DF
:100120001378000813780008137800081378000883
:10013000137800080000000000000000000000002C
:10014000000000000000000000000000137800081C
:100150001378000813780008137800081378000853
:100160001378000813780008000000000000000069
:10017000000000000000000000000000000000007F
:1001800000000000137800080000000000000000DC
:08019000137800081378000841
:1001980007F03EFB0E480F490022814201D004C0FF
:1001A800FBE70D480D490E4A814202D008CA08C033
:1001B800FAE70C484FF47001026842EA0102026053
:1001C800BFF34F8FBFF36F8F05F0E4FB00DE000035
:1001D8000000002004100020000000200000002083
:1001E800E8A9000888ED00E0D0B502AF018806292B
:1001F80017D181690968BFF35F8F01B390F91E2099
:10020800B2F1FF3F0BDCD2B202F07F02032A06D81C
:1002180002EB420201EB82010A79072A03D1052089
:10022800D0BD0720D0BD044608460121002206F0B3
:10023800A4FCC0B2082804BF08202080D0BD49F61D
:10024800784049F69C42C0F60000C0F60002222120
:1002580008F0FCFBF0B503AF4DF8048D86B00A88B2
:10026800531E032B54D3052A52D0072A78D1D1F82C
:10027800AC50D1F806604A89802DD1F80230ADF82B
:100288000C20CDE9013600F2ED80CA681268BFF390
:100298005F8F002A00F0DB808B7C032B08D8C3EB30
:1002A800C30302EB830494F87020072A40F0A2806D
:1002B8000E4640F20151ADF810109DF811100029BA
:1002C80048D0F168092232800968BFF35F8F00299E
:1002D80000F0BD80B17C11F07C0F06D104464FF0D0
:1002E800A040012206F03EFE2046B1690968BFF32E
:1002F8005F8F002900F0AB80B17F11F07C0F29D10E
:1003080004464FF0A040012206F02CFE204621E0D2
:10031800CA681268BFF35F8F002A00F098808B7C50
:10032800032B2ED8C3EBC30302EB830292F8703081
:10033800072B26D00C4602F16C0104AA06460023BE
:1003480000251046012206F022FD9DF810103046C7
:10035800D1B925800421417206B05DF8048BF0BD47
:10036800CA681268BFF35F8F002A70D08B7C032B9A
:1003780007D8C3EBC30302EB830292F87030072B54
:100388000BD105218DF811109DF81110052242722C
:10039800017006B05DF8048BF0BD0D4602F16C01EA
:1003A80004AA044600231046012206F0F0FC9DF83A
:1003B800101020460029E7D1E96809232B80096835
:1003C800BFF35F8F002942D0A97C2A4611F07C0F29
:1003D80006D14FF0A040012206F0C4FD2A4620466F
:1003E80091690968BFF35F8F89B3917F11F07C0F22
:1003F800B0D186E70E46294401F1240204F16C01CC
:1004080004ACC5F180038046204606F0C0FC9DF888
:100418001010404600297FF450AF059A5119A9429F
:1004280029D3812927D2D6E92B131144C6F8AC1059
:1004380099428FD3DDE901120625BDF80C303580CD
:1004480001604260038106B05DF8048BF0BD49F697
:10045800784049F69C42C0F60000C0F6000222210E
:1004680008F0F4FA49F6B8332846C0F600038021AC
:10047800802208F03BFA49F6A8332846C0F6000364
:10048800802208F033FAF0B503AF2DE9000F83B0EE
:100498000446C8680068BFF35F8F002800F08580B5
:1004A8008A7C032A21D8C2EBC20200EB820090F8B2
:1004B8007020072A19D000F16C0201F124050E46BC
:1004C800684611462A46802306F061FC9DF8000024
:1004D80001280AD0019A812A72D26846294607F073
:1004E80050F99DF80900042805D10420607203B072
:1004F800BDE8000FF0BDF168BDF808A09DF80750F1
:100508009DF80690BDF804B0DDF800800968BFF3D7
:100518005F8F002949D0B17C304611F07C0F05D19E
:100528004FF0A040002206F01DFD3046BDB1042169
:10053800A0F80AA0457280F80890A0F806B0C0F8A4
:1005480002800180A4F808A0E57184F80690A4F858
:1005580004B0C4F8008003B0BDE8000FF0BDBBF1E3
:10056800000F11D0BBF1800FBFD80021A0F80AA05E
:10057800C0E92B1B4172072180F80890A0F806B04B
:10058800C0F802800180B0E70621A4F808A0018025
:100598000021C0F8B010E17184F80690A180C4F879
:1005A800008003B0BDE8000FF0BD49F6784049F679
:1005B8009C42C0F60000C0F60002222108F046FA6C
:1005C80049F6C8331146C0F600030020802208F01F
:1005D8008DF9F0B503AF4DF804BD0246D0E92934D2
:1005E800D0F8AC00D2F8B010002B958B08BF80244F
:1005F800091AA94238BF0D46291844D2A14242D847
:1006080091690968BFF35F8F002943D092F91E6092
:10061800002B08BF02F12403B6F1FF3F0CDCF6B251
:1006280006F07F06032E07D806EB460601EB860C7C
:100638009CF80410072903D105205DF804BBF0BD20
:100648001918164660462A4606F097FAC0B20828D6
:1006580016D1D6F8AC00411927D2A14225D8D6F830
:10066800B0003246C6F8AC10814208D30020918B06
:10067800C2F8A40003208D4208BF02201080082081
:100688005DF804BBF0BD49F6E8332246C0F6000326
:1006980008F02CF949F6784049F69C42C0F600006B
:1006A800C0F60002222108F0D1F949F6D8332246D3
:1006B800C0F6000308F01AF9B0B502AF01884B1E66
:1006C8000021072B42D80022DFE803F004230E3E66
:1006D8003E3E3E3CFFF77DFFC1B2B1F108020CBFC0
:1006E800114601221046B0BDC1680968BFF35F8F8B
:1006F80000293ED0817C11F07C0F05D104464FF0D3
:10070800A04006F02FFC2046052101800021002092
:10071800B0BD81690968BFF35F8F51B390F91E209E
:10072800B2F1FF3F0BDCD2B202F07F02032A06D8F7
:1007380002EB420201EB82010A79072A08D1012063
:100748000521B0BD012102801046B0BD0020B0BD1A
:100758000446084601210022012506F00EFAC1B21E
:10076800082904D10320208000210020B0BD28469C
:10077800B0BD49F6784049F69C42C0F60000C0F684
:100788000002222108F062F9F0B503AF2DE9000B51
:100798008CB00C460188042953D1B0F806908046E5
:1007A8002430059001A80B9009A800211546802245
:1007B800079106928DF8201003910191099106F096
:1007C80073FFC0B2082838D16DB104EBC50609AD76
:1007D800D4E900010A6929469047C1B208292CD1F9
:1007E8000834B442F4D109A806F0B7FF0799802964
:1007F8002CD9D8F80C100922A8F800200968BFF3F2
:100808005F8FA1B398F81210404611F07C0F05D104
:100818004FF0A040012206F0A5FB40468169096817
:10082800BFF35F8F19B3817F11F07C0F04D14FF0B4
:10083800A040012206F096FB02200CB0BDE8000B98
:10084800F0BD07200CB0BDE8000BF0BD0123404609
:100858000022A8F80030494538BF8946C0E92B294D
:10086800FFF7B7FEC0B20CB0BDE8000BF0BD49F60B
:10087800784049F69C42C0F60000C0F600022221EA
:1008880008F0E4F8B0B502AF88B00288042A39D17C
:100898008024D1E9001205940446C5882430002339
:1008A8000490684606938DF81C300293009306F076
:1008B800CFFDC0B2082823D10699802925D9E1683F
:1008C800092222800968BFF35F8F61B3A17C2046AB
:1008D80011F07C0F05D14FF0A040012206F042FB39
:1008E800204681690968BFF35F8FE1B1817F11F00C
:1008F8007C0F04D14FF0A040012206F033FB022008
:1009080008B0B0BD072008B0B0BD012320460022C2
:100918002380A94238BF0D46C0E92B25FFF759FEB1
:10092800C0B208B0B0BD49F6784049F69C42C0F65E
:100938000000C0F60002222108F088F8B0B502AF26
:1009480088B08C460188042940D111688023C58865
:100958000022059300F12403D1F8C01104930692F4
:100968004B00212B8DF81C20029200923FD20446A6
:1009780068460321624606F075FCC0B2082823D1F8
:100988000699802925D9E168092222800968BFF3E0
:100998005F8FB1B3A17C204611F07C0F05D14FF0D9
:1009A800A040012206F0DEFA204681690968BFF3FB
:1009B8005F8F31B3817F11F07C0F04D14FF0A040DD
:1009C800012206F0CFFA022008B0B0BD072008B017
:1009D800B0BD0123204600222380A94238BF0D461E
:1009E800C0E92B25FFF7F5FDC0B208B0B0BD49F648
:1009F800684C0020C0F6000C19462022634607F018
:100A080075FF49F6784049F69C42C0F60000C0F6EA
:100A18000002222108F01AF8F0B503AF2DE900070B
:100A280088B00288042A57D1D1E9002580238C6830
:100A38000021B0F80690804624300490069168465C
:100A480005938DF81C1002910091116806F0B2FA16
:100A5800C0B208283CD18CB105EBC4066C464FF0F7
:100A6800000AD5E90001CA6821469047C1B20829A1
:100A78002ED10835CDF808A0B542F2D1684606F067
:100A880081FB069980292CD9D8F80C100922A8F8DE
:100A980000200968BFF35F8FA1B398F81210404691
:100AA80011F07C0F05D14FF0A040012206F05AFA50
:100AB800404681690968BFF35F8F19B3817F11F0E0
:100AC8007C0F04D14FF0A040012206F04BFA02201F
:100AD80008B0BDE80007F0BD072008B0BDE8000772
:100AE800F0BD012340460022A8F80030494538BF30
:100AF8008946C0E92B29FFF76CFDC0B208B0BDE8F4
:100B08000007F0BD49F6784049F69C42C0F600005F
:100B1800C0F60002222107F099FFF0B503AF4DF8A7
:100B280004BD0288042A06D14C68802C07D902200B
:100B38005DF804BBF0BD07205DF804BBF0BD096893
:100B480000F12402C68805461046224608F0D4FC67
:100B58000020B44238BF2646C5E92B06012028806C
:100B680028465DF804BBBDE8F040FFF732BDB0B5DC
:100B780002AF88B00288042A38D109680446C588BB
:100B880024300022802304906846069205938DF84D
:100B98001C200292009206F0B4FBC0B2082823D1B0
:100BA8000699802925D9E168092222800968BFF3BE
:100BB8005F8F61B3A17C204611F07C0F05D14FF007
:100BC800A040012206F0CEF9204681690968BFF3EA
:100BD8005F8FE1B1817F11F07C0F04D14FF0A0400D
:100BE800012206F0BFF9022008B0B0BD072008B006
:100BF800B0BD0123204600222380A94238BF0D46FC
:100C0800C0E92B25FFF7E5FCC0B208B0B0BD49F636
:100C1800784049F69C42C0F60000C0F60002222146
:100C280007F014FFD0B502AFC16809220280096835
:100C3800BFF35F8FD9B1817C11F07C0F06D10446D8
:100C48004FF0A040012206F08DF92046816909681D
:100C5800BFF35F8F59B1817F11F07C0F18BFD0BDF2
:100C68004FF0A0400122BDE8D04006F07BB949F61C
:100C7800784049F69C42C0F60000C0F600022221E6
:100C880007F0E4FEF0B503AF4DF804BD0C46054689
:100C980006F0B8FD064606F0A8FDD5F89401D0F890
:100CA800001864F30A11C0F80018F00705D15DF8C0
:100CB80004BBBDE8F04006F09ABD5DF804BBF0BD8A
:100CC800F0B503AF2DE9000F83B00E46814606F05C
:100CD80099FD054606F089FDD6F89411D1F83CB087
:100CE8004C69E0040FD4A0046ED4B4F1FF3F40F384
:100CF800FE82200500F11583E00600F12083002222
:100D08004FF0000ADDE34FF480504861D6F89401B3
:100D1800D0F81C180021C0F81C183079072875D1A4
:100D2800307C072840F09080307F072840F0AA8068
:100D380096F82800072840F0C58096F83400072860
:100D480040F0E08096F84000072840F0FB8096F8D5
:100D58004C00072840F0168196F85800072840F004
:100D6800318196F86400072840F04C8196F87000AD
:100D7800072840F0678196F88C00072840F08581A5
:100D880096F8A800072840F0A48196F8C400072820
:100D980040F0C38196F8E000072840F0E28196F819
:100DA800FC00072840F0018296F81801072840F057
:100DB800208296F83401072840F03F8296F85001C7
:100DC800072840F05D827AE24FF400504861D6F877
:100DD8009401D0F80818C1F34101DFE811F08D0241
:100DE80004007D050400D6F890214AF6C041C0F2FF
:100DF800D8018A42C0F07B854EF2C011C0F2E401EE
:100E08008A4280F085824FF4705104E3307A316869
:100E180010F07F0001EB4010D0F8001921F40041D8
:100E2800C0F80019D0F8001900F5106006D0B1F12B
:100E3800FF3FDEBF016841F080410160FF21816012
:100E4800307C07283FF470AF307DF16810F07F00E8
:100E580001EB4010D0F8001921F40041C0F8001946
:100E6800D0F8001900F5106006D0B1F1FF3FDEBFE1
:100E7800016841F080410160FF218160307F0728CF
:100E88003FF456AF96F82000B16910F07F0001EBEF
:100E98004010D0F8001921F40041C0F80019D0F82A
:100EA800001900F5106006D0B1F1FF3FDEBF016800
:100EB80041F080410160FF21816096F828000728F1
:100EC8003FF43BAF96F82C00716A10F07F0001EBFD
:100ED8004010D0F8001921F40041C0F80019D0F8EA
:100EE800001900F5106006D0B1F1FF3FDEBF0168C0
:100EF80041F080410160FF21816096F834000728A5
:100F08003FF420AF96F83800316B10F07F0001EB0A
:100F18004010D0F8001921F40041C0F80019D0F8A9
:100F2800001900F5106006D0B1F1FF3FDEBF01687F
:100F380041F080410160FF21816096F84000072858
:100F48003FF405AF96F84400F16B10F07F0001EB19
:100F58004010D0F8001921F40041C0F80019D0F869
:100F6800001900F5106006D0B1F1FF3FDEBF01683F
:100F780041F080410160FF21816096F84C0007280C
:100F88003FF4EAAE96F85000B16C10F07F0001EB28
:100F98004010D0F8001921F40041C0F80019D0F829
:100FA800001900F5106006D0B1F1FF3FDEBF0168FF
:100FB80041F080410160FF21816096F858000728C0
:100FC8003FF4CFAE96F85C00716D10F07F0001EB36
:100FD8004010D0F8001921F40041C0F80019D0F8E9
:100FE800001900F5106006D0B1F1FF3FDEBF0168BF
:100FF80041F080410160FF21816096F86400072874
:101008003FF4B4AE96F86800316E10F07F0001EB43
:101018004010D0F8001921F40041C0F80019D0F8A8
:10102800001900F5106006D0B1F1FF3FDEBF01687E
:1010380041F080410160FF21816096F87000072827
:101048003FF499AE96F87400F16E00F07F0001EB62
:101058004010D0F8001B21F40041C0F8001BD0F864
:10106800001B00F53060B1F1FF3F07DC96F8741003
:1010780049061EBF016841F080410160FF2181607F
:1010880096F88C0007283FF47BAE96F89000D6F8C7
:10109800881000F07F0001EB4010D0F8001B21F40D
:1010A8000041C0F8001BD0F8001B00F53060B1F11A
:1010B800FF3F07DC96F8901049061EBF016841F013
:1010C80080410160FF21816096F8A80007283FF45D
:1010D8005CAE96F8AC00D6F8A41000F07F0001EBE7
:1010E8004010D0F8001B21F40041C0F8001BD0F8D4
:1010F800001B00F53060B1F1FF3F07DC96F8AC103B
:1011080049061EBF016841F080410160FF218160EE
:1011180096F8C40007283FF43DAE96F8C800D6F804
:10112800C01000F07F0001EB4010D0F8001B21F444
:101138000041C0F8001BD0F8001B00F53060B1F189
:10114800FF3F07DC96F8C81049061EBF016841F04A
:1011580080410160FF21816096F8E00007283FF494
:101168001EAE96F8E400D6F8DC1000F07F0001EB24
:101178004010D0F8001B21F40041C0F8001BD0F843
:10118800001B00F53060B1F1FF3F07DC96F8E41072
:1011980049061EBF016841F080410160FF2181605E
:1011A80096F8FC0007283FF4FFAD96F80001D6F842
:1011B800F81000F07F0001EB4010D0F8001B21F47C
:1011C8000041C0F8001BD0F8001B00F53060B1F1F9
:1011D800FF3F07DC96F8001149061EBF016841F081
:1011E80080410160FF21816096F8180107283FF4CB
:1011F800E0AD96F81C01D6F8141100F07F0001EB61
:101208004010D0F8001B21F40041C0F8001BD0F8B2
:10121800001B00F53060B1F1FF3F07DC96F81C11A8
:1012280049061EBF016841F080410160FF218160CD
:1012380096F8340107283FF4C1AD96F83801D6F87E
:10124800301100F07F0001EB4010D0F8001B21F4B2
:101258000041C0F8001BD0F8001B00F53060B1F168
:10126800FF3F07DC96F8381149061EBF016841F0B8
:1012780080410160FF21816096F8500107281ED047
:1012880096F85401D6F84C1100F07F0001EB40109D
:10129800D0F8001B21F40041C0F8001BD0F8001B57
:1012A80000F53060B1F1FF3F07DC96F854114906AC
:1012B8001EBF016841F080410160FF218160D6F8BE
:1012C8009401016941F010010161D6F8941108698F
:1012D800C0067FF508AD0869C00644BF08695FEA23
:1012E800C0607FF500AD0869C006F0D4FBE44FF09C
:1012F80000404861042094E0D6F890114CF27F3207
:10130800C0F2C912914240F2FD824FF4105182E0BE
:1013180042F20041C0F2F4018A4207D24FF4605110
:1013280079E04FF40060486103207AE047F28031A9
:10133800C0F206118A4217D24FF450516BE0D1F82F
:101348001CC00CF00F08CCF3434EAEF1030002288A
:1013580013D3BEF1060F33D0BEF1020F1DD1012009
:10136800002300FA08F26BE044F6A011C0F21A114B
:101378008A421CD24FF440514DE0BBF5885F18BF3C
:10138800BBF5905F09D101EB4810D0F8001B41F084
:101398000441C0F8001BD6F89411086A00224EF0E8
:1013A80004004FF0000A0023062849D089E042F6DD
:1013B8000051C0F231118A4224D24FF430512AE050
:1013C80001EB48102A460025D0F81009C1F6F87537
:1013D800284230D00869154620F4FC6040EA88109D
:1013E80020300861D6F894110869800624D5086968
:1013F800800644BF08695FEA80601DD508698006D9
:10140800F2D419E04AF24041C0F24C118A4280F00D
:1014180048824FF42051C26822F470521143C160CF
:101428000120A9F80000E80708BF06F0E0F903B0BA
:10143800BDE8000FF0BD15460120002200FA08F3B0
:10144800B8F1080F029500F26E82C8EBC800924608
:1014580006EB800090F87050072D30D000F16C0535
:10146800E868002840F05982A87E4FF0FF32EA6011
:1014780010BB0193AEF10603B3FA83F3086A05F1D2
:101488001000CCF30A125B0905F011FBBBF50C5FE9
:10149800C0F2FE81019B05D0BBF5405F18BFBBF5CC
:1014A800445F09D1D6F8940100EB4810D0F8001B2E
:1014B80041F00441C0F8001BE8680130E8601A46B2
:1014C800029D600303D44FF000081446FAE0307917
:1014D800072803D14FF00008144617E0307A144665
:1014E800D6F8941100F07F0001EB4010D0F80819ED
:1014F800C90702D14FF0000808E000F5106001218B
:101508008160307A00F00F0001FA00F8307C07287B
:1015180015D0307DD6F8941100F07F0001EB401013
:10152800D0F80819C9070AD000F5106001218160B8
:10153800307D00F00F0001FA00F048EA0008307F23
:10154800072817D096F82000D6F8941100F07F00ED
:1015580001EB4010D0F80819C9070BD000F510604E
:101568000121816096F8200000F00F0001FA00F0D8
:1015780048EA000896F82800072817D096F82C00A3
:10158800D6F8941100F07F0001EB4010D0F808194C
:10159800C9070BD000F510600121816096F82C0076
:1015A80000F00F0001FA00F048EA000896F834004D
:1015B800072817D096F83800D6F8941100F07F0065
:1015C80001EB4010D0F80819C9070BD000F51060DE
:1015D8000121816096F8380000F00F0001FA00F050
:1015E80048EA000896F84000072817D096F8440003
:1015F800D6F8941100F07F0001EB4010D0F80819DC
:10160800C9070BD000F510600121816096F84400ED
:1016180000F00F0001FA00F048EA000896F84C00C4
:10162800072817D096F85000D6F8941100F07F00DC
:1016380001EB4010D0F80819C9070BD000F510606D
:101648000121816096F8500000F00F0001FA00F0C7
:1016580048EA000896F85800072817D096F85C0062
:10166800D6F8941100F07F0001EB4010D0F808196B
:10167800C9070BD000F510600121816096F85C0065
:1016880000F00F0001FA00F048EA000896F864003C
:10169800072817D096F86800D6F8941100F07F0054
:1016A80001EB4010D0F80819C9070BD000F51060FD
:1016B8000121816096F8680000F00F0001FA00F03F
:1016C80048EA000896F8700007281AD006F16C005E
:1016D80005F033FBC0B202280BD0012811D196F8CF
:1016E8007400012100F00F0001FA00F04AEA000A34
:1016F80007E096F87400012100F00F0001FA00F0ED
:10170800044396F88C00072812D006F1880005F0EB
:1017180014FBC0B260B1012896F890004FF00101A7
:1017280000F00F0001FA00F00CBF4AEA000A044377
:1017380096F8A800072812D006F1A40005F0FDFAD3
:10174800C0B260B1012896F8AC004FF0010100F07A
:101758000F0001FA00F00CBF4AEA000A044396F8A9
:10176800C400072812D006F1C00005F0E6FAC0B29E
:1017780060B1012896F8C8004FF0010100F00F0091
:1017880001FA00F00CBF4AEA000A044396F8E000A8
:10179800072812D006F1DC0005F0CFFAC0B260B11C
:1017A800012896F8E4004FF0010100F00F0001FA5B
:1017B80000F00CBF4AEA000A044396F8FC00072828
:1017C80012D006F1F80005F0B8FAC0B260B10128ED
:1017D80096F800014FF0010100F00F0001FA00F047
:1017E8000CBF4AEA000A044396F81801072812D0E9
:1017F80006F58A7005F0A1FAC0B260B1012896F822
:101808001C014FF0010100F00F0001FA00F00CBFBD
:101818004AEA000A044396F83401072812D006F56C
:10182800987005F08AFAC0B260B1012896F83801BC
:101838004FF0010100F00F0001FA00F00CBF4AEA76
:10184800000A044396F85001072812D006F5A6703E
:1018580005F073FAC0B260B1012896F854014FF050
:10186800010100F00F0001FA00F00CBF4AEA000A7B
:10187800044344EA080050EA0A0007D0A9F80640E1
:101888000220A9F80480A9F802A0CAE50020C8E54A
:10189800019BBBF5005F18BFBBF5045F3FF402AEC8
:1018A8000AE643F20061C0F26E118A42FFF42DADE0
:1018B80049F6E051C0F2A3118A4202D24FF4005116
:1018C800A9E544F600034FF4C051C0F2E8139A4268
:1018D80038BF4FF4E0519EE549F6705049F6805202
:1018E800C0F60000C0F600020F2107F0AFF849F675
:1018F800385049F66052C0F60000C0F600021821C0
:1019080007F0A4F849F6385049F65052C0F60000DE
:10191800C0F60002182107F099F849F62850C0F6D9
:10192800000006F0B7FF49F618524046C0F600021C
:10193800092107F077F8B0B502AF82B0044605F088
:1019480061FF054605F051FFB4F87001D4F8941111
:101958001E3082B24A62B4F87811D4F89421C0EAF1
:10196800014308449362B4F87A21D4F89431C0EA68
:1019780002411044C3F80411B4F87C11D4F894312E
:10198800C0EA01420844C3F80821B4F87E21D4F81B
:101998009431C0EA02411044C3F80C1180B2B0F58A
:1019A800A07F00F21D82D4F894014322016962F3FA
:1019B8000A110161D4F89401016911F0300F0BD0BC
:1019C800016911F0300F1CBF016911F0300F03D00D
:1019D800016911F0300FEFD12179072951D1207C0D
:1019E800072861D1207F072874D194F82800072898
:1019F80040F0898094F83400072840F09D8094F8DE
:101A08004000072840F0B18094F84C00072840F0C7
:101A1800C58094F85800072840F0D98094F86400ED
:101A2800072840F0ED8094F87000072840F0018105
:101A380094F88C00072840F0138194F8A800072830
:101A480040F0258194F8C400072840F0378194F8C5
:101A5800E000072840F0498194F8FC00072840F08E
:101A68005B8194F81801072840F06D8194F83401DF
:101A7800072840F07F8194F85001072840F09081B2
:101A8800A0E1D0F81C180123227A02F01F0203FA01
:101A980002F21143C0F81C18A7F10901204605F00D
:101AA800F6F8207C07289DD0D4F894010123D0F8BB
:101AB8001C18227D02F01F0203FA02F21143C0F83B
:101AC8001C1804F10C00A7F1090105F0E0F8207FCB
:101AD80007288AD0D4F894010123D0F81C1894F868
:101AE800202002F01F0203FA02F21143C0F81C186A
:101AF80004F11800A7F1090105F0C9F894F82800C5
:101B080007283FF477AFD4F894010123D0F81C18C4
:101B180094F82C2002F01F0203FA02F21143C0F8D5
:101B28001C1804F12400A7F1090105F0B0F894F895
:101B3800340007283FF463AFD4F894010123D0F8A8
:101B48001C1894F8382002F01F0203FA02F211431D
:101B5800C0F81C1804F13000A7F1090105F097F846
:101B680094F8400007283FF44FAFD4F894010123BC
:101B7800D0F81C1894F8442002F01F0203FA02F26D
:101B88001143C0F81C1804F13C00A7F1090105F045
:101B98007EF894F84C0007283FF43BAFD4F8940142
:101BA8000123D0F81C1894F8502002F01F0203FA01
:101BB80002F21143C0F81C1804F14800A7F109010A
:101BC80005F065F894F8580007283FF427AFD4F8D3
:101BD80094010123D0F81C1894F85C2002F01F022D
:101BE80003FA02F21143C0F81C1804F15400A7F1DB
:101BF800090105F04CF894F8640007283FF413AF86
:101C0800D4F894010123D0F81C1894F8682002F045
:101C18001F0203FA02F21143C0F81C1804F1600015
:101C2800A7F1090105F033F894F8700007283FF48C
:101C3800FFAE94F8741004F16C00490607D1D4F88B
:101C48009411D1F81C2842F48032C1F81C28A7F15D
:101C5800090105F027F994F88C0007283FF4EDAE48
:101C680094F8901004F18800490607D1D4F894112B
:101C7800D1F81C2842F48032C1F81C28A7F10901C8
:101C880005F010F994F8A80007283FF4DBAE94F8A3
:101C9800AC1004F1A400490607D1D4F89411D1F886
:101CA8001C2842F48032C1F81C28A7F1090105F06C
:101CB800F9F894F8C40007283FF4C9AE94F8C8109E
:101CC80004F1C000490607D1D4F89411D1F81C28B2
:101CD80042F48032C1F81C28A7F1090105F0E2F8A6
:101CE80094F8E00007283FF4B7AE94F8E41004F144
:101CF800DC00490607D1D4F89411D1F81C2842F425
:101D08008032C1F81C28A7F1090105F0CBF894F836
:101D1800FC0007283FF4A5AE94F8001104F1F80080
:101D2800490607D1D4F89411D1F81C2842F480321E
:101D3800C1F81C28A7F1090105F0B4F894F81801B6
:101D480007283FF493AE94F81C1104F58A704906ED
:101D580007D1D4F89411D1F81C2842F48032C1F884
:101D68001C28A7F1090105F09DF894F8340107280B
:101D78003FF481AE94F8381104F59870490607D1FC
:101D8800D4F89411D1F81C2842F48032C1F81C28E8
:101D9800A7F1090105F086F894F85001072811D039
:101DA80094F8541104F5A670490607D1D4F8941193
:101DB800D1F81C2842F48032C1F81C28A7F1090187
:101DC80005F070F8D4F89401D0F8001821F4FE61F9
:101DD800C0F80018E80708BF05F009FD02B0B0BD5B
:101DE80049F6CC4049F60852C0F60000C0F6000299
:101DF8003C2106F02BFEB0B502AF054603F0E0FE2D
:101E080005F000FD044605F0F0FCD5F89401C16B1F
:101E18000269002A09D40269002A5CBF0269002A03
:101E280003D40269B2F1FF3FF2DCC2684FF6FF63E8
:101E3800CBF6FF731A4002F18042C2600269002AA1
:101E480009D40269002A5CBF0269002A03D4026926
:101E5800B2F1FF3FF2DC026942F00102026102695D
:101E6800D20709D00269D2071CBF02695FEAC272B1
:101E780002D00269D207F2D1826BB1F5045F42F455
:101E88008032826309DBB1F5405F15DAB1F5045F92
:101E980016D0B1F50C5F13D01AE0B1F5885F18BF02
:101EA800B1F5905F41D1816B41F400118163816B81
:101EB80021F4E01181630BE018BFB1F5445F07D14D
:101EC800816B21F400118163016841F0C001016058
:101ED800002141F60302C0F8001ED0F8041841F0B2
:101EE8000201C0F80418D0F8001891430331C0F873
:101EF80000180121C0F8101843F61001C8F20401B7
:101F080081614FF0FF314161816841F001018160D9
:101F1800D0F8041821F00201C0F80418E00718BF2F
:101F2800B0BDBDE8B04005F062BCB1F5005FC7D0F8
:101F3800CEE7F0B503AF2DE9000FD7E904A98C4629
:101F4800D7E902E803F07F015FEA0C6308D082B1A9
:101F5800012203291BD905211046BDE8000FF0BD59
:101F680072B10122032922D905211046BDE8000FCC
:101F7800F0BD90F88C21910714D4022301212DE0A3
:101F880090F88D2191071ED40223012186E090F854
:101F98008C3102FA01F4234278D005211046BDE8BD
:101FA800000FF0BD510713D40423022116E090F866
:101FB8008D3102FA01F4234200F0B8800521104661
:101FC800BDE8000FF0BD510763D40423022165E08A
:101FD80011074FF0030100F1A48008231A4380F889
:101FE8008C2100F5BC7232F811302BB10122052189
:101FF8001046BDE8000FF0BD032313FA8AF5B0F8C8
:10200800786110234FEA950EBEF1100FB0F87AE10F
:10201800B0F886C1B0F884B17644B0F8704188BF92
:10202800AB08B0F87C51B0F87EE11C443544B0F8F8
:1020380080817544B0F882614544B0F888E1354440
:102048005D4405EB0C06764414FA86F61E36B6F5A2
:10205800A07F2FD822F8113001EB4103002200F8AD
:10206800232000EB8300502361F07F01C370FB68DD
:102078004371BB68A0F8012080F809900172A0F8AC
:1020880006A003711046BDE8000FF0BD43EA040244
:10209800A5E711074FF0030143D408231A4380F83A
:1020A8008D21032212FA8AF4D0E95B6303EB9402D0
:1020B800B24205D9012204211046BDE8000FF0BD47
:1020C800A608D0F87441D0F86851A64288BF3446B3
:1020D800C0E95C24C1EBC10205EB830300EB82007D
:1020E800502280F86F200022C0E920621E0E80F87E
:1020F8007C301B0AA0F86D20826780F86C2080F87D
:10210800759080F87410A0F872A080F8718080F83B
:1021180070E080F87F60A0F87D301046BDE8000FC1
:10212800F0BD01221046BDE8000FF0BD43EA0402ED
:10213800B5E7F0B503AF2DE9000F85B01E4692460E
:10214800884683464FEAC20982B14D464446D4E9DF
:10215800000132464B6A59469847BBF8000040F0E8
:10216800020006282CD10834083DF0D1707A58B303
:10217800BBF8000040F00200062821D1DBF80C0073
:102188000921ABF800100068BFF35F8F002800F04A
:10219800D9809BF8121011F07C0F04D14FF0A040A9
:1021A800012204F0DFFEDBF818000068BFF35F8F40
:1021B800002800F0C7809BF81E1011F07C0F1DD07E
:1021C80005B0BDE8000FF0BD317AB07902294DD0D5
:1021D80001291CD00029CBD1002868D0062856D068
:1021E8000828C5D19BF88E0201210491A7F1260188
:1021F80002380391B0FA80F0400998E04FF0A0400F
:10220800012204F0AFFE05B0BDE8000FF0BDB0B389
:102218000A28ADD17588FF2D0DD9BBF8000040F014
:1022280002000628CCD1584605B0BDE8000FBDE82D
:10223800F040FEF7F7BCB9F1000F72D0F8E80201E0
:102248004A6B29469047A9F10809C007F3D0012035
:1022580007F8261C0490A7F1260003A90390584606
:10226800FEF75BFC05B0BDE8000FF0BD00287FF469
:102278007FAF708810F00C0F28D0012037E0BBF832
:10228800000004289CD10020ABF8240037E07188B6
:10229800524630885B46CDE900010BF1B400414657
:1022A80000F060F9C0B208283FF462AF88E79BF8F5
:1022B8008C0202229BF88D120492A7F1260240009C
:1022C8000392C0B2084327F8260C32E040F600110A
:1022D80042B200F00700C5F20001B2F1FF3FC8BFEB
:1022E80001F5007141EA40100068C0F34050BBF8A6
:1022F800001004297FF464AFABF824000020BBF879
:1023080006100122ABF80020022928BF0221CBE9E0
:102318002B015846FEF75DF9C0B208283FF428AFF4
:102328004EE701200490A7F126000390002007F84B
:10233800260C03A95846FEF7F0FBC0B208283FF464
:1023480017AF3DE749F6784049F69C42C0F60000D1
:10235800C0F60002222106F079FBD4D4F0B503AF11
:102368002DE9000F81B01E46894683464FEAC20A0E
:1023780082B155464C46D4E9000132460B6A5946AB
:102388009847BBF8000040F0020006282CD108341A
:10239800083DF0D1707A58B3BBF8000040F0020055
:1023A800062821D1DBF80C000921ABF800100068E1
:1023B800BFF35F8F002800F0CA809BF8121011F05D
:1023C8007C0F04D14FF0A040012204F0CBFDDBF8D4
:1023D80018000068BFF35F8F002800F0B8809BF8F2
:1023E8001E1011F07C0F20D001B0BDE8000FF0BD29
:1023F800317AB079B6F80080E9B301291FD00229F3
:10240800CAD101284BD0032808BFB8F1000FC3D1A7
:10241800708810F00C0F40F0928000F083014FF0AC
:10242800A040012204F09EFD89E04FF0A040012267
:1024380001B0BDE8000FBDE8F04004F093BD0B28E3
:10244800AAD1768846EA0800FF2838D8BAF1000FE2
:1024580061D0F9E8020142468B6B31469847AAF1F0
:10246800080A0028F2D0584601B0BDE8000FBDE8C0
:10247800F040FDF7B9BE013808283FF68DAFDFE818
:1024880000F0060539052D050505410084E7B8F17A
:10249800010F7FF481AF00208BF88C024FE0B8F178
:1024A800000F7FF479AF708810F00C0F47D100F05F
:1024B80083014FF0A040002204F054FD3FE0BBF838
:1024C800000040F0020006287FF48EAF584601B0A5
:1024D800BDE8000FBDE8F040FEF7A4BBA8F101007D
:1024E80080B27F28BFF458AFDBF888024146FEF778
:1024F800C9FB21E0B8F1010F7FF44EAF01208BF842
:102508008C021CE0B8F1000F13D0B8F1010F7FF472
:1025180043AF022011E0B8F1000F10D0BBF8000063
:1025280040F0020006287FF45FAF5846FEF77AFBBA
:1025380032E79BF88E0210B101208BF88E025846C4
:10254800FDF752FEC0B208283FF426AF4CE749F623
:10255800784049F69C42C0F60000C0F600022221ED
:1025680006F074FAF0B503AF2DE900078AB0BD682C
:102578000E464FF0FF340190A9B204EB11210E2949
:1025880052D8DFE801F008430D51515151515151D2
:10259800515151514C0001A91846FEF7E8FAFEE0E6
:1025A80029067AD0D7F80C905FFA85FCBCF1040FA5
:1025B80080F08A80D0F8C0110022A1EBC1014FEA57
:1025C800810E1EEB02062FD081181FFA89F50C8B9D
:1025D800AC4200F0CA8016F11C0425D08C8EAC42A7
:1025E80000F0C08016F138041ED0B1F85040AC425B
:1025F80000F0BA8016F1540416D0B1F86C1070329D
:10260800A942DED11044A0F11C01AEE001A802A944
:1026180002901846CDE90362FEF7FEF9BFE0B0F874
:10262800CA01B0F5007F29D1188840F002000628B9
:1026380040F0C580D868092119800068BFF35F8F12
:10264800002800F0C180997C11F07C0F06D14FF072
:10265800A04001221C4604F085FC234698690068C6
:10266800BFF35F8F002800F0AF80997F11F07C0FD7
:1026780009D008200AB0BDE80007F0BD1846314669
:10268800FEF782F88BE04FF0A040012204F06AFCCC
:1026980008200AB0BDE80007F0BDD0F8C01100223C
:1026A800CDE90822CDE906221029CDE90422CDE999
:1026B80002220A4628BF102200294DD002F0030C3E
:1026C800042912D200222FE09846002A6FD006EB88
:1026D800C204D6E900014A464B69294698470028B2
:1026E80057D10836A642F4D161E0910800F15008AC
:1026F800C900A1EB920100224FEA011E02A9A1F133
:1027080008040021451838F801907031AE8E043263
:10271800B5F86CA08E452D8B24F8085F6680A4F868
:102728000490A4F806A0EDD1BCF1000F14D0C2EBC0
:10273800C201BCF1010F00EB810002A9068B21F850
:10274800126009D001EB4201868EBCF1020F4E8067
:102758001CBFB0F85000888002A901AA1846FEF7ED
:10276800EDF81CE01C3100E038319846BCF1010F4F
:1027780009D0BCF1020F02D00422084606E001F19C
:1027880008000C2202E001F110001422006870B168
:102798008958CDE9020102A94046FEF773F8C0B294
:1027A800082808BF08200AB0BDE80007F0BDB8F83F
:1027B8000000434640F0020006283FF43BAF0720E4
:1027C8000AB0BDE80007F0BD49F6784049F69C42DA
:1027D800C0F60000C0F60002222106F037F9D4D472
:1027E800F0B503AF2DE9000F95B0D0F88842064642
:1027F80007A8884615462146FEF762FA96F88E2203
:10280800BDF81C10032A0FD100294FF0000018BF93
:1028180003290FD096F88F22042A00F0088104209B
:1028280086F88E2286F88F020020DFE801F0031177
:102838003207030015B0BDE8000FF0BD032086F88D
:102848008F2286F88E02002015B0BDE8000FF0BD7B
:102858002046FFF770F800204FF48061002D86F8BD
:10286800900286F88C02A6F88E123080E2D008EB2F
:10287800C504A8F1080555F8080F696889698847EB
:1028880005F10800A042F6D1002015B0BDE8000F00
:10289800F0BDBDF82010BDF81E00BDF82220CDE91E
:1028A8000401084340EA020906925FEAC97048D069
:1028B8000698C00726D10498C00708D009A8314651
:1028C800FDF7C8FC9DF82D00052840F0A2800420E3
:1028D8008DF839009DF8390004281BD09DF8370081
:1028E800F8B180282BD1DDE90C120FABBDF8380008
:1028F800CDE90F124146ADF8440030462A46FFF7AD
:1029080018FC1CE00CA83146FDF7BDFD9DF8390008
:102918000428E3D10598C0071CBF3046FDF7CCFE5C
:102928000DE0DDE90C1212ABBDF83800CDE912124A
:102938004146ADF8500030462A46FFF70FFD29F012
:102948000109E800B9F1000FCDE9028501904BD0EB
:102958000398002858D0DDE90110A0F1080A0126E3
:102968004FF0020B00EB010802200546069854467A
:102978001BEA000F0AD054F8080F61688A6A3146CA
:10298800904704F108004045F5D10EE004981BEA91
:10299800000F0AD0544654F8080F6168CA6A3146D5
:1029A800904704F108004045F5D105981BEA000F4F
:1029B8000CD066F07F04564656F8080F71680A6B0B
:1029C8002146904706F108004045F5D129EA0B0950
:1029D8005FEA094008D0102D28464FEA4B0B2E46D7
:1029E80038BF01300F2DC0D9039868B1DDE9011057
:1029F800A0F10805441855F8080F6968C96988479F
:102A080005F10800A042F6D1012015B0BDE8000F7D
:102A1800F0BDDDE90912BDF82C00ADF83800CDE9AC
:102A28000C129DF8390004283FF474AF56E749F6B4
:102A3800905049F6AC52C0F60000C0F600021C21C6
:102A480005F0AAFFF0B503AF2DE9000F85B00446E5
:102A5800886800287CD14FF0FF3092F8CFA18860B9
:102A6800002001F10C05CDE902A0032090460E4696
:102A780000902846002101220023FFF75AFA8946D0
:102A8800B168C00701F10101B16079D100295FD1B6
:102A98004FF0FF308021B0600020CDE902A0032074
:102AA8000090284601228023FFF743FAC0077BD114
:102AB800B3684FF44070326806F5D27BA4F81F0063
:102AC800581C002AA177A4F81CA0C4F818B0B0605C
:102AD80044D14FF0FF310028316045D12846B1601C
:102AE800FFF789F9B0680130B06043D34FF0FF3089
:102AF8008021B06004F12400BFF35F8FC6F8A451B1
:102B0800BFF35F8F06F0A1FC4FF440704146A4F874
:102B1800130004F1B4004FF4EA72C4F8885284F840
:102B28001290A4F810A0C4F80CB006F040FC0020E5
:102B3800042184F88E02C4E92B00C4F8A400208084
:102B4800A4F88F12A4F88C0205B0BDE8000FF0BD00
:102B580049F60840C0F6000005F09CFE49F618400A
:102B6800C0F6000005F096FE49F62840C0F60000C1
:102B780005F090FE49F63840C0F6000005F08AFEE0
:102B880049F67C6049F6BC53C0F60000A7F11E0266
:102B9800009049F6CC50C0F60000C0F60003202192
:102BA80007F81E9C05F015FFB06849F6BC53A7F15D
:102BB8001D0207F81D1C0130B06049F66C60C0F6B4
:102BC8000003C0F600002021009049F6CC50C0F662
:102BD800000005F0FEFE80B56F46007849F6EC521D
:102BE8000B4649F60C71C0F60001C0F6000251F818
:102BF800201052F820201846BDE8804005F083BA1E
:102C0800D0B502AF537A012B07D1137A012B02BF3B
:102C180090F84C3054889C4200D0D0BD9379212B39
:102C280004BF9288072A27D0088840F002000628A7
:102C3800F3D1C86809220A800068BFF35F8FE0B348
:102C48008A7C12F07C0F07D10C4611464FF0A04049
:102C5800012204F087F9214688690068BFF35F8F75
:102C680058B3897F11F07C0FD7D14FF0A0400122D3
:102C7800BDE8D04004F076B90A88042A18BFD0BD50
:102C8800CA88002390F80CC0012490F80DE0072AA8
:102C9800C1F8AC30837B8068486208460C8081F8B4
:102CA800283081F829E081F82AC028BF0722C1F816
:102CB800B020BDE8D040FDF78CBC49F6784049F615
:102CC8009C42C0F60000C0F60002222105F0BEFEBC
:102CD800D0B502AF537A012B07D1137A012B02BF6B
:102CE80090F84C3054889C4200D0D0BD9379002B8A
:102CF80059D0202B0ED0222B2CD112780B8802F021
:102D0800010480F84E40C2F34002062B80F84F20A1
:102D1800EBD14BE0D1F8B020812A75D2062A19D917
:102D280091F8282091F8294091F82AE0032A4B6A63
:102D3800B1F800C083604FF0000380F80CE028BFB2
:102D48001A46052C827338BF2346BCF1060F43731D
:102D5800CBD12BE0088840F002000628C5D1C8680E
:102D680009220A800068BFF35F8F002841D08A7C5F
:102D780012F07C0F07D10C4611464FF0A0400122FB
:102D880004F0F0F8214688690068BFF35F8F80B3CC
:102D9800897F11F07C0FA8D14FF0A0400122BDE837
:102DA800D04004F0DFB8088806289ED188690068FA
:102DB800BFF35F8FE8B191F91E20B2F1FF3F94DCB9
:102DC800D2B202F07F02032A88BFD0BD02EB4202D2
:102DD80000EB82000279072A3FF487AF0C460121F5
:102DE800002203F0CAFEC0B2082804BF08202080D1
:102DF800D0BD49F6784049F69C42C0F60000C0F6BE
:102E08000002222105F022FE49F6F8331146C0F6E9
:102E180000030020802205F069FD80B56F4690F818
:102E28004620C9B2914218BF80BDBDE8804000F07D
:102E380092B8F0B503AF2DE9000B86B090F84C605E
:102E4800814600240225884608463146022202238C
:102E5800CDE90054029404F0A6F9C0B2082876D14E
:102E6800D9F81410002299F810000223002918BF7D
:102E78000121CDE90054CDE902104046314604F065
:102E880002F9C0B2082862D149F6DC724046C0F6A1
:102E980000022421032304F0E5F9C0B2082856D122
:102EA80049F624124046C0F600022421022304F009
:102EB800D9F9C0B208284AD10620A7F11E0207F89E
:102EC8001D6C242199F84D60032307F81E0C404619
:102ED80007F81C6C04F0C6F9C0B2082837D10120E5
:102EE800A7F11B0227F81B0C40462421032307F8EF
:102EF800196C04F0B7F9C0B2082828D109F12801E3
:102F0800404600F063FCC1B2082920D1D9F820104E
:102F1800002299F81C000A23002918BF0121CDE9D5
:102F28000022CDE902104046314604F0ACF8C0B2A8
:102F380008280CD109F14001404600F047FCC1B215
:102F4800082904D109F13401404600F03FFC06B0DD
:102F5800BDE8000BF0BDB0B502AF88B000F10801C4
:102F6800CDE90010D0E90021D0E95635022A18BF72
:102F780000219D4202911AD189B3016C0968BFF3FF
:102F88005F8F00293ED090F94620B2F1FF3F0BDC5D
:102F9800D2B202F07F02032A06D802EB420201EB0A
:102FA80082010A79072A1FD1052008B0B0BD02ABFB
:102FB800079301AB06936B46028F0593092988BFD7
:102FC800013A00F1D80103A805AB92B200F0BBFCAE
:102FD8009DF80C0098B19DF80D0008B0B0BD002117
:102FE8000160082008B0B0BD04460846012100224F
:102FF800012503F0C2FDC0B2082801D125600020D8
:1030080008B0B0BD49F6784049F69C42C0F60000C9
:10301800C0F60002222105F019FDF0B503AF2DE935
:10302800000F8BB00D460446F9689A46286890460A
:103038005BB1002840F0D780B8680790687906909F
:1030480000F10100687131B90BE0002900F0BC8083
:10305800002840F0C88038690590687904900130EC
:10306800687195F804B0A8680BF10101297100286E
:1030780040F0B3804FF0FF300821A860FF2005F131
:103088000C06CDE90210062080210090304600226F
:10309800FEF74FFFAA68C00702F10102AA6040F0DC
:1030A800A8802868002840F0928095F80490002AAB
:1030B80009F10100287140F090804FF0FF3009912C
:1030C800A8600020CDE9028005200090304600214C
:1030D8000022FEF72EFFAA68C00702F10102AA60CB
:1030E80040F09B80002A78D142464FF0FF30CDF85F
:1030F80020A09246A8600020CDE902A005208846BD
:103108000090304680210022FEF713FFC00701BF60
:1031180084F844B04FF4A060A4F83F0084F83E104F
:1031280001BFA4F83CA005F5D271A16384F84590CD
:1031380001BF40F2FF62A4F82720099A84F82620EC
:1031480001BF0822A284A4F8330084F8328001BFAA
:10315800A4F830A0E162A868069B01BFA360089BA1
:10316800E360079B01BF2361049B6361FB6801BFA8
:10317800A361059BC4E90731013001BFA8600020A5
:10318800A4F84600A07101BFA2804FF41650206039
:103198000BB004BFBDE8000FF0BDA86849F62C735A
:1031A800A7F11D0207F81D1C0130A86049F64C70F4
:1031B800C0F60003C0F600000F21009049F63C70ED
:1031C800C0F6000005F005FC00283FF44AAF49F6B8
:1031D8005840C0F6000005F05DFB49F60840C0F60F
:1031E800000005F057FB49F64840C0F6000005F01E
:1031F80051FB49F65C7049F62C73C0F60000A7F144
:103208001F02009049F63C7007F81F1CC0F600002A
:10321800C0F600030F2105F0DCFB49F64C7049F6B7
:103228002C73C0F60000A7F11E02009049F63C700E
:1032380007F81E1CC0F60000C0F600030F2105F0B9
:10324800C8FB80B56F46007849F6EC520B4649F644
:10325800E071C0F60001C0F6000251F8201052F8E3
:1032680020201846BDE8804004F04DBFF0B503AFFC
:103278002DE9000F87B005460868002840F08980CE
:1032880091F804B00C4688680BF1010121710028FF
:1032980079D1D7F808804FF0FF30A060402004F1C2
:1032A8000C069246CDE9020806200090304600211F
:1032B80000229946FEF73DFEA268C00702F101020E
:1032C800A2606CD1002A5ED104914146C8464FF0F5
:1032D800FF304FF04009A060CDF814A04FF0060A67
:1032E800CDE90291304680210022CDF800A0FEF7FA
:1032F80020FEC00701BF85F8ADB085F8A0A0BA6868
:1033080085F89F2001BF85F89E10A5F89C9004F5CC
:10331800D270C5F8980001BF0599C5E9291885F844
:1033280094A085F8932001BF049985F89210A5F818
:103338009090C5F88C0001BF022085F8AC00A06809
:10334800002101BF85F8891029600130A06002BF03
:1033580007B0BDE8000FF0BDA06849F62C73A7F1CF
:103368001D0207F81D1C0130A06049F65C70C0F60C
:103378000003C0F600000F21009049F63C70C0F62B
:10338800000005F026FB49F60840C0F6000005F0ED
:1033980081FA49F65840C0F6000005F07BFA49F674
:1033A8005C7049F62C73C0F60000A7F11E0200906D
:1033B80049F63C7007F81E1CC0F60000C0F6000372
:1033C8000F2105F006FBD0B502AF90F8AD30548858
:1033D8009C4209D1537A92F806C0012B05D0002BE4
:1033E80008BFBCF1060F32D0D0BDBCF1010F18BF29
:1033F800BCF1020F48D1088840F002000628F3D13A
:10340800C86809220A800068BFF35F8F002800F0AF
:1034180085808A7C12F07C0F07D10C4611464FF04C
:10342800A040012203F09EFD214688690068BFF391
:103438005F8F002872D0897F11F07C0F18BFD0BD34
:103448004FF0A0400122BDE8D04003F08BBD527878
:10345800212A2AD0222A04BF0A88042AC4D1012298
:10346800D0E92903CC884FF0000C0A8001F1A402AE
:10347800A34238BF1C4682E80910C1F8B04008468C
:10348800BDE8D040FDF7A5B8BCF1030FACD190F86A
:10349800AC000A8802282ED142F002000628A3D1E7
:1034A8000846BDE8D040FDF7BDBB0A88042A9BD179
:1034B80042F20122C378A1F8292042F20912C0F28F
:1034C8001012D0F8A8004A620022C1F8AC200124EA
:1034D800CA8881F82B00000A0C80092A81F8283054
:1034E80028BF0922C1F8B02081F82C000846BDE8A1
:1034F800D040FDF76EB8042A7FF476AFCA8801235E
:1035080081F8240000200B80002A18BF0122C1E99D
:103518002B020846BDE8D040FDF75BB849F6784075
:1035280049F69C42C0F60000C0F60002222105F0D0
:103538008DFAF0B503AF2DE90007A0B0137A012B7F
:1035480016D190F8AD3056889E4211D19379092B47
:1035580012D00A2B00F0AC800B2B04D190F8AC30C1
:10356800022B40F09D80088840F0020006281DD0FC
:1035780020B0BDE80007F0BD158840F2041C94880F
:103588000426B5F5806F6FF00703C0F2023C03EA2A
:10359800551238BF2CFA02F6802C31D90A8800233C
:1035A80080F8893042F002000628E1D1C868092273
:1035B8000A800068BFF35F8F002800F0A4808A7C2F
:1035C80012F07C0F07D10C4611464FF0A0400122A3
:1035D80003F0C8FC214688690068BFF35F8F0028A4
:1035E80000F09180897F11F07C0FC1D14FF0A0408D
:1035F800012220B0BDE80007BDE8F04003F0B2BCEE
:10360800814688466846802105F01FFFD8F8B0201B
:10361800812A80F08380A242C0F08980EA4608F1BE
:10362800240150462246EDB205F0C1FE09F104001E
:103638005146802205F0BBFEB8F8000089F8896081
:10364800062889F88850C9F8844091D1D8F818001C
:1036580041460068BFF35F8F002854D091F91E10CF
:10366800B1F1FF3F3FF784AFC9B201F07F010329F1
:103678003FF67EAF01EB410100EB8100017907299C
:103688003FF476AF0121002203F077FAC0B2082890
:1036980004BF0820A8F8000020B0BDE80007F0BD6E
:1036A80083782BB91278002A18BF012280F8AC2041
:1036B800088806287FF45CAF88690068BFF35F8FCD
:1036C80008B391F91E20B2F1FF3F3FF751AFD2B2D4
:1036D80002F07F02032A3FF64BAF02EB420200EBF7
:1036E80082000279072A3FF443AF0C4601210022E9
:1036F80003F043FAC0B2082804BF0820208020B095
:10370800BDE80007F0BD49F6784049F69C42C0F68E
:103718000000C0F60002222105F098F949F6F833B6
:103728001146C0F600030020802205F0DFF849F6B4
:10373800CC730020C0F60003214605F0D7F8B0B5D9
:1037480002AF84B005460C460378032295F8AD1005
:1037580040780090204603F027FFC0B208282CD1FB
:10376800D5F8A81042F2012027F80C0C4FF4887203
:10377800E878072327F80F2CA7F10F0207F80D0C9C
:10378800080A07F80A1C212107F8090C204603F04B
:1037980069FDC0B2082810D195F89400072807D011
:1037A80005F18C01204600F011F8C1B2082904D1B6
:1037B80095F8A000072802D1082004B0B0BD05F193
:1037C8009801204600F002F804B0B0BDF0B503AF90
:1037D8004DF8048D8268012A3ED1C368426993423C
:1037E80060D20569D0F818C0EC5C0134EC540CF1D7
:1037F800020494422CD80CF580739646934238BF45
:103808009E46A34246D3AEEB0403052B20D38B7907
:103818000E7A91F807E091F80980022E89882B55D5
:1038280005EB040399704FEA1121D9704FF001019B
:1038380083F804E088BFF11E3601CCB246EA880658
:10384800012C08BF711C59700CF10703934207D96A
:1038580002205DF8048BF0BD07205DF8048BF0BDF5
:10386800944528D2072105F80C100CF1010191426A
:103878003FBF05226A54836108203CBF5DF8048B72
:10388800F0BD4AF210030846C0F6000311461A4676
:1038980005F0C8F84AF220032046C0F60003714636
:1038A80005F024F84AF230041846C0F60004114620
:1038B800224605F0B7F84AF200036046C0F6000356
:1038C80011461A4605F0AEF880B56F46002080BD57
:1038D80080B56F4680BD80B56F46002080BD80B53D
:1038E8006F46002080BD80B56F46082080BD80B53A
:1038F8006F4680BD80B56F46024640695FFA81FC1D
:1039080020B1117C614504BF916980BD107FD2E967
:103918000831C0B26045184618BF0020002B08BF08
:10392800184680BD80B56F460822002182814FF479
:103938001652C0E95611C0E93411A0F84E1081732F
:103948008260016080BDF0B503AF2DE9000BD1E9BD
:1039580020C6A6EB0C06964238BF324602EB0C0E88
:10396800E6454FD3BEF1800F4CD81C682568AE6B76
:103978003668BFF35F8F002E4DD095F93E50B5F1F4
:10398800FF3F0CDCEDB205F07F05032D07D805EBF2
:10399800450506EB850E9EF80450072D06D1052136
:1039A800012241700270BDE8000BF0BD88466144F9
:1039B800064670469946154603F0DFF8014630463C
:1039C800C9B20829ECD121680A8E2946954207D147
:1039D800D9F808204E4645461268531C022202E0D8
:1039E800012245464E46766841603668C6E900239E
:1039F8000023D5F8802003705018C5F88000BDE872
:103A0800000BF0BD4AF250036046C0F60003714651
:103A1800802204F06BFF49F6784049F69C42C0F6D4
:103A28000000C0F60002222105F010F880B56F46AC
:103A380000F00100BDE8804003F0CEBE80B56F46BF
:103A4800ADF51F6D03F0BDFE41F20001C2F20001A9
:103A58000A783AB1FFF7EAFF4AF2D800C0F6000048
:103A680004F0ADFF01220A7003F0B6FE03F0CAFEAF
:103A7800044603F0BAFE41F20100E207C2F2000078
:103A8800017808D161B103F0B2FE4AF2E800C0F64D
:103A9800000004F094FF0029F7D10121017003E030
:103AA8000121017003F0A3FE1DAC342104F10800CC
:103AB80005F0CBFC46F600404FF00108C0F2DC20D0
:103AC80013ADCDE9258047F64000C0F27D102146B0
:103AD800CDE91D8028468DF8AD8002F05CF84EF2E5
:103AE8001000CEF20000016821F00401016017986F
:103AF800C0082C9005F1280002F053F840F2100B92
:103B08004FF40011C4F2020B4FF48006CBF80810F2
:103B18004FF400025BF80C0C0DF1B40900244523A6
:103B280020F020004BF80C0C5BF8100C68F38B208D
:103B38004BF8100CCBF808605BF80C0C20F0400038
:103B48004BF80C0C5BF8100C68F30D304BF8100CAC
:103B5800CBF808205BF80C0C20F080004BF80C0C1C
:103B68005BF8100C68F38F304BF8100CCBF808108A
:103B78000A21CBF80860CBF8082002225BF80C0C6D
:103B880020F400604BF80C0CDBF8140061F30F30E4
:103B9800CBF814005BF8100C62F397504BF8100C3C
:103BA8005BF80C0C20F480504BF80C0CDBF814007C
:103BB80061F31340CBF814005BF8100C179962F30B
:103BC80019604BF8100C4FF0A0404AF2F802CDE90A
:103BD800941040F200014FF48060C2F200018A9113
:103BE80007218B90C0F60002ADF8B80097A88DF8B1
:103BF80010128DF8F4118DF8D8118DF8BC118DF8CC
:103C0800A0118DF884118DF868118DF84C118DF87C
:103C180030118DF824118DF818118DF80C118DF8CC
:103C280000118DF8F4108DF8E8108DF8DC108DF87F
:103C3800D0108DF8C4104946ADF84842CDE99044FB
:103C4800CDE98E449694ADF84C42CDE98C442F943E
:103C58002D94CDF80080FFF709FB0DF26C4549461D
:103C68004022002328460194FFF7D7F90DF5437A3F
:103C780029460AF10800482205F099FB0AF150008C
:103C88004FF48871C394109005F0DFFB0DF2DC75DA
:103C98004FF4D27105F11C0005F0D7FB32204946DC
:103CA800C0F200102A46CDF8AC0940F2EF20C0F669
:103CB8000100CDF89C89CDF8A8091020C0F2102089
:103CC800CDF8A40941F2C060C2F2DA70CDF8A009BB
:103CD80040F20940CDF8F4070C20CDF8F0074AF27D
:103CE8003D10C0F60000CDF8EC070F20CDF8E8072E
:103CF8004AF24910C0F60000CDF8E4070420CDF8D8
:103D0800E0074AF25C10C0F60000CDF8DC070DF2BF
:103D18006C40FEF797FE0DF5E1654AF26011C0F6BA
:103D28000001C3222846CDF80447CDF8004705F026
:103D38003EFB9DF8140702218DF818170621062866
:103D480028468DF80B878DF8CC1764D09DF821078D
:103D5800062802D105F10D005DE09DF82E07062822
:103D680002D105F11A0056E09DF83B07062802D15A
:103D780005F127004FE09DF84807062802D105F114
:103D8800340048E09DF85507062802D105F14100A6
:103D980041E09DF86207062802D105F14E003AE09D
:103DA8009DF86F07062802D105F15B0033E09DF806
:103DB8007C07062802D105F168002CE09DF88907E8
:103DC800062802D105F1750025E09DF8960706281A
:103DD80002D105F182001EE09DF8A307062802D152
:103DE80005F18F0017E09DF8B0074FF48001062811
:103DF80002D105F19C000DE09DF8BD07062802D10F
:103E080005F1A90006E09DF8CA07062841F0AC852F
:103E180005F1B6000E460321A7F14004C170002049
:103E28008DF8D40705F10D08CDF8D007CDF8CC07EB
:103E380004F108000F9005F1B600039005F1A90000
:103E4800049005F19C00059005F18F00069005F19E
:103E58008200079005F17500089005F16800099047
:103E680005F15B000A9005F14E000B9005F1410049
:103E78000C9005F134000E9005F12700119005F122
:103E88001A001290C3A8D8300D900DF2CC704FF4E0
:103E9800001500F1030906E0002801F089842CA828
:103EA8000A2101F03BFE4AF260202146C0F60000DC
:103EB800022247F8340CC3A847F8380C4AF22420E9
:103EC800C0F6000047F83C0C97A847F8400C0DF2E4
:103ED8006C40FEF785FCF898BDF844A3C0F180015A
:103EE80051451BD2F79B191A803151454ED3802B6F
:103EF80001D180210CE07F2B01F22E85109CC21A83
:103F0800E118204604F0CEFDDDE9F710A7F14004E2
:103F1800401A0022C0F18001F792F8905145C1F093
:103F2800018510EB0A0181F0EB84802901F2E88415
:103F3800D0990968BFF35F8F002901F0E8849DF8E4
:103F48004623032A00F21B83C2EBC20201EB820163
:103F580091F87020072A00F01283109A6C315346AA
:103F68000244204602F013FF17F8400C012804BF52
:103F780017F83F1C002905D0002840F0008357F8A7
:103F88003C0C00E00020F8990844F890DDE9F701BE
:103F9800814200F0F4820A1A0821082A28BF0A463A
:103FA80015184FF480044FF400168542C1F0CC84F4
:103FB800812D81F0C984109901440DF5E06005F068
:103FC8009BFA9DF80007F79535462646A7F1400469
:103FD8003F2840F0D4829DF8CF07002804BF9DF801
:103FE800D007002810D19DF8D107002804BF9DF8FC
:103FF800D207002808D19DF8D307002804BF9DF8F0
:10400800D407002800F0CC83DDF86804C0F18001F3
:1040180016291BD8DDF86434C3B1802B01D1802167
:104028000CE07F2B01F298840D9DC21AE9182846EE
:1040380004F038FDDDF86414DDF86804401A002245
:10404800CDF86424C0F18001CDF8680417290D4625
:1040580028BF1725A1B129188142C1F06E84812992
:1040680081F06B840D992A4608444AF2B021C0F6C3
:10407800000105F041FADDF868042844CDF8680429
:10408800C3A8FEF768FF9DF8CF078DF8D70700286B
:1040980058D000204AF2C922CDF8D80747F6273071
:1040A800C0F60000042147F83C0C0DF2D77047F821
:1040B800400C0DF5FB60C0F60002234601F06EFCD3
:1040C80000283FD00546DDF86804C0F18006B142FB
:1040D8001DD9DDF86434D3B1802B01D180220EE0E4
:1040E8007F2B01F239840D9E8A46C21AF118304698
:1040F80004F0D8FCDDF864245146DDF86804801A21
:104108000023CDF86434C0F18006CDF86804B142CC
:1041180038BF0E468EB131188142C1F00E84812914
:1041280081F00B840D9932460844294605F0E4F9DC
:10413800DDF868043044CDF86804C3A8FEF70BFF27
:104148004FF480069DF8D0078DF8D707002858D07F
:1041580000204AF2C922CDF8D80747F62730C0F622
:104168000000042147F83C0C0DF2D77047F8400CCA
:104178000DF5FB60C0F60002234601F00FFC002895
:104188003FD00546DDF86804C0F18006B1421DD96C
:10419800DDF86434D3B1802B01D180220EE07F2B6F
:1041A80001F2DA830D9E8A46C21AF118304604F0ED
:1041B80079FCDDF864245146DDF86804801A002390
:1041C800C0F18006CDF86434CDF86804B14238BF38
:1041D8000E468EB131188142C1F0AF83812981F03A
:1041E800AC830D9932460844294605F085F9DDF877
:1041F80068043044CDF86804C3A8FEF7ACFE4FF459
:1042080080069DF8D1078DF8D707002858D00020E0
:104218004AF2C922CDF8D80747F62730C0F6000081
:10422800042147F83C0C0DF2D77047F8400C0DF507
:10423800FB60C0F60002234601F0B0FB00283FD027
:104248000546DDF86804C0F18006B1421DD9DDF8E5
:104258006434D3B1802B01D180220EE07F2B01F290
:104268007B830D9E8A46C21AF118304604F01AFC68
:10427800DDF864245146DDF86804801A0023CDF87F
:104288006434C0F18006CDF86804B14238BF0E46E8
:104298008EB131188142C1F05083812981F04D835C
:1042A8000D9932460844294605F026F9DDF86804D8
:1042B8003044CDF86804C3A8FEF74DFE4FF48006DD
:1042C8009DF8D2078DF8D707002858D000204AF269
:1042D800C922CDF8D80747F62730C0F600000421D8
:1042E80047F83C0C0DF2D77047F8400C0DF5FB6011
:1042F800C0F60002234601F051FB00283FD00546D6
:10430800DDF86804C0F18006B1421DD9DDF86434D7
:10431800D3B1802B01D180220EE07F2B01F21C83C8
:104328000D9E8A46C21AF118304604F0BBFBDDF830
:1043380064245146DDF86804801A0023C0F1800621
:10434800CDF86434CDF86804B14238BF0E468EB15A
:1043580031188142C1F0F182812981F0EE820D99F4
:1043680032460844294605F0C7F8DDF868043044A9
:10437800CDF86804C3A8FEF7EEFD4FF480069DF85B
:10438800D3078DF8D707002858D000204AF2C92251
:10439800CDF8D80747F62730C0F60000042147F8C3
:1043A8003C0C0DF2D77047F8400C0DF5FB60C0F6D9
:1043B8000002234601F0F2FA00283FD00546DDF856
:1043C8006804C0F18006B1421DD9DDF86434D3B168
:1043D800802B01D180220EE07F2B01F2BD820D9E41
:1043E8008A46C21AF118304604F05CFBDDF86424F2
:1043F8005146DDF86804801A0023CDF86434C0F112
:104408008006CDF86804B14238BF0E468EB1311827
:104418008142C1F09282812981F08F820D993246C2
:104428000844294605F068F8DDF868043044CDF8FA
:104438006804C3A8FEF78FFD4FF480069DF8D407E3
:104448008DF8D707002858D000204AF2C922CDF8A5
:10445800D80747F62730C0F60000042147F83C0C7F
:104468000DF2D77047F8400C0DF5FB60C0F600025E
:10447800234601F093FA00283FD00546DDF868048A
:10448800C0F18006B1421DD9DDF86434D3B1802B68
:1044980001D180220EE07F2B01F25E820D9E8A46BA
:1044A800C21AF118304604F0FDFADDF864245146CA
:1044B800DDF86804801A0023C0F18006CDF8643462
:1044C800CDF86804B14238BF0E468EB1311881422A
:1044D800C1F03382812981F030820D993246084437
:1044E800294605F009F8DDF868043044CDF8680479
:1044F800C3A8FEF730FD4FF48006DDF86804C0F16C
:10450800800101291BD8DDF86434C3B1802B01D1A7
:1045180080210CE07F2B01F21F820D9DC21AE91841
:10452800284604F0BFFADDF86414DDF86804401A80
:104538000022CDF86424C0F18001CDF86804022976
:104548004FF0020538BF0D46A1B129188142C1F0CC
:10455800F481812981F0F1810D992A4608444AF2B3
:10456800C721C0F6000104F0C7FFDDF8680428443D
:10457800CDF86804C3A8FEF7EEFC4FF40015CBF89D
:104588000850DBF80000C00770D09DF8140702211E
:104598008DF8D817022802D10DF5E16046E09DF8A4
:1045A80021070228404641D09DF82E07022812987C
:1045B8003CD09DF83B070228119837D09DF8480752
:1045C80002280E9832D09DF8550702280C982DD055
:1045D8009DF8620702280B9828D09DF86F070228DB
:1045E8000A9823D09DF87C07022809981ED09DF8C8
:1045F80089070228089819D09DF896070228079875
:1046080014D09DF8A307022806980FD09DF8B0078C
:10461800022805980AD09DF8BD070228049805D0FD
:104628009DF8CA070228039841F05481C0789DF884
:10463800CF1781B19DF8D01779B19DF8D11771B115
:104648009DF8D21769B19DF8D31761B19DF8D417B9
:1046580061B9052108E0002106E0012104E00221FA
:1046680002E0032100E0042109F80100DBF8000062
:10467800C00740F040829DF8CF0701229DF814172B
:104688008DF8D827012922D19DF80B17884279D1B6
:104698009DF8D0079DF80B17884240F024819DF8BB
:1046A800D1079DF80B17884240F06E819DF8D2071C
:1046B8009DF80B17884240F0C8819DF8D3079DF8F4
:1046C8000B17884240F013820DF5E161B6E19DF8C1
:1046D8002117012907D19DF81817884252D19DF852
:1046E800D0074146ECE09DF82E17012912993CD0DD
:1046F8009DF83B170129119937D09DF848170129D2
:104708000E9932D09DF8551701290C992DD09DF896
:10471800621701290B9928D09DF86F1701290A996A
:1047280023D09DF87C17012909991ED09DF8891777
:104738000129089919D09DF896170129079914D0CD
:104748009DF8A317012906990FD09DF8B0170129E4
:1047580005990AD09DF8BD170129049905D09DF83F
:10476800CA170129039941F0B580C978884209D14F
:104778009DF8D0079DF82E178DF8D827012903D169
:1047880012999DE00020B3E19DF83B17012901D162
:10479800119995E09DF84817012910D10E998FE0DD
:1047A800DDF86804C0F1800111290ED8DDF8643401
:1047B8005BB1802B14D14FF4800A80211FE09DF853
:1047C8005517012906D10C997AE04FF4800A4FF465
:1047D80000161EE09DF86217012941D10B996FE080
:1047E8007F2B01F2B9800D9EC21A4FF4800AF1188E
:1047F800304604F057F9DDF86414DDF86804401A0F
:104808000022C0F180014FF40016CDF86424CDF8E1
:10481800680412290D4628BF1225A1B12918814222
:10482800C1F08B80812981F088800D992A4608443F
:104838004AF29C21C0F6000104F05EFEDDF868042F
:104848002844CDF86804C3A8FEF785FB35465646CC
:10485800CBF80850DBF80000C0077FF496AE05E7F8
:104868009DF86F17012901D10A9929E09DF87C1755
:10487800012901D1099923E09DF88917012901D15E
:1048880008991DE09DF89617012901D1079917E0AD
:104898009DF8A317012901D1069911E09DF8B017D9
:1048A800012901D105990BE09DF8BD17012901D116
:1048B800049905E09DF8CA170129039941F00A8077
:1048C800C97888420FD19DF8D1079DF821178DF836
:1048D800D827012909D19DF81817884254D19DF885
:1048E800D20741469AE0012002E19DF82E170129DE
:1048F80012993CD09DF83B170129119937D09DF8A2
:10490800481701290E9932D09DF8551701290C999D
:104918002DD09DF8621701290B9928D09DF86F17A3
:1049280001290A9923D09DF87C17012909991ED0DD
:104938009DF889170129089919D09DF8961701291A
:10494800079914D09DF8A317012906990FD09DF84F
:10495800B017012905990AD09DF8BD1701290499B6
:1049680005D09DF8CA170129039940F0B387C97883
:10497800884209D19DF8D2079DF82E178DF8D827BF
:10498800012903D1129949E00220B1E09DF83B17B3
:10499800012901D1119941E09DF84817012901D158
:1049A8000E993BE09DF85517012901D10C9935E086
:1049B8009DF86217012901D10B992FE09DF86F1717
:1049C800012901D10A9929E09DF87C17012901D113
:1049D800099923E09DF88917012901D108991DE05B
:1049E8009DF89617012901D1079917E09DF8A3179B
:1049F800012901D1069911E09DF8B017012901D1CB
:104A080005990BE09DF8BD17012901D1049905E02E
:104A18009DF8CA170129039940F05C87C978884234
:104A280013D19DF8D3079DF821178DF8D8270129B0
:104A38000DD19DF818178842414658D19DF8D407E2
:104A4800C978884257D0052052E0032050E09DF8ED
:104A58002E17012912993CD09DF83B17012911996D
:104A680037D09DF8481701290E9932D09DF855176F
:104A780001290C992DD09DF8621701290B9928D08E
:104A88009DF86F1701290A9923D09DF87C170129F1
:104A980009991ED09DF889170129089919D09DF800
:104AA80096170129079914D09DF8A317012906998B
:104AB8000FD09DF8B017012905990AD09DF8BD17A8
:104AC8000129049905D09DF8CA170129039940F0D6
:104AD8000187C97888420AD19DF8D4079DF82E1716
:104AE8008DF8D827012940F0A2861299A8E704205A
:104AF800002109F80010DBF80000800718D4DBF863
:104B08000000400700F11981DBF80000000700F100
:104B1800AA81DBF80000C00640F144829DF8140722
:104B280005218DF8D81705287BD10DF5E160BFE088
:104B38009DF8140702218DF8D817022802D10DF527
:104B4800E16046E09DF821070228404641D09DF8E3
:104B58002E07022812983CD09DF83B07022811988E
:104B680037D09DF8480702280E9832D09DF855078F
:104B780002280C982DD09DF8620702280B9828D09F
:104B88009DF86F0702280A9823D09DF87C07022811
:104B980009981ED09DF889070228089819D09DF811
:104BA80096070228079814D09DF8A30702280698AC
:104BB8000FD09DF8B007022805980AD09DF8BD07C8
:104BC8000228049805D09DF8CA070228039840F0E7
:104BD8008186C0789DF8CF17002900F082809DF863
:104BE800D017002900F087809DF8D117002900F020
:104BF8008C809DF8D217002900F091809DF8D3177A
:104C0800002900F092809DF8D41700297FF477AF2F
:104C1800052109F80100DBF80000400700F18D804C
:104C280072E79DF821070528404641D09DF82E07D8
:104C3800052812983CD09DF83B070528119837D0D5
:104C48009DF8480705280E9832D09DF85507052885
:104C58000C982DD09DF8620705280B9828D09DF850
:104C68006F0705280A9823D09DF87C07052809981E
:104C78001ED09DF889070528089819D09DF8960731
:104C88000528079814D09DF8A307052806980FD083
:104C98009DF8B007052805980AD09DF8BD07052896
:104CA800049805D09DF8CA070528039840F0128695
:104CB800C0789DF8CF17E1B19DF8D01719B39DF8CA
:104CC800D11751B39DF8D21769B39DF8D3170029AE
:104CD80000F065819DF8D417002940F06381052113
:104CE8005EE1002109F80100DBF80000400724D448
:104CF8000AE7002154E1012109F80100DBF800006E
:104D080040071AD400E701214AE1022109F801000D
:104D1800DBF80000400710D4F6E6022140E1032149
:104D280009F80100EBE603213AE1042109F8010042
:104D3800DBF8000040077FF5E7AE9DF81407032174
:104D48008DF8D817032802D10DF5E16046E09DF8EB
:104D580021070328404641D09DF82E0703281298C2
:104D68003CD09DF83B070328119837D09DF8480799
:104D780003280E9832D09DF8550703280C982DD09B
:104D88009DF8620703280B9828D09DF86F07032821
:104D98000A9823D09DF87C07032809981ED09DF80F
:104DA80089070328089819D09DF8960703280798BB
:104DB80014D09DF8A307032806980FD09DF8B007D4
:104DC800032805980AD09DF8BD070328049805D044
:104DD8009DF8CA070328039840F07C85C0789DF8A1
:104DE800CF17C1B19DF8D017E9B19DF8D11711B30C
:104DF8009DF8D21739B39DF8D31761B39DF8D4172E
:104E080000297FF481AE052109F80100DBF80000D4
:104E1800000728D47DE6002109F80100DBF800002E
:104E2800000720D475E6012109F80100DBF800002D
:104E3800000718D46DE6022109F80100DBF800002C
:104E4800000710D465E6032109F80100DBF800002B
:104E5800000708D45DE6042109F80100DBF800002A
:104E680000077FF556AE9DF8140704218DF8D81772
:104E7800042802D10DF5E16046E09DF821070428D9
:104E8800404641D09DF82E07042812983CD09DF842
:104E98003B070428119837D09DF8480704280E9836
:104EA80032D09DF8550704280C982DD09DF862073C
:104EB80004280B9828D09DF86F0704280A9823D057
:104EC8009DF87C07042809981ED09DF889070428B6
:104ED800089819D09DF896070428079814D09DF8CB
:104EE800A307042806980FD09DF8B0070428059852
:104EF8000AD09DF8BD070428049805D09DF8CA0774
:104F08000428039840F0E684C0789DF8CF17C9B10B
:104F18009DF8D017F9B19DF8D11729B39DF8D2178C
:104F280059B39DF8D31789B39DF8D41700297FF496
:104F3800F0AD052109F80100DBF80000C0063FF5D7
:104F4800EDAD2FE0002109F80100DBF80000C006F4
:104F58003FF5E4AD26E0012109F80100DBF8000087
:104F6800C0063FF5DBAD1DE0022109F80100DBF8C2
:104F78000000C0063FF5D2AD14E0032109F8010096
:104F8800DBF80000C0063FF5C9AD0BE0042109F8C5
:104F98000100DBF80000C0063FF5C0AD02E00421C7
:104FA80009F801002020CBF80800CBF80860DBF8EE
:104FB8000000C0071DD1DBF80000800700F11E814A
:104FC800DBF80000400700F1AF81DBF800000007C4
:104FD80000F14082DBF80000C00640F1DA829DF85B
:104FE80014070A218DF8D8170A287BD10DF5E1603E
:104FF800BFE09DF8140706218DF8D817062802D1BE
:105008000DF5E16046E09DF821070628404641D0AD
:105018009DF82E07062812983CD09DF83B070628D5
:10502800119837D09DF8480706280E9832D09DF879
:10503800550706280C982DD09DF8620706280B986E
:1050480028D09DF86F0706280A9823D09DF87C077A
:10505800062809981ED09DF889070628089819D0AF
:105068009DF896070628079814D09DF8A3070628E8
:1050780006980FD09DF8B007062805980AD09DF825
:10508800BD070628049805D09DF8CA070628039886
:1050980040F02084C0789DF8CF17002900F0828066
:1050A8009DF8D017002900F087809DF8D1170029B6
:1050B80000F08C809DF8D217002900F091809DF8AF
:1050C800D317002900F092809DF8D41700297FF4A7
:1050D80072AF052109F80100DBF80000800700F134
:1050E8008D806DE79DF821070A28404641D09DF83C
:1050F8002E070A2812983CD09DF83B070A281198D9
:1051080037D09DF848070A280E9832D09DF85507E1
:105118000A280C982DD09DF862070A280B9828D0E9
:105128009DF86F070A280A9823D09DF87C070A285B
:1051380009981ED09DF889070A28089819D09DF863
:1051480096070A28079814D09DF8A3070A280698F6
:105158000FD09DF8B0070A2805980AD09DF8BD071A
:105168000A28049805D09DF8CA070A28039840F031
:10517800B183C0789DF8CF17E1B19DF8D01719B366
:105188009DF8D11751B39DF8D21769B39DF8D3177D
:10519800002900F0FB819DF8D417002940F0F9811F
:1051A8000521F4E1002109F80100DBF8000080077F
:1051B80024D405E70021EAE1012109F80100DBF820
:1051C800000080071AD4FBE60121E0E1022109F87A
:1051D8000100DBF80000800710D4F1E60221D6E1D7
:1051E800032109F80100E6E60321D0E1042109F8CA
:1051F8000100DBF8000080077FF5E2AE9DF8140798
:1052080007218DF8D817072802D10DF5E16046E08F
:105218009DF821070728404641D09DF82E0707280A
:1052280012983CD09DF83B070728119837D09DF875
:10523800480707280E9832D09DF8550707280C987C
:105248002DD09DF8620707280B9828D09DF86F0786
:1052580007280A9823D09DF87C07072809981ED0AC
:105268009DF889070728089819D09DF896070728F8
:10527800079814D09DF8A307072806980FD09DF823
:10528800B007072805980AD09DF8BD070728049895
:1052980005D09DF8CA070728039840F01B83C078FB
:1052A8009DF8CF17C1B19DF8D017E9B19DF8D11776
:1052B80011B39DF8D21739B39DF8D31761B39DF890
:1052C800D41700297FF47CAE052109F80100DBF82A
:1052D8000000400728D478E6002109F80100DBF82F
:1052E8000000400720D470E6012109F80100DBF82E
:1052F8000000400718D468E6022109F80100DBF82D
:105308000000400710D460E6032109F80100DBF82B
:105318000000400708D458E6042109F80100DBF82A
:10532800000040077FF551AE9DF8140708218DF85D
:10533800D817082802D10DF5E16046E09DF821074D
:105348000828404641D09DF82E07082812983CD0DE
:105358009DF83B070828119837D09DF8480708287A
:105368000E9832D09DF8550708280C982DD09DF836
:10537800620708280B9828D09DF86F0708280A9814
:1053880023D09DF87C07082809981ED09DF8890726
:105398000828089819D09DF896070828079814D067
:1053A8009DF8A307082806980FD09DF8B00708288D
:1053B80005980AD09DF8BD070828049805D09DF8DF
:1053C800CA070828039840F08582C0789DF8CF174F
:1053D800C1B19DF8D017E9B19DF8D11711B39DF867
:1053E800D21739B39DF8D31761B39DF8D4170029A4
:1053F8007FF4EBAD052109F80100DBF80000000798
:1054080028D4E7E5002109F80100DBF800000007CF
:1054180020D4DFE5012109F80100DBF800000007CE
:1054280018D4D7E5022109F80100DBF800000007CD
:1054380010D4CFE5032109F80100DBF800000007CC
:1054480008D4C7E5042109F80100DBF800000007CB
:105458007FF5C0AD9DF8140709218DF8D8170928E4
:1054680002D10DF5E16046E09DF821070928404684
:1054780041D09DF82E07092812983CD09DF83B078B
:105488000928119837D09DF8480709280E9832D076
:105498009DF8550709280C982DD09DF86207092812
:1054A8000B9828D09DF86F0709280A9823D09DF8F3
:1054B8007C07092809981ED09DF8890709280898AB
:1054C80019D09DF896070928079814D09DF8A307C6
:1054D800092806980FD09DF8B007092805980AD022
:1054E8009DF8BD070928049805D09DF8CA07092822
:1054F800039840F0EF81C0789DF8CF17C9B19DF8A7
:10550800D017F9B19DF8D11729B39DF8D21759B31F
:105518009DF8D31789B39DF8D41700297FF45AADA5
:10552800052109F80100DBF80000C0063FF557AD7A
:105538002FE0002109F80100DBF80000C0063FF564
:105548004EAD26E0012109F80100DBF80000C00695
:105558003FF545AD1DE0022109F80100DBF8000028
:10556800C0063FF53CAD14E0032109F80100DBF863
:105578000000C0063FF533AD0BE0042109F8010037
:10558800DBF80000C0063FF52AAD02E0042109F867
:1055980001004020CBF808004FF40000CBF80800C9
:1055A800DBF80000C00707D1DBF80000DBF80000DB
:1055B800400740F1ED807AE09DF814070B218DF843
:1055C800D8170B2802D10DF5E16046E09DF82107B8
:1055D8000B28404641D09DF82E070B2812983CD046
:1055E8009DF83B070B28119837D09DF848070B28E2
:1055F8000E9832D09DF855070B280C982DD09DF8A1
:1056080062070B280B9828D09DF86F070B280A987B
:1056180023D09DF87C070B2809981ED09DF8890790
:105628000B28089819D09DF896070B28079814D0CE
:105638009DF8A3070B2806980FD09DF8B0070B28F4
:1056480005980AD09DF8BD070B28049805D09DF849
:10565800CA070B28039840F03D81C0789DF8CF1702
:1056680091B19DF8D01789B19DF8D11781B19DF8F6
:10567800D21779B19DF8D31781B19DF8D4170029B5
:105688007FF492AF05210AE0002108E0012106E03D
:10569800022104E0032109F8010085E7042109F843
:1056A8000100DBF80000DBF80000400770D59DF82A
:1056B80014070D218DF8D8170D2802D10DF5E160DA
:1056C80046E09DF821070D28404641D09DF82E0759
:1056D8000D2812983CD09DF83B070D28119837D01B
:1056E8009DF848070D280E9832D09DF855070D28CB
:1056F8000C982DD09DF862070D280B9828D09DF89E
:105708006F070D280A9823D09DF87C070D28099863
:105718001ED09DF889070D28089819D09DF896077E
:105728000D28079814D09DF8A3070D2806980FD0C8
:105738009DF8B0070D2805980AD09DF8BD070D28DB
:10574800049805D09DF8CA070D28039840F0C28038
:10575800C0789DF8CF1781B19DF8D01779B19DF821
:10576800D11771B19DF8D21769B19DF8D31761B1FE
:105778009DF8D41761B9052108E0002106E0012150
:1057880004E0022102E0032100E0042109F80100FD
:10579800DBF80000DBF800008020CBF808009DF85B
:1057A8005D020138012803D89DF80813022935D174
:1057B8009DF8FC0207283EF472AB0F98382103F0DD
:1057C80044FEBD99BDF8CC07BDF8CF27DDF8D13729
:1057D80027F8400C27F83E2C47F83C3C0868BFF3F4
:1057E8005F8F002800F093809DF9FA12B1F1FF3F16
:1057F8003EF755ABC9B201F07F0103293EF64FAB26
:1058080001EB410100EB8100017907293EF447AB28
:105818002146082201F0B1F9FEF741BB9DF85C0270
:10582800C9077EF439AB00283EF439ABC0E79DF8D0
:105838003B17012902D11199FFF702B99DF84817C2
:10584800012902D10E99FFF7FBB89DF855170129D8
:1058580002D10C99FFF7F4B89DF86217012902D11B
:105868000B99FFF7EDB89DF86F17012902D10A9936
:10587800FFF7E6B89DF87C17012902D10999FFF7CF
:10588800DFB89DF88917012902D10899FFF7D8B820
:105898009DF89617012902D10799FFF7D1B89DF80D
:1058A800A317012902D10699FFF7CAB89DF8B017C6
:1058B800012902D10599FFF7C3B89DF8BD17012941
:1058C80002D10499FFF7BCB89DF8CA1701290399BA
:1058D8003FF4B6A847F6E91049F6BC42C0F6000006
:1058E800A7F1400147F83C0C0DF5FB6047F8400C68
:1058F80049F2E170C0F60000C0F6000203F0ACF80F
:105908004AF2C8038022C0F6000302F0EFFF49F60E
:10591800784049F69C42C0F60000C0F600022221F9
:1059280003F094F84AF270004AF2B802C0F6000098
:10593800C0F60002452103F089F84AF2600380228C
:10594800C0F6000302F0D2FF4AF250032946C0F61F
:105958000003802202F0CAFF4AF240021846C0F64D
:105968000002802103F05EF847F6E91049F6AC42E0
:10597800C0F60000A7F1400147F83C0C0DF2CC70CE
:1059880047F8400C49F2E170C0F60000C0F600028A
:1059980003F062F880B56F46FEF750F8D0B502AF55
:1059A80086B000248DE813004AF2D421C0F6000125
:1059B800684602F0DDF810B1204606B0D0BDDDE93A
:1059C8000102824202D9204606B0D0BD009903A840
:1059D80002F04CFE0599DDE90304002818BF0024F5
:1059E800204606B0D0BDF0B503AF4DF8048D82B0A7
:1059F80000228029019207D28DF804100125D0E9F0
:105A08000116B1422AD252E04FF6FE760B46C0F29A
:105A1800FF368A0966F39F13B1F5006F0BD242F087
:105A2800C0018DF805308DF804100225D0E9011663
:105A3800B14213D23BE066F39F120D0BB1F5803FE4
:105A480022D245F0E00103258DF806308DF80520B7
:105A58008DF80410D0E90116B14228D38A1B0168D9
:105A6800002480468B1901A9AA4228BF2A46184655
:105A780038BF012403F040FD7019C8F8080020461B
:105A880002B05DF8048BF0BD66F39F156FF00F044C
:105A980044EA91418DF805508DF8073004258DF8BA
:105AA80006208DF80410D0E90116B142D6D201249F
:105AB800204602B05DF8048BF0BD80B56F461346F2
:105AC8000A464AF2D421C0F60001BDE8804002F03F
