:020000040800F2
:1000000000000220990100089B5D0008A976000805
:100010009B5D00089B5D00089B5D000800000000E0
:100020000000000000000000000000009B5D0008D0
:100030009B5D0008000000009B5D00089B5D0008C0
:100040009B5D00089B5D00089B5D00089B5D0008B0
:100050009B5D00089B5D00089B5D00089B5D0008A0
:100060009B5D00089B5D00089B5D00089B5D000890
:100070009B5D00089B5D00089B5D00089B5D000880
:100080009B5D00089B5D00089B5D00080000000070
:100090000000000000000000000000009B5D000860
:1000A0009B5D00089B5D00089B5D00089B5D000850
:1000B0009B5D00089B5D00089B5D00089B5D000840
:1000C0009B5D00089B5D00089B5D00089B5D000830
:1000D0009B5D00089B5D00089B5D00080000000020
:1000E0009B5D00089B5D00089B5D00080000000010
:1000F0000000000000000000000000009B5D000800
:10010000000000009B5D00089B5D00089B5D0008EF
:1001100000000000000000000000000000000000DF
:100120009B5D00089B5D00089B5D00089B5D0008CF
:100130009B5D0008000000000000000000000000BF
:100140000000000000000000000000009B5D0008AF
:100150009B5D00089B5D00089B5D00089B5D00089F
:100160009B5D00089B5D000800000000000000008F
:10017000000000000000000000000000000000007F
:10018000000000009B5D000800000000000000006F
:080190009B5D00089B5D000867
:1001980005F002FE0E480F490022814201D004C03A
:1001A800FBE70D480D490E4A814202D008CA08C033
:1001B800FAE70C484FF47001026842EA0102026053
:1001C800BFF34F8FBFF36F8F03F068FF00DE0000AF
:1001D8000000002004100020000000200000002083
:1001E800F888000888ED00E0D0B502AF018806293C
:1001F80017D181690968BFF35F8F01B390F91E2099
:10020800B2F1FF3F0BDCD2B202F07F02032A06D81C
:1002180002EB420201EB82010A79072A03D1052089
:10022800D0BD0720D0BD044608460121002204F0B5
:1002380068FFC0B2082804BF08202080D0BD48F25B
:10024800CC1048F2F012C0F60000C0F600022221DD
:1002580006F0CAFCF0B503AF4DF8048D86B00A88E5
:10026800531E032B54D3052A52D0072A78D1D1F82C
:10027800AC50D1F806604A89802DD1F80230ADF82B
:100288000C20CDE9013600F2ED80CA681268BFF390
:100298005F8F002A00F0DB808B7C032B08D8C3EB30
:1002A800C30302EB830494F87020072A40F0A2806D
:1002B8000E4640F20151ADF810109DF811100029BA
:1002C80048D0F168092232800968BFF35F8F00299E
:1002D80000F0BD80B17C11F07C0F06D104464FF0D0
:1002E800A040012205F002F92046B1690968BFF370
:1002F8005F8F002900F0AB80B17F11F07C0F29D10E
:1003080004464FF0A040012205F0F0F8204621E015
:10031800CA681268BFF35F8F002A00F098808B7C50
:10032800032B2ED8C3EBC30302EB830292F8703081
:10033800072B26D00C4602F16C0104AA06460023BE
:1003480000251046012204F0E6FF9DF81010304603
:10035800D1B925800421417206B05DF8048BF0BD47
:10036800CA681268BFF35F8F002A70D08B7C032B9A
:1003780007D8C3EBC30302EB830292F87030072B54
:100388000BD105218DF811109DF81110052242722C
:10039800017006B05DF8048BF0BD0D4602F16C01EA
:1003A80004AA044600231046012204F0B4FF9DF875
:1003B800101020460029E7D1E96809232B80096835
:1003C800BFF35F8F002942D0A97C2A4611F07C0F29
:1003D80006D14FF0A040012205F088F82A462046B1
:1003E80091690968BFF35F8F89B3917F11F07C0F22
:1003F800B0D186E70E46294401F1240204F16C01CC
:1004080004ACC5F180038046204604F084FF9DF8C3
:100418001010404600297FF450AF059A5119A9429F
:1004280029D3812927D2D6E92B131144C6F8AC1059
:1004380099428FD3DDE901120625BDF80C303580CD
:1004480001604260038106B05DF8048BF0BD48F29C
:10045800CC1048F2F012C0F60000C0F600022221CB
:1004680006F0C2FB47F610532846C0F60003802169
:10047800802206F009FB47F600532846C0F6000321
:10048800802206F001FBF0B503AF2DE9000F83B021
:100498000446C8680068BFF35F8F002800F08580B5
:1004A8008A7C032A21D8C2EBC20200EB820090F8B2
:1004B8007020072A19D000F16C0201F124050E46BC
:1004C800684611462A46802304F025FF9DF800005F
:1004D80001280AD0019A812A72D26846294605F075
:1004E80014FC9DF80900042805D10420607203B0AB
:1004F800BDE8000FF0BDF168BDF808A09DF80750F1
:100508009DF80690BDF804B0DDF800800968BFF3D7
:100518005F8F002949D0B17C304611F07C0F05D19E
:100528004FF0A040002204F0E1FF3046BDB10421A5
:10053800A0F80AA0457280F80890A0F806B0C0F8A4
:1005480002800180A4F808A0E57184F80690A4F858
:1005580004B0C4F8008003B0BDE8000FF0BDBBF1E3
:10056800000F11D0BBF1800FBFD80021A0F80AA05E
:10057800C0E92B1B4172072180F80890A0F806B04B
:10058800C0F802800180B0E70621A4F808A0018025
:100598000021C0F8B010E17184F80690A180C4F879
:1005A800008003B0BDE8000FF0BD48F2CC1048F25F
:1005B800F012C0F60000C0F60002222106F014FB7B
:1005C80047F620531146C0F600030020802206F0AB
:1005D8005BFAF0B503AF4DF804BD0246D0E9293403
:1005E800D0F8AC00D2F8B010002B958B08BF80244F
:1005F800091AA94238BF0D46291844D2A14242D847
:100608009169002B08BF02F124030968BFF35F8FCB
:1006180000293FD092F91E60B6F1FF3F0CDCF6B21C
:1006280006F07F06032E07D806EB460601EB860C7C
:100638009CF80410072903D105205DF804BBF0BD20
:100648001918164660462A4604F05BFDC0B2082811
:1006580016D1D6F8AC00411927D2A14225D8D6F830
:10066800B0003246C6F8AC10814208D30020918B06
:10067800C2F8A40003208D4208BF02201080082081
:100688005DF804BBF0BD47F640532246C0F60003B0
:1006980006F0FAF948F2CC1048F2F012C0F6000061
:1006A800C0F60002222106F09FFA47F63053224690
:1006B800C0F6000306F0E8F9B0B502AF01884B1E9A
:1006C8000021072B42D80022DFE803F004230E3E66
:1006D8003E3E3E3CFFF77DFFC1B2B1F108020CBFC0
:1006E800114601221046B0BDC1680968BFF35F8F8B
:1006F80000293ED0817C11F07C0F05D104464FF0D3
:10070800A04004F0F3FE20460521018000210020CE
:10071800B0BD81690968BFF35F8F51B390F91E209E
:10072800B2F1FF3F0BDCD2B202F07F02032A06D8F7
:1007380002EB420201EB82010A79072A08D1012063
:100748000521B0BD012102801046B0BD0020B0BD1A
:100758000446084601210022012504F0D2FCC1B25A
:10076800082904D10320208000210020B0BD28469C
:10077800B0BD48F2CC1048F2F012C0F60000C0F646
:100788000002222106F030FAF0B503AF2DE9000788
:1007980088B00288042A57D1D1E9002580238C68C3
:1007A8000021B0F8069080462430049006916846EF
:1007B80005938DF81C1002910091116804F0BEFE9B
:1007C800C0B208283CD18CB105EBC4066C464FF08A
:1007D800000AD5E90001CA6821469047C1B2082934
:1007E8002ED10835CDF808A0B542F2D1684604F0FC
:1007F8008DFF069980292CD9D8F80C100922A8F861
:1008080000200968BFF35F8FA1B398F81210404623
:1008180011F07C0F05D14FF0A040012204F066FED4
:10082800404681690968BFF35F8F19B3817F11F072
:100838007C0F04D14FF0A040012204F057FE0220A3
:1008480008B0BDE80007F0BD072008B0BDE8000704
:10085800F0BD012340460022A8F80030494538BFC2
:100868008946C0E92B29FFF7B4FEC0B208B0BDE83D
:100878000007F0BD48F2CC1048F2F012C0F60000B4
:10088800C0F60002222106F0AFF9F0B503AF2DE95A
:10089800000B8CB00C460188042953D1B0F806909F
:1008A80080462430059001A80B9009A80021154620
:1008B8008022079106928DF82010039101910991E9
:1008C80005F0B6F9C0B2082838D16DB104EBC506F9
:1008D80009ADD4E900010A6929469047C1B208293F
:1008E8002CD10834B442F4D109A805F0FAF90799D3
:1008F80080292CD9D8F80C100922A8F800200968FA
:10090800BFF35F8FA1B398F81210404611F07C0F27
:1009180005D14FF0A040012204F0E8FD404681696E
:100928000968BFF35F8F19B3817F11F07C0F04D181
:100938004FF0A040012204F0D9FD02200CB0BDE820
:10094800000BF0BD07200CB0BDE8000BF0BD012383
:1009580040460022A8F80030494538BF8946C0E91A
:100968002B29FFF736FEC0B20CB0BDE8000BF0BD76
:1009780048F2CC1048F2F012C0F60000C0F60002AF
:10098800222106F031F9B0B502AF88B00288042AF6
:1009980038D109680446C588243000228023049091
:1009A8006846069205938DF81C200292009204F086
:1009B8006CFFC0B2082823D10699802925D9E1689F
:1009C800092222800968BFF35F8F61B3A17C2046AA
:1009D80011F07C0F05D14FF0A040012204F086FDF4
:1009E800204681690968BFF35F8FE1B1817F11F00B
:1009F8007C0F04D14FF0A040012204F077FD0220C3
:100A080008B0B0BD072008B0B0BD012320460022C1
:100A18002380A94238BF0D46C0E92B25FFF7D9FD31
:100A2800C0B208B0B0BD48F2CC1048F2F012C0F61F
:100A38000000C0F60002222106F0D6F8B0B502AFD9
:100A480088B00288042A39D18024D1E9001205949B
:100A58000446C588243000230490684606938DF820
:100A68001C300293009304F0B7FFC0B2082823D1CA
:100A78000699802925D9E168092222800968BFF3EF
:100A88005F8F61B3A17C204611F07C0F05D14FF038
:100A9800A040012204F02AFD204681690968BFF3BD
:100AA8005F8FE1B1817F11F07C0F04D14FF0A0403E
:100AB800012204F01BFD022008B0B0BD072008B0D9
:100AC800B0BD0123204600222380A94238BF0D462D
:100AD800C0E92B25FFF77DFDC0B208B0B0BD48F2D4
:100AE800CC1048F2F012C0F60000C0F60002222135
:100AF80006F07AF8B0B502AF88B08C4601880429B0
:100B080040D111688023C5880022059300F1240391
:100B1800D1F8C011049306924B00212B8DF81C20AC
:100B2800029200923FD2044668460321624604F0CE
:100B38005DFEC0B2082823D10699802925D9E1682D
:100B4800092222800968BFF35F8FB1B3A17C2046D8
:100B580011F07C0F05D14FF0A040012204F0C6FC33
:100B6800204681690968BFF35F8F31B3817F11F037
:100B78007C0F04D14FF0A040012204F0B7FC022002
:100B880008B0B0BD072008B0B0BD01232046002240
:100B98002380A94238BF0D46C0E92B25FFF719FD70
:100BA800C0B208B0B0BD47F6C05C0020C0F6000C6B
:100BB80019462022634605F067FF48F2CC1048F238
:100BC800F012C0F60000C0F60002222106F00CF870
:100BD800F0B503AF4DF804BD0288042A06D14C686D
:100BE800802C07D902205DF804BBF0BD07205DF812
:100BF80004BBF0BD096800F12402C688054610460A
:100C0800224606F047FD0020B44238BF2646C5E913
:100C18002B060120288028465DF804BBBDE8F0407B
:100C2800FFF7D7BCD0B502AFC168092202800968B6
:100C3800BFF35F8FD9B1817C11F07C0F06D10446D8
:100C48004FF0A040012204F051FC20468169096858
:100C5800BFF35F8F59B1817F11F07C0F18BFD0BDF2
:100C68004FF0A0400122BDE8D04004F03FBC48F25C
:100C7800CC1048F2F012C0F60000C0F600022221A3
:100C880005F0B2FFF0B503AF4DF804BD0C460546BC
:100C980005F07CF8064605F06CF8D5F89401D0F814
:100CA800001864F30A11C0F80018F00705D15DF8C0
:100CB80004BBBDE8F04005F05EB85DF804BBF0BDCC
:100CC800F0B503AF2DE9000F83B00E46814605F05D
:100CD8005DF8054605F04DF8D6F89411D1F83CB00A
:100CE8004C69E0040FD4A0046ED4B4F1FF3F40F384
:100CF800FE82200500F11583E00600F12083002222
:100D08004FF0000ADDE34FF480504861D6F89401B3
:100D1800D0F81C180021C0F81C183079072875D1A4
:100D2800307C072840F09080307F072840F0AA8068
:100D380096F82800072840F0C58096F83400072860
:100D480040F0E08096F84000072840F0FB8096F8D5
:100D58004C00072840F0168196F85800072840F004
:100D6800318196F86400072840F04C8196F87000AD
:100D7800072840F0678196F88C00072840F08581A5
:100D880096F8A800072840F0A48196F8C400072820
:100D980040F0C38196F8E000072840F0E28196F819
:100DA800FC00072840F0018296F81801072840F057
:100DB800208296F83401072840F03F8296F85001C7
:100DC800072840F05D827AE24FF400504861D6F877
:100DD8009401D0F80818C1F34101DFE811F08D0241
:100DE80004007D050400D6F890214AF6C041C0F2FF
:100DF800D8018A42C0F07B854EF2C011C0F2E401EE
:100E08008A4280F085824FF4705104E3307A316869
:100E180010F07F0001EB4010D0F8001921F40041D8
:100E2800C0F80019D0F8001900F5106006D0B1F12B
:100E3800FF3FDEBF016841F080410160FF21816012
:100E4800307C07283FF470AF307DF16810F07F00E8
:100E580001EB4010D0F8001921F40041C0F8001946
:100E6800D0F8001900F5106006D0B1F1FF3FDEBFE1
:100E7800016841F080410160FF218160307F0728CF
:100E88003FF456AF96F82000B16910F07F0001EBEF
:100E98004010D0F8001921F40041C0F80019D0F82A
:100EA800001900F5106006D0B1F1FF3FDEBF016800
:100EB80041F080410160FF21816096F828000728F1
:100EC8003FF43BAF96F82C00716A10F07F0001EBFD
:100ED8004010D0F8001921F40041C0F80019D0F8EA
:100EE800001900F5106006D0B1F1FF3FDEBF0168C0
:100EF80041F080410160FF21816096F834000728A5
:100F08003FF420AF96F83800316B10F07F0001EB0A
:100F18004010D0F8001921F40041C0F80019D0F8A9
:100F2800001900F5106006D0B1F1FF3FDEBF01687F
:100F380041F080410160FF21816096F84000072858
:100F48003FF405AF96F84400F16B10F07F0001EB19
:100F58004010D0F8001921F40041C0F80019D0F869
:100F6800001900F5106006D0B1F1FF3FDEBF01683F
:100F780041F080410160FF21816096F84C0007280C
:100F88003FF4EAAE96F85000B16C10F07F0001EB28
:100F98004010D0F8001921F40041C0F80019D0F829
:100FA800001900F5106006D0B1F1FF3FDEBF0168FF
:100FB80041F080410160FF21816096F858000728C0
:100FC8003FF4CFAE96F85C00716D10F07F0001EB36
:100FD8004010D0F8001921F40041C0F80019D0F8E9
:100FE800001900F5106006D0B1F1FF3FDEBF0168BF
:100FF80041F080410160FF21816096F86400072874
:101008003FF4B4AE96F86800316E10F07F0001EB43
:101018004010D0F8001921F40041C0F80019D0F8A8
:10102800001900F5106006D0B1F1FF3FDEBF01687E
:1010380041F080410160FF21816096F87000072827
:101048003FF499AE96F87400F16E00F07F0001EB62
:101058004010D0F8001B21F40041C0F8001BD0F864
:10106800001B00F53060B1F1FF3F07DC96F8741003
:1010780049061EBF016841F080410160FF2181607F
:1010880096F88C0007283FF47BAE96F89000D6F8C7
:10109800881000F07F0001EB4010D0F8001B21F40D
:1010A8000041C0F8001BD0F8001B00F53060B1F11A
:1010B800FF3F07DC96F8901049061EBF016841F013
:1010C80080410160FF21816096F8A80007283FF45D
:1010D8005CAE96F8AC00D6F8A41000F07F0001EBE7
:1010E8004010D0F8001B21F40041C0F8001BD0F8D4
:1010F800001B00F53060B1F1FF3F07DC96F8AC103B
:1011080049061EBF016841F080410160FF218160EE
:1011180096F8C40007283FF43DAE96F8C800D6F804
:10112800C01000F07F0001EB4010D0F8001B21F444
:101138000041C0F8001BD0F8001B00F53060B1F189
:10114800FF3F07DC96F8C81049061EBF016841F04A
:1011580080410160FF21816096F8E00007283FF494
:101168001EAE96F8E400D6F8DC1000F07F0001EB24
:101178004010D0F8001B21F40041C0F8001BD0F843
:10118800001B00F53060B1F1FF3F07DC96F8E41072
:1011980049061EBF016841F080410160FF2181605E
:1011A80096F8FC0007283FF4FFAD96F80001D6F842
:1011B800F81000F07F0001EB4010D0F8001B21F47C
:1011C8000041C0F8001BD0F8001B00F53060B1F1F9
:1011D800FF3F07DC96F8001149061EBF016841F081
:1011E80080410160FF21816096F8180107283FF4CB
:1011F800E0AD96F81C01D6F8141100F07F0001EB61
:101208004010D0F8001B21F40041C0F8001BD0F8B2
:10121800001B00F53060B1F1FF3F07DC96F81C11A8
:1012280049061EBF016841F080410160FF218160CD
:1012380096F8340107283FF4C1AD96F83801D6F87E
:10124800301100F07F0001EB4010D0F8001B21F4B2
:101258000041C0F8001BD0F8001B00F53060B1F168
:10126800FF3F07DC96F8381149061EBF016841F0B8
:1012780080410160FF21816096F8500107281ED047
:1012880096F85401D6F84C1100F07F0001EB40109D
:10129800D0F8001B21F40041C0F8001BD0F8001B57
:1012A80000F53060B1F1FF3F07DC96F854114906AC
:1012B8001EBF016841F080410160FF218160D6F8BE
:1012C8009401016941F010010161D6F8941108698F
:1012D800C0067FF508AD0869C00644BF08695FEA23
:1012E800C0607FF500AD0869C006F0D4FBE44FF09C
:1012F80000404861042094E0D6F890114CF27F3207
:10130800C0F2C912914240F2FD824FF4105182E0BE
:1013180042F20041C0F2F4018A4207D24FF4605110
:1013280079E04FF40060486103207AE047F28031A9
:10133800C0F206118A4217D24FF450516BE0D1F82F
:101348001CC00CF00F08CCF3434EAEF1030002288A
:1013580013D3BEF1060F33D0BEF1020F1DD1012009
:10136800002300FA08F26BE044F6A011C0F21A114B
:101378008A421CD24FF440514DE0BBF5885F18BF3C
:10138800BBF5905F09D101EB4810D0F8001B41F084
:101398000441C0F8001BD6F89411086A00224EF0E8
:1013A80004004FF0000A0023062849D089E042F6DD
:1013B8000051C0F231118A4224D24FF430512AE050
:1013C80001EB48102A460025D0F81009C1F6F87537
:1013D800284230D00869154620F4FC6040EA88109D
:1013E80020300861D6F894110869800624D5086968
:1013F800800644BF08695FEA80601DD508698006D9
:10140800F2D419E04AF24041C0F24C118A4280F00D
:1014180048824FF42051C26822F470521143C160CF
:101428000120A9F80000E80708BF04F0A4FC03B0F5
:10143800BDE8000FF0BD15460120002200FA08F3B0
:10144800B8F1080F029500F26E82C8EBC800924608
:1014580006EB800090F87050072D30D000F16C0535
:10146800E868002840F05982A87E4FF0FF32EA6011
:1014780010BB0193AEF10603B3FA83F3086A05F1D2
:101488001000CCF30A125B0903F0D5FDBBF50C5F25
:10149800C0F2FE81019B05D0BBF5405F18BFBBF5CC
:1014A800445F09D1D6F8940100EB4810D0F8001B2E
:1014B80041F00441C0F8001BE8680130E8601A46B2
:1014C800029D600303D44FF000081446FAE0307917
:1014D800072803D14FF00008144617E0307A144665
:1014E800D6F8941100F07F0001EB4010D0F80819ED
:1014F800C90702D14FF0000808E000F5106001218B
:101508008160307A00F00F0001FA00F8307C07287B
:1015180015D0307DD6F8941100F07F0001EB401013
:10152800D0F80819C9070AD000F5106001218160B8
:10153800307D00F00F0001FA00F048EA0008307F23
:10154800072817D096F82000D6F8941100F07F00ED
:1015580001EB4010D0F80819C9070BD000F510604E
:101568000121816096F8200000F00F0001FA00F0D8
:1015780048EA000896F82800072817D096F82C00A3
:10158800D6F8941100F07F0001EB4010D0F808194C
:10159800C9070BD000F510600121816096F82C0076
:1015A80000F00F0001FA00F048EA000896F834004D
:1015B800072817D096F83800D6F8941100F07F0065
:1015C80001EB4010D0F80819C9070BD000F51060DE
:1015D8000121816096F8380000F00F0001FA00F050
:1015E80048EA000896F84000072817D096F8440003
:1015F800D6F8941100F07F0001EB4010D0F80819DC
:10160800C9070BD000F510600121816096F84400ED
:1016180000F00F0001FA00F048EA000896F84C00C4
:10162800072817D096F85000D6F8941100F07F00DC
:1016380001EB4010D0F80819C9070BD000F510606D
:101648000121816096F8500000F00F0001FA00F0C7
:1016580048EA000896F85800072817D096F85C0062
:10166800D6F8941100F07F0001EB4010D0F808196B
:10167800C9070BD000F510600121816096F85C0065
:1016880000F00F0001FA00F048EA000896F864003C
:10169800072817D096F86800D6F8941100F07F0054
:1016A80001EB4010D0F80819C9070BD000F51060FD
:1016B8000121816096F8680000F00F0001FA00F03F
:1016C80048EA000896F8700007281AD006F16C005E
:1016D80003F0F7FDC0B202280BD0012811D196F80B
:1016E8007400012100F00F0001FA00F04AEA000A34
:1016F80007E096F87400012100F00F0001FA00F0ED
:10170800044396F88C00072812D006F1880003F0ED
:10171800D8FDC0B260B1012896F890004FF00101E1
:1017280000F00F0001FA00F00CBF4AEA000A044377
:1017380096F8A800072812D006F1A40003F0C1FD0E
:10174800C0B260B1012896F8AC004FF0010100F07A
:101758000F0001FA00F00CBF4AEA000A044396F8A9
:10176800C400072812D006F1C00003F0AAFDC0B2D9
:1017780060B1012896F8C8004FF0010100F00F0091
:1017880001FA00F00CBF4AEA000A044396F8E000A8
:10179800072812D006F1DC0003F093FDC0B260B157
:1017A800012896F8E4004FF0010100F00F0001FA5B
:1017B80000F00CBF4AEA000A044396F8FC00072828
:1017C80012D006F1F80003F07CFDC0B260B1012828
:1017D80096F800014FF0010100F00F0001FA00F047
:1017E8000CBF4AEA000A044396F81801072812D0E9
:1017F80006F58A7003F065FDC0B260B1012896F85D
:101808001C014FF0010100F00F0001FA00F00CBFBD
:101818004AEA000A044396F83401072812D006F56C
:10182800987003F04EFDC0B260B1012896F83801F7
:101838004FF0010100F00F0001FA00F00CBF4AEA76
:10184800000A044396F85001072812D006F5A6703E
:1018580003F037FDC0B260B1012896F854014FF08B
:10186800010100F00F0001FA00F00CBF4AEA000A7B
:10187800044344EA080050EA0A0007D0A9F80640E1
:101888000220A9F80480A9F802A0CAE50020C8E54A
:10189800019BBBF5005F18BFBBF5045F3FF402AEC8
:1018A8000AE643F20061C0F26E118A42FFF42DADE0
:1018B80049F6E051C0F2A3118A4202D24FF4005116
:1018C800A9E544F600034FF4C051C0F2E8139A4268
:1018D80038BF4FF4E0519EE547F6746047F68462DE
:1018E800C0F60000C0F600020F2105F07DF947F6AA
:1018F8003C6047F66462C0F60000C0F6000218219A
:1019080005F072F947F63C6047F65462C0F60000ED
:10191800C0F60002182105F067F947F62C60C0F6FA
:10192800000005F085F847F61C624046C0F6000244
:10193800092105F045F9B0B502AF82B0044604F0BC
:1019480025FA054604F015FAB4F87001D4F8941194
:101958001E3082B24A62B4F87811D4F89421C0EAF1
:10196800014308449362B4F87A21D4F89431C0EA68
:1019780002411044C3F80411B4F87C11D4F894312E
:10198800C0EA01420844C3F80821B4F87E21D4F81B
:101998009431C0EA02411044C3F80C1180B2B0F58A
:1019A800A07F00F21D82D4F894014322016962F3FA
:1019B8000A110161D4F89401016911F0300F0BD0BC
:1019C800016911F0300F1CBF016911F0300F03D00D
:1019D800016911F0300FEFD12179072951D1207C0D
:1019E800072861D1207F072874D194F82800072898
:1019F80040F0898094F83400072840F09D8094F8DE
:101A08004000072840F0B18094F84C00072840F0C7
:101A1800C58094F85800072840F0D98094F86400ED
:101A2800072840F0ED8094F87000072840F0018105
:101A380094F88C00072840F0138194F8A800072830
:101A480040F0258194F8C400072840F0378194F8C5
:101A5800E000072840F0498194F8FC00072840F08E
:101A68005B8194F81801072840F06D8194F83401DF
:101A7800072840F07F8194F85001072840F09081B2
:101A8800A0E1D0F81C180123227A02F01F0203FA01
:101A980002F21143C0F81C18A7F10901204603F00F
:101AA800BAFB207C07289DD0D4F894010123D0F8F4
:101AB8001C18227D02F01F0203FA02F21143C0F83B
:101AC8001C1804F10C00A7F1090103F0A4FB207F06
:101AD80007288AD0D4F894010123D0F81C1894F868
:101AE800202002F01F0203FA02F21143C0F81C186A
:101AF80004F11800A7F1090103F08DFB94F8280000
:101B080007283FF477AFD4F894010123D0F81C18C4
:101B180094F82C2002F01F0203FA02F21143C0F8D5
:101B28001C1804F12400A7F1090103F074FB94F8D0
:101B3800340007283FF463AFD4F894010123D0F8A8
:101B48001C1894F8382002F01F0203FA02F211431D
:101B5800C0F81C1804F13000A7F1090103F05BFB81
:101B680094F8400007283FF44FAFD4F894010123BC
:101B7800D0F81C1894F8442002F01F0203FA02F26D
:101B88001143C0F81C1804F13C00A7F1090103F047
:101B980042FB94F84C0007283FF43BAFD4F894017B
:101BA8000123D0F81C1894F8502002F01F0203FA01
:101BB80002F21143C0F81C1804F14800A7F109010A
:101BC80003F029FB94F8580007283FF427AFD4F80E
:101BD80094010123D0F81C1894F85C2002F01F022D
:101BE80003FA02F21143C0F81C1804F15400A7F1DB
:101BF800090103F010FB94F8640007283FF413AFC1
:101C0800D4F894010123D0F81C1894F8682002F045
:101C18001F0203FA02F21143C0F81C1804F1600015
:101C2800A7F1090103F0F7FA94F8700007283FF4C8
:101C3800FFAE94F8741004F16C00490607D1D4F88B
:101C48009411D1F81C2842F48032C1F81C28A7F15D
:101C5800090103F0EBFB94F88C0007283FF4EDAE84
:101C680094F8901004F18800490607D1D4F894112B
:101C7800D1F81C2842F48032C1F81C28A7F10901C8
:101C880003F0D4FB94F8A80007283FF4DBAE94F8DF
:101C9800AC1004F1A400490607D1D4F89411D1F886
:101CA8001C2842F48032C1F81C28A7F1090103F06E
:101CB800BDFB94F8C40007283FF4C9AE94F8C810D7
:101CC80004F1C000490607D1D4F89411D1F81C28B2
:101CD80042F48032C1F81C28A7F1090103F0A6FBE1
:101CE80094F8E00007283FF4B7AE94F8E41004F144
:101CF800DC00490607D1D4F89411D1F81C2842F425
:101D08008032C1F81C28A7F1090103F08FFB94F871
:101D1800FC0007283FF4A5AE94F8001104F1F80080
:101D2800490607D1D4F89411D1F81C2842F480321E
:101D3800C1F81C28A7F1090103F078FB94F81801F1
:101D480007283FF493AE94F81C1104F58A704906ED
:101D580007D1D4F89411D1F81C2842F48032C1F884
:101D68001C28A7F1090103F061FB94F83401072846
:101D78003FF481AE94F8381104F59870490607D1FC
:101D8800D4F89411D1F81C2842F48032C1F81C28E8
:101D9800A7F1090103F04AFB94F85001072811D074
:101DA80094F8541104F5A670490607D1D4F8941193
:101DB800D1F81C2842F48032C1F81C28A7F1090187
:101DC80003F034FBD4F89401D0F8001821F4FE6134
:101DD800C0F80018E80708BF03F0CDFF02B0B0BD97
:101DE80047F6D05047F60C62C0F60000C0F6000275
:101DF8003C2104F0F9FEB0B502AF054602F0A4F9A3
:101E080003F0C4FF044603F0B4FFD5F89401C16B96
:101E18000269002A09D40269002A5CBF0269002A03
:101E280003D40269B2F1FF3FF2DCC2684FF6FF63E8
:101E3800CBF6FF731A4002F18042C2600269002AA1
:101E480009D40269002A5CBF0269002A03D4026926
:101E5800B2F1FF3FF2DC026942F00102026102695D
:101E6800D20709D00269D2071CBF02695FEAC272B1
:101E780002D00269D207F2D1826BB1F5045F42F455
:101E88008032826309DBB1F5405F15DAB1F5045F92
:101E980016D0B1F50C5F13D01AE0B1F5885F18BF02
:101EA800B1F5905F41D1816B41F400118163816B81
:101EB80021F4E01181630BE018BFB1F5445F07D14D
:101EC800816B21F400118163016841F0C001016058
:101ED800002141F60302C0F8001ED0F8041841F0B2
:101EE8000201C0F80418D0F8001891430331C0F873
:101EF80000180121C0F8101843F61001C8F20401B7
:101F080081614FF0FF314161816841F001018160D9
:101F1800D0F8041821F00201C0F80418E00718BF2F
:101F2800B0BDBDE8B04003F026BFB1F5005FC7D033
:101F3800CEE7F0B503AF2DE9000FD7E904A98C4629
:101F4800D7E902E803F07F015FEA0C6308D082B1A9
:101F5800012203291BD905211046BDE8000FF0BD59
:101F680072B10122032922D905211046BDE8000FCC
:101F7800F0BD90F88C21910714D4022301212DE0A3
:101F880090F88D2191071ED40223012186E090F854
:101F98008C3102FA01F4234278D005211046BDE8BD
:101FA800000FF0BD510713D40423022116E090F866
:101FB8008D3102FA01F4234200F0B8800521104661
:101FC800BDE8000FF0BD510763D40423022165E08A
:101FD80011074FF0030100F1A48008231A4380F889
:101FE8008C2100F5BC7232F811302BB10122052189
:101FF8001046BDE8000FF0BD032313FA8AF5B0F8C8
:10200800786110234FEA950EBEF1100FB0F87AE10F
:10201800B0F886C1B0F884B17644B0F8704188BF92
:10202800AB08B0F87C51B0F87EE11C443544B0F8F8
:1020380080817544B0F882614544B0F888E1354440
:102048005D4405EB0C06764414FA86F61E36B6F5A2
:10205800A07F2FD822F8113001EB4103002200F8AD
:10206800232000EB8300502361F07F01C370FB68DD
:102078004371BB68A0F8012080F809900172A0F8AC
:1020880006A003711046BDE8000FF0BD43EA040244
:10209800A5E711074FF0030143D408231A4380F83A
:1020A8008D21032212FA8AF4D0E95B6303EB9402D0
:1020B800B24205D9012204211046BDE8000FF0BD47
:1020C800A608D0F87441D0F86851A64288BF3446B3
:1020D800C0E95C24C1EBC10205EB830300EB82007D
:1020E800502280F86F200022C0E920621E0E80F87E
:1020F8007C301B0AA0F86D20826780F86C2080F87D
:10210800759080F87410A0F872A080F8718080F83B
:1021180070E080F87F60A0F87D301046BDE8000FC1
:10212800F0BD01221046BDE8000FF0BD43EA0402ED
:10213800B5E7F0B503AF2DE9000F85B01E4692460E
:10214800884683464FEAC20982B14D464446D4E9DF
:10215800000132464B6A59469847BBF8000040F0E8
:10216800020006282CD10834083DF0D1707A58B303
:10217800BBF8000040F00200062821D1DBF80C0073
:102188000921ABF800100068BFF35F8F002800F04A
:10219800D9809BF8121011F07C0F04D14FF0A040A9
:1021A800012203F0A3F9DBF818000068BFF35F8F82
:1021B800002800F0C7809BF81E1011F07C0F1DD07E
:1021C80005B0BDE8000FF0BD317AB07902294DD0D5
:1021D80001291CD00029CBD1002868D0062856D068
:1021E8000828C5D19BF88E0201210491A7F1260188
:1021F80002380391B0FA80F0400998E04FF0A0400F
:10220800012203F073F905B0BDE8000FF0BDB0B3CB
:102218000A28ADD17588FF2D0DD9BBF8000040F014
:1022280002000628CCD1584605B0BDE8000FBDE82D
:10223800F040FEF7F7BCB9F1000F72D0F8E80201E0
:102248004A6B29469047A9F10809C007F3D0012035
:1022580007F8261C0490A7F1260003A90390584606
:10226800FEF7B6FC05B0BDE8000FF0BD00287FF40E
:102278007FAF708810F00C0F28D0012037E0BBF832
:10228800000004289CD10020ABF8240037E07188B6
:10229800524630885B46CDE900010BF1B400414657
:1022A80000F060F9C0B208283FF462AF88E79BF8F5
:1022B8008C0202229BF88D120492A7F1260240009C
:1022C8000392C0B2084327F8260C32E040F600110A
:1022D80042B200F00700C5F20001B2F1FF3FC8BFEB
:1022E80001F5007141EA40100068C0F34050BBF8A6
:1022F800001004297FF464AFABF824000020BBF879
:1023080006100122ABF80020022928BF0221CBE9E0
:102318002B015846FEF75DF9C0B208283FF428AFF4
:102328004EE701200490A7F126000390002007F84B
:10233800260C03A95846FEF74BFCC0B208283FF408
:1023480017AF3DE748F2CC1048F2F012C0F6000093
:10235800C0F60002222104F047FCD4D4F0B503AF44
:102368002DE9000F81B01E46894683464FEAC20A0E
:1023780082B155464C46D4E9000132460B6A5946AB
:102388009847BBF8000040F0020006282CD108341A
:10239800083DF0D1707A58B3BBF8000040F0020055
:1023A800062821D1DBF80C000921ABF800100068E1
:1023B800BFF35F8F002800F0CA809BF8121011F05D
:1023C8007C0F04D14FF0A040012203F08FF8DBF816
:1023D80018000068BFF35F8F002800F0B8809BF8F2
:1023E8001E1011F07C0F20D001B0BDE8000FF0BD29
:1023F800317AB079B6F80080E9B301291FD00229F3
:10240800CAD101284BD0032808BFB8F1000FC3D1A7
:10241800708810F00C0F40F0928000F083014FF0AC
:10242800A040012203F062F889E04FF0A0400122A9
:1024380001B0BDE8000FBDE8F04003F057B80B2825
:10244800AAD1768846EA0800FF2838D8BAF1000FE2
:1024580061D0F9E8020142468B6B31469847AAF1F0
:10246800080A0028F2D0584601B0BDE8000FBDE8C0
:10247800F040FDF7B9BE013808283FF68DAFDFE818
:1024880000F0060539052D050505410084E7B8F17A
:10249800010F7FF481AF00208BF88C024FE0B8F178
:1024A800000F7FF479AF708810F00C0F47D100F05F
:1024B80083014FF0A040002203F018F83FE0BBF87A
:1024C800000040F0020006287FF48EAF584601B0A5
:1024D800BDE8000FBDE8F040FEF7A4BBA8F101007D
:1024E80080B27F28BFF458AFDBF888024146FEF778
:1024F800C9FB21E0B8F1010F7FF44EAF01208BF842
:102508008C021CE0B8F1000F13D0B8F1010F7FF472
:1025180043AF022011E0B8F1000F10D0BBF8000063
:1025280040F0020006287FF45FAF5846FEF77AFBBA
:1025380032E79BF88E0210B101208BF88E025846C4
:10254800FDF752FEC0B208283FF426AF4CE748F228
:10255800CC1048F2F012C0F60000C0F600022221AA
:1025680004F042FBF0B503AF2DE900078AB0BD685F
:102578000E464FF0FF340190A9B204EB11210E2949
:1025880052D8DFE801F008430D51515151515151D2
:10259800515151514C0001A91846FEF7F4F9FEE0DB
:1025A80029067AD0D7F80C905FFA85FCBCF1040FA5
:1025B80080F08A80D0F8C0110022A1EBC1014FEA57
:1025C800810E1EEB02062FD081181FFA89F50C8B9D
:1025D800AC4200F0CA8016F11C0425D08C8EAC42A7
:1025E80000F0C08016F138041ED0B1F85040AC425B
:1025F80000F0BA8016F1540416D0B1F86C1070329D
:10260800A942DED11044A0F11C01AEE001A802A944
:1026180002901846CDE90362FEF7B6F8BFE0B0F8BD
:10262800CA01B0F5007F29D1188840F002000628B9
:1026380040F0C580D868092119800068BFF35F8F12
:10264800002800F0C180997C11F07C0F06D14FF072
:10265800A04001221C4602F049FF23469869006801
:10266800BFF35F8F002800F0AF80997F11F07C0FD7
:1026780009D008200AB0BDE80007F0BD1846314669
:10268800FEF703F98BE04FF0A040012202F02EFF85
:1026980008200AB0BDE80007F0BDD0F8C01100223C
:1026A800CDE90822CDE906221029CDE90422CDE999
:1026B80002220A4628BF102200294DD002F0030C3E
:1026C800042912D200222FE09846002A6FD006EB88
:1026D800C204D6E900014A464B69294698470028B2
:1026E80057D10836A642F4D161E0910800F15008AC
:1026F800C900A1EB920100224FEA011E02A9A1F133
:1027080008040021451838F801907031AE8E043263
:10271800B5F86CA08E452D8B24F8085F6680A4F868
:102728000490A4F806A0EDD1BCF1000F14D0C2EBC0
:10273800C201BCF1010F00EB810002A9068B21F850
:10274800126009D001EB4201868EBCF1020F4E8067
:102758001CBFB0F85000888002A901AA1846FEF7ED
:10276800C9F91CE01C3100E038319846BCF1010F72
:1027780009D0BCF1020F02D00422084606E001F19C
:1027880008000C2202E001F110001422006870B168
:102798008958CDE9020102A94046FEF74FF9C0B2B7
:1027A800082808BF08200AB0BDE80007F0BDB8F83F
:1027B8000000434640F0020006283FF43BAF0720E4
:1027C8000AB0BDE80007F0BD48F2CC1048F2F0129C
:1027D800C0F60000C0F60002222104F005FAD4D4A5
:1027E800F0B503AF2DE9000F95B0D0F88842064642
:1027F80007A8884615462146FEF762FA96F88E2203
:10280800BDF81C10032A0FD100294FF0000018BF93
:1028180003290FD096F88F22042A00F0088104209B
:1028280086F88E2286F88F020020DFE801F0031177
:102838003207030015B0BDE8000FF0BD032086F88D
:102848008F2286F88E02002015B0BDE8000FF0BD7B
:102858002046FFF770F800204FF48061002D86F8BD
:10286800900286F88C02A6F88E123080E2D008EB2F
:10287800C504A8F1080555F8080F696889698847EB
:1028880005F10800A042F6D1002015B0BDE8000F00
:10289800F0BDBDF82010BDF81E00BDF82220CDE91E
:1028A8000401084340EA020906925FEAC97048D069
:1028B8000698C00726D10498C00708D009A8314651
:1028C800FDF7C8FC9DF82D00052840F0A2800420E3
:1028D8008DF839009DF8390004281BD09DF8370081
:1028E800F8B180282BD1DDE90C120FABBDF8380008
:1028F800CDE90F124146ADF8440030462A46FFF7AD
:1029080018FC1CE00CA83146FDF7BDFD9DF8390008
:102918000428E3D10598C0071CBF3046FDF7CCFE5C
:102928000DE0DDE90C1212ABBDF83800CDE912124A
:102938004146ADF8500030462A46FFF70FFD29F012
:102948000109E800B9F1000FCDE9028501904BD0EB
:102958000398002858D0DDE90110A0F1080A0126E3
:102968004FF0020B00EB010802200546069854467A
:102978001BEA000F0AD054F8080F61688A6A3146CA
:10298800904704F108004045F5D10EE004981BEA91
:10299800000F0AD0544654F8080F6168CA6A3146D5
:1029A800904704F108004045F5D105981BEA000F4F
:1029B8000CD066F07F04564656F8080F71680A6B0B
:1029C8002146904706F108004045F5D129EA0B0950
:1029D8005FEA094008D0102D28464FEA4B0B2E46D7
:1029E80038BF01300F2DC0D9039868B1DDE9011057
:1029F800A0F10805441855F8080F6968C96988479F
:102A080005F10800A042F6D1012015B0BDE8000F7D
:102A1800F0BDDDE90912BDF82C00ADF83800CDE9AC
:102A28000C129DF8390004283FF474AF56E747F6B6
:102A3800946047F6B062C0F60000C0F600021C21A0
:102A480004F078F8F0B503AF2DE9000F85B004461F
:102A5800886800287CD14FF0FF3092F8CFA18860B9
:102A6800002001F10C05CDE902A0032090460E4696
:102A780000902846002101220023FFF75AFA8946D0
:102A8800B168C00701F10101B16079D100295FD1B6
:102A98004FF0FF308021B0600020CDE902A0032074
:102AA8000090284601228023FFF743FAC0077BD114
:102AB800B3684FF44070326806F5D27BA4F81F0063
:102AC800581C002AA177A4F81CA0C4F818B0B0605C
:102AD80044D14FF0FF310028316045D12846B1601C
:102AE800FFF789F9B0680130B06043D34FF0FF3089
:102AF8008021B06004F12400BFF35F8FC6F8A451B1
:102B0800BFF35F8F04F06FFD4FF440704146A4F8A7
:102B1800130004F1B4004FF4EA72C4F8885284F840
:102B28001290A4F810A0C4F80CB004F00EFD002018
:102B3800042184F88E02C4E92B00C4F8A400208084
:102B4800A4F88F12A4F88C0205B0BDE8000FF0BD00
:102B580047F66050C0F6000003F06AFF47F6705071
:102B6800C0F6000003F064FF47F68050C0F600008E
:102B780003F05EFF47F69050C0F6000003F058FFE0
:102B880047F6807047F6C063C0F60000A7F11E0242
:102B9800009047F6D060C0F60000C0F60003202180
:102BA80007F81E9C03F0E3FFB06847F6C063A7F17F
:102BB8001D0207F81D1C0130B06047F67070C0F6A2
:102BC8000003C0F600002021009047F6D060C0F650
:102BD800000003F0CCFF80B56F46007847F6F0623E
:102BE8000B4648F20001C0F60001C0F6000251F899
:102BF800201052F820201846BDE8804003F065BC3C
:102C0800F0B503AF4DF8048D8268012A3ED1C36840
:102C18004269934260D20569D0F818C0EC5C01346F
:102C2800EC540CF1020494422CD80CF580739646AF
:102C3800934238BF9E46A34246D3AEEB0403052B0E
:102C480020D38B790E7A91F807E091F80980022E4B
:102C580089882B5505EB040399704FEA1121D97027
:102C68004FF0010183F804E088BFF11E3601CCB2B1
:102C780046EA8806012C08BF711C59700CF107033D
:102C8800934207D902205DF8048BF0BD07205DF858
:102C9800048BF0BD944528D2072105F80C100CF1DF
:102CA800010191423FBF05226A54836108203CBF5D
:102CB8005DF8048BF0BD48F230030846C0F6000307
:102CC80011461A4603F07CFF48F240032046C0F63E
:102CD8000003714603F0D8FE48F250041846C0F6C7
:102CE80000041146224603F06BFF48F220036046B9
:102CF800C0F6000311461A4603F062FFF0B503AFB1
:102D08002DE9000BD1E920C6A6EB0C06964238BF88
:102D1800324602EB0C0EE6454FD3BEF1800F4CD87D
:102D28001C682568AE6B3668BFF35F8F002E4DD0E8
:102D380095F93E50B5F1FF3F0CDCEDB205F07F058B
:102D4800032D07D805EB450506EB850E9EF80450C4
:102D5800072D06D10521012241700270BDE8000B44
:102D6800F0BD88466144064670469946154602F00D
:102D7800C8F901463046C9B20829ECD121680A8E43
:102D88002946954207D1D9F808204E46454612688B
:102D9800531C022202E0012245464E4676684160F5
:102DA8003668C6E900230023D5F880200370501840
:102DB800C5F88000BDE8000BF0BD48F2700360461E
:102DC800C0F600037146802203F05EFE48F2CC1084
:102DD80048F2F012C0F60000C0F60002222103F00B
:102DE80003FFF0B503AF2DE9000F8BB00D46044685
:102DF800F9689A46286890465BB1002840F0D78069
:102E0800B86807906879069000F10100687131B9D7
:102E18000BE0002900F0BC80002840F0C880386929
:102E28000590687904900130687195F804B0A86835
:102E38000BF101012971002840F0B3804FF0FF30F9
:102E48000821A860FF2005F10C06CDE90210062034
:102E58008021009030460022FFF76BF8AA68C0076F
:102E680002F10102AA6040F0A8802868002840F01A
:102E7800928095F80490002A09F10100287140F029
:102E880090804FF0FF300991A8600020CDE90280C2
:102E980005200090304600210022FFF74AF8AA6872
:102EA800C00702F10102AA6040F09B80002A78D195
:102EB80042464FF0FF30CDF820A09246A86000208F
:102EC800CDE902A0052088460090304680210022E6
:102ED800FFF72FF8C00701BF84F844B04FF4A06093
:102EE800A4F83F0084F83E1001BFA4F83CA005F503
:102EF800D271A16384F8459001BF40F2FF62A4F843
:102F08002720099A84F8262001BF0822A284A4F861
:102F1800330084F8328001BFA4F830A0E162A868C9
:102F2800069B01BFA360089BE360079B01BF236169
:102F3800049B6361FB6801BFA361059BC4E907317A
:102F4800013001BFA8600020A4F84600A07101BFAD
:102F5800A2804FF4165020600BB004BFBDE8000FEC
:102F6800F0BDA86848F2F803A7F11D0207F81D1C78
:102F78000130A86048F21810C0F60003C0F600003F
:102F88000F21009048F20810C0F6000003F0EFFD92
:102F980000283FF44AAF47F6B050C0F6000003F0EF
:102FA80047FD47F66050C0F6000003F041FD47F6C4
:102FB800A050C0F6000003F03BFD48F2281048F28C
:102FC800F803C0F60000A7F11F02009048F20810AD
:102FD80007F81F1CC0F60000C0F600030F2103F01D
:102FE800C6FD48F2181048F2F803C0F60000A7F131
:102FF8001E02009048F2081007F81E1CC0F60000D8
:10300800C0F600030F2103F0B2FD80B56F460078CB
:1030180047F6F0620B4648F2AC11C0F60001C0F664
:10302800000251F8201052F820201846BDE88040D0
:1030380003F04BBAF0B503AF2DE9000F87B0054692
:103048000868002840F0898091F804B00C46886828
:103058000BF101012171002879D1D7F808804FF0D0
:10306800FF30A060402004F10C069246CDE902082A
:10307800062000903046002100229946FEF759FFAD
:10308800A268C00702F10102A2606CD1002A5ED1D9
:1030980004914146C8464FF0FF304FF04009A06008
:1030A800CDF814A04FF0060ACDE9029130468021F0
:1030B8000022CDF800A0FEF73CFFC00701BF85F84D
:1030C800ADB085F8A0A0BA6885F89F2001BF85F843
:1030D8009E10A5F89C9004F5D270C5F8980001BF21
:1030E8000599C5E9291885F894A085F8932001BFAA
:1030F800049985F89210A5F89090C5F88C0001BF46
:10310800022085F8AC00A068002101BF85F889106D
:1031180029600130A06002BF07B0BDE8000FF0BD14
:10312800A06848F2F803A7F11D0207F81D1C01303A
:10313800A06048F22810C0F60003C0F600000F2176
:10314800009048F20810C0F6000003F010FD47F6A2
:103158006050C0F6000003F06BFC47F6B050C0F6B4
:10316800000003F065FC48F2281048F2F803C0F6A6
:103178000000A7F11E02009048F2081007F81E1C74
:10318800C0F60000C0F600030F2103F0F0FCD0B534
:1031980002AF90F8AD3054889C4209D1537A92F826
:1031A80006C0012B05D0002B08BFBCF1060F32D09A
:1031B800D0BDBCF1010F18BFBCF1020F48D108887F
:1031C80040F002000628F3D1C86809220A80006886
:1031D800BFF35F8F002800F085808A7C12F07C0F97
:1031E80007D10C4611464FF0A040012202F07EF9AB
:1031F800214688690068BFF35F8F002872D0897FF5
:1032080011F07C0F18BFD0BD4FF0A0400122BDE8DF
:10321800D04002F06BB95278212A2AD0222A04BF62
:103228000A88042AC4D10122D0E92903CC884FF0A6
:10323800000C0A8001F1A402A34238BF1C4682E8B0
:103248000910C1F8B0400846BDE8D040FDF7C1B943
:10325800BCF1030FACD190F8AC000A8802282ED13B
:1032680042F002000628A3D10846BDE8D040FDF789
:10327800D9BC0A88042A9BD142F20122C378A1F85A
:10328800292042F20912C0F21012D0F8A8004A62AE
:103298000022C1F8AC200124CA8881F82B00000A5A
:1032A8000C80092A81F8283028BF0922C1F8B020EB
:1032B80081F82C000846BDE8D040FDF78AB9042AF9
:1032C8007FF476AFCA88012381F8240000200B80A0
:1032D800002A18BF0122C1E92B020846BDE8D040E8
:1032E800FDF777B948F2CC1048F2F012C0F60000AA
:1032F800C0F60002222103F077FCF0B503AF2DE9F8
:103308000007A0B0137A012B16D190F8AD3056887B
:103318009E4211D19379092B12D00A2B00F0AC8070
:103328000B2B04D190F8AC30022B40F09D8008881C
:1033380040F0020006281DD020B0BDE80007F0BD0F
:10334800158840F2041C94880426B5F5806F6FF048
:103358000703C0F2023C03EA551238BF2CFA02F602
:10336800802C31D90A88002380F8893042F0020085
:103378000628E1D1C86809220A800068BFF35F8F78
:10338800002800F0A4808A7C12F07C0F07D10C463C
:1033980011464FF0A040012202F0A8F821468869A2
:1033A8000068BFF35F8F002800F09180897F11F0DB
:1033B8007C0FC1D14FF0A040012220B0BDE800072A
:1033C800BDE8F04002F092B8814688466846802100
:1033D80004F009F9D8F8B020812A80F08380A2424D
:1033E800C0F08980EA4608F1240150462246EDB231
:1033F80004F0ABF809F104005146802204F0A5F866
:10340800B8F8000089F88960062889F88850C9F852
:10341800844091D1D8F8180041460068BFF35F8F07
:10342800002854D091F91E10B1F1FF3F3FF784AF47
:10343800C9B201F07F0103293FF67EAF01EB4101DC
:1034480000EB8100017907293FF476AF01210022C2
:1034580001F057FEC0B2082804BF0820A8F80000F1
:1034680020B0BDE80007F0BD83782BB91278002A98
:1034780018BF012280F8AC20088806287FF45CAFCA
:1034880088690068BFF35F8F08B391F91E20B2F115
:10349800FF3F3FF751AFD2B202F07F02032A3FF657
:1034A8004BAF02EB420200EB82000279072A3FF49D
:1034B80043AF0C460121002201F023FEC0B20828C8
:1034C80004BF0820208020B0BDE80007F0BD48F206
:1034D800CC1048F2F012C0F60000C0F6000222211B
:1034E80003F082FB47F650531146C0F60003002054
:1034F800802203F0C9FA48F298130020C0F60003AE
:10350800214603F0C1FAB0B502AF84B005460C46B7
:103518000378032295F8AD1040780090204602F019
:1035280007FBC0B208282CD1D5F8A81042F2012018
:1035380027F80C0C4FF48872E878072327F80F2C2B
:10354800A7F10F0207F80D0C080A07F80A1C212139
:1035580007F8090C204602F049F9C0B2082810D132
:1035680095F89400072807D005F18C012046FFF74D
:1035780047FBC1B2082904D195F8A000072802D159
:10358800082004B0B0BD05F198012046FFF738FBCC
:1035980004B0B0BDD0B502AF537A012B07D1137A6E
:1035A800012B02BF90F8443054889C4200D0D0BD13
:1035B8009379212B04BF9288072A28D0088840F0E5
:1035C80002000628F3D1C86809220A800068BFF300
:1035D8005F8FE0B38A7C12F07C0F07D10C4611464E
:1035E8004FF0A040012201F081FF21468869006860
:1035F800BFF35F8F58B3897F11F07C0F18BFD0BD20
:103608004FF0A0400122BDE8D04001F06FBF0A880A
:10361800042ACCD1CA88002390F804C0012490F869
:1036280005E0072AC1F8AC3083790068486208468B
:103638000C8081F8283081F829E081F82AC028BF59
:103648000722C1F8B020BDE8D040FCF7C2BF48F25D
:10365800CC1048F2F012C0F60000C0F60002222199
:1036680003F0C2FAD0B502AF537A012B07D1137A0F
:10367800012B02BF90F8443054889C4200D0D0BD42
:103688009379002B59D0202B0ED0222B2CD11278D5
:103698000B8802F0010480F84640C2F34002062B72
:1036A80080F84720EBD14BE0D1F8B020812A75D2C1
:1036B800062A19D991F8282091F8294091F82AE08A
:1036C800032A4B6AB1F800C003604FF0000380F88A
:1036D80004E028BF1A46052C827138BF2346BCF186
:1036E800060F4371CBD12BE0088840F00200062872
:1036F800C5D1C86809220A800068BFF35F8F002817
:1037080041D08A7C12F07C0F07D10C4611464FF04D
:10371800A040012201F0EAFE214688690068BFF353
:103728005F8F80B3897F11F07C0FA8D14FF0A04044
:103738000122BDE8D04001F0D9BE088806289ED1F4
:1037480088690068BFF35F8FE8B191F91E20B2F174
:10375800FF3F94DCD2B202F07F02032A88BFD0BDBB
:1037680002EB420200EB82000279072A3FF487AF9E
:103778000C460121002201F0C4FCC0B2082804BF95
:1037880008202080D0BD48F2CC1048F2F012C0F6D4
:103798000000C0F60002222103F026FA47F6505333
:1037A8001146C0F600030020802203F06DF9F0B541
:1037B80003AF2DE9000B86B090F8446081460024E1
:1037C800022588460846314602220223CDE90054E4
:1037D800029401F0ACFFC0B2082876D1D9F80C10D9
:1037E800002299F808000223002918BF0121CDE919
:1037F8000054CDE902104046314601F008FFC0B23E
:10380800082862D148F2A8124046C0F600022421D6
:10381800032301F0EBFFC0B2082856D147F67B22FC
:103828004046C0F600022421022301F0DFFFC0B2A7
:1038380008284AD10620A7F11E0207F81D6C24218A
:1038480099F84560032307F81E0C404607F81C6CDE
:1038580001F0CCFFC0B2082837D10120A7F11B0224
:1038680027F81B0C40462421032307F8196C01F0A4
:10387800BDFFC0B2082828D109F120014046FFF752
:10388800BFF9C1B2082920D1D9F81810002299F837
:1038980014000A23002918BF0121CDE90022CDE92F
:1038A80002104046314601F0B2FEC0B208280CD1E1
:1038B80009F138014046FFF7A3F9C1B2082904D13C
:1038C80009F12C014046FFF79BF906B0BDE8000B53
:1038D800F0BD80B56F46002080BD80B56F4680BDC5
:1038E80080B56F46002080BD80B56F46002080BD42
:1038F80080B56F46082080BD80B56F4680BD80B515
:103908006F460830BDE88040FFF744BE80B56F467B
:10391800024640695FFA81FC20B1117C614504BF11
:10392800916980BD107FD2E90831C0B26045184660
:1039380018BF0020002B08BF184680BD80B56F4611
:103948000830BDE88040FFF78DBED0B502AF88B023
:1039580090F84620C9B2914218D100F10801CDE98A
:103968000010D0E90021D0E95634022A18BF0021FE
:103978009C4202910CD1F1B1016C0968BFF35F8FD1
:10398800A9B390F94600B0F1FF3F18DD08B0D0BDEB
:1039980002AB079301AB06936B46028F0593092987
:1039A80088BF013A00F1D80103A805AB92B2FFF72E
:1039B800A5F908B0D0BD0021016008B0D0BDC0B2E3
:1039C80000F07F000328E1D800EB400001EB800005
:1039D80001790729DAD001210022012401F091FBA5
:1039E800C0B2082804BF0198046008B0D0BD48F2EE
:1039F800CC1048F2F012C0F60000C0F600022221F6
:103A080003F0F2F880B56F460830BDE88040FFF754
:103A1800CEBE80B56F460822002182814FF416522F
:103A2800C0E95611C0E93411A0F84E1081738260C4
:103A3800016080BD80B56F4600F00100BDE88040A0
:103A480002F08EB980B56F46ADF6F80D02F07DF93B
:103A580041F20001C2F200010A78002A40F007830F
:103A680001220A7002F07CF902F090F9044602F093
:103A780080F941F20100E207C2F20000017808D1A2
:103A880061B102F078F948F20020C0F6000003F0B6
:103A980064F80029F7D10121017003E001210170C8
:103AA80002F069F913AC342104F1080003F09BFD1E
:103AB80046F600404FF00108C0F2DC2009ADCDE920
:103AC8001B8047F64000C0F27D102146CDE91380E7
:103AD80028468DF8858000F022FB4EF21000CEF2C9
:103AE8000000016821F0040101600D98C0082290CF
:103AF80005F1280000F019FB00240D98C4F2020417
:103B08000A22616802230DF18C09002521F4006165
:103B18006160616A62F30F316162216863F39751F2
:103B28002160616821F480516160616A62F3134128
:103B38006162216848F21022C0F6000263F319613D
:103B480021604FF0A0414523CDE98A0140F20001F0
:103B58004FF48060C2F20001809107218190ADF896
:103B680090008DA88DF8E8118DF8CC118DF8B01162
:103B78008DF894118DF878118DF85C118DF840113D
:103B88008DF824118DF808118DF8FC108DF8F010BF
:103B98008DF8E4108DF8D8108DF8CC108DF8C01081
:103BA8008DF8B4108DF8A8108DF89C104946ADF822
:103BB8002052CDE98655CDE984558C95ADF824522F
:103BC800CDE9825525952395CDF80080FFF732FA87
:103BD800B9AE494606F10800402200230195FFF7D7
:103BE80000F906F150004FF48871B995069003F07A
:103BF800FAFC0DF2E46A4FF4D2710AF11C0003F0EA
:103C0800F2FC32204946C0F200105246CDF8B40802
:103C180040F2EF20C0F60100CDF8A488CDF8B00836
:103C28001020C0F21020CDF8AC0841F2C060C2F2FA
:103C3800DA70CDF8A80840F20940CDF8FC060C204F
:103C4800CDF8F80648F25520C0F60000CDF8F40685
:103C58000F20CDF8F00648F26120C0F60000CDF83C
:103C6800EC0648F27420C0F60000CDF8E406042003
:103C78000890CDF8E8060DF24440FEF7E3FEE06850
:103C8800AB4668F30100E060A7F14000CDF8DC56D0
:103C980000F103090830059006F1D80004900020CF
:103CA800CDF8D856079006E0002800F06E8122A8CB
:103CB8000A2100F0F7F948F2B420A7F14001C0F654
:103CC8000000022247F8340CB9A847F8380C48F22B
:103CD8007820C0F6000047F83C0C8DA847F8400C47
:103CE8000DF24440FEF77CFDEE98BDF81CA3C0F130
:103CF8008001514519D2ED9B191A803151454DD398
:103D0800802B01D180210AE07F2B00F2B881069E2A
:103D1800C21AF118304602F093FFDDE9ED10401A9F
:103D2800CDF8B4B3C0F18001EE905145C0F07D816B
:103D380010EB0A0180F06781802900F26481C6993E
:103D48000968BFF35F8F002900F064819DF81E2386
:103D5800032A18D8C2EBC20201EB820191F8702045
:103D6800072A10D0069A6C3153460244A7F1400046
:103D780001F0D1FA17F8400C012804BF17F83F1CCE
:103D8800002904D028B10025C4F20205D2E00020A1
:103D980001E057F83C0CEE990844EE90DDE9ED019E
:103DA8000025C4F20205814200F0C4800A1A0821E5
:103DB800082A28BF0A4616188642C0F04181812E7B
:103DC80080F03E81069901440DF5DB6003F062FC4A
:103DD8009DF8D816DDF8402408919DF8DA16DDF82C
:103DE8003C040791C2F180010129ED9619D8C0B1B0
:103DF800802801D180210CE07F2800F24881049BB3
:103E0800121A1918184602F01BFFDDF83C14DDF8E9
:103E18004024521A0020CDF83C04C2F18001CDF8AC
:103E2800402402294FF0020638BF0E46A1B1B1184E
:103E38009142C0F00D81812980F00A8104980DF526
:103E4800DB611044324603F025FCDDF84014DDF850
:103E58003C048A19CDF84024DDE9B914022918BFB9
:103E68005C46824222D1002C62D0C9980068BFF318
:103E78005F8F002800F0CE809DF92A13B1F1FF3F33
:103E880058DCC9B201F07F01032953D801EB410185
:103E980000EB8100017907294CD00121002201F0B3
:103EA80030F9C0B2082845D101203FE0BDF81C1305
:103EB800092C88BF01398EB2111AB14238BF0E469B
:103EC80031188142C0F0CC80802900F2C980C9999C
:103ED8000968BFF35F8F002900F09C809DF92A23B1
:103EE800B2F1FF3F26DCD2B202F07F02032A21D8CA
:103EF80002EB420201EB8202117907291AD00499D8
:103F080001441046324601F0FCF8C0B2082811D12D
:103F1800BDF81C03621CDDF83C1486424FF001001A
:103F28003144BA92CDF83C1408BF0220B99001E0A0
:103F3800CDF8E4B22869012121EA000408F0010063
:103F4800A04208D022A8142100F0ACF828696040EB
:103F5800C00718BFA0465FEAC87009D04FF0010833
:103F6800DDE907649DF835020138012809D90CE01C
:103F78004FF00008002400269DF83502013801287A
:103F880003D89DF8E012022934D19DF8D4020728FD
:103F98003FF48DAE0598382103F025FBB3985946B8
:103FA800C9F800B089F804B04FF0000B07F83E4C90
:103FB80007F83F1C07F8406C0068BFF35F8F48B3F1
:103FC8009DF9D212B1F1FF3F3FF771AEC9B201F0CE
:103FD8007F0103293FF66BAE01EB410100EB810045
:103FE800017907293FF463AEA7F14001082201F0E7
:103FF80088F85CE69DF83402C9077FF455AE0028BE
:104008003FF455AEC1E748F2E8038022C0F600034A
:1040180002F03AFD48F2CC1048F2F012C0F6000067
:10402800C0F60002222102F0DFFD48F2900048F2BB
:10403800D802C0F60000C0F60002452102F0D4FD07
:1040480048F270033146C0F60003802202F01CFDDE
:1040580048F280031046C0F60003802202F014FDE7
:1040680048F270038022C0F6000302F00DFDFFF74E
:10407800E1FC48F2F020C0F6000002F06EFD48F2C4
:1040880060021846C0F60002802102F099FD48F24D
:1040980060028021C0F6000202F092FD80B56F46F2
:1040A800FFF7D0FC00684DF68362C4F21B32A0FB18
:1040B8000202900C48434FF47A714843002808BF25
:1040C800704780B56F464EF210016FF07F4CCEF20C
:1040D80000014FF0000E05E00B68801A23F0010381
:1040E8000B6019D06FF07F42604538BF02464A60C6
:1040F800C1F808E00B6843F001030B600B68DB03B1
:10410800EAD40B68DB035CBF0B685FEAC333E3D414
:104118000B68DB03F2D5DFE7BDE88040704780B568
:104128006F46002200F030F880BDB0B502AF40F213
:1041380000240125C4F24724C4F8005401F023FEEA
:10414800002025602060B0BDF0B503AF4DF804BD78
:1041580001F01CFE044601F00CFE40F29C250126ED
:10416800C4F24725C5F8006401F00DFE00202E605A
:104178002860E00705D15DF804BBBDE8F04001F018
:10418800FABD5DF804BBF0BDF0B503AF2DE9000F33
:1041980099B010928A46D1E9002142F2004BC0F250
:1041A800F40B0B90002ADAE9083018BF8B46B0EB05
:1041B8000B0118BF01210F9219400D912AD09AF8CE
:1041C800391001230C91DAE90A68CDE9000111A838
:1041D8005946DAE90C4500F09BFCA5EB080104EA16
:1041E8000600B1FA81F12B46490908400E9016A83D
:1041F80018BF00245946224600F018FC11980228DE
:1042080018BF5FEAC07057D148F20030C0F600000E
:1042180002F0A3FC9AF8390059460C90002301904B
:1042280011A8DAE90A86DAE90C4500F071FCA91B45
:1042380004EA0800B1FA81F12B46490910EA01099C
:1042480016A818BF00245946224600F0EFFBCDF807
:104258003890B9F1000FDDF86090DDF858C018BF4C
:10426800B146464608BF8CF001061198DDE91343B4
:10427800B0F1020E0CBF74464FF0010EDAE90220CD
:104288000A93002A08BF5846002800F0E481ABF1E1
:104298000101CDE908644218B2FBF0F0012835D0DD
:1042A800022830D0002800F0B581C21E032A5ED251
:1042B80004204FF090082BE00E984FF0010EDDE936
:1042C80012B4149B0028DDF858C0DDF8609014BFC4
:1042D800C1468CF0010610980028CFD1ABF1B77019
:1042E8004AF60132A0F55850C0F287429042C5D331
:1042F80048F2103048F26C32C0F60000C0F60002F6
:104308005C2102F071FC4FF0800801E04FF00008DA
:1043180090FAA0F04FF28002B0FA80F0DAE9044691
:10432800C0F2FA222BFA00F5954238BF2A46002C33
:1043380018BF3246002A00F09481681E1418B4FB96
:10434800F2F6012E10D0022E0AD0002E00F06D8158
:10435800F21E032A13D2042402264FF4A0531AE0B3
:1043680002244FF4805316E00124002313E0821F37
:10437800062A80F0098108204FF0A008C8E7B41F7A
:104388004FF4E053062C4FF0100438BF4FF4C053DD
:1043980038BF0824022694FAA4F4B4FA84F425FA5F
:1043A80004F2109C34B94FF28104C0F2FA24A242FC
:1043B80080F01A814EF20014CDE90613CDE90469A4
:1043C800C0F2F554DAE90661A54238BF2C46002E42
:1043D80018BF0C46002C00F04A8120440392B0FB21
:1043E800F4F6012E12D0022E0BD0002E00F02881F8
:1043F800F01E624603280DD2042402264FF4204002
:1044080013E0624602244FF400400EE062460124A5
:1044180000200AE0B11F4FF460401024062938BF7D
:104428004FF4404038BF0824022694FAA4F1B1FAA8
:1044380081F125FA01F9109931B94EF20111C0F252
:10444800F551894580F0DB80069945F2C743C0F2F3
:104458001E1343F60004C4F20204C909A1FB0313A6
:10446800D4F8001409099B0A61F31F1343F4E061AF
:10447800C4F800140F99A1B19AF83810236843EAD8
:10448800814141F4803121602168890309D4216880
:1044980089035CBF21685FEA813102D421688903FE
:1044A800F2D5BEF1000F10D0216841F08071216073
:1044B8002168890109D4216889015CBF21685FEA04
:1044C800811102D421688901F2D5002A4AD0A16855
:1044D8000E9B21F4000163F3D751A1600799A268EC
:1044E80041EA080108434FF6F04122EA0101084376
:1044F800A060102001F041FCA0680D9920F0030095
:1045080000290F9918BF02210844A060DDE909239A
:104518000C9888B1002A5CD046F60040A3F13771A8
:10452800C0F2DC20C01A38BFA1F5D8404DF2C14115
:10453800C0F2010188424CD2DDE9034009FB06F1D3
:104548000B9E6043C6E9081B0899B1600599C6E946
:104558000023C6E90315C6E90549F06119B0BDE8AD
:10456800000FF0BD216841F08061216021680901D8
:10457800ADD4216809015CBF21685FEA0111A6D4A6
:1045880021680901F2D5A2E7A0F10C021C2A03D286
:1045980010204FF0B008BBE6A0F12802382A03D259
:1045A80040204FF0C008B3E6A0F16002602A03D2B1
:1045B80080204FF0D008ABE6C0384FF0F008C02894
:1045C8004FF4007038BF4FF0E00838BF4FF48070E8
:1045D8009EE648F28C4048F2B842C0F60000C0F6A9
:1045E80000022C2102F000FB48F2E43048F21842A5
:1045F800C0F60000C0F60002312102F0F5FA48F2D8
:10460800484048F27C42C0F60000C0F60002312162
:1046180002F0EAFA48F28C3048F2B432C0F60000F0
:10462800C0F60002282102F0DFFA48F28C3048F286
:10463800D432C0F60000C0F60002282102F0D4FAF5
:1046480048F28C3048F23842C0F60000C0F600024A
:10465800282102F0C9FA48F27C30C0F6000002F0C6
:10466800A4FA48F2C430C0F6000002F09EFA48F2FC
:104678002840C0F6000002F098FAF0B503AF2DE923
:10468800000F87B0002A00F0B8810C468A4200F279
:10469800BA814EF6013A41F6007BB4FBF2FEC1F254
:1046A800C93A4FEA5E05CFF60A2B002B03940DD4C6
:1046B80005EB4301B1FBFEFC0CFB0EB1514505D2E5
:1046C8000CFB0EF103264FF0020834E00321A3FB94
:1046D8000116F6B92944B1FBFEFC0CFB0EB151459D
:1046E80005D20CFB0EF104264FF0030823E000214D
:1046F800B1EB937F0DD105EB8301B1FBFEFC0CFB05
:104708000EB1514505D20CFB0EF105264FF00408F9
:1047180011E00521A3FB0116002E40F082802944F8
:10472800B1FBFEFC0CFB0EB151457AD20CFB0EF12D
:1047380006264FF005080595A3FB0645B1FBF8F1E1
:1047480006F101090691C91A48BF4942002D51D105
:10475800059D2C44B4FBFEF404FB0EB5554549D227
:1047680004FB0EF5B5FBF6F5B5EB030B48BFCBF133
:10477800000B594538BF8B46069988BF29460691D4
:1047880084BFB046A446059DB9F1070F37D0A3FBF7
:104798000914002C06F10204029440F08380294495
:1047A8005446B1FBFEFA41F60071CFF60A210AFB26
:1047B8000E11A14227D20AFB0EF15C46B1FBF9F5B6
:1047C800E91A48BF49428B4588BF0C460494069CA9
:1047D80088BF2C46069438BF594688BFC84688BF4C
:1047E800D4464EF6013AC146C1F2C93A029C072C9A
:1047F80014D05DE08B46059DB9F1070FC7D1CDF800
:1048080010B0C146BAE04EF6013A5946CDF810B09C
:10481800C1F2C93AC146029C072C49D18B46059D75
:10482800ACE00621A3FB0116D6B92944B1FBFEFC76
:104838000CFB0EB1514513D20CFB0EF14AF6AB241A
:10484800CAF6AA244FF00609A1FB0414A108B1EB8B
:10485800030B069148BFCBF1000BCDF810B08DE0EB
:104868000721A3FB0116002E40F0D5802944B1FB97
:10487800FEFC0CFB0EB1514580F0CD800CFB0EF117
:1048880044F62516C2F292464FF00709A1FB0656D8
:10489800891B06EB51018D08B5EB030848BFC8F129
:1048A800000898E05946CDF810B0C146072CB5D09D
:1048B800A3FB045441F6007B06F10308CFF60A2B4C
:1048C800CDF80490002C51D1059EAC193546B4FBA7
:1048D800FEF606FB0EB4544520D206FB0EF4029DEC
:1048E800B4FBF5F5B5EB030948BFC9F10009049C11
:1048F800494588BF4C460494069C88BF2C460694BC
:1049080038BF8946DDE9014188BF0C46019488BF5C
:10491800B446059DB8F1070F04D12CE08946B8F1DB
:10492800070F28D0A3FB08142CBB2944B1FBFEF1C8
:1049380001FB0EB454451ED201FB0EF4B4FBF8F58E
:10494800B5EB030B48BFCBF1000B049CD94588BFDE
:104958005C460494069C88BF2C46069438BFCB4618
:10496800DDF8049084BFC1468C4658E78946059D0A
:10497800B8F1070FD6D1CB46DDF804900721A3FB89
:104988000114B4BB039CA2423FD8294441F60074E9
:10499800B1FBFEF1CFF60A2401FB0E44DDF81080CE
:1049A800544517D201FB0EF644F62515C2F292457E
:1049B800A6FB0554361B04EB5606B608F31A48BF87
:1049C8005B42069D9B4581BF984635468C464FF015
:1049D800070900E0069D00218273D2B2C0F810805A
:1049E80080F80F90A0F80CC026C007B0BDE8000FF3
:1049F800F0BD069DDDF81080EDE748F2C840C0F62E
:104A0800000002F0D2F8002B05D448F2D840C0F6D6
:104A1800000002F0CAF848F2E84048F21052C0F626
:104A28000000C0F60002252102F084F8F0B503AFBB
:104A38004DF8048D98B08046D007019156D04DF6B8
:104A480083600293C4F21B30A1FB002648F27F4228
:104A5800C0F21E020A44A2FB0002D50CB5EB964F29
:104A68004BD807A82A46FFF708FE0798022844D023
:104A7800B00C07AE0DF1380C0B9C4ECE854216904B
:104A880007A88CE84E0002A90DAA149101A9139158
:104A98004FF0000112940D9428BF01218DF85C108D
:104AA80013A938BF0135159500F04CFA07AE0DF182
:104AB8000C0C4FCE88E80E008CE80F0043F68400FB
:104AC800C4F2020048F200020168C8F6FF7206F05C
:104AD800E0631140C6F3054266F38E1242EA031200
:104AE8001144016018B05DF8048BF0BD0120C8F8CE
:104AF800000018B05DF8048BF0BD48F2205048F271
:104B08004852C0F60000C0F60002272102F012F851
:104B1800F0B503AF2DE9000F89B08246D7E902CB83
:104B2800D80708BF8C46BBF1000F08BF002824D067
:104B38004DF683630692C4F21B33BCF1000FA1FB50
:104B4800032048F27F42C0F21E0201EB0204A4FBDC
:104B5800033600F0D9814FEA904E4FF68010F50CDD
:104B6800C0F2373084451AD94CF60040C1F6BF1060
:104B7800B0FBFCF020F0010312E0022043F6040130
:104B8800CAF8000043F21000C2F20040C4F2020169
:104B980062F39650086009B0BDE8000FF0BD082325
:104BA80003FB0CF9BBF1000FCDF81C901CBF46F6B7
:104BB8000049C0F2DC29754500F2AC814FF00000D5
:104BC80002F1010238BF01209442C0F091818D4268
:104BD800089300F2938144F240287545C0F20F080B
:104BE80032D22C1874452FD8B1FBF5F07445B9FBB7
:104BF800F0F202FB109214D2002C00F079818C4262
:104C080000F27C81B1FBF4F3601CB9FBF3F606FB00
:104C180013939A4228BF1A4688BF254604468645FC
:104C2800EAD14145C0F06481B1FBFEF0B9FBF0F375
:104C380003FB1090824208D8AE4635B948F2985026
:104C4800C0F6000001F0B1FFAE46B1FBFEF108F17D
:104C58000102A1F57420A0F51070904280F03D810A
:104C6800DDE90708BBF1000F00F0F380B8F1000F91
:104C780000F062814FF2004048F60003C1F206409E
:104C8800C1F22A13B0FBF1F0B3FBF1F300FB01F220
:104C98004CF60040C1F6BF10B0FBF1F64BF2000035
:104CA800C0F6713003FB01F4B0FBF1F0029200FB97
:104CB80001F544F62510C2F29240A2FB0002CDF89D
:104CC80014A04E43079241F60042C0F64E62B2FB72
:104CD800F1F04843B0FBF8F3BCEB030843F234337C
:104CE800C3F2333348BFC8F100080494A0FB03099A
:104CF80046F200034AF6AB20C2F6AA20A4FB000B3A
:104D0800C1F2E36308980024B5FBF0F0BCEB000A9D
:104D1800B3FBF1F048BFCAF1000AC2454FF00003E7
:104D28000190D8BF0123B9EB950F4FEA950098BFC2
:104D3800012481454CF21D70C1F6714008BF1C4624
:104D4800A6FB0003002C1CBF4BF20002C0F6713218
:104D580048F60004C1F22A1403931CBF4FEA9509D0
:104D6800D0460898049BB3FBF0F00023BCEB000589
:104D780048BF6D420198A845049600FB01FA4FF020
:104D88000000D8BF0120CB4598BF012308BF0346C8
:104D9800002B1EBF1446CB464546DDF820800298FE
:104DA80000234FF20049B0FBF8F0C1F20649BCEB12
:104DB80000024FF0000048BF5242079E9542D8BFFC
:104DC80001205E4598BF012308BF0346002BBAFBAC
:104DD800F8F01EBFA1465E462A46BCEB00054FF020
:104DE800000048BF6D42AA424FF00003D8BF01201F
:104DF800B6EBDA0F28BF01234FEADA04A64208BF50
:104E08000346002B46F20003D7F80CB0C1F2E36367
:104E18001EBF4B46344615460498B0FBF8F0BCEB71
:104E280000024FF0000048BF5242DDF814A095423E
:104E3800D8BF0120039AA2424FF0000298BF012276
:104E480008BF02464CF60040C1F6BF10002A18BF42
:104E5800184646F60043B0FBF1F2C0F2DC2302FB31
:104E68000130013898425BD349F681764FF0005300
:104E7800C1F25E66A0FB0660069E002E4FF4403627
:104E880006EBC83618BF4FF0015306F44036B8F1A8
:104E9800000F33440EF03F06334447F6C07606EA67
:104EA8008216334400F0707643EA860343F604061C
:104EB800C4F20206336039D05143800D0122B1FBA0
:104EC800F0F0B1FBF8F1CAE90021CAE902B0CAF86A
:104ED80010E009B0BDE8000FF0BD48F2A85048F254
:104EE800E452C0F60000C0F600023B2101F07CFE4F
:104EF80048F26850C0F6000001F057FE48F27850BA
:104F0800C0F6000001F051FE48F25850C0F600000B
:104F180001F04BFE48F28850C0F6000001F01DFE7B
:104F280048F2F450C0F6000001F03FFE48F2046079
:104F3800C0F6000001F039FE48F21460C0F6000027
:104F480001F033FEF0B503AF2DE9000F9BB00B7CE9
:104F5800DB0768D1D1E902AEF24564D801909346E7
:104F6800D1E90001CDE9021034D20FA800F11C09E3
:104F780002985246F0460368039801680AA8FFF7AA
:104F88007CFB5A46DDF838C092E87B000DF13C0EF8
:104F98000AF1010A8EE87B000AABC6460FCB0DF179
:104FA80010080F9ECDF854C0CDF868C066450DF1C5
:104FB8003C0C89E80F0088BF0CF1180C41469CE8AE
:104FC8007D00DC46D6457DC1414691E87D008CE8F0
:104FD8007D00CDD159460DF13C0891E87D00C446CD
:104FE8008CE87D00724602980368039801680AA855
:104FF800FFF743FB0AAEDDE90E050DF1540C1A90DC
:105008004ECE85428CE84F0088BF08F118080DF194
:10501800100C98E87D0061467DC158469CE87E00EA
:105028007EC05A46019892E87A1080E87A101BB040
:10503800BDE8000FF0BDF0B503AF2DE9000B867A8F
:105048001EB10020BDE8000BF0BDD0F804C094B23A
:10505800B4EB8C0F03D90220BDE8000BF0BD04F1BE
:10506800030EBCEB9E0F42D3160438D0661ED0F850
:1050780000C0F54315F00C0F65461BD04FF480585F
:10508800654651F8089016F00C0F45F8049B11D0AE
:1050980051F80850CCF8045006F00C05042D02D144
:1050A8000CF1080506E04FF480554D59CCF808502E
:1050B8000CF10C050D2C12D32EF00306103DB44450
:1050C8004FF480540E5945F8106F0E596E600E5902
:1050D800AE600E59EE6005F110066645F2D1012169
:1050E80002818172C3720820BDE8000BF0BD48F24E
:1050F80064634FEA9E01C0F600030020624601F097
:10510800C3FCF0B503AF4DF8048D82B0057AD0F832
:1051180000C015F07F050CEB451404F5106403D0AE
:105128002368B3F1FF3F0EDDC088824204D9022014
:1051380002B05DF8048BF0BD52B1A069D31C80B2F7
:10514800B0EB930F04D2002002B05DF8048BF0BDE1
:1051580042F4002020612068102D40F004402060B7
:105168004ED24FEA05380CF58055042A07D3A2F130
:10517800040C6FEA0C0313F00C0F02D11CE00B4671
:105188002FE00B461CF00C0F53F8040B48F80500F1
:1051980009D0486845F808000CF00C00042805D12F
:1051A8000831083A07E01946624605E088680C317C
:1051B8000C3A45F808000B46BCF10C0F11D30B460E
:1051C800103A18685968032A9C68DE6803F11003CE
:1051D80045F8080045F8081045F8084045F8086003
:1051E800EED842B100201946019001A802F052FA07
:1051F800019845F80800082002B05DF8048BF0BD5E
:1052080048F2746048F29462C0F60000C0F60002EA
:105218001F2101F0E9FC80B56F4684B0017A11F0D6
:105228007F011BD04FF070720379D0F800C002EAFA
:10523800815EC0880122022B88BFDA1ED2B20CEB35
:1052480041114EEA82426FF3DF20104440F0C05013
:1052580040F40040C1F8000904B080BDB0F806C0B1
:10526800ACF1080293B2520342EAD3039AB2072A76
:1052780012D8DBB28B21D940C9071FBF006847F697
:105288001071C0F6000151F822101FBFC0F80019B4
:10529800C0F810C904B080BD45F6717048F2A46228
:1052A800C0F6000002A90390A7F10A00029047F691
:1052B8007D20C0F60000C0F6000227F80ACC01F0F5
:1052C80099FCB0B502AF044600F060FD054600F059
:1052D80050FDE068E9070DD16FF00041884214D213
:1052E800A07E012812BF0024E07E441C00F043FD8C
:1052F8002046B0BD6FF00041884206D2A07E01284A
:1053080012BF0020E07E0130B0BD48F2B460C0F6A4
:10531800000001F0A3FBF0B503AF2DE9000F81B049
:105328001E4614468B46814600F030FD804600F04C
:1053380020FDDBF80C0000285BD19BF81A004FF029
:10534800FF31CBF80C1028B1BBF818A0564506D28F
:10535800022000E0002089F80100012032E0BAF1C3
:10536800040F18D3AAF104010120DBE904ECB50805
:1053780000EB9100002152468C4549D05EF821305F
:105388008D422DD0013144F8043B043A043E884252
:10539800F2D11AB911E00020524672B1DBF81410AC
:1053A80088423DD2DBF81010B24251F8200000903C
:1053B80025D86946204602F06DF90020C9F804A0F6
:1053C8008BF81A00002189F800005FEAC870CBF852
:1053D8000C1008BF00F0CFFC01B0BDE8000FF0BD15
:1053E80048F254630020C0F600030421324601F05D
:1053F8004BFB48F2C460C0F6000001F019FB48F20C
:1054080034631146C0F600030020324601F03CFB2D
:1054180048F244626046C0F60002614601F0D0FBE3
:1054280048F22462C0F6000201F0CAFB017A11F0CA
:105438007F0115D0D0F800C001220379C0880CEB99
:105448004111022B88BFDA1ED2B26FF3DF2040EA87
:10545800824040F0144040F40040C1F8000B70470F
:10546800C188A1F1080293B2520342EAD3039AB267
:10547800072A23D85FFA83FC8B2323FA0CF3DB0774
:105488001FBF47F63073C0F60003006853F82220A8
:105498001FBF41F20003C0F2400363F3DF11C0F8FD
:1054A800101B1FBFD0F8001B4FF6FC73C7F6FF3365
:1054B80019401EBF1143C0F8001B704780B56F46E6
:1054C80084B045F6717048F2D462C0F6000027F83F
:1054D8000A1C0390A7F10A00029047F67D2002A952
:1054E800C0F60000C0F6000201F084FBF0B503AF7F
:1054F8004DF8048D90464FF410620D4649B2B1F153
:10550800FF3FC8BF4FF43062141800F03FFC064656
:1055180000F02FFC05F07F004001215821F4001114
:1055280068F355512150F00705D15DF8048BBDE8AB
:10553800F04000F020BC5DF8048BF0BDF0B503AF7F
:105548004DF804BD91F8D131012591F8D06191F859
:10555800D241002B91F8D311D0E9052C0CF1020EA1
:1055680001770CF10401C0E900516FF07F0518BF05
:105578006FF03F0596451CD80CF580731146934291
:1055880038BF1946734532D3A1EB0E01072910D352
:1055980045EA441104694FF0807344F80E3004EB77
:1055A8000E03597100219E7119710CF10903934280
:1055B80003D902205DF804BBF0BD94451ED2092131
:1055C80004F80C100CF1010191423FBF0222625411
:1055D800836108203CBF5DF804BBF0BD48F2F4636A
:1055E8000846C0F6000311461A4601F0E9FA48F2E7
:1055F80004737046C0F6000301F046FA48F2E4630B
:105608006046C0F6000311461A4601F0D9FAF0B513
:1056180003AF2DE9000B9446120601D042690AE057
:105628000268012A3AD14468426994425CD2066908
:10563800355D01353555D0F818E04FF00108D7E948
:1056480004490EF10405002CC0E9028508BFA146F3
:105658000EF1020494421DD80EF580761546964246
:1056680038BF3546A64237D32D1B072D12D30569FF
:10567800D7E9028629552919CB7000238B700EF1C2
:105688000903934281F806904E7181F8048081F8ED
:1056980001C007D90220BDE8000BF0BD0720BDE816
:1056A800000BF0BD964528D2092105F80E100EF121
:1056B800010191423FBF04226A54836108203CBF24
:1056C800BDE8000BF0BD48F2F4630846C0F60003DD
:1056D80011461A4601F074FA48F204732046C0F6DF
:1056E8000003294601F0D0F948F214732046C0F6A9
:1056F800000311461A4601F063FA48F2E463704663
:10570800C0F6000311461A4601F05AFA4269032A04
:1057180081BF016980694880704780B56F4648F24B
:1057280024730220C0F60003042101F0ADF9F0B59E
:1057380003AF2DE9000B067F012E39D19046D7E93A
:105748000446D0E9052C0CF1020E002C08BF2646B1
:1057580096451DD80CF580751446954238BF2C46E1
:10576800754529D3A4EB0E04062C11D30469D7E997
:10577800029504F80E1004EB0E018B700CF108036F
:1057880093424E710D7181F8039081F8018003D91D
:105798000220BDE8000BF0BD944515D2082104F89D
:1057A8000C100CF10101914217D20B228361625453
:1057B8000820BDE8000BF0BD48F204737046C0F63F
:1057C8000003214601F060F948F2E4636046C0F640
:1057D800000311461A4601F0F3F948F2F46308464B
:1057E800C0F6000311461A4601F0EAF9F0B503AF16
:1057F8002DE90007D0E9058A04460AF10200404570
:1058080018D80AF580754646454538BF2E46854264
:105818002BD3361AB3420DD8264624698946114639
:1058280020441A461D4601F035FFA81C0AEB00016A
:10583800414503D90220BDE80007F0BDC2451CD28E
:1058480004F80A000AF1010040453FBF04F800903F
:10585800B1610820BDE8000738BFF0BD48F2F46226
:105868004146C0F6000201F0ABF948F20473314634
:10587800C0F60003424601F007F948F2E4625046D8
:10588800C0F60002414601F09BF9F0B503AF2DE9DF
:10589800000F89B08E68D1F8C0210D69002E0B6801
:1058A80018BF0226002D18BF0125002B18BF03239F
:1058B8009146002A12BF4FF0010913461646D0E957
:1058C800052E0EF10208904506D94FF0020C6046ED
:1058D80009B0BDE8000FF0BD0EF5807494469442FF
:1058E80038BFA44644455DD3ACEB08044FF0020C26
:1058F800102CECD391F8CF41089409EA05040494DC
:1059080091F8CE41059491F8CD41069491F8CC4197
:105918000794B1F8C6A1B1F8C491B1F8CA41B1F879
:10592800C811D0F810B00D0A03954FEA1A250BF8E4
:1059380008400BEB080402954FEA1925019501254B
:10594800A172029961720199A373049BE17108998C
:105958002373039B61710599E3720EF112032171A0
:1059680093420699E1700799E573667384F808A075
:1059780084F80690A17084F801C0A8D8964519D279
:1059880012210BF80E100EF1010191421BD20122D7
:105998004FF0080C0BF801208361604609B0BDE8A0
:1059A800000FF0BD48F204734046C0F6000361469C
:1059B80001F06AF848F2E4637046C0F60003114645
:1059C8001A4601F0FDF848F2F4630846C0F60003F1
:1059D80011461A4601F0F4F8F0B503AF2DE9000FAF
:1059E80083B096460646D0E90520831C934204D925
:1059F800022003B0BDE8000FF0BD904280F0878020
:105A0800356900232B54431C934280F0888002960A
:105A18000326EE542B1801EB0E0B03F1020C019533
:105A280000254FF0000A4419BAF1000F04F1020EE4
:105A38000BD10EE02CF805A00235CA4641464419A0
:105A4800BAF1000F04F1020E03D04FF000098846A6
:105A580042E0594550D0884618F9013BB3F1FF3F61
:105A68005FFA83FA36DC4E780AF01F08BAF1E00FC5
:105A780006F03F0620D38B78BAF1F00F03F03F030E
:105A880043EA86161DD3CB7803F03F0343EA861317
:105A980008F0070601F1040843EA86490021B1EB42
:105AA800194F16D009F57F01372363F39F294FF467
:105AB800584343EA912A0FE046EA881A01F102089E
:105AC80008E046EA083901F103080021B1EB194F53
